:020000040800F2
:10000000002000101DEF0008D5DD0008D7DD000836
:10001000D9DD0008DBDD0008DDDD000800000000A0
:10002000000000000000000000000000DFDD00080C
:10003000E1DD000800000000E3DD0008E5DD000868
:1000400091F0000895F0000899F000089DF0000874
:10005000A1F00008A5F00008A9F00008ADF0000824
:10006000B1F00008B5F00008B9F00008BDF00008D4
:10007000C1F00008C5F00008C9F00008CDF0000884
:10008000D1F00008D5F00008D9F00008DDF0000834
:10009000E1F00008E5F00008E9F00008EDF00008E4
:1000A000F1F00008F5F00008F9F00008FDF0000894
:1000B00001F1000805F1000809F100080DF1000840
:1000C00011F1000815F1000819F100081DF10008F0
:1000D00021F1000825F1000829F100082DF10008A0
:1000E00031F1000835F1000839F100083DF1000850
:1000F00041F1000845F1000849F100084DF1000800
:1001000051F1000855F1000859F100085DF10008AF
:1001100061F1000865F10008EDDD000869F10008F3
:100120006DF1000871F1000875F1000879F100081F
:100130007DF1000881F1000885F1000889F10008CF
:100140008DF1000891F1000895F1000899F100087F
:100150009DF10008A1F10008A5F10008A9F100082F
:10016000ADF10008B1F10008B5F10008B9F10008DF
:10017000BDF10008C1F10008C5F100080000000051
:10018000C9F10008CDF100082DE9FE4F0500002D52
:1001900008D1DFF87C3C8322DFF8D417DFF8D407DE
:1001A00001F03AFDDFF86C6C6868306068891428EB
:1001B00004DA280001F084FFBDE8F78FDFF8B87794
:1001C0003968786902F09AF9002804D1387D10F076
:1001D000F000E02800D1ECE73068808902F0B4F943
:1001E00080B2000B81000800C0B2142805DB28890A
:1001F0000A00D2B292B2904200D2DAE7DFF87C472E
:100200000800C0B214382080DFF874870020C8F8D6
:10021000000068890A00D2B292B2904208D32088C6
:10022000DFF860271080C9B2280001F0FCFE46E02C
:100230002868002808D1DFF8D83BC222DFF8481729
:10024000DFF8300701F0E8FC1421280001F0EBFE94
:10025000DFF8300769890180218804880C1B018838
:10026000280001F0E0FE28684089210089B2884218
:100270009FD328684068C8F80000210089B2286828
:1002800001F0D1FE2889041B2C816889002808D040
:10029000DFF87C3BDF22DFF8F416DFF8D80601F048
:1002A000BBFC288929680989884208D0DFF8603BAF
:1002B000E022DFF8DC16DFF8BC0601F0ADFC3068A8
:1002C000008802F041F9316808803068408802F007
:1002D0003BF9316848803168486802F03DF931687F
:1002E0004860DFF84C1C08603168886802F034F917
:1002F00031688860DFF83C8CC8F800003068C0893D
:1003000002F022F93168C8813068808902F01CF956
:1003100010F03F00DFF87C160870DFF81C9C28897D
:10032000A9F80000DFF86C06007810F0030F0AD07F
:10033000B9F80000401CA9F80000B9F800002989AC
:100340008842FFF436AF5FF0000BDFF8F0ABDAF86D
:10035000004001E0A346E468002C67D0207D00281F
:1003600008D1DFF8AC3AFB22DFF82C16DFF80406E0
:1003700001F052FC207D0A2808D1DFF8943AFC22D3
:10038000DFF81816DFF8EC0501F046FC207D0128A7
:1003900008D1DFF87C3AFD22DFF8A41BDFF8D40592
:1003A00001F03AFC207A002809D0207A796891F887
:1003B0003010491CC9B2884201D0A346CBE7208B3C
:1003C000316809888842C5D1E08A31684988884205
:1003D000C0D1606839698842BCD120687969884297
:1003E000B8D1E068A04209D1DFF8243A40F20D12FA
:1003F000DFF8501BDFF87C0501F00EFCBBF1000FAD
:1004000007D0E068CBF80C00DAF80000E060CAF82A
:100410000040E068A04209D1DFF8F43940F215123B
:10042000DFF8C41BDFF84C0501F0F6FB002C71D19E
:10043000DFF8B80B046808E0207A796891F830108A
:10044000491CC9B2884212D0E468002C28D0207D13
:100450000A2809D0DFF8B83940F21F12DFF8901BE4
:10046000DFF8100501F0D8FB207A0028E4D1208BBA
:10047000316809888842E7D1E08A31684988884232
:10048000E2D1606839698842DED1206879698842A2
:10049000DAD1200000F01BFA280001F011FE8BE6F3
:1004A0000022DFF8503B186806E0002823D00168DE
:1004B000002920D00200C06800281CD0017A002941
:1004C0000CD0017AD7F804C09CF830C01CF1010CA4
:1004D0005FFA8CFC614501D00200ECE7C18AD6F8D6
:1004E00000C0BCF802C06145E4D10168D7F814C06F
:1004F0006145DAD1FFE700280CD0002A04D0C1689A
:10050000D1601968C160186000F043F9280001F05B
:10051000D7FD51E6002C00F0F080DFF88C7B002046
:100520003860288938817D603068F860DFF87C6B3E
:1005300000203060DFF8788B002088F80000DFF8BA
:1005400074BB0020ABF80000DFF848040078000717
:1005500003D5687B50F001006873A06F002813D0AA
:10056000200002F07DFE10F10D0F06D0A06F0028D4
:100570000AD0B9F80000002806D0608D002802D10A
:10058000200004F053FDA9E0DFF82C5B2C60200074
:1005900000F006FA40B210F10D0F00F09F8098F8BD
:1005A0000000000711D5D4F89000002805D07FF096
:1005B0000D012069D4F8902090472100504603F0A7
:1005C000BBF8200001F0E1FF88E00020BBF800004C
:1005D000002815D0BBF80020D4F88000002806D0F1
:1005E00092B221002069D4F88030984700E00020C2
:1005F0007FF00C0140B2884270D00020ABF80000C0
:10060000200000F09BF8002868D13068002833D023
:10061000A06F002809D0DFF8F8374FF4F372DFF845
:100620009C1ADFF8500301F0F7FAA07EC00606D549
:10063000306801F045FD200002F0AEF94EE0D4F83C
:100640008400002807D00023326821002069D4F8F4
:1006500084C0E04705E0002332682100002002F05A
:10066000A4FE01007FF00C0249B2914236D040B2A4
:10067000002801D03068A06798F80000800608D5EF
:10068000A06F00280DD0A06F407B50F02000A16F1C
:10069000487300202860200000F050F800281AD08D
:1006A0001CE0208DB0F5066F02D0208D401C208507
:1006B000D4F88400002807D00023002221002069FC
:1006C000D4F884C0E04700E000207FF00C0140B285
:1006D0008842DED102E0200004F02AF80020DFF892
:1006E000D8190860002030607868002825D0786824
:1006F00001F0E6FC002078601FE03068808901F09E
:1007000023FF400716D43068008802903068408884
:10071000019017F11000009017F11403DFF8100892
:100720000068B9F8001010FA81F2D8F80010002023
:1007300004F031FC280001F0C3FC3DE510B50400D5
:10074000002C08D1DFF8C83640F25A22DFF87019C1
:10075000884801F061FADFF858090078C00616D51C
:10076000A07EC00609D4D4F89000002805D07FF000
:100770000E012069D4F8902090472100DFF8BC07D3
:1007800002F0DAFF200001F000FF012000E000206D
:1007900010BDFEB505007F4C2078400700F1968023
:1007A000002D08D1DFF8683640F28122DFF81419F5
:1007B000704801F031FA2078C0061BD56E48DFF88A
:1007C00054160A681288029209684988019110F14A
:1007D0001001009110F11403DFF854070068DFF8EE
:1007E000581709884218DFF84C070168280004F000
:1007F000D2FB6BE02078800768D5687D02F096FE1A
:100800000400002C0CD1A869002806D05FF0FF324C
:1008100000212869AB69984701E07FF00F0055E09F
:1008200055484169216000696060E88AE082DFF82C
:10083000E46530680088208303202075DFF8F076B7
:100840003868401C6062606AE062200002F0D8FFF5
:10085000A06520656064E0653868401E60652869B1
:100860002061E567687A10F00C006072287A2072C7
:10087000DFF8C8060168E160046004F02CFD012087
:10088000DFF844180870200001F038F93068C0899A
:10089000A4F86000B4F86000A4F86200201D04F021
:1008A000C5FD0100221D608E02F0C4FF608612218A
:1008B000200003F069FE40B2002804D0002120008F
:1008C00001F0E3FF02E0200003F032FFF7BD3EB588
:1008D0000400304D2878400748D4002C08D1DFF8B8
:1008E000303540F2EE22DFF8E417224801F094F9A7
:1008F0002878800727D5DFF838160A68606A121A48
:10090000002A27D40A68606A121A208D121A012A56
:1009100020DA1948DFF8FC2413681B880293126858
:100920005288019210F11002009210F1140308682D
:10093000DFF8041609884218DFF8F805016820007E
:1009400004F029FB12E02878C00703D5DFF8800700
:1009500000682062DFF8E0050088002806D0608B80
:1009600050F002006083200003F0E2FE37BD00007B
:1009700074EB000854DB000820840020EC84002085
:10098000C0840020EE840020ACEE00082CF00008AB
:10099000A4E30008008500207CDB000838D60008AE
:1009A0007FB5050000240020002D09D1DFF8603458
:1009B0004FF44772DFF81C17DFF81C0701F02CF921
:1009C000DFF8246A3078400742D5287D022807D115
:1009D000DFF860050068296D884219D1012417E00D
:1009E000DFF84C1508686A6A904201D101240FE0D3
:1009F0000A68686A121A002A0AD40968686A091A19
:100A0000288D091A012903DA688B50F002006883E7
:100A1000E4B2002C1AD0287D002809D1DFF8F03389
:100A20004FF44E72DFF8B416DFF8AC0601F0F4F8BC
:100A3000DFF87C06017851F008010170698B4FF6F0
:100A4000FE70014069837FF00D006EE200206CE2D1
:100A5000307880070BD5287D022808D0287D032810
:100A600005D0688B50F00200688300205DE2A87E0C
:100A7000C00603D4DFF8580600682862002085F815
:100A80009B00002085F89A00280001F037F8287DA7
:100A9000022814D0C0F04882042800F07081C0F011
:100AA000D280062800F0CD81C0F07881082800F0BF
:100AB000F681C0F06481092800F0228234E23078A7
:100AC00010F01200122840F09680DFF868140868D1
:100AD0006A6C521C904240F08E80DFF85404026829
:100AE000521C6A626A6AEA6209686964DFF8241360
:100AF0000968C989A5F86010B5F86010A5F86210FA
:100B00000068401E686504202875281D04F08EFCCE
:100B100001002A1D688E02F08DFE688641F21D10CC
:100B2000698E4900814202D3698E490001E041F299
:100B30001C116A8E92008A4203D2688E80B28000B5
:100B400009E0698E4900814203D3688E80B240007B
:100B500001E041F21C10A5F84800B5F86600002835
:100B600008D1AB4B4FF45B72DFF87415DFF8680502
:100B700001F052F8B5F86600401EA5F866002C6F2B
:100B8000002C0ED1EC6E002C08D1A14B4FF45D72FD
:100B9000DFF85015DFF8400501F03EF82068E86600
:100BA00001E020682867200002F0BFFB286F0028C2
:100BB00003D15FF0FF30288604E000202886002063
:100BC00085F84200D5F88800002807D000222900C7
:100BD0002869D5F888309847010000E000217FF0AF
:100BE0000C00020049B2914200F09F81688B50F0E6
:100BF0000200688326E03078C00623D5DFF8E804D9
:100C000084490A681288029209684988019110F1A2
:100C10001001009110F11403DFF814030068DFF8ED
:100C2000181309884218DFF80C030168280004F043
:100C3000B2F995F84200062804DA00202886280038
:100C400004F008F870E13078C00640F18B80B949B3
:100C50000A68686C121A521E002A6BD40A68286D42
:100C6000121A012A66DA04202875E86F002802D1DA
:100C70007FF005011AE0E86F8069002808D1644B15
:100C80004FF46A72DFF86414DFF84C0400F0C4FF1C
:100C9000E86F8069002807D0002229002869EB6FDF
:100CA0009B699847010001E07FF00F01080040B206
:100CB000002809D049B211F10D0F02D0280001F02F
:100CC0006BFE7FF00C0030E1280000F011FADFF835
:100CD000E4130888002802D00888401E088041F2EA
:100CE0001D10698E4900814202D3698E490001E0DE
:100CF00041F21C116A8E92008A4203D2688E80B241
:100D0000800009E0698E4900814203D3688E80B279
:100D1000400001E041F21C10A5F84800DFF8900304
:100D2000007880062AD5688B50F00200688307207F
:100D3000287523E0DFF8B003364A13681B88029356
:100D400012685288019210F11002009210F11403FF
:100D500077480068784A128882180968280004F0E9
:100D60001AF90BE03078800708D571480068696A85
:100D7000491E884202D1280003F088FFD4E02800F1
:100D800000F0B6F9DFF828030078800605D5688BF7
:100D900050F00200688307202875C5E0280000F0A5
:100DA000A7F9C348007880063DD53078C00633D512
:100DB00060480068296D88422ED1E86E00282BD14A
:100DC000688B50F002006883280002F079FC5B48D1
:100DD0000168A94203D10168C968016009E000689F
:100DE00000E0C068002804D0C168A942F9D1E968D0
:100DF000C1600020E8600120B34908700A2028750E
:100E00007A480168E960056004F065FA18E000BFFF
:100E10004CC90008BC840020688B50F00200688335
:100E2000082028750CE03078C00609D541480068D4
:100E3000296D884204D1E86E002801D1062028756A
:100E400072E0280000F054F999480078800625D512
:100E5000688B50F002006883280002F031FC3748AC
:100E60000168A94203D10168C968016009E000680E
:100E700000E0C068002804D0C168A942F9D1E9683F
:100E8000C1600020E86001208F4908700A202875A1
:100E900056480168E960056004F01DFA44E0280046
:100EA00000F026F93078C00629D522480068296D5F
:100EB000884224D1E86E002821D1280002F000FCED
:100EC0001E480168A94203D10168C968016009E0B0
:100ED000006800E0C068002804D0C168A942F9D1C8
:100EE000E968C1600020E8600120774908700A20A5
:100EF00028753E480168E960056004F0ECF913E0EC
:100F0000280000F0F5F83078C0060CD509480068D4
:100F1000296D884207D1E86E002804D16448017821
:100F200051F010010170FFE7002004B070BD000017
:100F3000C4840020C8840020F4840020B0840020F1
:100F4000A4DB000864D6000838B505000C00002DAD
:100F500008D1DFF8503C40F21F42DFF89C1B5E488E
:100F600000F05AFEE868808901F0EEFAC00716D555
:100F7000200002F0D1F9002434E0E068808901F01B
:100F8000E3FAC00707D5012001F0DEFAE968898994
:100F90000843E96888812000246802F0C6F9002C23
:100FA0000BD0E0684168DFF8000C00682A898018DF
:100FB000411A2089091A0029DFD5002C12D0E068D7
:100FC0004168DFF8E40B02682B89D218511A012915
:100FD00008DBE26851680068091A29812989686874
:100FE00000F080FF2C6031BD90D60008B484002052
:100FF0001CD40008AC8400202DE9F04106000C0050
:101000001D0033E027002468786801F0C6F88046A8
:10101000B6F86600414689B2884208D2DFF8843BC0
:1010200040F25742DFF8841B2B4800F0F5FDB6F87C
:101030006600B0EB0808A6F866801E490A88388961
:1010400082180A80380002F070F9B6F866000028AD
:101050000CD0002C0AD1002D08D1DFF8483B40F21B
:101060006242DFF84C1B1C4800F0D6FD002C17D064
:10107000E168486801F070FA0700E068808901F0D3
:1010800063FA10F0030F01D0012100E00021208954
:1010900038180918DFF81C0B0068091A0129B1DBA0
:1010A0002000BDE8F081000038840020CC840020BE
:1010B00001850020F2840020D0840020D4E80008BC
:1010C000CCDB0008C4E30008FD840020E4E3000852
:1010D000A4840020F0E8000854DB000804E40008C1
:1010E0008CEB00087CED00082084002024E400083C
:1010F0002DE9F84306000024002E09D1DFF8A43AB8
:1011000040F27B42DFF8B01ADFF8B00A00F084FD4D
:10111000307D042809DADFF88C3A40F27C42DFF8AF
:10112000A01ADFF8980A00F077FDAF480078C006F3
:1011300040F19B81B6F86000B16D0918DFF8682AAC
:10114000736D10681B1A002B18D4706D13689842C9
:1011500006D1B36DDFF85C0A00681B1A002B0DD4B2
:10116000B06DDFF8503A1B6898421DD1B6F86000A8
:10117000DFF8503A1B68DB89984215D2DFF8440A41
:101180000068C089A6F86000B6F86200B6F8603062
:10119000984203D2B6F86000A6F862001068706545
:1011A000DFF8100A0068B065DFF8085A2A68706C2A
:1011B000121A012A46DADFF8100A008800283AD10C
:1011C000B06DB6F860208018884234D1B6F930008E
:1011D000002830D4706C296888422CD1012496F8FC
:1011E000430096F84310491CC9B2884204D296F8CD
:1011F0004300401C86F8430096F84300042813DBA4
:10120000B6F84810708E4118B6F8480089B281428D
:1012100006D3B6F84810708E4118A6F8481003E0BF
:101220004FF6FF70A6F8480096F84300032802DB4B
:10123000300003F077FD002C40F0EA80002086F8B3
:101240004300E5E02968706C091A491E002900F185
:10125000DC802968306D091A012980F2D680B07EC1
:1012600040070BD5718B4FF6FB7001407183B6F8C8
:101270004A00A6F848000020A6F86A00002086F878
:101280004200B6F93C00C010B6F93E104018A6F86E
:1012900040002868716C411A002086F843002868D5
:1012A0007064307D04285EDBB6F84800B6F84A204A
:1012B000904225D2708B000501D5012200E0022268
:1012C0000B001400E4B2708E44439BB2A4B2A3425C
:1012D00003D3D2B2708E12FB00F1B6F848000818A2
:1012E000B6F8482080B2904205D3B6F848000918F5
:1012F000A6F8481003E04FF6FF70A6F8480032E069
:10130000B6F86A000818B6F86A2080B2904205D391
:10131000B6F86A000918A6F86A1003E04FF6FF70E5
:10132000A6F86A00B6F86A00B6F8481088421AD3E0
:10133000B6F86A10B6F84800091AA6F86A10B6F8A6
:101340004810708E4118B6F8480089B2814206D321
:10135000B6F84810708E4118A6F8481003E04FF612
:10136000FF70A6F84800F36EDFF86028316F300098
:10137000FFF742FE3067336FDFF85428F16E30001C
:10138000FFF73AFEF066306F002803D15FF0FF30C0
:10139000308601E00020308600203077F06E002893
:1013A00002D10020A6F86800B6F86410DFF824081F
:1013B00000884118A6F86410708B000528D5306F9E
:1013C000002813D1F06E002808D0F06EC16848687C
:1013D00001F0C2F8F16C081A012819DA718B4FF28A
:1013E000FF700140718313E000850020306FC168F9
:1013F000486801F0B1F8F16C081A012808DA718B1D
:101400004FF2FF700140718302E0300003F00EFEE6
:10141000706B002829D0B16B2868091A002924D5DF
:10142000DFF8B4070168706B081A00B2B6F93C1017
:10143000B0EBE100B18F4118B187010009B200297A
:1014400001D500B2404200B2B6F93E10B0EBA100A7
:10145000F18F4018F087B6F93C00C010B6F93E1085
:101460004018A6F8400000207063DFF85C87B8F8E9
:101470000000002800F00E83307D072880F20A83E8
:10148000DFF82477716A3868091A491E00295CD48C
:10149000716A3868091AB8F80000091A491C01294C
:1014A00053DADFF838476568706AD7F80090B0EB18
:1014B00009096068002809D1DFF8E83640F2945243
:1014C000DFF81C17DFF8F40600F0A6FB4FF6FF70FC
:1014D000814509D3DFF8CC3640F29552DFF8041786
:1014E000DFF8D80600F098FB60680089494689B2A9
:1014F000884209D2DFF8AC3640F29752DFF8E8169E
:10150000DFF8B80600F088FB2089B0EB09002081E5
:1015100060680189B1EB090106E06889B9EB00094F
:101520002981002068812D6868894A4692B29042DC
:10153000F3D31FFA89F94946280000F074FD706A58
:101540003860E0683968416008E03968706A091AF3
:10155000002903D5708B50F0020070833968706ADF
:10156000091A002900F192823968706A091A308DCF
:10157000091A491C012980F28982706A39688842F7
:1015800040F09D81DFF85456E868808900F0DCFF68
:1015900010F0030F01D0012000E00020298940183D
:1015A000A8F80000308DB8F80010884247D2E868EB
:1015B000808900F0C9FFC00710D5E868808900F075
:1015C000C3FFC0B210F03E0000F0BEFFE9688A8998
:1015D0004CF2FF010A401043E9688881308D288170
:1015E000E868808900F0B0FF800702D52889401E96
:1015F00028812989686800F075FCE868808900F016
:10160000A3FF10F0030F01D0012000E00020298982
:101610004018A8F800003868B8F8001010FA81F0F7
:10162000716A328D8918884209D0DFF8783540F226
:10163000CC52DFF8B815DFF8840500F0EDFA706FD2
:10164000002800F08680E868808900F07DFFC007F0
:1016500009D5706F00287CD0706F716F0968716751
:1016600001F063FEF5E7746F25E000201BE0E06801
:10167000808900F069FFC00719D5E868808900F00B
:1016800063FF800713D4012000F05EFFE9688989B9
:101690000843E9688881E868808900F055FF10F008
:1016A000030FE2D0012029894018A8F8000020008B
:1016B000246801F03AFE002C0BD0E06841683868DD
:1016C000B8F8002010FA82F0411A2089091A00297E
:1016D000CDD5002C3CD0E16848683968B8F80020C6
:1016E00011FA82F1081A012832DBE0684168386893
:1016F000091A2981E868808900F026FF800702D551
:101700002889401E28812989686800F0EBFBE86879
:10171000808900F019FF10F0030F01D0012000E0D4
:10172000002029894018A8F80000E1684868396855
:10173000B8F8002011FA82F1814209D0DFF8643450
:1017400040F2FD52DFF8A814DFF8700400F064FAEC
:1017500074673868B8F8001010FA81F07062308D44
:10176000B8F80010884209D2DFF8383440F2076236
:10177000DFF88014DFF8440400F04EFA318DB8F839
:101780000000091A3185300001F002FA686800890A
:10179000002805D06868DFF86014086000206860E1
:1017A000E868808900F0D0FEC00737D5DFF84C0428
:1017B000017851F02001017030E06068106015E0A0
:1017C0000021328D2089121A511A3185300001F022
:1017D000DFF96068008900280AD0DFF81C2410684F
:1017E0000028EAD06168106800F0F4FC0020606016
:1017F000E068808900F0A8FEC0070AD5DFF8FC0386
:10180000017851F020010170307D042801D10720BA
:10181000307520687067200001F087FD706F002828
:101820003BD0706FC1684868716A884235D1746F67
:10183000706FC16848683860E068808900F084FE95
:1018400010F0030F01D0012000E00020716A22890E
:10185000801841187162E068808900F075FE10F010
:10186000030F01D0012000E00020318D2289801873
:10187000814209D2DFF82C3340F22C62DFF880136A
:10188000DFF8380300F0C8F9E068808900F05CFEFA
:1018900010F0030F94D0012193E7B07EC00709D563
:1018A000718B4FF6FE7001407183708B50F0020017
:1018B000708303E0708B50F001007083FCE0706F68
:1018C000002805D1DFF8140301F04EFD7067D9E060
:1018D0000024756F0AE02C002868002805D1E9680B
:1018E00048683968081A01285ADA2D68002D00F076
:1018F000C980E96848683968814211D0002C22D13A
:10190000E96848683968081A0028E4D5B34801F046
:101910002BFD002803D070672900FFF715FBB1E00D
:10192000AE482989028991420CD201F01DFD0028A0
:1019300007D0002C01D0206000E070672900FFF77D
:1019400003FB9FE09EE0E16848683968081A401E82
:101950000028C0D4E96848683968081A401C012882
:10196000B9DA9E4801F000FD8046B8F1000F16D0AC
:10197000E1684868218941183868091A012908DB9B
:10198000E16848683968081A20812189606800F098
:10199000A9FAC4F8008029004046FFF7D5FA71E0A3
:1019A000E868808900F0D0FDC0076BD48B4801F057
:1019B000DBFC28602868002864D0E9684868298929
:1019C00041183868091A012908DBE968486839684C
:1019D000081A28812989686800F084FAB8F800009C
:1019E000396811FA80F1706A091A308D091A0129D3
:1019F00048DB2868C068808900F0A6FDC00713D5C1
:101A00002868C068808900F09FFDC0B210F03E00D9
:101A100000F09AFD2968C9688A894CF2FF010A40E2
:101A200010432968C9688881716A308D4118386807
:101A3000091A28680181286801892868406800F02F
:101A400051FA2868C068808900F07EFD10F0030F0D
:101A500001D0012000E00020296809894018A8F879
:101A600000003868B8F8001010FA81F0716A328D01
:101A70008918884206D04B4B40F2F9625B494F48C7
:101A800000F0CAF8300003F0D1FA15E0300003F09E
:101A9000CDFA11E044490A68706A121A002A07D484
:101AA0000968706A091A308D091A491C012903DB7B
:101AB000708B50F002007083BDE8F18310B4514880
:101AC00001880288521C02804F4A1068002805D005
:101AD0004E480B0004889BB2A34205D239480068E7
:101AE000143089B2405C04E00088091A1068C9B259
:101AF000405C10BC70470000F4DB0008F8B504003F
:101B0000002C06D1274B40F27D7241492B4800F052
:101B100083F8404D288800283DD03A4E0020308080
:101B2000FFE730882988884235D2FFF7C7FFC0B267
:101B300000280ED002280DD0F3D3FFF7BFFF01001D
:101B4000C9B2022926DB3188C0B2801E411831801B
:101B5000E7E720E0FFF7B2FF042804D128883188A6
:101B6000891C884200DA16E0FFF7A8FF07003F0251
:101B7000FFF7A4FF0743380080B240F219218842E2
:101B800003DA380080B2002802D14FF40677FFE76D
:101B90006786C6E7FFE7F1BD1848017851F01001EC
:101BA000017070474CC90008C48400201CDC000888
:101BB00044E40008C88400200CE9000854DB000855
:101BC00028E90008BC840020F484002078F0000894
:101BD00080F00008F2840020A484002038840020D3
:101BE000BCEE0008CCEE0008DCEE000824CF0008B4
:101BF00058CD000864E40008CC8400200185002052
:101C000044DC0008F0840020C0840020EE84002022
:101C100044E90008EC8400200EB4C0B5024603A8D5
:101C200000210190009101AB0121044878440C305F
:101C300003F0DAFD06BC5DF810FB00BF41D00000E8
:101C40000120DFF80C180870704770B4BDF90C5013
:101C5000049C002606604160028143810573447341
:101C6000012181730021C17370BC70472DE9FC47CD
:101C70000E009046C0B20500404600B2012808D0D0
:101C8000412806D0B0F5C17F0ED0B0F5207F7BD0C3
:101C9000C8E0424612B2310089B2002000F0CEF80E
:101CA00004002000BDE8F68700245FF0000937003B
:101CB000082004F0E2FC0600002E45D039002A007E
:101CC00092B2D21C4FF6FC700240D2F5147289B267
:101CD00092B2914241D2BA4600200190404600B2F1
:101CE000009053469BB23A0092B2280080B2304432
:101CF00010F11001C91C890889003000FFF7A5FF09
:101D0000307910F0030F09D0DFF8843740F2011268
:101D1000DFF88017DFF88007FFF77EFFADB2ED1C1C
:101D2000AD08AD00D5F51475002D09D1DFF8603789
:101D300040F20312DFF86417DFF85C07FFF76CFF6F
:101D4000002C16D1340016E0FFF77AFF002C02D0E9
:101D5000200000F0B5F90020A4E7AA461FFA8AFA8D
:101D60001AF1030A4FF6FC7010EA0A0ADAF5147A3F
:101D7000B2E7C9F80060B146B7EB0A0700253800A2
:101D800080B2002894D18CE7290089B2C91C4FF693
:101D9000FC700140320092B2D21C4FF6FC7002403F
:101DA000511811F1100089B2320092B2D21C92087F
:101DB0009200914208D3010089B2320092B2D21C43
:101DC00092089200914201D200206BE780B204F0A9
:101DD000A0FE0400002C01D1002063E70020019048
:101DE0000FFA88F8CDF8008033009BB2320092B22F
:101DF000ADB204EB050010F11001C91C890889007F
:101E00002000FFF722FF207910F0030F09D0DFF840
:101E1000803640F22312DFF88816DFF87C06FFF7E1
:101E2000FBFE3EE7DFF8683640F22712DFF8741653
:101E3000DFF86406FFF7F0FE002033E7FEB505008B
:101E40000E001700380000B241280DD0380000B253
:101E5000012809D0DFF838364FF4A572DFF84816AC
:101E6000DFF83406FFF7D8FE072004F006FC040074
:101E7000002C01D100200CE0002001903FB200971F
:101E800033009BB2320092B229002000FFF7DDFE42
:101E90002000FEBD3EB51C00079BC0B29BB20500F2
:101EA000ADB2ED1CAD08AD0015FA81F5AB4201D223
:101EB000002016E0069B002B05D080B2C01C8008D5
:101EC0008000184400E000200223019312B2009227
:101ED0000B009BB20A0092B201002000FFF7B5FE92
:101EE00020003EBD70B504000D00002C09D1DFF8C4
:101EF000A0354FF4CC72DFF8B415DFF89C05FFF77E
:101F00008BFE2800218980B2884244D22689761B24
:101F100011E060892D1A2089801B20812468002C03
:101F200009D1DFF86C3540F2AF12DFF88415DFF825
:101F30006805FFF771FE6089290089B28842E8D3FD
:101F4000207B10F00F0F1BD12800618980B28842DE
:101F500016D0607B800713D46168091B691889B2A9
:101F6000200004F018FD0400002C09D1DFF8203512
:101F700040F2BD12DFF83C15DFF81C05FFF74CFE00
:101F80006581608920812068002802D0206800F0E7
:101F900097F80020206070BD70B504000D00160099
:101FA000002C09D1DFF8E83440F2DF12DFF8081521
:101FB000DFF8E404FFF730FE002C02D0B5F5803FD7
:101FC00001D3012027E0002D01D1002023E02900CA
:101FD000208940180A0080B292B2904201D20120BA
:101FE00019E0207B000608D560686D42284414F192
:101FF0001002904207D201200DE0F6B2002E0BD065
:1020000060686D422844606060890818608120899A
:1020100009182181002070BD0120FCE780B5002255
:10202000FFF7BAFF02BD38B504000D00002C09D13E
:10203000DFF85C3440F24B22DFF87C14DFF8580400
:10204000FFF7EAFD002C02D0B5F5803F01D3012057
:1020500020E0002D01D100201CE0290060890A0049
:1020600092B290420BD2DFF8283440F25522DFF8CA
:102070004C14DFF82404FFF7CFFD01200AE060686C
:102080006068284460606089401A60812089411A34
:102090002181002032BD80B50B001BB2002B04D57E
:1020A00009B24942FFF7BFFF03E0D2B209B2FFF71E
:1020B00073FF02BD80B5012209B2FFF7ECFF02BD3C
:1020C000F8B50400002C0DD1002C09D1DFF8C03385
:1020D0004FF43772DFF8E013DFF8BC03FFF79CFD25
:1020E000002059E000250BE0DFF8A43340F20F3266
:1020F000DFF8CC13DFF8A003FFF78EFD6D1C340072
:10210000002C47D0A07B002809D1DFF8843340F2AF
:10211000F122DFF8B013DFF88003FFF77DFDA07B2D
:10212000401EA073A07BC0B2002831D12668207B5E
:1021300010F00F00617B890711D52700386900284E
:1021400009D1DFF84C3340F2FF22DFF87C13DFF8CF
:102150004803FFF761FD200039698847CEE7010099
:10216000C9B2022904D12100082004F0C5FAC5E74C
:102170000100C9B2012904D12100072004F0BCFAF2
:10218000BCE7C0B20028AFD1200004F0B0FBB5E737
:102190000024B5E72800C0B2F2BD0100002001E034
:1021A000401C09680029FBD180B2704780B5002827
:1021B0000FD0817B491C8173807B002809D1DFF817
:1021C000D03240F24232DFF80413DFF8CC02FFF7DE
:1021D00023FD01BD38B504000D00002C01D0002DF9
:1021E0000AD1DFF8AC3240F25A32DFF8E412DFF8FD
:1021F000A802FFF711FD28E004E021892889411891
:102200002181246820680028F7D1208961898842CB
:1022100009D0DFF87C3240F26232DFF8B812DFF822
:102220007802FFF7F9FC2068002809D0DFF8603257
:1022300040F26332DFF8A012DFF85C02FFF7ECFC3B
:102240002189288941182181256031BD10B50C00F4
:102250002100FFF7BFFF2000FFF7A8FF10BD2DE909
:10226000F84305000C0000260027002D05D0002CA7
:1022700003D02889218988420CD2DFF8143240F239
:10228000CA32DFF85812DFF81002FFF7C5FC7FF002
:102290000F0059E06889801B6189C91B884204D3FB
:1022A000B4F80A80B8EB070803E0B5F80A80B8EB89
:1022B00006084246606800EB0701686800EB060903
:1022C000484604F013FD18EB060618EB070768896B
:1022D000B04209D2DFF8B83140F2D932DFF800124B
:1022E000DFF8B401FFF798FC6089B84209D2DFF843
:1022F000A03140F2DA32DFF8EC11DFF89C01FFF791
:102300008BFC6089874201D3002724686889864254
:1023100005D100262D68002D01D1002C16D1002CEE
:1023200006D060892189884202D1206800281AD10C
:10233000002D06D068892989884202D128680028A2
:102340001ED1002CA6D10020BDE8F283DFF8403179
:102350004FF47972DFF89011DFF83C01FFF75CFC75
:102360007FF00F00F0E7DFF8283140F2EA32DFF8C3
:102370007C11DFF82401FFF74FFC7FF00500E3E755
:10238000DFF80C3140F2EF32DFF86011DFF80801BE
:10239000FFF742FC7FF00500D6E72DE9F047040087
:1023A0000D00904600260027002C0BD1DFF8E0300E
:1023B00040F20A42DFF83811DFF8DC00FFF72CFCAE
:1023C000002042E0002D0BD1DFF8C43040F20B4278
:1023D000DFF82011DFF8C000FFF71EFC002034E01A
:1023E0002BE0B4F80A90B9EB03094046494680B2A5
:1023F00089B2884200D2C1464A4692B260689BB216
:1024000000EB0301300080B205EB000A504604F0F7
:102410006DFC19EB070719EB0606B8EB090800235A
:102420000AE0180080B20028DBD01800618980B271
:102430008842D6D360891B1A2468404680B200289F
:1024400001D0002CEDD1380080B2BDE8F08700004B
:10245000FC84002038B515000A0012B22989C0B2E8
:10246000FFF704FC0400002C01D100200EE029003D
:102470002000FFF7F4FE40B2002806D0044B40F2E3
:1024800024521D490448FFF7C7FB200032BD00005D
:10249000ECC80008FCD200084CD90008D4D00008D1
:1024A00030D500084CE7000818ED00086CEA000879
:1024B00084EA000868E7000808F00008E4E2000881
:1024C0002CED00089CEA0008ECDF000840ED000855
:1024D0007CCE00082CD300084CEE00085CD300082A
:1024E000B4EA000884E700085CEE00085CD5000848
:1024F00004E3000810E0000854ED000810B40300E5
:10250000C243002A01D0002801D101201AE091F82D
:102510002D20920701D4002014E04A68904201D196
:1025200000200FE08A6813404C688A681440A34278
:1025300007D18A6890438968C943884201D1012044
:1025400000E0002010BC70470100080080B2000AC3
:1025500050EA012080B270470100080210F47F00A9
:1025600050EA01600A00120A12F47F42104350EA56
:102570001160704780B504F00DFC8004800CB0F54C
:102580008040DFF85C17088001BD10B50400207D95
:10259000012808D1DFF84C37D422DFF84C17DFF8D8
:1025A0004C07FFF739FB2100012004F0A5F810BD0E
:1025B00010B50400207D012808D1DFF82837DF227C
:1025C000DFF82C17DFF82407FFF726FB2100022095
:1025D00004F092F810BD80B500F000FEDFF814079B
:1025E0000178491C01700078C00701D500F09CFB00
:1025F00001BD38B504000D00002D08D1DFF8E43628
:10260000FF22DFF8F416DFF8E406FFF705FB05E02C
:10261000E06FA84201D10020E067E468002CF7D108
:1026200031BD38B50400002C09D1DFF8B83640F2CE
:102630001112DFF8C816DFF8B406FFF7EDFA207DB7
:10264000012809D0DFF89C364FF48972DFF8B01604
:10265000DFF89806FFF7E0FA012508E02100DFF82F
:10266000A40650F825000068FFF7C3FF6D1C042D79
:10267000F4D331BD3EB504000D00002C09D1DFF8C4
:1026800064364FF4AF72DFF88016DFF86006FFF7AC
:10269000C3FAEDB2002D4ED0207D042802D0207D5B
:1026A000072848D1A06F002803D1208DB0F5066F10
:1026B00041D0A07EC00609D4DFF828364FF4B272AC
:1026C000DFF84816DFF82406FFF7A6FA208B029001
:1026D000E08A0190201D00902300626A216D200095
:1026E00002F059FC200000F0EBFFDFF8240601683F
:1026F000A14203D10168C968016009E0006800E0F7
:10270000C068002804D0C168A142F9D1E168C16065
:102710000020E0600120DFF8FC150870DFF8F80504
:102720000068A04202D1FFF737FA02E02000FFF76D
:102730002CFF002022E0207D002803D002282AD090
:102740001DD335E0E08A002814D0DFF8D0050168F9
:10275000A14203D10168C968016009E0006800E096
:10276000C068002804D0C168A142F9D1E168C16005
:102770000020E0602000FFF708FF00203EBD2000A1
:10278000FFF74FFF2100DFF8980500F0D5FF20008C
:10279000FFF70EFFF1E72100DFF8740500F0CCFF32
:1027A0000120DFF8701508702000FFF7EEFEE4E767
:1027B000200000F001F8E1E738B50400002C09D151
:1027C000DFF820354FF4CE72DFF83015DFF81C0546
:1027D000FFF722FA207D032804D0042816D007280A
:1027E0001FD029E0200001F094FE0500280040B22F
:1027F000002801D105202075280040B200281DD1F5
:10280000200001F095FF280040B232BD200001F009
:1028100080FE0500280040B2002801D10520207567
:10282000EAE7200001F075FE0500280040B200280C
:1028300001D109202075DFE70020E6E728005FF0DE
:10284000FF3140B28842DED1608B50F008006083D7
:102850000020DAE780B500280CD1DFF888344FF487
:10286000F472DFF8C014DFF86409FFF7D5F97FF0E0
:102870000F0009E0017D012903D0418B51F01001C7
:1028800041830121FFF7F6FE02BD2DE9FE4F040052
:102890008B46002C0AD1DFF84C3440F23D22DFF8A1
:1028A0003019DFF84804FFF7B7F973E0207D0128FD
:1028B00009D1DFF8303440F24122DFF81819DFF88F
:1028C0002C04FFF7A9F9207D0A2808D12100DFF8A0
:1028D000080900F031FF2000FFF757FE5AE00025FD
:1028E0000026276DD4F82480D4F89090D4F810A056
:1028F000207D002818D1E08A002820D0DFF81C04B1
:102900000168A14203D10168C968016009E000685B
:1029100000E0C068002804D0C168A142F9D1E16894
:10292000C1600020E0600AE05D46E68A2100DFF831
:10293000E00300F001FF0120DFF8D8130870206FDA
:10294000002802D0206F00F0E7FCE06E002802D0E3
:10295000E06E00F0E1FC606F002802D0606F00F0D4
:10296000DBFC002D0BD0208B0290B6B20196201D0F
:102970000090230042463900200002F00CFB207D2D
:102980002000FFF702FE4846002803D07FF00C012C
:102990005046C847BDE8F78F80B50121FFF775FFA6
:1029A00001BDF8B505000C000423002C01D1DFF8AF
:1029B000AC48002D0CD1DFF82C3340F2A922DFF80F
:1029C0005019DFF82803FFF727F97FF00F0055E0D3
:1029D000287D00280CD0DFF80C3340F2AB22DFF862
:1029E0003419DFF80803FFF717F97FF0050045E019
:1029F000100080B2002809D100F042F90200100056
:102A000080B2002826D17FF0010037E0002600E0E8
:102A1000761C9E421EDADFF8EC0250F826000068B1
:102A200000E0C0680028F3D0C18A1700BFB2B942E5
:102A3000F7D100280BD00168002908D0002C06D05F
:102A40002168002903D001682768B942E9D17FF0E5
:102A5000070013E0002C08D02068002805D0002CC7
:102A600001D1002000E020682860EA82DFF8AC0293
:102A70000168E960056002F02EFC0020F2BD10B58F
:102A80000C00002C09D1DFF85C3240F20F32DFF885
:102A90006019DFF83807FFF7BFF82000FFF77CFF69
:102AA0007FF00C0010BD80B50022C9B200F001F823
:102AB00002BD70B5060014000025002E0CD1DFF811
:102AC000243240F25932DFF82C19DFF82002FFF7E8
:102AD000A3F87FF00F0056E0307D00280CD0DFF81F
:102AE000043240F25A32DFF87019DFF80002FFF7C3
:102AF00093F87FF00E0046E0307D012803D13500C9
:102B00007FF008003FE0022003F0B7FD0500002D34
:102B100002D15FF0FF3036E030692861F08AE88248
:102B200001202875707D6875707A6872002028729F
:102B3000F07AE872B07AA87230682860F08A0028CB
:102B400014D0DFF8D8010168B14203D10168C96827
:102B5000016009E0006800E0C068002804D0C16896
:102B6000B142F9D1F168C1600020F0603000FFF798
:102B70000CFDDFF88009A86169480168E96005601B
:102B800002F0A9FB0020002C00D02070280070BDAE
:102B900038B50400002C08D1524B40F2A632DFF8C1
:102BA0008019DFF82806FFF737F8606A218D401892
:102BB000618E40F23142914202DB4FF4866100E0C7
:102BC000618EE26A821A511A002904D4218D61852E
:102BD000E16A401A18E0616AE06A091A012902DB19
:102BE000002060850FE0E06A656A451BB5F5803F0F
:102BF00008D33C4B40F2B632DFF82819DFF8CC0599
:102C0000FFF70AF86585002032BD38B504000D00D5
:102C1000002C09D1334B40F2CF32DFF80C19DFF82A
:102C2000AC05FEF7F9FF2AE0207D012808D12D4BE5
:102C300040F2D332DFF8B419DFF89005FEF7ECFF6D
:102C4000208D2D18280080B240F66101884204DAF8
:102C50002800218D80B2884203D24FF4066020857F
:102C600000E025852000FFF793FFB0F5067F06D32F
:102C7000608B50F002006083200001F059FD31BDEF
:102C800030B40021FFE7164B1888401C18801888C4
:102C90004FF6FF72904202D14FF44040188000225C
:102CA00000E0521C1000C0B2042815DA15481400C8
:102CB000E4B250F82400006800E0C0680028F0D0BA
:102CC000C48A1D88AC42F8D1491C080080B2B0F516
:102CD000804FD8DB002000E0188830BC704700002F
:102CE000A800002068CA000868ED000874D9000830
:102CF000A0E70008FE8400209CD9000814F000081A
:102D0000CCEA00089CEE000824E30008BCE70008B9
:102D1000B0840020FD840020D0840020A8840020FE
:102D2000AC840020E4EA00082DE9FE4F0020DFF823
:102D3000FC99D9F80000401CC9F80000DFF8F0A9A0
:102D40009AF80000401C8AF8000035E0DBF800002B
:102D5000A84209D0DFF8303B40F27152DFF8D419B5
:102D6000DFF86804FEF758FFE868CBF80000F6B219
:102D7000002E0BD0288B0290E88A0190281D00902D
:102D80002B006A6A296D280002F005F92E69287D5A
:102D90002800ED68FFF7F9FBDFF8888A002088F843
:102DA00000003800002803D07FF00C013000B84745
:102DB00098F80000002807D00024DFF840BADBF8BC
:102DC000005001E02C00ED68002D00F0B681287D58
:102DD000002809D1DFF8B03A40F2BE42DFF8481AC5
:102DE000DFF8E803FEF718FF287D012809D1DFF896
:102DF000983A40F2BF42DFF8341ADFF8D003FEF70A
:102E00000BFF287D0A2809D1DFF87C3A4FF498623D
:102E1000DFF81C1ADFF8B403FEF7FEFEA87F9AF86D
:102E200000108842CED09AF80000A877002700262C
:102E3000287D022805D195F84200062801DB7F1C79
:102E4000CEE095F842000C2801DB7F1CC8E095F825
:102E50009900002863D0286F002809D0DFF8283AAD
:102E600040F2D442DFF8241ADFF86003FEF7D4FE04
:102E7000E86E002809D1DFF8103A40F2D542DFF8B9
:102E8000481ADFF84803FEF7C7FE95F89A000C28A9
:102E900001DB7F1CA4E0DFF8340A95F899100844A0
:102EA00010F8010C95F898100200D2B2914204D2A9
:102EB00095F89810491C85F8981095F89810C0B2AC
:102EC0008142C0F08D805FF00108B5F860000028F5
:102ED00007D1280002F03EF9002810D05FF000086A
:102EE0000DE0B5F86010280001F011FA002806D1B5
:102EF000280001F01DFC002801D15FF00008B8F1A6
:102F0000000F6DD0002085F8980095F899000728EB
:102F100066D295F89900401C85F8990060E0B5F9F3
:102F20003000002808D4B5F9300047F6FF71884218
:102F300002D0288E401C2886B5F93000B5F9401023
:102F400088424DDB280001F01FFE002805D0286FC5
:102F5000002845D1E86E002842D0287D02281AD0EA
:102F600095F842000C2802D295F8420000E00C20AF
:102F7000B5F93C10C910B5F93E208918DFF8982939
:102F8000C0B2105611FA00F047F6FF71884200DB1C
:102F90000800A5F8400000202886B5F84800B5F8DC
:102FA0006010884202D2B5F8480001E0B5F8600030
:102FB00080B24008A5F84A00B5F84A00698E490079
:102FC00089B2884203D2688E4000A5F84A00688E14
:102FD000A5F848000020A5F86A00280001F01FFEAF
:102FE000287D062809D1A87EC00606D5D9F800108C
:102FF000286A091A292900D37F1C687A000734D56A
:10300000287D042802D0287D07282ED1D5F89410D9
:10301000DFF8080941184FF4FA70B1FBF0F1D9F864
:103020000020286A121A914202D27F1C761C1CE0F2
:10303000D5F8941095F89B20DFF8E40800FB021106
:103040004FF4FA70B1FBF0F1D9F80020286A121A97
:1030500091420AD2280002F047F840B2002804D179
:1030600095F89B00401C85F89B00686F00280DD0E8
:10307000D9F80010286A091AB5F94000062210FB99
:1030800002F0814202D3280000F08EFC287D032844
:1030900006D1D9F80010286A091A292900D37F1C03
:1030A000287D092806D1D9F80010286A091AF129C3
:1030B00000D37F1CFFB2002F17D0D5F890702800E6
:1030C00000F0FEFA002C3FF441AEDBF80000854230
:1030D00008D1DFF8B43740F26D52DFF848183B48AA
:1030E000FEF79AFDE868E06041E62C00ED68207F7D
:1030F000401C2077207F617F8842FFF465AE00206E
:103100002077DFF8206700203070D4F88C0000288A
:1031100006D021002069D4F88C209047010000E0FF
:103120000021307800287FF447AE49B200297FF4AF
:103130004BAE200001F0FCFA46E60024264E35682E
:1031400011E03068A84208D0DFF83C3740F2B352B3
:10315000DFF8D4171D48FEF75FFDE86830602800EF
:10316000ED68FFF712FA002D2DD0287D0A2808D02F
:10317000DFF8143740F2A152DFF8B0171348FEF71A
:103180004BFD0020D9F80020296A521AF12A00D3F9
:10319000401CC0B2002813D0280000F091FA002C87
:1031A000CFD03068854208D1DFF8DC3640F2AF522C
:1031B000DFF87C170548FEF72FFDE868E060CEE7F2
:1031C0002C00ED68CFE7BDE8F78F000074D9000848
:1031D000D8E7000808D10008B4840020F8B5DFF86B
:1031E00050552878401C287029E02878A077A07EC8
:1031F000C0070BD5608B50F002006083200001F007
:1032000097FA618B4FF6FC7001406183A07E000746
:1032100007D5618B4FF6F770014061832000FFF7FF
:10322000CBFAE668A06F00280DD0DFF8F875002013
:103230003870200000F014F83878002803D0DFF848
:10324000F406046800E03400002C05D0A07F297843
:103250008842CAD1E468F7E7F1BD000088F00008B1
:10326000F8B50400002C0CD1DFF81C3640F20962DE
:10327000DFF8C416DFF8C406FEF7CEFC7FF00F00BF
:1032800045E0A06F467BA56F0020A067D4F88400BE
:10329000002807D000232A0021002069D4F8847078
:1032A000B84705E000232A002100002000F07DF847
:1032B000010049B200291DD1B00627D5208DB0F5F7
:1032C000066F02D0208D401C2085D4F88400002891
:1032D00008D00023002221002069D4F88440A047B0
:1032E000010000E000217FF00C00020049B2914291
:1032F0000CD10CE07FF00C010A0040B2904201D1E9
:10330000080004E0A5677FF0040000E00020F2BDA3
:10331000FCEA0008C4D9000810B503E0046800F016
:1033200004F820000028F9D110BD10B50400002CCD
:1033300009D06068002802D06068FEF7C1FE210055
:10334000032003F0D9F910BD80B500280AD1DFF8B9
:1033500038354FF4CE62DFF8E815DFF8E005FEF708
:103360005BFC00E0417501BD70B50500002D09D181
:10337000DFF8143540F28262DFF8C815DFF8BC05CB
:10338000FEF74AFC032003F078F90400002C01D179
:10339000002009E0102226002900300003F0A6FCDE
:1033A0006068FEF703FF200070BD10B50800140030
:1033B00000280CD1DFF890354FF4D362DFF88C157C
:1033C000DFF87805FEF728FC7FF00F0008E0002CFE
:1033D00007D02189FFF719FC2000FEF771FE0020BD
:1033E00010BD5BB2002BFAD1FFF734FAF8E700000A
:1033F00044E300088CD3000838B50100C9B2802925
:1034000001DB7F20FFE70100C9B2002923D0441E61
:1034100000230020DFF81C15096816E04A7D25000E
:10342000EDB2AA420AD34A7D2500EDB2AA420BD1E1
:10343000BE4A15680A6AAD1A9D4205D3BB480068AA
:103440000B6AC31A08004C7DC9680029E6D1002820
:1034500001D0FFF7A1FA31BDB4CE000870B5040069
:103460002000C0B208280DD02000C0B2092809D021
:10347000DFF8D43440F2DD62DFF8D414DFF8BC04A6
:10348000FEF7CAFB00230022DFF8A80400680FE063
:10349000017D2500EDB2A94209D1A44D2E68016A33
:1034A000761A9E4203D32968036ACB1A0200C068C9
:1034B0000028EDD1002A03D000211000FFF7E5F924
:1034C00070BD38B500230020DFF8881409680AE0D1
:1034D000964C25680A6AAD1A9D4203D320680B6A90
:1034E000C31A0800C9680029F2D1002801D0FFF7EB
:1034F00053FA31BD7F2A000810B5DFF838040068A0
:103500000BE0C468817E090706D5428B4FF6F77140
:103510000A404283FFF750F920000028F1D110BD86
:1035200034E00008F4E7000814EB000870B505006B
:10353000012003F0A2F80400002C23D1FFF7DCFFE8
:10354000FFF7BFFF012003F098F80400002C19D109
:103550000920FFF783FF012003F08FF80400002CFF
:1035600010D10820FFF77AFF012003F086F804004D
:10357000002C07D12800C0B2FFF73EFF012003F066
:103580007CF80400002C2FD09C2100222600300063
:1035900003F052FC65754FF48660A4F864004FF4A4
:1035A00006616185618D2185FF21E1724FF406710D
:1035B00061860621A4F840100621E1875FF0FF3103
:1035C00021860121A4F84810584909682162584908
:1035D0000978A177A4F84A00DFF87C03C4F88400D6
:1035E000DFF87803C4F89400200070BDECD900081F
:1035F00080B54020FFF79AFF02BD002800D001618E
:10360000704738B504000D00002C0DD0207D012836
:1036100008D19D4B40F2DF72DFF84413DFF81C0342
:10362000FEF7FAFAC4F8845031BD38B504000D0035
:10363000002C0DD0207D012808D1934B40F2F3726D
:10364000DFF82013DFF8F402FEF7E6FAC4F8805042
:1036500031BD38B504000D00002C0CD0207D0128B0
:1036600007D1894B40F60D02DFF8FC12B348FEF794
:10367000D3FAC4F8905031BD0000002803D0027D79
:10368000012A00D18161704770B504000D00160059
:10369000002C07D17C4B40F63D02B449A748FEF709
:1036A000BBFA0CE0207D012806D1774B40F63E02A4
:1036B000AF49A248FEF7B0FAC4F88C50667770BDE7
:1036C00010B50400002C07D16F4B40F65102A949F8
:1036D0009A48FEF7A1FA26E0207D002823D0207D1D
:1036E0000A2820D0207D01281DD0A06F002804D0FA
:1036F000A06FFEF7E5FC0020A067606F002802D0F5
:10370000200000F051F95FF0FF302086E06EFFF7F7
:1037100003FE206FFFF700FE0020E066E06E2067EA
:103720000020A4F8680010BD00000000A484002060
:10373000FF8400200CD6000838B505000C00002CD2
:1037400006D1814B40F683028B497C48FEF764FA30
:10375000002D06D17C4B40F6840288497748FEF75D
:103760005BFA2868A04203D12868C068286009E095
:10377000286800E0C068002804D0C168A142F9D1DF
:10378000E168C1600020E0602000FFF799FF207D24
:103790000A280CD0207D012809D0A07EC00706D5BC
:1037A000608B50F002006083200000F0C1FF207D9C
:1037B00001281DD0E06E002806D0634B40F693022E
:1037C0006F495E48FEF728FA206F002806D05E4B4E
:1037D00040F694026B495948FEF71EFA606F0028C4
:1037E00006D0594B40F6960267495448FEF714FA42
:1037F000002020750020E08231BD0000B084002050
:1038000080B5002806D1504B40F6AF025F494B48C7
:10381000FEF702FA5E490A685E48006882180A608C
:10382000086802BDFD84002088D50008B4D50008D2
:10383000BCD3000838B505000C00002A06D1424B65
:1038400040F6C50254493D48FEF7E6F9002C02D186
:10385000280080B217E0A18C080080B2002810D0A8
:10386000282002000B0092B29BB29A4201D2081AA1
:1038700000E000202900020089B292B2914200D3F8
:103880000500280080B232BD68CA00083CD100089B
:1038900070B505000C00002D06D12B4B4FF41062C3
:1038A0003E492648FEF7B8F904E0E6682000FFF735
:1038B00073F83400002C05D0206829688842F4D0C1
:1038C000E468F7E770BD0000ECCE000870F0000877
:1038D00038B504000D00002C1DD0206800281AD037
:1038E000144801682000FFF7D3FF2D48016820002D
:1038F000FFF7CEFF002D0ED0286800280BD02948F6
:10390000006806E001682268914201D129680160DF
:10391000C0680028F6D131BD8CEE0008B84C0A0012
:10392000F8240100E0D500083CDA0008ECD30008D8
:1039300014DA0008B084002064DA000874D90008A2
:1039400010E800082CE8000868CA000848E80008E9
:103950007CEE0008B4840020AB33000800DD6D006D
:103960008CDA0008B4DA0008DCDA00082CEB000876
:1039700064E3000864E8000880E8000884E30008C5
:1039800044EB00089CE800085CEB0008B8E800087D
:10399000A4000020A484002004DB000870D10008EB
:1039A000A8840020AC84002010B50400606F0028BB
:1039B00004D0606FFFF7B0FC0020606710BD30B42A
:1039C000002513E050F8042BD30744BFA9F10103ED
:1039D0009A18091F042942F8045BFAD213468C078F
:1039E00044BF15809B1CC90748BF1D7050F8041BBD
:1039F0000029E7D130BC704780B5002806D0017A95
:103A0000002903D0007A03F012FC02E0100001F05C
:103A10000DFD02BD2DE9F04705000E0091469A46C6
:103A2000002D08D1DFF8483BA322DFF8481BDFF860
:103A3000480BFEF7F1F8002E08D1DFF8343BA42242
:103A4000DFF8381BDFF8300BFEF7E6F8089FF807C1
:103A500002D55FF0040801E05FF00008B80701D567
:103A6000002000E00020390701D5002100E00021FE
:103A7000FA0601D5002200E0002210EB080811EB45
:103A8000080812EB0808032002F0F7FD0400002CE0
:103A900004D13000FEF714FB002048E0A77200209C
:103AA0002060666030894146C9B289B2884208D236
:103AB000DFF8BC3AB022DFF8C81ADFF8BC0AFEF71C
:103AC000ABF831894046C0B2091A21811421300077
:103AD000FEF7A4FA002804D02000FFF726FC0020FF
:103AE00025E060684068E060E88AFEF72DFDE16847
:103AF0000880288BFEF728FDE16848805046FEF7D5
:103B00002BFDE16848605FFA88F8042098FBF0F02C
:103B1000401D5FFA89F959EA0039484680B2FEF73C
:103B200013FDE16888810020E16848822000BDE83B
:103B3000F0872DE9F84307000E0091461C00B046BF
:103B4000002C08D1DFF8283AE822DFF8381ADFF82D
:103B5000280AFEF761F8089D002D08D1DFF8103A19
:103B6000E922DFF8AC1BDFF8100AFEF755F8300049
:103B7000494680B289B2884224D2099880070CD481
:103B8000A87E40061ED40A98C0B2002805D0E86E70
:103B9000002802D1286F002814D0484680B2310096
:103BA00089B201F21B2189088900884201D2C846E6
:103BB00008E0B0461FFA88F808F21B284FF6FC70A0
:103BC00010EA08084FF42072414689B23800C0B2AA
:103BD000FEF74CF80500002D01D1002013E0286805
:103BE000002809D0DFF8883940F20B12DFF8241BD7
:103BF000DFF88409FEF710F86889801B20802E8189
:103C0000288968812800BDE8F28338B504000D00DA
:103C1000002C09D1DFF8583940F23312DFF8F81AD6
:103C2000DFF85409FDF7F8FF207D04280BD0207D34
:103C3000072808D0207D022805D0207D032802D047
:103C40007FF00A0042E0280080B2002801D1002065
:103C50003CE0B4F86400ADB2A84206D2608B50F0EC
:103C6000800060835FF0FF3030E0B4F86600092820
:103C700006D3608B50F0800060835FF0FF3025E05A
:103C8000B4F86600002810D0206F00280CD1E06E38
:103C9000002809D1DFF8D8384FF4AB72DFF87C1A6E
:103CA000DFF8D408FDF7B8FF0FE0206F002802D13D
:103CB000E06E002809D0DFF8B83840F25912DFF87A
:103CC000601ADFF8B408FDF7A7FF002032BD2DE928
:103CD000F84F8AB006009A4600200690002500277B
:103CE0000020099000245FF0000900208DF81C00DE
:103CF0000020ADF80C005FF000080020ADF81400C3
:103D0000002E0CD1DFF868384FF4CF72DFF8141AA8
:103D1000DFF86408FDF780FF7FF00F002EE1B6F8B2
:103D20006200022390FBF3F0738E834201DA738EFC
:103D300004E0B6F86200022390FBF3F3180080B2AF
:103D4000002802D0ADF8163002E0708EADF81600F3
:103D50000891089800280CD1DFF814384FF4D77276
:103D6000DFF8C419DFF81008FDF756FF7FF00F00E9
:103D700004E1ADF80E20BDF80E103000FFF745FF4E
:103D8000010049B2002901D040B2F7E0B6F866B0B0
:103D900000208DF811008DF810A0F06E002800F0C2
:103DA0003E81F56E00E02D6828680028FBD1A87AD6
:103DB000C00702D55FF0040A01E05FF0000AA87AAC
:103DC000800701D5002000E00020A97A090701D56D
:103DD000002100E00021AA7AD20601D5002200E0ED
:103DE000002210EB0A0A11EB0A0A12EB0A0ABDF8CC
:103DF0001600298911FA8AF1884209DADFF870374A
:103E00004FF4F372DFF82419DFF86C07FDF704FFB5
:103E1000BDF816102889091AB1EB0A0AB6F868002D
:103E2000ADF80C00BDF80C00002836D05046BDF8A7
:103E30000C1080B2884209D2DFF834374FF4FC729C
:103E4000DFF8A41BDFF83007FDF7E6FE2F00BDF812
:103E50000C00BDF80E10884202D2BDF80C0001E043
:103E6000BDF80E00514689B2814201DAD0460AE01F
:103E7000BDF80C00BDF80E10884202D2BDF80C80CF
:103E800001E0BDF80E8018EB0909BDF80C00B0EB9D
:103E90000800ADF80C00BAEB080ABDF80C000028C9
:103EA0000FD04846BDF80E1080B2884209D0DFF826
:103EB000C0364FF40072DFF8601BDFF8BC06FDF778
:103EC000ABFE4846BDF80E1080B2884280F0FA8002
:103ED000504680B2002800F0F5802889002800F0C4
:103EE000F180514689B2BDF80E20484680B2121AC0
:103EF000914202DAADF812A005E0BDF80E00B0EB79
:103F00000900ADF812002F009DF81000C0074AD537
:103F1000012002909DF810000190009603AB5246DC
:103F200092B2BDF812100020FFF703FE06900028A1
:103F300027D1708B50F0800070830698002802D043
:103F40000698FEF7BDF8002C02D02000FFF7E4F938
:103F5000B6F8660000280FD0306F00280CD1F06E44
:103F6000002809D1DFF808364FF44A72DFF8AC1A9E
:103F7000DFF80406FDF750FE5FF0FF300BB0BDE840
:103F8000F08FBDF812200898494689B2014406987E
:103F9000D0F804A0504602F0A9FE0698FEF7FDF8FE
:103FA00010EB0B0B36E0696800E009680868002830
:103FB000FBD1087B10F0C00F18D14868498908442C
:103FC0000899884212D1484680B2002809D0DFF80B
:103FD000A03540F23122DFF8A41BDFF89C05FDF785
:103FE0001BFEBDF81200ADF8140013E00122BDF86D
:103FF00012100020FDF73AFE0690002899D008988C
:10400000494689B20844069948600698FEF7C5F803
:1040100010EB0B0BBDF8120010EB090952E0B6F8DB
:104020006800002809D0DFF8483540F24B22DFF85D
:10403000501BDFF84405FDF7EFFD43E00998002829
:1040400009D1DFF82C3540F2AB22DFF8381BDFF85E
:104050002805FDF7E1FD0998076030E0089849461A
:1040600089B20844009948604FF420729DF81110FD
:1040700089B23620FDF7FAFD0700002800F0908095
:1040800000993800FEF7A6F83800FEF786F810EB26
:104090000B0B584680B20A2880F086809DF81C00E1
:1040A0000090F06D10FA89F3002239003000FFF71C
:1040B000B1FC070000287BD0002CBFD13C00099741
:1040C0001AEB09094846BDF80E1080B2884270D23A
:1040D000BDF80E00B0EB0900BDF816109DF811A058
:1040E000B1EB0A0A0100524689B292B2914201D262
:1040F0008246FFE79DF81000C00738D5002C01D19B
:10410000012000E00020C0B202909DF81000019054
:10411000009603ABBDF816209DF811005AFA80F105
:1041200089B23620FFF705FD070000281ED07889E8
:10413000514689B2884209D2DFF8343440F267220E
:10414000DFF8401BDFF83004FDF766FD524692B2FF
:104150000898494689B2014478689DF8113018449E
:104160000090009802F0C2FD00988DE7E1E6BDF8EE
:104170000C00002809D0DFF8F83340F27122DFF894
:10418000081BDFF8F403FDF747FD0122514689B211
:104190003620FDF76BFD009000287FF45FAFC8E686
:1041A0000098FDF78DFFC4E63800FDF789FFC0E6F3
:1041B000BFE6404680B2002828D0D5F804901DE024
:1041C000B9F8080018EB0000A9F80800D9F80000B9
:1041D000002811D1424692B20899D9F80400B9F8E2
:1041E0000A3000EB030A504602F080FDB9F80A00DD
:1041F00018EB0000A9F80A00D9F80090B9F1000FF7
:10420000DED1288918EB0008A5F80880BDF80C005D
:10421000A6F868000698002815D0002D09D1DFF80F
:10422000503340F2E122DFF8F81ADFF84C03FDF7D3
:10423000F3FC06996868FDF7CDFF29890698008987
:10424000411829812AE0BDF81400002826D0002D4D
:1042500002D06868002807D1C54B40F2E722DFF89A
:104260004C1BC548FDF7D8FC696805E00A89BDF814
:10427000140082180A81096808680028F6D10A89A2
:10428000BDF8140082180A814A89BDF8140082180A
:104290004A812989BDF8140041182981002D01D1D6
:1042A000F46600E02C60F06DBDF80E1010FA81F09D
:1042B000F065B6F86410BDF80E00091AA6F864108F
:1042C000A6F866B0B6F8660000280DD0306F00285A
:1042D0000AD1F06E002807D1A54B40F21332DFF867
:1042E0003C17A548FDF798FC002F0ED0F868002871
:1042F0000BD09DF81000800707D40820FEF724F9A2
:10430000F96889890843F9688881002036E62DE933
:10431000F84F06008846002400200020002E07D118
:10432000934B40F24B32DFF8881B9348FDF774FC47
:10433000F76E002F02D15FF0FF306FE0404680B291
:1043400000280AD18A4B40F25332DFF8681B8A48B2
:10435000FDF762FC7FF0050060E04046398980B2DD
:10436000884201D3002059E0708E414689B28842CC
:1043700007D27F4B40F25B32DFF83C1B7E48FDF7F3
:104380004BFC3889002807D1794B4FF45772DFF87E
:104390002C1B7948FDF740FC97F80A905FEAC9703A
:1043A00002D55FF0040B01E05FF0000B5FEA89705B
:1043B00001D5002000E000205FEA097101D500214D
:1043C00000E000215FEAC96201D5002200E000227E
:1043D00010EB0B0B11EB0B0B12EB0B0BB7F808A050
:1043E000BAEB080A4FF420725AFA8BF189B23620E0
:1043F000FDF73CFC0500002D12D1002C07D05C4BD2
:104400004FF47672DFF8281B5B48FDF705FC002DA2
:1044100002D02800FDF754FE5FF0FF30BDE8F28FB8
:10442000786800893B89C31A18EB03039BB2524694
:1044300092B268685FFA8BFB00EB0B017868FDF7BE
:10444000ACFF514689B28842D7D1F8688089FEF71F
:104450007BF883461BF03F0B00245FEA0B7003D50B
:104460001BF0F70B54F008045FEACB7003D51BF088
:10447000FE0B54F00104F9684868FEF76DF85FFA26
:1044800089F9CDF8009010FA88F32200D2B2290001
:104490003000FFF7BFFA0400002CAED07868FDF7BB
:1044A0007CFEB6F86610081AA6F8660078680189DE
:1044B000B1EB0A0189B27868FDF714FD3889B0EBD9
:1044C0000A0AA7F808A05FFA8BFB584680B2FEF7ED
:1044D0003BF8F96889890843F96888817868FDF7AD
:1044E0005CFEB6F866104018A6F866006068FDF736
:1044F00054FEB6F866104018A6F8660038682060CA
:104500003C602068002802D10020A6F86800002046
:1045100084E738B50400002C07D1154B40F2EB328C
:10452000DFF8041B1448FDF777FBE06E00281AD073
:10453000E56E00E02D6828680028FBD1E8688089D6
:10454000FEF702F810F0070F0DD10120FDF7FCFF78
:10455000E96889890843E9688881608B50F0200008
:104560006083002003E00121200000F00DF832BD3F
:10457000ACC9000884E400086CDC000858E00008BE
:10458000A4EB00087CE000082DE9FC4104000D00CC
:104590000026002015F0030F09D1DFF8403B40F260
:1045A0001242DFF83C1BDFF89C0BFDF735FB002CBB
:1045B00009D1DFF8283B40F21342DFF8281BDFF86F
:1045C000840BFDF729FBA80700D50126F00701D5CC
:1045D000042700E00027B00701D5002000E00020FC
:1045E000310701D5002100E00021F20601D50022AB
:1045F00000E00022C719CF19D7194FF420723900F3
:10460000C9B289B23620FDF731FB8046002806D1B9
:10461000608B50F0800060835FF0FF3075E0B8F889
:104620000A00FFB2BFB2B84209D2DFF8B03A40F296
:104630003A42DFF8141BDFF80C0BFDF7EDFAF6B287
:104640000096E36D2A00D2B241462000FFF7E2F95E
:104650000600002806D1608B50F0800060835FF078
:10466000FF3052E0307B10F0030F09D0DFF86C3AD6
:1046700040F24242DFF8D41ADFF8C80AFDF7CCFA5C
:104680003089002809D0DFF8543A40F24342DFF87D
:10469000C01ADFF8B00AFDF7BFFAE06E002801D1BA
:1046A000E66606E0E16E00E0096808680028FBD1D4
:1046B0000E600020A4F8680015F0030F02D0E06D32
:1046C000401CE065E80703D5608B50F02000608354
:1046D0007068FDF762FDB4F866104018A4F8660033
:1046E000B4F8660000280FD0206F00280CD1E06ECF
:1046F000002809D1DFF8E43940F26642DFF8401BB8
:10470000DFF8400AFDF788FA0020BDE8F6810000D6
:10471000A4E4000890ED0008C4E4000894CD00086B
:10472000A4D10008BCEB0008D8D10008D4EB0008E5
:104730002DE9F0470500002D09D1DFF8A03940F23E
:10474000E142DFF8001BDFF8FC09FDF765FA287D80
:10475000012809D1DFF8843940F2E442DFF8E81A91
:10476000DFF8E009FDF758FADFF8E00A0068A84230
:1047700001D10020F8E0B5F86000B5F84810884293
:1047800002D2B5F8608001E0B5F84880EC6E002CEC
:1047900007D1A87E800703D5280000F047FCE3E09E
:1047A000DCE02A1D29002800FFF726F90600002E6C
:1047B00002D17FF00300D7E0002D02D02868002846
:1047C0000BD1002E01D0301D00E00020002802D1C6
:1047D0007FF00300C8E000682860E1684868FDF7E2
:1047E000BBFE696C401A2189401880451BD2B5F880
:1047F000600080450FD1286F00280CD195F89900F2
:10480000002808D1002085F89800012085F899003B
:10481000002085F89A00A87E800703D5280000F0C4
:1048200005FCA1E09AE0002085F899002F6F002F89
:1048300004D000E03F6838680028FBD1002C00F06D
:104840008780E1684868FDF787FE696C401A218916
:10485000401880457CD3E0688089FDF775FE4007ED
:1048600009D5DFF8783840F23752DFF8E419DFF87D
:10487000D408FDF7D1F9286F002817D0A87E10F0D2
:10488000440F13D1E86E002808D0E86E00680028B5
:104890000CD1E86E0089698E884207D2B5F86400B1
:1048A000002803D0B5F86600092801DB012000E0EC
:1048B0000020002803D1A87E10F0A00F48D0287D4A
:1048C000022807D01020FDF73FFEE16889890843E0
:1048D000E168888132002900200000F0A1F8010081
:1048E00049B2002942D12068E866287D022804D018
:1048F000698B4FF6FC7001406983E1684868FDF7F9
:104900002BFE8146E0688089FDF71EFE10F0030F44
:1049100032D00121208919EB00000818296D091AED
:10492000002900D52865E0688089FDF70DFE10F0AC
:10493000030F23D0012021894018002850D00020E7
:104940002060286F00281BD12C672700EC6E75E7CC
:10495000E86E002802D10020A5F86800698B4FF6A8
:104960007F70014069830020BDE8F087698B51F0BA
:104970008001698340B2F7E70021CBE70020DAE746
:10498000E1684868FDF7E8FD8146F9684868FDF789
:10499000E3FDB9EB0009B9F1000F1ED515F170095F
:1049A00001E0D9F80090D9F8000000280FD0D9F81C
:1049B0000000C1684868FDF7CFFD8246E16848689D
:1049C000FDF7CAFDBAEB000ABAF1000FE9D4D9F835
:1049D00000002060C9F80040B8E73C603F68B5E7D8
:1049E0002000FEF7A2FCB1E7E4E4000810B50400E3
:1049F000002C09D1DFF8E43640F29A52DFF854185F
:104A0000DFF84007FDF708F96068807B012801D0D6
:104A1000012000E0002010BD04E5000824E50008A6
:104A2000FEB504000D001600002C09D1DFF8AC36ED
:104A30004FF4B762DFF82018DFF80807FDF7ECF84D
:104A4000002D09D1DFF8943640F2B952DFF80C1886
:104A5000DFF8F006FDF7E0F8002E09D1DFF87C362C
:104A600040F2BA52DFF8F817DFF8D806FDF7D4F8AD
:104A70002000FFF7BBFF002801D000207DE0686A1E
:104A8000FDF76AFDE1688860688DFDF75DFDE1680E
:104A9000C881686A698D4018E862E06810F11407FF
:104AA000A07AC0070CD52A1D31004FF40670FEF71E
:104AB000C1FE80B250F00170FDF74EFD38603F1D21
:104AC000B5F93000002801D500202886686B002841
:104AD00008D1DFF8900700686863E1684868FDF76F
:104AE0003BFDA863E16860684068081A616849890D
:104AF000091A6268518161680989081A6168088128
:104B0000E068616848600020E1680882A07AC00718
:104B100001D5042000E00020A17A890701D50021F9
:104B200000E00021A27A120701D5002200E0002255
:104B3000A37ADB0601D5002300E00023D4F80CC0E3
:104B400060440844104418441430874209D0DFF808
:104B50008C3540F21C62DFF81017DFF8E805FDF72E
:104B60005BF8029606200190A87A0090EB7A2A1D45
:104B70002900606800F099FD40B2FEBDBCD6000877
:104B80004CD40008A4ED000870B50400002C09D135
:104B9000DFF8483540F26362DFF8D016DFF8A4058D
:104BA000FDF73AF8206F002802D17FF0050035E0CC
:104BB000256F00E02D682868002807D02800FFF73F
:104BC00015FF0028F6D07FF0050027E02800FFF74A
:104BD0000DFF002802D07FF005001FE0E06E286086
:104BE000206FE06600202067608B50F400606083D7
:104BF000E9684868FDF7B0FC0600E8688089FDF7C1
:104C0000A3FC10F0030F01D0012000E0002029894F
:104C100071184018E06400206063002070BD10B57A
:104C20000400002C09D1DFF8B4344FF4D362DFF86C
:104C30004016DFF81005FCF7EFFF94F84200FF285C
:104C400004D094F84200401C84F842002000FFF792
:104C50006FFD10BD10B50400002C09D1DFF87C34C5
:104C600040F2AD62DFF80C16DFF8D804FCF7D4FF91
:104C70002000FFF789FF002802D12000FFF7CFFFB7
:104C800010BD0000D8CC0008ECEE0008F8B5040018
:104C9000002C09D1DFF8443440F2C162DFF8D815A6
:104CA000DFF8A004FCF7B8FF206F002802D17FF0E6
:104CB000050033E0256F2800FFF798FE002802D09A
:104CC0007FF005002AE02868206714F16C0600E0F8
:104CD0003668306800280CD03068C1684868FDF735
:104CE0003BFC0700E9684868FDF736FC3F1A002FD7
:104CF000EED43068286035602868002802D1002092
:104D0000A4F8680094F84200FF2804D094F8420008
:104D1000401C84F84200002060630020F2BD0000C7
:104D20005CCF000810B50400002C09D1DFF8AC33CB
:104D300040F2F962DFF84415DFF80804FCF76CFF75
:104D4000206F002830D0A07E40072DD42000FFF730
:104D50009DFF002828D1B4F84800B4F860108842BC
:104D600002D2B4F8480001E0B4F86000022190FBE0
:104D7000F1F0A4F84A00B4F84A00618EB0EB410F9C
:104D800004D2608E80B24000A4F84A00B4F84A1001
:104D9000628E032042435018A4F84800608B50F004
:104DA000040060830020208610BD000094CF00081E
:104DB0002DE9F84F82468846110099464FF420723B
:104DC00011EB0801143189B22220FCF74FFF0400D7
:104DD000002C41D06089414689B21431884208DAFA
:104DE000BE4B40F22472DFF89814DFF85803FCF74A
:104DF00013FF0D9D0C9E0B9F0A98D4F804B080B24F
:104E0000FDF7A2FBABF80000380080B2FDF79CFB79
:104E1000ABF80200CBF804905046FDF79DFBCBF8B1
:104E200008001FFA88F8042098FBF0F0401DF6B245
:104E300056EA0036300080B2FDF786FBABF80C0076
:104E4000280080B2FDF780FBABF80E000020ABF825
:104E500010000020ABF812002000BDE8F28FF8B57A
:104E600084B004000D0016001F00002C07D19B4BDE
:104E700040F24272DFF80C14B248FCF7CDFE608DB0
:104E8000039010200290208B0190E08A00903B005C
:104E9000320092B2290089B2606AFFF789FF0028C8
:104EA00003D0616A628D8918E16205B0F0BD00002F
:104EB000A0E00008C4E00008FCEE00080CEF0008C9
:104EC00070B50C0016000025002C07D1834B40F272
:104ED0005672DFF8B4139B48FCF79EFE616811F12F
:104EE0001400F20701D5042200E00022B30701D527
:104EF000002300E00023340701D5002400E0002453
:104F0000F60601D5002600E00026ADB201EB8501D2
:104F100011441944214431441431884206D06F4B66
:104F200040F27572D0498748FCF776FE70BD0000EC
:104F300038F00008FEB505000C0016001F00002C1C
:104F400006D1664B40F28772D0497E48FCF764FE7A
:104F50003A0031002800FEF74FFD002802D17FF013
:104F6000030512E0002D02D0EB7AA97A01E0FF23BD
:104F70000021029006200190C9B20091DBB23A00F4
:104F80003100200000F091FB05002000FDF798F8AB
:104F9000280040B2FEBD2DE9F84F84B080468A4615
:104FA00091461C00002C06D14C4B40F2C472B8490B
:104FB0006448FCF731FE0E9D002D06D1474B40F2B0
:104FC000C572B4495F48FCF727FE109E0F9F5046FC
:104FD0005FF0000A46F2080BFDF7BEFA1FFA8BFBE2
:104FE000CDF80CB014210291B6B20196BFB2009771
:104FF000030000225146C9B289B24846FFF7D8FEE5
:105000000600002E0CD05346DBB200223100404691
:10501000FFF756FF2B00220031004046FFF78AFFC2
:1050200005B0BDE8F08F000060E90008F8B50400A5
:1050300000260027002C06D1284B40F2EA72964940
:105040004048FCF7E9FDF00701D5042500E0002504
:10505000B00701D5002000E00020310701D5002174
:1050600000E00021F20601D5002200E000224519EF
:105070004D195519206DFDF76FFA03000022EDB2AE
:10508000290089B22000FFF7EAFE0500002D06D1B5
:10509000608B50F0030060837FF001001CE03B0058
:1050A000DBB23200D2B229002000FFF709FF231D36
:1050B000220029002000FFF73DFF010049B200292E
:1050C00004D0618B51F00301618304E0628B4FF6E1
:1050D000FC710A40628340B2F2BD0000ACC9000816
:1050E00020CB000844E5000870B505000026002D1F
:1050F00006D16A4B40F6240269491248FCF78CFD40
:10510000286D401EFDF728FA030000223100C9B2C5
:1051100089B22800FFF7A3FE0400002C02D15FF043
:10512000FF300DE03300DBB2002221002800FFF742
:10513000C7FE2B1D2A0021002800FFF7FBFE40B20E
:1051400070BD00006CDC0008D0CD0008ECEB00085E
:10515000E8D600082DE9F84304005FF00008002CB1
:1051600006D14E4B40F64F024E494F48FCF754FDD6
:10517000E66E002E01D100205FE094F89A00FF282F
:1051800004D094F89A00401C84F89A00F068808952
:10519000FDF7DAF9C00704D53089002801D10127CD
:1051A00000E000273800C0B2002801D0002200E053
:1051B0000122F068436892B24146C9B289B2200028
:1051C000FFF74DFE0500002D02D15FF0FF3034E007
:1051D000D5F80490FFB2002F0BD01120FDF7B4F9E1
:1051E000B9F80C204CF2FF010A401043A9F80C005A
:1051F0000BE0686810F114017068038930891B1A8C
:105200009BB201227068FDF7C8F8F1684868FDF7A5
:10521000A3F9401C216D091A002900D520654346D9
:10522000DBB2002229002000FFF74AFE231D2200E6
:1052300029002000FFF77EFE40B2BDE8F2830000A7
:1052400094DC000804EC0008BCDC0008D0840020DA
:105250001CEC0008E4DC000864E5000884E50008B4
:10526000E8E00008A4840020B8ED00080CE1000884
:1052700030E100087CE9000834EC0008A4E50008EF
:105280007CD400080CDD000834DD000814D70008C9
:1052900098E90008B4E90008C4E50008ACC90008B2
:1052A000D0E9000854E100086CDC000880B5FDF787
:1052B00092F952480068002803D15148006800283C
:1052C00005D000224F49FA2000F080F802E00020CB
:1052D0004D49086001BD80B54B49086800280ED1D2
:1052E00046480068002803D145480068002806D0D9
:1052F0000120086000224349FA2000F067F801BD50
:1053000070B504000D001600062001F0B6F9002863
:1053100008D1002805D13D4BBE223D493D48FCF750
:105320007BFC27E0002101608560C66044603A4A4A
:105330001168002901D110601CE0436811684968B8
:105340005B1AB3F1004F03D311680160106011E0E4
:10535000126800E01268002A0CD01168002906D0FB
:105360004368116849685B1AB3F1004FF2D31168C2
:105370000160106070BD38B5040025006868804782
:1053800002F071F825490B682968CB18191AB1F198
:10539000004F06D3220022492B681818FFF7B0FFF0
:1053A00004E022001E491800FFF7AAFF31BD10B526
:1053B000012408E01B4800EBC402194950F83400EE
:1053C00000F004F8641C032CF4D310BD70B5040085
:1053D0000D001600B4F1804F06D30C4B40F2291299
:1053E00011490C48FCF718FC02F03DF82418320073
:1053F00029002000FFF784FF70BD0000B08400206A
:10540000B4840020AD520008DC84002068C7000886
:1054100018CD00085CDD0008D4840020D88400206A
:10542000775300084CEC0008CCCF000810B4DFF82C
:105430009413096808E091F82D20920703D40268BC
:10544000CB689A4215D00968002914D091F82D2014
:1054500012F00502052AF6D14A68002AF3D0036843
:105460008A6813404C688A681440A342E3D108005C
:1054700019E0080017E0DFF85023116800290FD069
:10548000116891F82D1011F00501052908D1116856
:105490004968002904D0007800F0FF007F2801D17E
:1054A000002000E0106810BC704780B5010091F842
:1054B0002D00C0070FD5486800280CD0DFF80C037A
:1054C00042694B689A4204D04069FDF717F80028FA
:1054D00001D0012000E0002002BD2DE9F8430500C5
:1054E0000E006F683878C0B20009C0B2042804D03A
:1054F0002800FCF7E5FD0020D5E0387810F00F001B
:105500005FEA80085FFA88F87888FDF71DF80400E4
:105510002000298980B2884204D2210089B2280063
:10552000FCF7E0FC6889414689B2884207D32889A4
:10553000A4B2A04203D3404680B2142804DA280063
:10554000FCF7BEFD0020AEE03869DFF88092C9F8B4
:105550001400F868C9F8100099F8140010F0F00071
:10556000E0280AD196F82D00C00704D570680028FD
:1055700001D034001CE000241AE03000FFF795FF52
:10558000002801D0340013E0002499F8140000F042
:10559000FF007F280CD08B48046800E02468002CB2
:1055A00006D0B442FAD02000FFF77FFF0028F5D0E4
:1055B0003100D9F81000FCF7A1FF002805D199F8B7
:1055C000100010F0F000E02804D12800FCF778FD6E
:1055D000002068E0002C04D12800FCF771FD0020B9
:1055E00061E0F8884FF63F71084208D0280002F0C9
:1055F00098FA0500002D01D1002054E06F68C9F829
:105600000040C9F80460C9F80870387810F00F003D
:105610008000C0B2A9F80C00414689B22800FCF70E
:1056200002FD787A01280DD0062806D011280ED167
:105630003100280002F069FD22E031002800FAF76D
:10564000A3FD1DE03100280002F066FE18E02100F5
:10565000D9F81400FCF752FF00280ED199F8140075
:1056600010F0F000E02808D0414609B22800FCF70D
:1056700021FD0221280002F026FF2800FCF720FD72
:105680000020C9F800000020C9F804000020C9F873
:1056900008000020A9F80C000020C9F81000002024
:1056A000C9F814000020BDE8F2837FB50A9E0C0003
:1056B000002A05D0002902D00968002900D1341D34
:1056C0000999089D0296C9B20191EDB20095DBB22D
:1056D000210000F002F804B070BD2DE9F843060087
:1056E0000D0014009846B07B012806D0384B4FF4CB
:1056F000557238493848FCF78FFA002C42D05FF0D9
:10570000140914213000FCF789FC002802D07FF036
:10571000010054E077687089142806D22C4B40F2BF
:1057200089322E492C48FCF777FA0998089987F8AE
:1057300008807872206838611FFA89F9042099FB83
:10574000F0F050F04000387079703089FCF7FCFEC2
:1057500078800020F880DFF88880B8F80000FCF737
:10576000F3FEB880B8F80000401CA8F80000002D37
:1057700003D11C480068F86001E02868F860002048
:10578000788109E07089142802DA7FF0010016E0C0
:105790007068016900916C460A9B988C002809D0BA
:1057A000988C3189884205D222001900300002F01D
:1057B00010FB04E02200310018005B699847BDE847
:1057C000F2830000988400209C8400202084002024
:1057D00004C7000854EF00085CD800083CD2000859
:1057E000E884002088F000082DE9F0439FB000BF56
:1057F00065A6269CDFF8B48A8DF83B400291002410
:105800000B944FF0FF37044691461D460AE019F805
:10581000011B0298A0470028029000F0A1800B987D
:10582000401C0B9099F8000050B12528EFD10021C1
:105830000022059106920791089209910A9203E0CD
:105840000B98A5E041F0010119F8010F2028F9D0CB
:1058500023280CD02B2804D02D2805D0302809D09F
:1058600080E041F00201EFE741F00401ECE741F094
:105870000801E9E741F01001E6E70D920AE00D9812
:10588000404505DA00EB800002EB4002303A0D9211
:1058900009F1010999F80020A2F130000A28EED39D
:1058A00099F800002E2818BF0C9726D119F8010F7F
:1058B0002A2808D12868286009F1010950F8042B2A
:1058C00028600C9219E02D280CBF09F10109002075
:1058D00000220C920BE040B90C9A424505DA02EB2B
:1058E000820203EB4203303B0C9309F1010999F862
:1058F0000030A3F130020A2AEDD3ADF8381030465B
:1059000099F8001002F03EFE08B119F8010B8DF86D
:105910003A009DF83A00682805D199F800006828F7
:105920000CD1622106E06C2804BF99F800006C28B5
:1059300004D171218DF83A1009F1010910A80490E1
:105940002A4619F8013B6946204600F061F838B94B
:1059500010AA6946204600F08FF900287FF562AF53
:10596000384615E02A2888D12A682A6052F8040BA4
:105970002A6000280D9003D540420D9041F00401AB
:1059800009F101098CE70000686A6C747A4C000028
:105990001FB0BDE8F083622820D0682811D06A28A3
:1059A00003D06C2827D0712825D10868C01D20F0AD
:1059B00007000860D0E90023083008601946104647
:1059C0007047002A0A680A60106803D0121D0A6036
:1059D00000B217E0121D0A6080B217E0002A0A68C0
:1059E0000A60106803D0121D0A6040B20AE0121D5E
:1059F0000A60C0B20AE0002A0A680A60106803D090
:105A0000121D0A60C1177047121D0A6000217047FD
:105A100070B51C460D46B4F125002E69114600F004
:105A200019811C3868D0001F022865D9133842D06C
:105A3000093861D0801E16D0401E1ED0401E02289C
:105A40005AD9001F19D0401F00F08180401E32D06B
:105A5000401E00F0CB80C01E00F0DA80801E2AD0ED
:105A6000C01E28D0FCE06869421C6A610A680A60AE
:105A700052F8043B0A603354FCE095F83A000122E6
:105A8000FFF789FFC5E90001002904D56869411CB9
:105A900069612D220DE0288F810704D56869411CBA
:105AA00069612B2205E0C00721D56869411C696145
:105AB000202232541BE095F83A000022FFF76BFFDA
:105AC000C5E9000195F83800010710D5D5E9002394
:105AD000002B08BF002A0AD044F02000782806D105
