:020000040800F2
:1000000000200010193E0008A93D0008AB3D000883
:10001000AD3D0008AF3D0008B13D00080000000004
:10002000000000000000000000000000B33D0008D8
:10003000B53D000800000000B73D0008B93D0008CC
:10004000653E0008693E00086D3E0008713E0008EC
:10005000753E0008793E00087D3E0008813E00089C
:10006000853E0008893E00088D3E0008913E00084C
:10007000953E0008993E00089D3E0008A13E0008FC
:10008000A53E0008A93E0008AD3E0008B13E0008AC
:10009000B53E0008B93E0008BD3E0008C13E00085C
:1000A000C53E0008C93E0008CD3E0008D13E00080C
:1000B000D53E0008D93E0008DD3E0008E13E0008BC
:1000C000E53E0008E93E0008ED3E0008F13E00086C
:1000D000F53E0008F93E0008FD3E0008013F00081B
:1000E000053F0008093F00080D3F0008113F0008C8
:1000F000153F0008193F00081D3F0008213F000878
:10010000253F0008293F00082D3F0008313F000827
:10011000353F0008393F00083D3F0008413F0008D7
:10012000453F0008493F00084D3F0008513F000887
:10013000553F0008593F00085D3F0008613F000837
:10014000653F0008693F00086D3F0008713F0008E7
:10015000753F0008793F00087D3F0008813F000897
:10016000853F0008893F00088D3F0008913F000847
:10017000953F0008993F00089D3F000800000000DF
:10018000A13F0008A53F00082DE9F0439FB000BF44
:1001900065A6269CDFF8B48A8DF83B4002910024C6
:1001A0000B944FF0FF37044691461D460AE019F8BC
:1001B000011B0298A0470028029000F0A1800B9834
:1001C000401C0B9099F8000050B12528EFD1002178
:1001D0000022059106920791089209910A9203E084
:1001E0000B98A5E041F0010119F8010F2028F9D082
:1001F00023280CD02B2804D02D2805D0302809D056
:1002000080E041F00201EFE741F00401ECE741F04A
:100210000801E9E741F01001E6E70D920AE00D98C8
:10022000404505DA00EB800002EB4002303A0D92C7
:1002300009F1010999F80020A2F130000A28EED353
:1002400099F800002E2818BF0C9726D119F8010F35
:100250002A2808D12868286009F1010950F8042BE0
:1002600028600C9219E02D280CBF09F1010900202B
:1002700000220C920BE040B90C9A424505DA02EBE1
:10028000820203EB4203303B0C9309F1010999F818
:100290000030A3F130020A2AEDD3ADF83810304611
:1002A00099F8001000F086FE08B119F8010B8DF8DE
:1002B0003A009DF83A00682805D199F800006828AE
:1002C0000CD1622106E06C2804BF99F800006C286C
:1002D00004D171218DF83A1009F1010910A8049098
:1002E0002A4619F8013B6946204600F061F838B902
:1002F00010AA6946204600F08FF900287FF562AF0A
:10030000384615E02A2888D12A682A6052F8040B5A
:100310002A6000280D9003D540420D9041F0040161
:1003200009F101098CE70000686A6C747A4C0000DE
:100330001FB0BDE8F083622820D0682811D06A2859
:1003400003D06C2827D0712825D10868C01D20F063
:1003500007000860D0E900230830086019461046FD
:100360007047002A0A680A60106803D0121D0A60EC
:1003700000B217E0121D0A6080B217E0002A0A6876
:100380000A60106803D0121D0A6040B20AE0121D14
:100390000A60C0B20AE0002A0A680A60106803D046
:1003A000121D0A60C1177047121D0A6000217047B4
:1003B00070B51C460D46B4F125002E69114600F0BB
:1003C00019811C3868D0001F022865D9133842D023
:1003D000093861D0801E16D0401E1ED0401E022853
:1003E0005AD9001F19D0401F00F08180401E32D022
:1003F000401E00F0CB80C01E00F0DA80801E2AD0A4
:10040000C01E28D0FCE06869421C6A610A680A6064
:1004100052F8043B0A603354FCE095F83A0001229C
:10042000FFF789FFC5E90001002904D56869411C6F
:1004300069612D220DE0288F810704D56869411C70
:1004400069612B2205E0C00721D56869411C6961FB
:10045000202232541BE095F83A000022FFF76BFF90
:10046000C5E9000195F83800010710D5D5E900234A
:10047000002B08BF002A0AD044F02000782806D1BB
:10048000686930213154401C421C6A613454214651
:1004900068693044E86087E00868C01D20F0070004
:1004A0000860D0E9002308300860C5E90023D5E9D9
:1004B0000001C80F04D06869411C69612D220DE05C
:1004C000288F810704D56869411C69612B2205E0EA
:1004D000C00704D56869411C6961202232546869EB
:1004E0003044E8602146284600F0C4F992E005F166
:1004F0003A02507820B14FF0FF340FF6202062E02E
:100500001078622808D0682824D06A2812D06C2875
:100510002ED071280ED02BE00A680A6052F8040B26
:100520000A6020B94FF0FF340FF608204BE0E96A6B
:1005300001706FE00A680A6052F8040B0A6020B983
:100540004FF0FF340FF6EC103DE0EA6AD317C0E934
:1005500000235FE00A680A6052F8040B0A6020B9C1
:100560004FF0FF340FF6CC102DE0E96A018051E026
:100570000A680A6052F8040B0A6020B94FF0FF3491
:100580000FF6B0101FE0E96A016043E00A680A60F4
:1005900052F8040B0A60002120F0000221F0FF3322
:1005A000C5E90023EE607821284600F0BBF831E071
:1005B0000868086050F8044B0860EC603CB94FF0E4
:1005C000FF340FF6881000F001FD201A70BD2E6B6D
:1005D000002E04D5204600F019FD044608E03246FE
:1005E0000021204600F02EFD002814BF041B3446D5
:1005F000AC610FE06869411C69612522325409E051
:100600006969481C686125227254210002D0431C8C
:100610006B613454002070BD2DE9FC410F46064645
:1006200090467A6B7869396ABC6A121AB869521AAC
:10063000796A121AF869521A121A97F83800141BBC
:1006400041070FD42020002C8DF800000ADD25463C
:1006500001236A463946304600F048FC00285DD147
:100660006D1EF5D17B6942463946304600F03EFCAE
:10067000002853D130208DF800003D6A002D09DD9F
:1006800001236A463946304600F030FC002845D147
:100690006D1EF5D1BB69FA683946304600F026FC7C
:1006A00000283BD130208DF800007D6A002D08DD48
:1006B00001236A463946304600F018FC70BB6D1EB7
:1006C000F6D1F868B969FB6942183946304600F03E
:1006D0000DFC18BB30208DF80000BD6A002D08DD30
:1006E00001236A463946304600F000FCB0B96D1E61
:1006F000F6D197F8380041070DD52020002C8DF851
:10070000000008DD01236A463946304600F0EEFB62
:1007100020B9641EF6D10020BDE8F6814FF0FF300D
:10072000BDE8F6812DE9FC4307466F293E6908BF05
:10073000082405D041F02000782814BF0A24102492
:100740003C25D7E90023642918BF692990469946BA
:1007500005D1002B03D5D8F1000869EB4909B9F19F
:10076000000F08BFB8F1000F1FD1386BE8B9082C93
:100770004CD197F83800010748D530203B2586F842
:100780003B0043E000280ED597F8380000F0140035
:10079000102808D17B6B7969386A5B1A1B1A9A1A80
:1007A000002AC8BF3A62BDE8F3838DF800104046C6
:1007B00049462246E31700F071FC3032D0B26D1E7C
:1007C0003A28019504DB9DF80000A0F151018A1838
:1007D0007255404649462246E31700F05FFC8046CA
:1007E0005FEA010908BFB8F1000F03D0F86871197A
:1007F0008842DCD3082C09D197F83800010705D5C9
:10080000705D302802D06D1E30207055C5F13C025D
:10081000BA617119F960386B8242B3DA821A3A62AE
:100820004FF6EF70398F01403987BDE8F3832DE92A
:10083000D04306460F4614464FF00008DFF81094E8
:1008400012E0E00707D542464B463046394600F0F5
:100850003DFD06460F464046494642464B4600F09F
:1008600035FD641080468946002CEAD13046394671
:10087000BDE8D0832DE9F84F05468A464AF02004AA
:100880008EB0D5E90089612C02AE09D0286B002812
:1008900048BF062003D408BF672C01D1012028637C
:1008A000D5E900014A005215521C0DD10B030BD0A3
:1008B000AAF1610103201A29A86102D20FF2A861EE
:1008C00010E00FF2A8610DE04A005215521C0ED143
:1008D0000B030CD1AAF1610103201A29A86116D3D8
:1008E0000FF29061E868032200F0C2FDC0E1CDE99B
:1008F0000C01DDE90C2323F00043B3F5801F0DD27A
:100900000027002B08BF002A019703D111E00FF246
:100910006061E7E701AA00F0FFFD0AE0CD48CE499B
:1009200000EB1350DDE90C2301900B40CB4910463E
:100930001943C5E90001612C0DD1E868302101702F
:10094000821CBAF1610FEA600CBF78215821417016
:100950006869801C6861D5E90001CDE90C01DDE919
:100960000C2333F0004104BF0028002300F048812D
:10097000612C40F0A080286B494600284CBF4FF006
:10098000210B00F1010B404600220023DDE90C8918
:1009900000F0FAFD01990BF1010738BF89F0004919
:1009A000091F002F01918DF808200DF1090040F377
:1009B0003581A94900910646404649460022002358
:1009C00000F0FAFD80F029814800400D00F11C0282
:1009D00011D0002A0FDD40F2FF739A4205DBA049D7
:1009E00009F000400143002011E0009B194041EA5A
:1009F000025140460BE028F0000039F0004108BFEA
:100A000000280FBF49461C22494600F0EDFD8046F4
:100A1000894600F087FEFF1F002F044609DD00F025
:100A20009FFE02460B464046494600F0ABFE80461C
:100A30008946F01D072104E004F00F0200F8012DA3
:100A40002411002C01DD491EF6D5491E5CBF002291
:100A500000F8012DF9D5DCE00020194602AA0A446D
:100A600000E05B1E12F80149491E8442F9D00F28AC
:100A700004D10DF10900425C521C4254002904D5F6
:100A80000198001D02AE5B1C0190581E0CD4311859
:100A9000AAF13A040A783032D7B23A2FA8BFA21886
:100AA000401E01F80129F5D5286B002840F1A780E8
:100AB000591E2963A3E001996A4A47F297504143BE
:100AC00091FBF2F2019229F00046D2F1070204DD17
:100AD00040463146FFF7ABFE0AE052420020624931
:100AE000FFF7A5FE02460B464046314600F0BCFE2D
:100AF0008046662C286B06BF019F0A3706273F18E1
:100B0000142FC8BF142730208DF8080089460DF136
:100B1000090000E03046002F34DD064640464946D5
:100B200000F0C6FF01460A4606F1080304200A2623
:100B3000B2FBF6F606EB860EA2EB4E02303203F85D
:100B4000012C0A22B6FBF2F202EB820EA6EB4E0655
:100B50003036401E03F8026DE9D1083F002F03F143
:100B60000806D7DD084600F0B7FF02460B464046B0
:100B7000494600F007FE00223C4B00F0A7FB8046F0
:100B80008946CBE70DF10901401A0DF1090604E091
:100B90000199491E401E0191761C31783029F7D009
:100BA000662C02D10199491C03E0652C0CBF012180
:100BB00000212B6BCB189842B8BF431E002B1ED4CC
:100BC000834204DAF05C3528A8BF392000DA3020EF
:100BD0001946721E02EB010800E05B1E18F801992D
:100BE000491E8145F9D0392802D1705C401C7054EF
:100BF000002904D50198401C16465B1C0190019801
:100C000000B200901BB232465146284600F034F83C
:100C10002EE0C61D002F3FF7CFAE30460DF1090183
:100C2000401A03465845C8BF5B46002B0DF1090624
:100C30003FF53AAF8342BFF60FAF0DF10900C15C3B
:100C400007297FF709AF0F2007E70000CBCCCC0CBA
:100C50000000244002FCFFFFFFFF0F800000E03F88
:100C60000000F07FA08601000000F03F84D797418C
:100C70000FB0BDE8F08F00002DE9F84783B00646BD
:100C80008A461746984600F035FFB8F1000F406AD3
:100C9000356B90F8009002DC4FF00108B6A74AF0DF
:100CA0002000BDF93040662808BF641C15D06728B5
:100CB00040F0848014F1040FC0F28680AC4280F2D0
:100CC000838096F83800641C010702D4A845B8BF99
:100CD000454620B22D1A48BF00250FFA84FAF06865
:100CE000B169BAF1000F25DC4A1C30234354002DB2
:100CF00003DC96F83800010703D5F06800F802908D
:100D0000521C15EB0A0FB8BF6C4220B24419414285
:100D10004445B8BFA046B26171620FFA88F5F5612B
:100D2000F068B3692A463946184400F0A1FB641BF9
:100D3000B462C4E022B29045084417DA424639460C
:100D400000F096FBB0694044B061AAEB0801002DA9
:100D5000716203DC96F838100A0705D5F16801F8CE
:100D60000090F069401CF061B562A8E0394600F0DF
:100D70007FFBB069002D5044A8EB040803DC96F813
:100D800038100A0703D5F16801F80090401CB061E3
:100D90000FFA88F08542F368B069B8BFA8460FFA29
:100DA00088F207EB0A01184400F062FBB1690FFA00
:100DB00088F00144B161281A706280E0BAF1610FD5
:100DC00014D14FF0700A16E0A84504DA96F83810EE
:100DD0000A0758BF45466D1E48BF0025BAF1670F88
:100DE00014BF4FF0450A4FF0650A04E0BAF1410F15
:100DF00008BF4FF0500AB169F368481CB061002D7C
:100E000017F8012B5A5403DC96F838100A071BD543
:100E1000F168431CB36101F80090002D14DDA8F1C6
:100E200001080FFA88F039468542F768B8BFA8462E
:100E30000FFA88F2F81800F01BFBB0690FFA88F17E
:100E400008446D1AB0617562F068B1690844002CFD
:100E500080F800A003D42B224270811C03E02D21D6
:100E600041706442811C00206A460AE023460A243D
:100E700093FBF4F404EB8405A3EB450302F8013B78
:100E8000401C24B2002CF1DC012806DC4AF02002D0
:100E9000652A04BF302201F8012B48B9302001F83F
:100EA000010B07E0401E1DF80030303301F8013B14
:100EB0000028F7DCF268B0691044091AF16196F86D
:100EC000380000F0140010280DD17269B169706A01
:100ED0008A18F1698218B06A8A188218706B824287
:100EE000BCBF821A326204B0BDE8F087F8B505468F
:100EF0000E4617461C46002074B117F8011BB06857
:100F0000A847B06030B1F06A401CF0620020641E57
:100F1000F3D1F2BD4FF0FF30F2BD00007072696E88
:100F200074665F733A20256E20646973616C6C6F20
:100F3000776564007072696E74663A20626164203D
:100F4000256E20617267756D656E74007072696ED2
:100F500074665F733A206261642025732061726752
:100F6000756D656E740000006E616E004E414E003E
:100F7000696E6600494E4600300030B4002513E02B
:100F800050F8042BD30744BFA9F101039A18091F95
:100F9000042942F8045BFAD213468C0744BF15803B
:100FA0009B1CC90748BF1D7050F8041B0029E7D1DE
:100FB00030BC7047C9B202788A421AB11CBF10F81F
:100FC000012FF9E718BF00207047000080B500B975
:100FD00006A005490B681BB122220021984701E0B9
:100FE00000F08CFD222002BD7C110020636F6E7327
:100FF000747261696E742068616E646C65723A2007
:10100000626164206D6573736167650000F10103BF
:10101000810704D010F8011B820781B1FAD1026860
:10102000A2F10131914311F0803104BF50F8042F37
:10103000F6E709BAB1FA81F100EBD100401CC01A01
:1010400070470000C9B2830706D0521E22D310F8A1
:10105000013B9942F7D11FE0083A13D302F1040291
:1010600041EA012141EA014150F8043B121F21BF2E
:101070004B40A3F1013C2CEA030C1CF0803FF3D061
:10108000C9B2001F083210F8013B521E28BF91EA76
:10109000030FF8D818BF0120401E7047BBBBE1B159
:1010A000B2F5803F80F07E80022A1ED98C46B1FBCB
:1010B000F2F102FB11C31B0443EA1043B3FBF2FC41
:1010C00002FB1C3380B240EA0343B3FBF2F002FBA5
:1010D000103240EA0C4000237047022A05D98446AA
:1010E000B0FBF2F002FB10C270474AB105D100F02C
:1010F000010249085FEA3000704700220023704770
:1011000000F000BD0B00020000210020704790425B
:1011100071EB030CF6D3B3F5803F2FD2F0B5B3FAE1
:1011200083F7B1FA81F4A7F10F0E3D1B5340CEF1C6
:10113000200602FA0EF2F3415340B5F10F0746D8EC
:101140000F3C2C444140C4F12006A040F1414140F5
:10115000B1FBF3F603FB1611A2FB0645001BA941E8
:1011600002D2761E8018594180EA010221FA0EF35C
:1011700062FA0EF200215A403046F0BD30B4B1FBA5
:10118000F3FC03FB1C11A2FB0C45001BA94103D27D
:10119000ACF1010C8018594130BC02460B46604648
:1011A00000217047B2F1807F65D3F0B5B2FA82F7C3
:1011B000B1FA81F4C7F10F063D1B22FA06F307F1DD
:1011C000110EF24120355A40B5F10F07B8D9414010
:1011D000C4F12006A040F1414140B1FBF3FC03FB08
:1011E0001C11A2FB0C45001BA94103D2BCF1010C50
:1011F000801859410F2F12D30F3FC90341EA5041C4
:10120000B1FBF3F603FB1611A2FB0645D4EBC0308D
:10121000A94102D2761E8018594146EACC3C07B358
:101220004140C7F12006B840F1414140B1FBF3F61F
:1012300003FB1611A2FB0645001BA94102D2761E34
:101240008018594180EA010221FA0EF3C7F1200407
:1012500062FA0EF20CFA07F05A402CFA04F130430D
:10126000F0BD80EA010221FA0EF3002162FA0EF2CB
:1012700060465A40F0BD8C46B1FBF2F102FB11C34F
:101280001B0243EA1063B3FBF2FC02FB1C331B029C
:101290004CEA002043EA1063B3FBF2FC02FB1C3370
:1012A0001B024CEA002043EA1063B3FBF2FC02FB92
:1012B0001C331B024CEA002043EA1063B3FBF2FC30
:1012C00002FB1C324CEA002000237047B0B581EAD3
:1012D000030C0CF0004C40F2FF7515EA11541DBFD1
:1012E00015EA1357AC42AF4239E0E41923EA4553FB
:1012F00043F48013C90241F0004141EA505EC70245
:101300001100A7FB020200284FF00000EEFB0120B5
:101310004FF00001E3FB072118BF42F00102401823
:1013200000214941E3FB0E01A4F580640F0302D2C2
:1013300052004041494154F101046CDD470872F10B
:10134000004250F1000051EB0451A1F580115CBF47
:1013500041EA0C01B0BD4CEA05510020B0BD05EAE0
:101360001357AC4214BFAF4241E050EA410E1CBFDC
:1013700052EA430E02E061460020B0BD24423C44E4
:101380001BD15FEA070EF6D0090302BF0146002019
:10139000AEF1140EB1FA81F7AEEB070401FA07FEC5
:1013A0000C37C7F1200100FA07F7C8404EEA000EDB
:1013B00023EA455343F48013A2E733F00043B3FA22
:1013C00083F704BFB2FA82FE77440B3FE41BB7F108
:1013D000200E2FBF02FA0EF3BB40C7F1200E22FAF7
:1013E0000EFE38BF43EA0E03BA40641C82E750EA9F
:1013F000410E14BF52EA430E6FF000014FF4001784
:1014000017EB430F8ABF194617EB410FB5E74CEABC
:1014100005510020B0BDD4F10104B4F120070FDA6A
:10142000C4F12007520828BF42F0010210FA07F564
:1014300001FA07F7E1BF2A43E0403843E1400FE0FB
:10144000352C98DCC7F1200452EA400220FA07F25A
:1014500018BF42F0010231FA07F0A1400A4300210F
:1014600072F1004250F1000051EB0C01B0BD0000E0
:1014700062B38B0708D0521E11F8013B00F8013B04
:1014800000F024808B07F6D1830740F0208000BF56
:10149000103A07D330B4B1E83810103AA0E8381049
:1014A000F9D230BC530724BFB1E80810A0E80810F7
:1014B00044BF51F8043B40F8043BD20724BF31F845
:1014C000022B20F8022B44BF0B7803707047121FC9
:1014D00017D35B0009D151F8043B20F8023B1B0CE9
:1014E000121F20F8023BF6D20BE051F8043B00F843
:1014F000013B1B0A20F8023B1B0C121F00F8013BAA
:10150000F3D238BF121D521E24BF11F8013B00F860
:10151000013BF8D87047000010B5144600F002F8FF
:10152000226010BDC1F30A5343B14A0012F5001FF7
:1015300028D2A3F2FE32A1EB0251704750EA410CCF
:1015400020D001F0004C31EA0C01B1FA81F204BF65
:10155000B0FA80F3D2180B3AB2F120032CBF00FA94
:1015600003F1914041EA0C013EBFC2F1200C20FA88
:101570000CF319439040524240F2FD33D21A01EB72
:1015800003517047002270474FF4001C1CEB410FC1
:1015900094BF1CEB430F09E041EA030C50EA4C0CEA
:1015A00052EA0C0C03D2994208BF9042704714BF14
:1015B0008B428242704700004FF4001C1CEB410F2D
:1015C00094BF1CEB430F09E041EA030C50EA4C0CBA
:1015D00052EA0C0C03D28B4208BF8242704714BF00
:1015E0009942904270470000124254D440F2FF7C6E
:1015F0001CEA11530FD0634531D09B1863453CBFA3
:1016000001EB0251704701F0004141EA0C5100200A
:10161000AFF30080704750EA410320D001F0004C46
:1016200091EA0C011CD0B1FA81F30B3B9A420DD91F
:10163000D21A994051EA0C01C3F1200C20FA0CFC9B
:1016400061449840531C40F2FF7CD7E7914041EA47
:101650000C01C2F1200C20FA0CF3194390407047A2
:10166000B0FA80F31533202BE0D3202AEED3203AB2
:10167000203B9A4209D9D21A00FA03F141EA0C013F
:101680000020531C40F2FF7CB8E700FA02F141EA67
:101690000C0100207047524240F2FF7C1CEA1153BB
:1016A0000DD06345DBD0B2EB030C3CBFA1EB025184
:1016B00070470CF1010221EA035141F4801150EA14
:1016C000410CCCD001F0004C352A27DC30B481EA43
:1016D0000C01B2F1200309DAC2F12003044601FA39
:1016E00003F5D0402843D1409C400CE0C3F12002D8
:1016F000450020FA03F418BF44F0010421FA03F076
:1017000091400C43002174F1004550F1000051EB71
:101710000C01244230BC7FF47BAF7047614600204F
:1017200076E70000C1F30A5340F2FE329B1A14DD43
:10173000D3F120034FEAE17208DDC90241EA5051BA
:1017400041F00040D84080185040704703F2E1302B
:1017500010B1D24382F00040704700207047000073
:10176000C11768B14840401AB0FA80F29040D21CCC
:10177000C907C2F5846241EA025202EBD02140055A
:101780007047000070B44FF0004591EA030F40F13C
:10179000BB816B40841A71EB030603D2001BB1417D
:1017A000121973414FF4001C1CEB410F34BF7CEB4A
:1017B000430442E00C0DA4EB1356352E4FDC45EAF2
:1017C000C323DB0A45EAC121C912B6F120050DDDAC
:1017D00063FA05F6EB4086EA0305124218BF45F0AE
:1017E0000105C01851F100010CD213E062FA06F5B0
:1017F000F2405540F3415A40B340F3405A408018FC
:10180000594107D349085FEA30005FEA350528BF30
:1018100045F0010501F58011420875F1004250F1D3
:10182000000041EB04514E0016F5001F70BC38BF9C
:1018300070470020090D090570471CEB410F10D2BD
:1018400052EA43060BD0BCEB410F05D80C0DAB435D
:10185000661E342EB6DD02E0AB438018594170BCE1
:10186000704770BC70470000F0B540F2FF7581EA28
:10187000030C0CF0004C15EA11541DBF15EA135768
:10188000AC42AF42E5E0BC41C1F31301C3F3130323
:10189000801A994143F4801304D2641E40004941E8
:1018A00080185941C90241EA5051B1FBF3F603FBDC
:1018B0001611A2FB0675D7EBC020A94102D2761EF5
:1018C00080185941C90241EA5051B1FBF3FE03FBB4
:1018D0001E11A2FB0E75D7EBC020A94103D2AEF1B9
:1018E000010E80185941890241EA9051760546EA75
:1018F0008E2EB1FBF3F603FB1611A2FB0675D7EB98
:101900008020A94102D2761E80185941C90241EABD
:1019100050514EEA060EB1FBF3F603FB1611A2FB83
:101920000675D7EBC020A94102D2761E8018594116
:10193000C90241EA5051B1FBF3F703FB1711A2FBB7
:101940000735D3EBC020A94167F100070CBF004267
:1019500047F0010766F3D5274FEA1E31B80814F5A2
:10196000806412DDBD0775F1004250EB0E5051EB63
:10197000045111F5801F5CBF41EA0C01F0BD4CF031
:101980007F6141F0E0410020F0BDBD076D0840EAF5
:101990000E5041F48011D4F10104B4F120060ADAAA
:1019A000C4F120060200E04001FA06F3E1401843CA
:1019B000B24015430EE0342C13DCC6F1200445EA96
:1019C00040056D0820FA06F2154321FA06F0A14001
:1019D0000D43002175F1004250F1000051EB0C0164
:1019E000F0BD00205FEA0C01F0BDCFB992185B4159
:1019F000B3FA83F704BFB2FA82F6BF190B3FB7F10F
:101A000020062FBF02FA06F3BB40C7F1200622FAD8
:101A100006F638BF3343BA401CB1E419641E33E7FD
:101A20007F4231F00041B1FA81F404BFB0FA80F690
:101A3000A4190B3CB4F120062FBF00FA06F1A14017
:101A4000C4F1200620FA06F638BF3143A0403C1B03
:101A50001AE7AC421ABF05EA1357AF4212E050EA48
:101A600041061CBF52EA4306BFE750EA4107304631
:101A700061461CBF41EA0551F0BD52EA430C08BF64
:101A8000C143F0BD00204FF4001616EB410F98BF84
:101A900016EB430F08BF16EB410F24BFC14305E00F
:101AA00016EB430F0CBF61464CEA0551F0BD000038
:101AB000400D491840EA81200CD2490DA1F5806102
:101AC000491C40F0004005DBD1F11F0154BFC84064
:101AD000C017704700207047014648B1B0FA80F146
:101AE0008840C91CC1F58461090501EBD02140057E
:101AF000704700000048704748000020012000F0B7
:101B0000B9B8000070470000841A71EB030604D2D4
:101B10006E40001BB141121973414FF4001C1CEBC5
:101B2000410F34BF7CEB430683E00C0DA4EB13564E
:101B3000362E00F37C80012E45EAC32341DC43EAC4
:101B4000525312BFD20292025B08240545EAC1211A
:101B500041EA5051D2EBC020994125D407D1B0FAC7
:101B600080F610FA06F162D00020203608E0B1FAC3
:101B700081F6B140C6F1200220FA02F21143B040D2
:101B80004FEAF474B4EB465434F001064FEA74049F
:101B90000AD8D6F50016760D04F00044F04061FA3C
:101BA00006F25040F1404840C00A40EA415021F05E
:101BB000004128BF5FEA500550F1000044EBD121FD
:101BC00035E0DB0A45EAC121C90AB6F120050EDD80
:101BD00042EA0242120CC5F1200603FA06F6EB4077
:101BE00042EA06056D42984161F100010DE062FA9A
:101BF00006F5F240554063FA06FC82EA0C02F34017
:101C00005A406D42904161EB030111F4801F05D1F0
:101C1000641E620502D06D004041494121F48011EB
:101C2000430875F1004350F1000041EB045170BCD2
:101C300070471CEB410F15D223F0004352EA4306D4
:101C40000BD04FEA4C0CBCEB410F04D80C0D661EB8
:101C5000342EB7DDEBE7801A994150EA410608BF00
:101C60000021E4E708BF1CEB430F28BF6FF0000121
:101C7000DDE7000080B5AFF30080024A11001820B4
:101C8000ABBEFBE72600020038B50400002C01D1F2
:101C90000120E0E094F83D00002805D1002084F800
:101CA0003C00200000F0FDFD242084F83D00206869
:101CB000006840084000216808602068006850F40F
:101CC0000040216808602068006830F40040216806
:101CD000086000F0FBFE0100DFF87C2160689042A4
:101CE00008D2DFF87801814201D2012000E0002013
:101CF000C0B207E0DFF86801814201D2012000E0B4
:101D00000020C0B2012801D10120A4E0DFF8540175
:101D1000B1FBF0F320684068800980011843256812
:101D200068602068056A6068904201D25B1C07E029
:101D30004FF4967043434FF47A70B3FBF0F35B1C9F
:101D4000AD09AD012B43206803622068C369606858
:101D5000904214D2481E62685200B0FBF2F0401C60
:101D60000005000D042801D204213EE0491E6068F0
:101D70004000B1FBF0F1491C0905090D35E0A068F0
:101D8000002809D14A1E656803204543B2FBF5F0DF
:101D9000401C0005000D0AE04A1E656819204543F5
:101DA000B2FBF5F0401C0005000D50F4804000052A
:101DB00001D1012119E0A068002809D1491E6268FB
:101DC00003204243B1FBF2F1491C0905090D0AE069
:101DD000491E626819204243B1FBF2F1491C090512
:101DE000090D51F4804151F40041DFF87C000340BB
:101DF0000B432068C3612068016831F0C001E069CD
:101E00000143206A01432068016020688168DFF88F
:101E10005C00014020690143E06801432068816063
:101E20002068C168090A0902A26960690243114376
:101E30002068C1602068006850F0010021680860D7
:101E400000202064202084F83D0000202063002032
:101E500084F83E00002032BDA186010080841E006F
:101E600000093D0040420F000030FFFF007CFFFFF3
:101E70002DE9FE4305000C009046994600F08AFECD
:101E8000060095F83D00202840F0A3800096192315
:101E90000122DFF85014280000F051FB002801D087
:101EA000022097E095F83C00012801D1022091E042
:101EB000012085F83C0028680068C00705D4286820
:101EC000006850F00100296808600C9F0B98DDF84D
:101ED00028C04B46424621002C68246834F4006434
:101EE000D5F800E0CEF80040212485F83D4040249C
:101EF00085F83E4000242C64C5F824C06885688DB0
:101F00002885DFF8DC03E862019600979BB292B265
:101F100089B2280000F0EAF9002822D0012059E017
:101F2000686A007829680861686A401C6862288DC0
:101F3000401E2885688D401E6885286840694007D6
:101F40000FD5288D00280CD0686A007829680861B0
:101F5000686A401C6862288D401E2885688D401E76
:101F60006885288D002811D032003900280000F043
:101F7000C2FB0028D4D0286C042805D1286800684A
:101F800050F4007029680860012023E03200390015
:101F9000280000F0E0FB00280AD0286C042805D1B6
:101FA0002868006850F4007029680860012011E07A
:101FB0002868006850F4007029680860202085F8BF
:101FC0003D00002085F83E00002085F83C00002000
:101FD00000E00220BDE8FE832DE9FE4305000C0071
:101FE0009046994600F0D6FD060095F83D00202861
:101FF00040F07381009619230122DFF8E8122800CF
:1020000000F09DFA002801D0022067E195F83C001D
:10201000012801D1022061E1012085F83C002868F7
:102020000068C00705D42868006850F001002968DE
:1020300008600C9F0B98DDF828C04B4642462100F3
:102040002C68246834F40064D5F800E0CEF8004031
:10205000222485F83D40402485F83E4000242C642D
:10206000C5F824C06885688D2885DFF87402E862A9
:10207000019600979BB292B289B2280000F0A9F9AC
:10208000002801D0012029E1288D00280FD100204F
:102090000090286840690090286880690090009846
:1020A0002868006850F400702968086048E0288DAE
:1020B000012815D12868006830F48060296808601C
:1020C000002000902868406900902868806900908E
:1020D00000982868006850F40070296808602FE0B4
:1020E000288D022815D12868006830F4806029689E
:1020F00008602868006850F40060296808600020C3
:1021000000902868406900902868806900900098D5
:1021100016E00020009028684069009028688069D7
:10212000009000980CE028680069696A0870686A85
:10213000401C6862288D401E2885688D401E688579
:10214000288D002800F0BE80288D042880F088802B
:10215000288D012808D132003900280000F02EFB1C
:102160000028E0D00120B9E0288D02282CD100966B
:102170003B000022DFF87011280000F0E0F9002891
:1021800001D00120AAE02868006850F40070296896
:10219000086028680069696A0870686A401C68629B
:1021A000288D401E2885688D401E68852868006936
:1021B000696A0870686A401C6862288D401E28851C
:1021C000688D401E6885BBE7DFF81C4100963B0028
:1021D00000222100280000F0B2F900283CD1286834
:1021E000006830F480602968086028680069696ABE
:1021F0000870686A401C6862288D401E2885688DBA
:10220000401E688500963B0000222100280000F057
:1022100096F9002822D12868006850F400702968D7
:10222000086028680069696A0870686A401C68620A
:10223000288D401E2885688D401E688528680069A5
:10224000696A0870686A401C6862288D401E28858B
:10225000688D401E688573E701203FE001203DE066
:1022600032003900280000F0A9FA002801D001202E
:1022700034E028680069696A0870686A401C68620E
:10228000288D401E2885688D401E68852868406915
:1022900040077FF555AF288D032805D128680068D1
:1022A00030F480602968086028680069696A0870ED
:1022B000686A401C6862288D401E2885688D401E13
:1022C00068853DE7202085F83D00002085F83E0028
:1022D000002085F83C00002000E00220BDE8FE83DD
:1022E0000000FFFF02001000040001002DE9F84388
:1022F0000400894615001E00089FDDF82480206830
:10230000006850F4807021680860CDF800803B00C0
:1023100000225FF00111200000F011F9002808D020
:1023200020680068C00502D54FF4007020640320C7
:102330004DE019F0FE092068C0F8109043463A00BD
:10234000DFF87414200000F05DF9002801D00120AE
:102350003DE000200090206840690090206880697E
:102360000090009842463900200000F0C4F900288F
:102370000AD0206C042805D12068006850F4007051
:1023800021680860012022E0B6B2012E03D1EDB22F
:10239000206805611AE0280080B2000AC0B22168F6
:1023A000086142463900200000F0A5F900280AD053
:1023B000206C042805D12068006850F40070216862
:1023C0000860012003E0EDB2206805610020BDE84F
:1023D000F2832DE9FC4704008A4615001E000A9F7F
:1023E000DDF82C802068006850F480602168086067
:1023F0002068006850F4807021680860CDF8008083
:102400003B0000225FF00111200000F098F8002846
:1024100008D020680068C00502D54FF40070206421
:1024200003208AE01AF0FE0021680861DFF8889333
:1024300043463A004946200000F0E4F8002801D065
:1024400001207AE000200090206840690090206818
:1024500080690090009842463900200000F04BF956
:1024600000280AD0206C042805D12068006850F4A8
:1024700000702168086001205FE0B6B2012E03D130
:10248000EDB2206805611AE0280080B2000AC0B2EF
:102490002168086142463900200000F02CF900282C
:1024A0000AD0206C042805D12068006850F4007020
:1024B00021680860012040E0EDB2206805614246D5
:1024C0003900200000F017F900280AD0206C0428F9
:1024D00005D12068006850F4007021680860012070
:1024E0002BE02068006850F4807021680860CDF807
:1024F00000803B0000225FF00111200000F01FF877
:10250000002808D020680068C00502D54FF400708C
:102510002064032011E05AF0010A5FFA8AFA206869
:10252000C0F810A043463A004946200000F06AF87F
:10253000002801D0012000E00020BDE8F6872DE949
:10254000F04105000E0017001C00DDF81880300077
:10255000000CC0B201280AD128684069304080B21E
:10256000B1B2884201D101200BE0002009E02868C7
:102570008069304080B2B1B2884201D1012000E0D0
:1025800000203900C9B2884239D114F1010FDED0E0
:1025900000F000FBB0EB0800844201D3002CD6D140
:1025A0003000000CC0B201280AD1286840693040D0
:1025B00080B2B1B2884201D101200BE0002009E0D5
:1025C00028688069304080B2B1B2884201D10120D0
:1025D00000E000203900C9B28842B8D10020286349
:1025E000202085F83D00002085F83E00286C50F042
:1025F00020002864002085F83C00012000E0002035
:10260000BDE8F081F8B505000E0014001F00300091
:10261000000CC0B201280AD128684069304080B25D
:10262000B1B2884201D101200BE0002009E0286806
:102630008069304080B2B1B2884201D1012000E00F
:102640000020002855D128684069400517D414F1AE
:10265000010FDCD000F09EFAC01B844201D3002C95
:10266000D5D13000000CC0B2012825D128684069BE
:10267000304080B2B1B288421CD1012026E02868E7
:10268000006850F40070296808607FF48060296851
:10269000486100202863202085F83D00002085F84F
:1026A0003E00286C50F004002864002085F83C00AF
:1026B00001201FE0002009E028688069304080B2D6
:1026C000B1B2884201D1012000E0002000289ED153
:1026D00000202863202085F83D00002085F83E007A
:1026E000286C50F020002864002085F83C00012070
:1026F00000E00020F2BD70B505000C00160028684F
:102700004069000625D4280000F095F800281ED165
:1027100014F1010FF3D000F03DFA801B844201D385
:10272000002CECD1286840690006E8D4002028631A
:10273000202085F83D00002085F83E00286C50F0F0
:1027400020002864002085F83C00012002E00120E0
:1027500000E0002070BD70B505000C001600286870
:102760004069400725D4280000F065F800281ED1F4
:1027700014F1010FF3D000F00DFA801B844201D355
:10278000002CECD1286840694007E8D40020286379
:10279000202085F83D00002085F83E00286C50F090
:1027A00020002864002085F83C00012002E0012080
:1027B00000E0002070BD00000200010070B50500BF
:1027C0000C00160028684069400632D42868406929
:1027D000C00612D57FF010002968486100202863E8
:1027E000202085F83D00002085F83E00286C2864F4
:1027F000002085F83C0001201CE000F0CBF9801B94
:10280000844201D3002CDDD1286840694006D9D428
:1028100000202863202085F83D00002085F83E0038
:10282000286C50F020002864002085F83C0001202E
:1028300000E0002070BD01684969490514D57FF4A6
:1028400080610268516100210163202180F83D1000
:10285000002180F83E10016C51F004010164002158
:1028600080F83C10012000E00020704781B000207B
:1028700000903F48016851F480410160006810F405
:10288000804000900098002000903A48016851F084
:1028900080510160006810F080500090009801B0F5
:1028A000704710B586B0040001A8142100F078F933
:1028B00020683149884225D1002000902F480168C6
:1028C00051F002010160006810F0020000900098D1
:1028D000C020019012200290002003900320049059
:1028E0000420059001A9264800F05EF90020009020
:1028F0002048016851F400110160006810F40010D4
:102900000090009806B010BD10B586B0040001A874
:10291000142100F045F920681A49884226D1002088
:1029200000901348016851F010010160006810F038
:10293000100000900098002000901048016851F0AD
:1029400001010160006810F00100009000984FF450
:10295000C0600190022002900020039003200490A8
:102960000720059001A9084800F01EF906B010BD27
:1029700044380240403802400054004030380240A1
:102980000004024000100140000002402DE9F04127
:1029900004000E00002C01D1012092E0564D286861
:1029A00010F00700B04207D22E70286810F0070020
:1029B000B04201D0012084E02078800716D520782D
:1029C000400704D54D48016851F4E051016020787A
:1029D000000704D54948016851F460410160474946
:1029E0000A6832F0F002A06802430A602078C0074B
:1029F00035D56068012805D141480068800313D4AB
:102A000001205EE06068022802D06068032805D1DA
:102A10003B480068800107D4012052E03848006834
:102A2000800701D401204CE0344F396889088900BF
:102A300060680143396000F0ADF88046386810F0F6
:102A40000C006168B0EB810F09D000F0A3F8B0EB87
:102A5000080041F289318842F0D3032031E0286830
:102A600010F00700864207D22E70286810F0070089
:102A7000B04201D0012024E02078400706D51F494C
:102A80000A6832F4E052E06802430A6020780007E6
:102A900007D51A48016831F46041226951EAC20140
:102AA000016000F037F81749144A1268C2F30312A4
:102AB000895CC840144908601448006800F090F927
:102AC0000020BDE8F08110480068704780B5FFF72E
:102AD000FAFF0F49094A1268C2F38222895CC84092
:102AE00002BD80B5FFF7EFFF0949044A1268C2F33F
:102AF0004232895CC84002BD003C024008380240B6
:102B000000380240083E00088400002080000020B9
:102B1000583E000810B50020002000200020194871
:102B2000006810F00C00002804D0042804D0082805
:102B300004D025E0144824E0144822E0144C226814
:102B400012F03F022068400209D52068C0F38810C7
:102B50000E49A1FB00010023FEF7A0FA08E020685F
:102B6000C0F388100849A1FB00010023FEF796FA84
:102B70002168C1F30141491C4900B0FBF1F000E0BC
:102B8000014810BD083802400024F40040787D015F
:102B90000438024001480068704700BF78110020E7
:102BA000002200F043B90000F8B400220022002205
:102BB000002337E0082704E0DFF8EC219042F9D148
:102BC0000727FFB213F00302D2B2920097403E43B0
:102BD0001A00920845F82260DFF8D0512A68A24313
:102BE0004E68F60200D522432A60DFF8C4512A68F5
:102BF000A2434E68B60200D522432A60DFF8B451E2
:102C00002A68A2434E68B60300D522432A60DFF843
:102C1000A8512A68A2434E68F60301D51443220046
:102C20002A605B1C102B80F0A880012515FA03F2A6
:102C30000C6814409442F4D10A7912F00302012A7C
:102C400004D00A7912F00302022A16D186680327FB
:102C50001A00D2B252009740BE43CF681A00D2B2D7
:102C6000520097403E43866042689D40AA434D68AB
:102C7000C5F300159D402A4342600A7912F0030211
:102C8000032A0DD0C56803261A00D2B2520096401E
:102C9000B5438E681A00D2B2520096403543C560E3
:102CA0000A7912F00302022A17D11A00D20800EBA7
:102CB0008202156A0F2613F00702D2B292009640E4
:102CC000B5430E6913F00702D2B292009640354325
:102CD0001A00D20800EB82021562056803261A006A
:102CE000D2B252009640B5430E7916F003061A0090
:102CF000D2B252009640354305604A6812F4403F14
:102D00008FD0002200922D4A156855F48045156039
:102D1000126812F480420092009A294D1A0092081B
:102D200055F822600F2713F00302D2B292009740A9
:102D3000BE43244A904201D1002742E7224A9042F2
:102D400001D101273DE7214A904201D1022738E70E
:102D50001F4A904201D1032733E71E4A904201D116
:102D600004272EE71C4A904201D1052729E71B4A78
:102D700090427FF421AF062723E7F1BC7047D2B21F
:102D8000002A02D089B2816102E089B2090481611E
:102D9000704742690B009BB2134089B2914351EADC
:102DA0000341816170470000001C0240083C014063
:102DB0000C3C0140043C0140003C014044380240CE
:102DC00008380140000002400004024000080240B0
:102DD000000C0240001002400014024000180240A3
:102DE00010B504004FF47A700D490978B0FBF1F08A
:102DF0000C490968B1FBF0F000F0A0F8002801D000
:102E000001200CE0102C09D2002221005FF0FF30DD
:102E100000F083F804480460002000E0012010BDA9
:102E200088000020840000208000002000B500BF42
:102E3000130096469446103928BFA0E80C50FAD8E3
:102E40005FEA417C28BF0CC048BF40F8042BC9078B
:102E500028BF20F8022B48BF00F8012B00BD00005E
:102E600010F00700374B1A684FF6FF010A40364949
:102E700051EA00210A431A60704732480068C0F3E3
:102E800002207047020052B2002A04D409012F4ADE
:102E900040B2115407E009012D4A40B210F00F0072
:102EA000104400F8041C704710B410F00700D0F173
:102EB0000703052B01D3042301E0D0F10703041D10
:102EC000072C01D2002000E0C01E012414FA03F3F5
:102ED0005B1E1940814014FA00F0401E1040084368
:102EE00010BC704780B5411EB1F1807F01D3012035
:102EF0000EE0401E174908600F215FF0FF30FFF71A
:102F0000C1FF002014490860072014490860002010
:102F100002BD80B5FFF7A4FF01BD70B504000D0030
:102F200016000020FFF7A9FF32002900FFF7BCFFC1
:102F30000100200040B2FFF7A5FF70BD80B5FFF78C
:102F4000D1FF02BD0CED00E00000FA0500E400E056
:102F500018ED00E014E000E018E000E010E000E010
:102F600010B50400002C01D1012035E0A069002833
:102F7000FFD194F84100002805D1002084F84000DA
:102F80002000FFF7C1FC242084F841002068C068BD
:102F900030F400502168C860200000F0F0F820688C
:102FA000006930F49040216808612068406930F081
:102FB0002A00216848612068C06850F400502168E8
:102FC000C86000206064202084F84100202084F83C
:102FD000420000206063002010BD2DE9FC41060086
:102FE0000D0014001F00002096F84100202851D148
:102FF000002D03D0200080B2002801D101204AE03A
:1030000000207064212086F84100FFF7C3FD804650
:10301000B484F484B068B0F5805F04D130690028CE
:1030200001D1002412E02C0000250FE02078316847
:103030004860641C07E0002CF8D12888C005C00D4A
:1030400031684860AD1CF08C401EF084F08C002884
:103050000DD00097434600228021300000F01DF87B
:103060000028E8D0202086F84100032013E00097D4
:10307000434600224021300000F00FF8002804D021
:10308000202086F84100032005E0202086F841003A
:10309000002000E00220BDE8F6812DE9FC4105009A
:1030A0000E0090461F00089C286800683040B0421F
:1030B00001D1012000E000204146C9B288422AD156
:1030C00014F1010FF0D0FFF765FDC01B844201D35E
:1030D000002C01D103201FE02868C0684007E3D519
:1030E000802EE1D0402EDFD0286800680007DBD5B5
:1030F00000200090286800680090286840680090D0
:103100000098280000F00AF808206864002085F87C
:103110004000012000E00020BDE8F68101680C318C
:1031200051E8002F32F49072016811F10C0343E86A
:1031300000210029F2D10168143151E8002F520812
:103140005200016811F1140343E800210029F2D173
:10315000016B01290CD101680C3151E8002F32F0CC
:103160001002016811F10C0343E800210029F2D19B
:10317000202180F8421000210163704700002DE9F2
:10318000FE4F05002868016931F44051E8680143A9
:1031900028680161A9682869014368690143E869F1
:1031A00001432868C268B048024011432868C160E2
:1031B0002868416931F44071A86901432868416178
:1031C0002868AA49884203D02868A949884203D1BF
:1031D000FFF787FC040002E0FFF778FC0400E869D1
:1031E000B0F5004F40F09F805FF0640A0226002790
:1031F0005FF019085FF0000922000023A8FB02011C
:1032000008FB031109FB0211CDE9000168680021E8
:10321000A6FB002306FB013307FB0033DDE90001B9
:10322000FDF73CFF6421B0FBF1F002902200002387
:10323000A8FB020108FB031109FB0211CDE9000103
:1032400068680021A6FB002306FB013307FB00335F
:10325000DDE90001FDF722FF834622000023A8FBE1
:10326000020108FB031109FB0211CDE900016868A6
:103270000021A6FB002306FB013307FB0033DDE939
:103280000001FDF70BFF6421B0FBF1F00AFB10B069
:10329000C00032306421B0FBF1F0400010F4F8704F
:1032A000029910EB0110029022000023A8FB0201FA
:1032B00008FB031109FB0211CDE900016868002138
:1032C000A6FB002306FB013307FB0033DDE9000109
:1032D000FDF7E4FE83462000002102000B00A8FB5E
:1032E000020108FB031109FB02116A6800239046E2
:1032F0009946A6FB082306FB093307FB0833FDF7B5
:10330000CDFE6421B0FBF1F00AFB10BA5FEACA00FF
:1033100032306421B0FBF1F111F007010298091875
:10332000286881609CE0042600275FF0640A5FF053
:1033300019085FF0000922000023A8FB020108FB26
:10334000031109FB0211CDE9000168680021A6FB09
:10335000002306FB013307FB0033DDE90001FDF725
:103360009DFE6421B0FBF1F0029022000023A8FB37
:10337000020108FB031109FB0211CDE90001686895
:103380000021A6FB002306FB013307FB0033DDE928
:103390000001FDF783FE834622000023A8FB020103
:1033A00008FB031109FB0211CDE900016868002147
:1033B000A6FB002306FB013307FB0033DDE9000118
:1033C000FDF76CFE6421B0FBF1F00AFB10B00001C8
:1033D00032306421B0FBF1F010F0F000029910EBF4
:1033E0000110029022000023A8FB020108FB031138
:1033F00009FB0211CDE9000168680021A6FB00234A
:1034000006FB013307FB0033DDE90001FDF746FE53
:1034100083462000002102000B00A8FB020108FBEC
:10342000031109FB02116A68002390469946A6FB26
:10343000082306FB093307FB0833FDF72FFE642141
:10344000B0FBF1F00AFB10BA5FEA0A1032306421D7
:10345000B0FBF1F111F00F010298091828688160A2
:10346000BDE8F78F00000000F369FFFF0010014086
:10347000001401402DE9FC410400002C01D1012081
:10348000C4E12078C0075FD5DFF88403016811F03C
:103490000C01042909D0006810F00C0008280ED196
:1034A000DFF870030068400209D5DFF86C0300689C
:1034B000800349D56068002846D10120A6E16068F4
:1034C000B0F5803F06D1DFF85003016851F4803138
:1034D000016018E06068B0F5A02F0AD1DFF838036A
:1034E000016851F480210160016851F4803101606C
:1034F00009E0DFF82403016831F4803101600168DC
:1035000031F480210160606800280ED0FFF742FB93
:103510000500DFF804030068800315D4FFF73AFBC9
:10352000401B6528F5D3032070E1FFF733FB05004E
:10353000DFF8E4020068800306D5FFF72BFB401B91
:103540006528F5D3032061E1207880071DD5B048B8
:10355000016811F00C0F08D0006810F00C0008286A
:103560002AD1AC480068400226D4AB4801688907DC
:1035700004D5E168012901D0012047E1016831F05B
:10358000F801226951EAC20101602078000751D593
:10359000606900283DD00120A0490860FFF7FAFAD1
:1035A00005009F480068800744D4FFF7F3FA401BEA
:1035B0000328F6D3032029E1E068002818D0012071
:1035C00098490860FFF7E6FA050093480168890703
:1035D00006D4FFF7DFFA401B0328F6D3032015E1DA
:1035E000016831F0F801226951EAC2010160CCE7BB
:1035F00000208C490860FFF7CDFA05008648006876
:103600008007C2D5FFF7C6FA401B0328F6D3032074
:10361000FCE0002081490860FFF7BCFA0500804803
:103620000068800706D5FFF7B5FA401B0328F6D3DC
:103630000320EBE0207840076FD500267A4D2868FC
:10364000C0000BD400200090286850F08050286003
:10365000286810F08050009000980126734F386859
:10366000C00511D4386850F480703860FFF792FAC2
:1036700080463868C00507D4FFF78CFAB0EB080025
:103680000328F6D30320C1E0A068012805D16848CB
:10369000016851F00101016015E0A068052809D119
:1036A0006348016851F004010160016851F00101B3
:1036B000016008E05E48016849084900016001684E
:1036C00031F004010160A06800280FD0FFF762FA12
:1036D000070057480068800718D4FFF75BFAC01B43
:1036E00041F289318842F4D303208FE0FFF752FA88
:1036F00007004F480068800708D5FFF74BFAC01B4A
:1037000041F289318842F4D303207FE0F6B2012EE2
:1037100003D1286830F080502860A069002874D058
:103720003B48006810F00C00082843D0A06902282C
:103730002FD1404E00203060FFF72CFA0700364DA5
:103740002868800106D5FFF725FAC01B0328F6D3A9
:1037500003205BE0E169206A0143606A51EA80115D
:10376000A06A4008401E51EA0041E06A51EA006147
:103770002848016001203060FFF70CFA0400286837
:10378000800142D4FFF706FA001B0328F7D3032079
:103790003CE0002027490860FFF7FCF904001E48C0
:1037A0000068800131D5FFF7F5F9001B0328F6D337
:1037B00003202BE0A069012801D1012026E0154853
:1037C0000068A16901291ED010F48001E2699142CC
:1037D00019D110F03F01226A914214D147F6C0710D
:1037E0000140626AB1EB821F0DD110F44031A26A30
:1037F0005208521EB1EB024F05D110F07060E16A21
:10380000B0EB016F01D0012000E00020BDE8F6819F
:10381000083802400438024000380240800E474217
:1038200074380240000047424038024000700040B7
:10383000703802406000474201B500980A280AD15A
:103840000D2000904FF6FF7301226946A848FFF74C
:10385000C4FB0A2000904FF6FF7301226946A4487A
:10386000FFF7BBFB009802BD7CB500F065F900F0E6
:103870004FF800F0D5F800F09DF800F0B7F89D4C37
:10388000200000F073F99C4800F070F9200000F06F
:103890006DF99A4D9A4C200000F0BAF928702878FA
:1038A000002803D0974800F061F902E0964800F044
:1038B0005DF9002514E0954E642000900123280056
:1038C000C0B206EB00020021200000F08EF90028B3
:1038D00005D02800C0B2315C8D4800F047F96D1C5E
:1038E0002800C0B20A28E6DB8A4C4FF48051200041
:1038F000FFF74FFA4FF400512000FFF74AFA4FF458
:1039000080412000FFF745FA642000F0A3F9EBE7BF
:1039100080B592B006A83021FFF742F901A8142122
:10392000FFF73EF9002000907B48016851F080517C
:103930000160006810F08050009000980020009016
:103940007648016851F480410160006810F48040BD
:1039500000900098012006905FF4A02007900220BC
:103960000C905FF480000D9019200E904FF4A87019
:103970000F90022010900420119006A8FFF77AFD06
:10398000002801D000F0D6F80F200190022002900C
:10399000002003904FF4A05004904FF48050059005
:1039A000052101A8FEF7F2FF002801D000F0C2F8BF
:1039B00013B000BD80B55248594901605949416072
:1039C000002181600021C1604FF48041016100212C
:1039D0004161002181610021C16100210162FEF786
:1039E00053F9002801D000F0A5F801BD80B540488A
:1039F0004D4901605FF46121416000218160002137
:103A0000C160002101610C2141610021816100211F
:103A1000C161FFF7A5FA002801D000F08BF801BDC5
:103A200038B586B001A81421FFF7BAF8002000903D
:103A30003E48016851F020010160016811F0200149
:103A40000091009900210091016851F0800101600E
:103A5000016811F080010091009900210091016836
:103A600051F001010160016811F00101009100991C
:103A700000210091016851F040010160016811F0DE
:103A800040010091009900210091016851F002016C
:103A90000160006810F0020000900098244D0022A0
:103AA0004FF480612800FFF76AF91A4C00224FF4A6
:103AB000E0412000FFF763F94FF48060019001209E
:103AC0000290002003900020049001A92800FFF735
:103AD0006BF84FF4E0400190012002900020039029
:103AE0000020049001A92000FFF75EF807B030BD68
:103AF00030110020D03C0008E43D00088011002077
:103B00008C100020503E0008383E00088C00002039
:103B1000F83D0008001802404038024000700040A4
:103B200000540040A08601000010014030380240DF
:103B30000014024072B6FEE780B50B48016851F4EC
:103B400000710160016851F480610160016851F405
:103B5000807101600320FFF7DCF90F20FFF740F9C7
:103B6000FEF784FE002002BD003C02400EB4C0B54A
:103B7000024603A800210190009101AB01210448F5
:103B800078440C30FCF700FB06BC5DF810FB00BF6E
:103B9000310200002DE9FF4104000D0016001F0056
:103BA000DFF8A88000224FF480614046FFF7E7F875
:103BB00064200290BFB20197009610232A0092B2AF
:103BC000A0212000FEF754F900280AD1642000F05B
:103BD00041F801224FF480614046FFF7D0F8012000
:103BE00000E0002004B0BDE8F0811FB5069C0294FF
:103BF0009BB20193009210230A0092B2A021FEF71B
:103C0000EBF9002801D1012000E0002004B010BD34
:103C100030B589B0040001A80D492022FDF738FC19
:103C2000002500E02035B5F5805F0CD264200090BF
:103C3000202301AA290089B22000FFF7ABFF00284A
:103C4000F0D1002000E0012009B030BD0014024096
:103C50003C3D000838B50400FEF79CFF050014F158
:103C6000010F02D0044800782418FEF793FF401B90
:103C7000A042FAD331BD00BF8800002030B450F814
:103C8000041B79B10268436802440830DC0744BF72
:103C9000A9F10104E31852F8045B43F8045B091F1F
:103CA000F9D1ECE730BC704710B5074979441831B9
:103CB000064C7C44163404E00A68081D1144884709
:103CC0000146A142F8D110BD500000007000000074
:103CD0002A2A2A2A2A2A2A2A2A2A2A2A2A2A2A2A44
:103CE0002A2A2A2A2A2A2A2A2A2A2A2A2A2A0D0A71
:103CF0000D0A00004EF68851CEF20001086840F42B
:103D000070000860BFF34F8FBFF36F8F4FF00070EC
:103D1000E1EE100A7047000063D2FFFFF8100000C8
:103D20008C0000200000000055FFFFFF8C00000009
:103D3000780200000000002000000000FF000000EA
:103D40000000000000000000000000000000000073
:103D500000000000000000000000000000F00DF86E
:103D6000002801D0FFF7A0FFAFF300800020AFF3E1
:103D70000080FFF779FD00F002F80120704700F0A5
:103D800001B8000007463846FDF774FFFBE7000066
:103D900003480168034A127889180160704700BF20
:103DA0007811002088000020FEE7FEE7FEE7FEE72E
:103DB000FEE770477047704780B5FFF7E9FF01BD28
:103DC00038B504460D46284600F006F8A84218BF4C
:103DD0000024204632BD00000149FFF72DBD00BF81
:103DE000000000205553415254204442472054457E
:103DF0005354210D0A0D0A0065327020726561640A
:103E00003A2025780D0A00000000000000000000A4
:103E100001020304060708090148804701480047DA
:103E2000293E0008453E00080248016851F470012F
:103E30000160704788ED00E07766616C73650D0A7C
:103E400000000000AFF30080FFF754FFFFF786FF8C
:103E500077547275650D0A0000000000010203042A
:103E600000002E00FFF7FEBFFFF7FEBFFFF7FEBF0B
:103E7000FFF7FEBFFFF7FEBFFFF7FEBFFFF7FEBF76
:103E8000FFF7FEBFFFF7FEBFFFF7FEBFFFF7FEBF66
:103E9000FFF7FEBFFFF7FEBFFFF7FEBFFFF7FEBF56
:103EA000FFF7FEBFFFF7FEBFFFF7FEBFFFF7FEBF46
:103EB000FFF7FEBFFFF7FEBFFFF7FEBFFFF7FEBF36
:103EC000FFF7FEBFFFF7FEBFFFF7FEBFFFF7FEBF26
:103ED000FFF7FEBFFFF7FEBFFFF7FEBFFFF7FEBF16
:103EE000FFF7FEBFFFF7FEBFFFF7FEBFFFF7FEBF06
:103EF000FFF7FEBFFFF7FEBFFFF7FEBFFFF7FEBFF6
:103F0000FFF7FEBFFFF7FEBFFFF7FEBFFFF7FEBFE5
:103F1000FFF7FEBFFFF7FEBFFFF7FEBFFFF7FEBFD5
:103F2000FFF7FEBFFFF7FEBFFFF7FEBFFFF7FEBFC5
:103F3000FFF7FEBFFFF7FEBFFFF7FEBFFFF7FEBFB5
:103F4000FFF7FEBFFFF7FEBFFFF7FEBFFFF7FEBFA5
:103F5000FFF7FEBFFFF7FEBFFFF7FEBFFFF7FEBF95
:103F6000FFF7FEBFFFF7FEBFFFF7FEBFFFF7FEBF85
:103F7000FFF7FEBFFFF7FEBFFFF7FEBFFFF7FEBF75
:103F8000FFF7FEBFFFF7FEBFFFF7FEBFFFF7FEBF65
:103F9000FFF7FEBFFFF7FEBFFFF7FEBFFFF7FEBF55
:103FA000FFF7FEBFFFF7FEBF02040101E010002093
:103FB00030110020E0100020E01000200000000080
:103FC000E01000200000000044000020300000202D
:103FD00000000000000000000000000000000000E1
:103FE00000000000000000000000000000000000D1
:103FF000603E0008603E0008603E0008603E000829
:10400000603E0008603E0008603E0008FFFFFFFFC2
:10401000FFFFFFFF623E0008603E0008603E0008B0
:10402000FFFFFFFFFFFF0000100000000024F4006E
:04403000010000008B
:0400000508003E456C
:00000001FF
