:020000040800F2
:100000000020001001100008D90F0008DB0F0008C5
:10001000DD0F0008DF0F0008E10F000800000000FE
:10002000000000000000000000000000E30F0008D6
:10003000E50F000800000000E70F0008E90F0008C6
:100040002D10000831100008351000083910000884
:100050003D10000841100008451000084910000834
:100060004D100008511000085510000859100008E4
:100070005D10000861100008651000086910000894
:100080006D10000871100008751000087910000844
:100090007D100008811000088510000889100008F4
:1000A0008D100008911000089510000899100008A4
:1000B0009D100008A1100008A5100008A910000854
:1000C000AD100008B1100008B5100008B910000804
:1000D000BD100008C1100008C5100008C9100008B4
:1000E000CD100008D1100008D5100008D910000864
:1000F000DD100008E1100008E5100008E910000814
:10010000ED100008F1100008F5100008F9100008C3
:10011000FD10000801110008051100080911000870
:100120000D1100081111000815110008191100081F
:100130001D110008211100082511000829110008CF
:100140002D1100083111000835110008391100087F
:100150003D1100084111000845110008491100082F
:100160004D110008511100085511000859110008DF
:100170005D11000861110008651100080000000011
:10018000691100086D1100082DE9FC410400002CE4
:1001900001D10120C4E12078C0075FD5DFF88403D6
:1001A000016811F00C01042909D0006810F00C005E
:1001B00008280ED1DFF870030068400209D5DFF887
:1001C0006C030068800349D56068002846D101208F
:1001D000A6E16068B0F5803F06D1DFF85003016802
:1001E00051F48031016018E06068B0F5A02F0AD1A9
:1001F000DFF83803016851F480210160016851F48F
:100200008031016009E0DFF82403016831F48031B6
:100210000160016831F480210160606800280ED01F
:1002200000F094F90500DFF804030068800315D49A
:1002300000F08CF9401B6528F5D3032070E100F035
:1002400085F90500DFF8E4020068800306D500F0B8
:100250007DF9401B6528F5D3032061E120788007F4
:100260001DD5B048016811F00C0F08D0006810F0DF
:100270000C0008282AD1AC480068400226D4AB48BC
:100280000168890704D5E168012901D0012047E10F
:10029000016831F0F801226951EAC2010160207859
:1002A000000751D5606900283DD00120A0490860B1
:1002B00000F04CF905009F480068800744D400F026
:1002C00045F9401B0328F6D3032029E1E068002804
:1002D00018D001209849086000F038F905009348CB
:1002E0000168890706D400F031F9401B0328F6D3D2
:1002F000032015E1016831F0F801226951EAC201D9
:100300000160CCE700208C49086000F01FF905006F
:10031000864800688007C2D500F018F9401B032802
:10032000F6D30320FCE000208149086000F00EF9BC
:10033000050080480068800706D500F007F9401BDB
:100340000328F6D30320EBE0207840076FD5002682
:100350007A4D2868C0000BD400200090286850F027
:1003600080502860286810F0805000900098012686
:10037000734F3868C00511D4386850F48070386005
:1003800000F0E4F880463868C00507D400F0DEF8D5
:10039000B0EB08000328F6D30320C1E0A0680128D1
:1003A00005D16848016851F00101016015E0A068BD
:1003B000052809D16348016851F004010160016812
:1003C00051F00101016008E05E48016849084900F8
:1003D0000160016831F004010160A06800280FD0BD
:1003E00000F0B4F8070057480068800718D400F000
:1003F000ADF8C01B41F289318842F4D303208FE06D
:1004000000F0A4F807004F480068800708D500F006
:100410009DF8C01B41F289318842F4D303207FE06C
:10042000F6B2012E03D1286830F080502860A06910
:10043000002874D03B48006810F00C00082843D016
:10044000A06902282FD1404E0020306000F07EF8D5
:100450000700364D2868800106D500F077F8C01BEC
:100460000328F6D303205BE0E169206A0143606A58
:1004700051EA8011A06A4008401E51EA0041E06A3A
:1004800051EA0061284801600120306000F05EF808
:1004900004002868800142D400F058F8001B0328AB
:1004A000F7D303203CE000202749086000F04EF815
:1004B00004001E480068800131D500F047F8001B99
:1004C0000328F6D303202BE0A069012801D10120E5
:1004D00026E015480068A16901291ED010F48001AA
:1004E000E269914219D110F03F01226A914214D180
:1004F00047F6C0710140626AB1EB821F0DD110F462
:100500004031A26A5208521EB1EB024F05D110F0E1
:100510007060E16AB0EB016F01D0012000E00020C3
:10052000BDE8F68108380240043802400038024035
:10053000800E474274380240000047424038024073
:100540000070004070380240600047420148006877
:10055000704700BF08000020F8B4002200220022EB
:10056000002337E0082704E0DFF8EC219042F9D1BE
:100570000727FFB213F00302D2B2920097403E4326
:100580001A00920845F82260DFF8D0512A68A24389
:100590004E68F60200D522432A60DFF8C4512A686B
:1005A000A2434E68B60200D522432A60DFF8B45158
:1005B0002A68A2434E68B60300D522432A60DFF8BA
:1005C000A8512A68A2434E68F60301D514432200BD
:1005D0002A605B1C102B80F0A880012515FA03F21D
:1005E0000C6814409442F4D10A7912F00302012AF3
:1005F00004D00A7912F00302022A16D18668032772
:100600001A00D2B252009740BE43CF681A00D2B24D
:10061000520097403E43866042689D40AA434D6821
:10062000C5F300159D402A4342600A7912F0030287
:10063000032A0DD0C56803261A00D2B25200964094
:10064000B5438E681A00D2B2520096403543C56059
:100650000A7912F00302022A17D11A00D20800EB1D
:100660008202156A0F2613F00702D2B2920096405A
:10067000B5430E6913F00702D2B29200964035439B
:100680001A00D20800EB82021562056803261A00E0
:10069000D2B252009640B5430E7916F003061A0006
:1006A000D2B252009640354305604A6812F4403F8A
:1006B0008FD0002200922D4A156855F480451560B0
:1006C000126812F480420092009A294D1A00920892
:1006D00055F822600F2713F00302D2B29200974020
:1006E000BE43244A904201D1002742E7224A904269
:1006F00001D101273DE7214A904201D1022738E785
:100700001F4A904201D1032733E71E4A904201D18C
:1007100004272EE71C4A904201D1052729E71B4AEE
:1007200090427FF421AF062723E7F1BC7047D2B295
:10073000002A02D089B2816102E089B20904816194
:10074000704742690B009BB2134089B2914351EA52
:100750000341816170470000001C0240083C0140D9
:100760000C3C0140043C0140003C01404438024044
:100770000838014000000240000402400008024026
:10078000000C024000100240001402400018024019
:10079000BBBBE1B1B2F5803F80F07E80022A1ED95A
:1007A0008C46B1FBF2F102FB11C31B0443EA104378
:1007B000B3FBF2FC02FB1C3380B240EA0343B3FB01
:1007C000F2F002FB103240EA0C4000237047022A8C
:1007D00005D98446B0FBF2F002FB10C270474AB163
:1007E00005D100F0010249085FEA3000704700229D
:1007F0000023704700F0E4B80B0002000021002045
:100800007047904271EB030CF6D3B3F5803F2FD2C3
:10081000F0B5B3FA83F7B1FA81F4A7F10F0E3D1BDF
:100820005340CEF1200602FA0EF2F3415340B5F1E7
:100830000F0746D80F3C2C444140C4F12006A0408D
:10084000F1414140B1FBF3F603FB1611A2FB064553
:10085000001BA94102D2761E8018594180EA01028C
:1008600021FA0EF362FA0EF200215A403046F0BD32
:1008700030B4B1FBF3FC03FB1C11A2FB0C45001BC5
:10088000A94103D2ACF1010C8018594130BC024699
:100890000B46604600217047B2F1807F65D3F0B50A
:1008A000B2FA82F7B1FA81F4C7F10F063D1B22FAC2
:1008B00006F307F1110EF24120355A40B5F10F074A
:1008C000B8D94140C4F12006A040F1414140B1FBFC
:1008D000F3FC03FB1C11A2FB0C45001BA94103D236
:1008E000BCF1010C801859410F2F12D30F3FC903DF
:1008F00041EA5041B1FBF3F603FB1611A2FB06459A
:10090000D4EBC030A94102D2761E8018594146EA84
:10091000CC3C07B34140C7F12006B840F14141400B
:10092000B1FBF3F603FB1611A2FB0645001BA94120
:1009300002D2761E8018594180EA010221FA0EF394
:10094000C7F1200462FA0EF20CFA07F05A402CFAB2
:1009500004F13043F0BD80EA010221FA0EF30021D8
:1009600062FA0EF260465A40F0BD8C46B1FBF2F1DD
:1009700002FB11C31B0243EA1063B3FBF2FC02FB50
:100980001C331B024CEA002043EA1063B3FBF2FC69
:1009900002FB1C331B024CEA002043EA1063B3FB4A
:1009A000F2FC02FB1C331B024CEA002043EA1063FA
:1009B000B3FBF2FC02FB1C324CEA00200023704720
:1009C000704700002DE9F04104000E00002C01D119
:1009D000012092E04A4D286810F00700B04207D28B
:1009E0002E70286810F00700B04201D0012084E08A
:1009F0002078800716D52078400704D54148016843
:100A000051F4E05101602078000704D53D480168A9
:100A100051F4604101603B490A6832F0F002A0687D
:100A200002430A602078C00735D56068012805D1E7
:100A300035480068800313D401205EE06068022816
:100A400002D06068032805D12F480068800107D4D0
:100A5000012052E02C480068800701D401204CE0BE
:100A6000284F396889088900606801433960FFF7B9
:100A70006DFD8046386810F00C006168B0EB810FA6
:100A800009D0FFF763FDB0EB080041F289318842DD
:100A9000F0D3032031E0286810F00700864207D227
:100AA0002E70286810F00700B04201D0012024E029
:100AB0002078400706D513490A6832F4E052E0680E
:100AC00002430A602078000707D50E48016831F418
:100AD0006041226951EAC201016000F01DF80B4932
:100AE000084A1268C2F30312895CC84008490860CA
:100AF0000848006800F050F80020BDE8F0810000D0
:100B0000003C02400838024000380240F00F000864
:100B1000040000200000002010B50020002000206C
:100B200000201948006810F00C00002804D00428A8
:100B300004D0082804D025E0144824E0144822E01A
:100B4000144C226812F03F022068400209D5206848
:100B5000C0F388100E49A1FB00010023FFF718FE27
:100B600008E02068C0F388100849A1FB00010023B9
:100B7000FFF70EFE2168C1F30141491C4900B0FB9B
:100B8000F1F000E0014810BD083802400024F400F4
:100B900040787D010438024010B504004FF47A70AB
:100BA0000D490978B0FBF1F00C490968B1FBF0F090
:100BB00000F086F8002801D001200CE0102C09D2AA
:100BC000002221005FF0FF3000F069F80448046063
:100BD000002000E0012010BD0C00002004000020D7
:100BE0000000002010F00700374B1A684FF6FF0195
:100BF0000A40364951EA00210A431A6070473248D8
:100C00000068C0F302207047020052B2002A04D4E8
:100C100009012F4A40B2115407E009012D4A40B2A0
:100C200010F00F00104400F8041C704710B410F0CE
:100C30000700D0F10703052B01D3042301E0D0F115
:100C40000703041D072C01D2002000E0C01E012470
:100C500014FA03F35B1E1940814014FA00F0401EA1
:100C60001040084310BC704780B5411EB1F1807F31
:100C700001D301200EE0401E174908600F215FF0EC
:100C8000FF30FFF7C1FF0020144908600720144916
:100C90000860002002BD80B5FFF7A4FF01BD70B55C
:100CA00004000D0016000020FFF7A9FF3200290004
:100CB000FFF7BCFF0100200040B2FFF7A5FF70BDA9
:100CC00080B5FFF7D1FF02BD0CED00E00000FA0592
:100CD00000E400E018ED00E014E000E018E000E0BF
:100CE00010E000E010B500F095F800F01BF800F0FF
:100CF0005EF8434C00224FF480512000FFF717FDAF
:100D0000642000F0A1F801224FF480512000FFF789
:100D10000EFD642000F098F84FF400512000FFF71A
:100D200010FDE6E780B592B006A8302100F0A0F8EB
:100D300001A8142100F09CF80020009031480168BF
:100D400051F080510160006810F0805000900098D0
:100D5000002000902C48016851F480410160006837
:100D600010F4804000900098022006900120099025
:100D700010200A9000200C9006A8FFF705FA002822
:100D800001D000F045F80F200190002002900020D3
:100D900003900020049000200590002101A8FFF797
:100DA00011FE002801D000F033F813B000BD10B5DB
:100DB00086B001A8142100F05BF8002000901348D1
:100DC000016851F040010160006810F0400000909F
:100DD00000980B4C00224FF440512000FFF7A7FC75
:100DE0004FF4405001900120029000200390002019
:100DF000049001A92000FFF7AFFB06B010BD000072
:100E00000018024040380240007000403038024074
:100E100072B6FEE780B50B48016851F400710160BD
:100E2000016851F480610160016851F480710160D2
:100E30000320FFF730FF0F20FFF7AEFE00F01CF895
:100E4000002002BD003C024038B50400FFF77EFBE5
:100E5000050014F1010F02D0044800782418FFF7B0
:100E600075FB401BA042FAD331BD00BF0C0000202F
:100E7000002200F021B8000081B0002000900C4852
:100E8000016851F480410160006810F480400090D6
:100E90000098002000900748016851F080510160DF
:100EA000006810F080500090009801B0704700BFBB
:100EB000443802404038024000B500BF1300964657
:100EC0009446103928BFA0E80C50FAD85FEA417C5C
:100ED00028BF0CC048BF40F8042BC90728BF20F822
:100EE000022B48BF00F8012B00BD30B450F8041BA2
:100EF00079B10268436802440830DC0744BFA9F1B5
:100F00000104E31852F8045B43F8045B091FF9D1AC
:100F1000ECE730BC7047000010B507497944183140
:100F2000064C7C44163404E00A68081D11448847C6
:100F30000146A142F8D110BD2C0000003C00000089
:100F40004EF68851CEF20001086840F47000086047
:100F5000BFF34F8FBFF36F8F4FF00070E1EE100AB9
:100F60007047000087FFFFFF100000000402000030
:100F7000000000200000000000F00DF8002801D063
:100F8000FFF7CAFFAFF300800020AFF30080FFF748
:100F9000A9FE00F002F80120704700F001B800003F
:100FA0000746384600F002F8FBE7000080B5AFF3D3
:100FB0000080024A11001820ABBEFBE726000200A9
:100FC00003480168034A127889180160704700BF1E
:100FD000080000200C000020FEE7FEE7FEE7FEE729
:100FE000FEE770477047704780B5FFF7E9FF01BD26
:100FF00000000000000000000102030406070809C9
:1010000001488047014800471110000821100008DE
:101010000248016851F470010160704788ED00E0FA
:10102000AFF30080FFF78CFFFFF7A6FFFFF7FEBFCF
:10103000FFF7FEBFFFF7FEBFFFF7FEBFFFF7FEBFE4
:10104000FFF7FEBFFFF7FEBFFFF7FEBFFFF7FEBFD4
:10105000FFF7FEBFFFF7FEBFFFF7FEBFFFF7FEBFC4
:10106000FFF7FEBFFFF7FEBFFFF7FEBFFFF7FEBFB4
:10107000FFF7FEBFFFF7FEBFFFF7FEBFFFF7FEBFA4
:10108000FFF7FEBFFFF7FEBFFFF7FEBFFFF7FEBF94
:10109000FFF7FEBFFFF7FEBFFFF7FEBFFFF7FEBF84
:1010A000FFF7FEBFFFF7FEBFFFF7FEBFFFF7FEBF74
:1010B000FFF7FEBFFFF7FEBFFFF7FEBFFFF7FEBF64
:1010C000FFF7FEBFFFF7FEBFFFF7FEBFFFF7FEBF54
:1010D000FFF7FEBFFFF7FEBFFFF7FEBFFFF7FEBF44
:1010E000FFF7FEBFFFF7FEBFFFF7FEBFFFF7FEBF34
:1010F000FFF7FEBFFFF7FEBFFFF7FEBFFFF7FEBF24
:10110000FFF7FEBFFFF7FEBFFFF7FEBFFFF7FEBF13
:10111000FFF7FEBFFFF7FEBFFFF7FEBFFFF7FEBF03
:10112000FFF7FEBFFFF7FEBFFFF7FEBFFFF7FEBFF3
:10113000FFF7FEBFFFF7FEBFFFF7FEBFFFF7FEBFE3
:10114000FFF7FEBFFFF7FEBFFFF7FEBFFFF7FEBFD3
:10115000FFF7FEBFFFF7FEBFFFF7FEBFFFF7FEBFC3
:10116000FFF7FEBFFFF7FEBFFFF7FEBFFFF7FEBFB3
:10117000100000000024F400000000000100000046
:0400000508001021BE
:00000001FF
