:020000040800F2
:100000000020001065650008BD640008BF6400089A
:10001000C1640008C3640008C56400080000000053
:10002000000000000000000000000000C76400089D
:10003000C964000800000000CB640008CD6400081B
:10004000BD650008C1650008C5650008C9650008F0
:10005000CD650008D1650008D5650008D9650008A0
:10006000DD650008E1650008E5650008E965000850
:10007000ED650008F1650008F5650008F965000800
:10008000FD650008016600080566000809660008AD
:100090000D6600081166000815660008196600085C
:1000A0001D6600082166000825660008296600080C
:1000B0002D660008316600083566000839660008BC
:1000C0003D6600084166000845660008496600086C
:1000D0004D6600085166000855660008596600081C
:1000E0005D660008616600086566000869660008CC
:1000F0006D6600087166000875660008796600087C
:100100007D6600088166000885660008896600082B
:100110008D660008916600089566000899660008DB
:100120009D660008A1660008A5660008A96600088B
:10013000AD660008B1660008B5660008B96600083B
:10014000BD660008C1660008C5660008C9660008EB
:10015000CD660008D1660008D5660008D96600089B
:10016000DD660008E1660008E5660008E96600084B
:10017000ED660008F1660008F56600080000000062
:10018000F9660008FD6600084178007850EA012011
:1001900080B27047C178827852EA0122417851EAF0
:1001A0000221007850EA012070470170401C89B29A
:1001B000090A0170401C70470170401C090A017057
:1001C000401C090A0170401C090A0170401C70475C
:1001D000002A06D00B780370491C401C521E002ACE
:1001E000F8D170470170401C521E002AFAD17047A6
:1001F00010B4030000201C780878201A491C5B1CEE
:10020000521E002A01D00028F5D010BC704700E033
:10021000401C0278002A02D002788A42F8D1007885
:10022000704770B4020000231C0001E00123641C2D
:10023000022C16D2DFF82C59200128580028F5D0BE
:10024000200128581668B042F1D1200128444068A6
:100250009668B042EBD12001284480685569A842D5
:10026000E5D1022C08D1002B01D1022901D10020B7
:1002700000E01220C0B20DE0002907D1DFF8E40849
:10028000210108448089B0F5807F01D1102000E071
:100290000020C0B270BC7047002100E0491C022958
:1002A00005D2DFF8C0080A0180580028F6D10229DB
:1002B00001D1002000E00120704730B4020000238B
:1002C00000E05B1C022B12D2DFF898081C010459D5
:1002D0001568AC42F5D11C01044464689568AC42D1
:1002E000EFD11C01204480685469A042E9D1022B5F
:1002F0001FD1002300E05B1C022B05D2DFF864084D
:100300001C0100590028F6D1022B01D100202DE05C
:10031000DFF8500814681D01445194681D0105441C
:100320006C6052691C010444A26000221C0120443C
:100330008281002908D0DFF82C081A011044808936
:10034000002801D0002011E0002902D04FF4807075
:1003500005E0DFF81008190108448089401CDFF827
:1003600004181A01114488815B1C180030BC7047C6
:1003700010B4002109E0DFF8EC270B01D3588342C9
:1003800002D100230C011351491C0229F3D310BCE4
:100390007047F8B505000024E878002820D02E6BBF
:1003A0000123320015F13401687801F076FB002852
:1003B00001D0012414E00020E870686A301AE9696D
:1003C00088420DD2AF7809E0E8698619012332002E
:1003D00015F13401687801F060FB7F1E022FF3D223
:1003E0002000C0B2F2BD70B504000D000026206BE5
:1003F000854214D02000FFF7CCFF06003000C0B2C9
:1004000000280CD101232A0014F13401607801F096
:1004100035FB002802D05FF0FF3501262563300050
:10042000C0B270BD891E8269921E914201D3002024
:1004300004E04289C06A02FB0101080070472DE90F
:10044000F0410C000568022C02D3A869844202D353
:100450005FF0010859E05FF0FF382878012804D0E8
:1004600051D303283CD02AD34DE0270017EB570780
:10047000696A11EB57212800FFF7B5FF002844D126
:10048000F805C00D284490F834607F1C696A11EBB0
:1004900057212800FFF7A7FF002836D1FF05FF0DE1
:1004A00005EB070090F8340056EA0026E00702D575
:1004B0003609B04602E03605360DB04625E0696AD9
:1004C00011EB14212800FFF78EFF00281DD16000DA
:1004D000C005C00D28443430FFF756FE804614E0B6
:1004E000696A11EBD4112800FFF77DFF00280CD1B9
:1004F000A000C005C00D28443430FFF74BFE8046F5
:1005000028F0704801E05FF001084046BDE8F08146
:100510002DE9F04107000D0016000224022DC0F065
:100520008480B869854280F080803878012804D0C2
:100530007BD303285AD042D377E0A84618EB58085B
:10054000796A11EB58213800FFF74DFF04002000B5
:10055000C0B2002869D15FEAC850C00D38443430B9
:1005600018F10108E90705D5017811F00F0151EAEA
:10057000061100E0310001700120F870796A11EB7A
:1005800058213800FFF72FFF04002000C0B20028D8
:100590004BD15FEAC8585FEAD85807EB08003430FF
:1005A000E90701D5360906E0017811F0F001360AB5
:1005B00016F00F060E4306700120F87035E0796AD8
:1005C00011EB15213800FFF70EFF04002000C0B228
:1005D00000282AD1310089B26800C005C00D384416
:1005E0003430FFF7E2FD0120F8701EE0796A11EB6C
:1005F000D5113800FFF7F7FE04002000C0B2002834
:1006000013D1A800C005C00D38443430FFF7C2FD37
:10061000000F60F31F763100A800C005C00D3844FC
:100620003430FFF7C9FD0120F8702000C0B2BDE8EA
:10063000F081F8B505000F00110000202E68022F90
:1006400002D3B069874201D3022032E0002928D0CA
:100650005FF0FF323000FFF75BFF0100C9B20029F5
:100660001FD0C0B225E0012C24D014F1010F23D0FB
:10067000002239003000FFF74BFF0100C9B200290A
:100680001CD17069B169891E884206D27069401C0C
:100690007061307950F0010030712700B0698742F5
:1006A00006D239002800FFF7CAFE0400002CDAD178
:1006B0000020F2BD0220FCE70120FAE7C0B2F8E713
:1006C0002DE9F04107000C003E68002C07D1356988
:1006D000002D02D0B069854210D301250EE0210023
:1006E0003800FFF7ACFE022801D201204FE010F1E4
:1006F000010F4CD0B169884249D32500A84618F1B2
:100700000108B069804503D35FF0020845450ED368
:1007100041463800FFF793FE00280AD001282CD06C
:1007200010F1010F29D0A845E9D100202FE00020C9
:100730002DE05FF0FF3241463000FFF7E9FE010097
:10074000C9B2002906D1002C04D042462100300055
:10075000FFF7DEFE0100C9B200290FD1C6F81080F4
:10076000B069801E7169884202D37069401E706151
:10077000307950F00100307108E008E0C0B2012883
:1007800002D15FF0FF3801E05FF001084046BDE8AC
:10079000F0810368C06A021D490A5889B1FBF0F074
:1007A00003E0884207D3401A121D1168121D002968
:1007B000F7D1002001E01168081870472DE9F041D9
:1007C00005000E002F68B6F5001F02D216F01F0FAD
:1007D00001D0022045E06E61AC68002C03D138786E
:1007E000032800DBBC6A002C09D13000400939899C
:1007F000884201D3022034E0B86AE86120E0B7F80B
:100800000A804FF4007000FB08F806E0022C10D3B9
:10081000B86984420DD2B6EB080646450BD32100D9
:100820002800FFF70CFE040014F1010FEED10120A7
:1008300017E0022015E021003800FFF7F3FDE86122
:10084000AC61E869002801D102200AE0E86910EBF8
:100850005620E861F605F60D07EB060034302862F5
:100860000020BDE8F0812DE9F04106000C00D6F82B
:10087000008077692037F069002802D0B7F5001FA3
:1008800001D304207EE0F80574D1F069401CF061CA
:10089000B069002809D138004009B8F8081088422A
:1008A00068D30020F06104206CE0B8F80A00401E14
:1008B00010EA572F5ED1B1693000FFF7C0FD050087
:1008C000022D01D202205DE015F1010F01D10120BE
:1008D00058E0D8F81800854246D3002C03D10020F8
:1008E000F06104204EE0B1693000FFF7E9FE050039
:1008F000002D01D1072045E0012D01D1022041E06A
:1009000015F1010F01D101203CE04046FFF741FD08
:10091000002801D0012035E04FF40072002118F1C9
:100920003400FFF75FFC002429004046FFF77AFD02
:10093000C8F8300005E0641CD8F83000401CC8F846
:100940003000B8F80A00844209D2012088F8030078
:100950004046FFF71EFD0028EDD0012012E0D8F838
:100960003000041BC8F83040B56129004046FFF74D
:1009700059FDF0617761FF05FF0D08EB070034308A
:1009800030620020BDE8F081F8B504000D00266853
:1009900000212000FFF712FF0100C9B200291ED17B
:1009A0000027E1693000FFF71EFD0100C9B20029F0
:1009B0000BD1216A0978E52903D0216A0978002939
:1009C00004D17F1CAF4202D109E008E000270121D9
:1009D0002000FFF748FF0100C9B20029E1D0010063
:1009E000C9B2042900D10720C0B2F2BD70B504001D
:1009F0000D0015F11A00FFF7C7FB06002078032849
:100A000005D115F11400FFF7BFFB56EA0046300090
:100A100070BD70B504000D001600310089B215F1EB
:100A20001A00FFF7C2FB2078032806D1360C3100EC
:100A300089B215F11400FFF7B8FB70BD2DE9F8433A
:100A400007000D0015F11A00FFF79EFB002801D0EA
:100A5000002042E02E7816F03F06761E0D20464319
:100A600001245FF0000812E0FF2E27D2484680B232
:100A700001F051F8040037F8160001F04CF8761C2C
:100A8000A4B280B2844219D14C4618F10108B8F1E1
:100A90000D0F15D2DFF8BC0710F808002844FFF747
:100AA00073FB8146200080B20028DDD11FFA89F94E
:100AB0004FF6FF708145E8D000200EE000200CE0EA
:100AC0002878400608D5A4B2002C05D037F81600C7
:100AD000002801D0002000E00120BDE8F2832DE9CC
:100AE000F04706000C00150063730F20E072002031
:100AF0002073002114F11A00FFF757FB2F00FFB2FB
:100B00007F1E0D2047435FF0000AD0461FFA88F889
:100B10004FF6FF79504680B2484502D036F817A00C
:100B20007F1C514689B2DFF82C0710F808002044DA
:100B3000FFF73BFB504680B2002800D1CA4618F1AF
:100B40000108B8F10D0FE3D31FFA8AFACA4503D0A2
:100B500036F81700002801D155F040052570BDE892
:100B6000F08700000C0800207CB5050016001C0072
:100B70000B222800FFF72CFB062C18D33088002806
:100B800015D03188B61C00201028F7D222000C00A6
:100B9000A4B214F0010414EB420489B24908E20340
:100BA00003D584F4883494F02104401CECE7072139
:100BB00014F00F0030300200D2B23A2A00DBC01D20
:100BC0006A465054491E2409002CF1D17E2050540D
:100BD000002000E0401C884202D22B5C202BF9D17F
:100BE0000300581C082902D2545C491C00E0202450
:100BF000EC540828F4D373BD020000200B2103003D
:100C0000DBB25B0813EBC01013781818521C491E96
:100C10000029F4D1C0B270472DE9F04704002568DF
:100C200000212000FFF7CAFD0100C9B2002901D050
:100C3000C0B27BE0FF263700B8465FF0FF39C4F84A
:100C40003090E1692800FFF7CEFB82465046C0B2E3
:100C5000002818D1206A00780100C9B2002913D0F9
:100C6000216AC97A11F03F01A1710200D2B2E52ACE
:100C700005D00A070BD50A00D2B20F2A07D0B0461A
:100C8000C4F8309045E04FE05FF0040A4CE0C9B290
:100C90000F2922D194F82F1049063AD4410606D5DF
:100CA000216A4F7B10F0BF00804661692163414695
:100CB000C0B2C9B288420ED13800216A497BC0B2A5
:100CC000884208D1216AE868FFF7B8FE002802D000
:100CD000B8F101081DE0B0461BE05FFA88F8B8F1F2
:100CE000000F07D1B846206AFFF786FF5FFA88F841
:100CF000804518D094F82F00C00707D40B2214F1B8
:100D00002401206AFFF774FA00280DD0B046C4F819
:100D1000309000212000FFF7A6FD82465046C0B269
:100D200000288ED000E0FFE75046C0B2BDE8F08753
:100D30002DE9FE4305002E6895F82F0010F0A00F56
:100D400001D00620A5E0002700E07F1CF06830F805
:100D500017000028F9D10C2215F124016846FFF78D
:100D600037FAE84698F80B00C00729D5402085F8E7
:100D70002F005FF0010901E019F10109B9F1640FD9
:100D80000ED24B46F268694615F12400FFF7ECFEDF
:100D90002800FFF741FF04002000C0B20028EBD07C
:100DA000B9F1640F01D1072073E02000C0B204281C
:100DB00002D02000C0B26CE098F80B0085F82F003C
:100DC00098F80B00800705D50C370D20B7FBF0F421
:100DD000641C00E0012421002800FFF7D5FD070076
:100DE0003800C0B2002832D1641E002C2FD06969AF
:100DF000B1EB44112800FFF7E1FC07003800C0B256
:100E0000002824D115F12400FFF7F6FE8046E96999
:100E10003000FFF7E8FA07003800C0B2002816D10A
:100E20004346DBB22200D2B2296AF068FFF757FED0
:100E30000120F07000212800FFF715FD07003800A1
:100E4000C0B2002803D1641E002CE0D1FFE73800B7
:100E5000C0B200281BD1E9693000FFF7C4FA0700CF
:100E60003800C0B2002812D120220021286AFFF7E2
:100E7000B9F90B2215F12401286AFFF7A9F995F8B1
:100E80002F0010F01800296A08730120F070380054
:100E9000C0B2BDE8FE832DE9F84F06000D002F68B3
:100EA0003068C06800900024A04624E0010089B2A8
:100EB0002F2933D0010089B25C292FD0FF2C36D2E4
:100EC00000F0FF00012180B200F0F8FD81464846A5
:100ED00080B200282DD0484680B2802807DA4946E3
:100EE00089B2DFF8FC06FFF792F9002823D10098B9
:100EF00020F81490641C17F8080018F1010801008C
:100F000089B22029D2DA07EB0801296080B22028B3
:100F100013DA5FF0040A14E018F1010817F808105A
:100F20002F29F9D017F808105C29F5D0EBE7062037
:100F30008BE0062089E0062087E05FF0000A00E0F1
:100F4000641E002C0BD0009800EB440030F8020C1B
:100F5000010089B22029F3D080B22E28F0D00020E1
:100F6000009921F81400002C01D106206DE00B221D
:100F7000202116F12400FFF735F9002500E06D1C53
:100F8000009830F815002028F9D0009830F81500A6
:100F90002E28F4D0002D03D05AF0030A00E0641E7E
:100FA000002C06D0009800EB440030F8020C2E28EC
:100FB000F5D15FF000094F46FFB25FF008080BE083
:100FC000584680B2202805D0584680B22E283ED1FF
:100FD000A5423CD05AF0030A009830F815B06D1CB9
:100FE000584680B20028EBD196F82400E52802D1BB
:100FF000052086F82400B8F1080F01D15FEA8909BD
:101000004846C0B210F00C000C2805D04846C0B2CB
:1010100010F00300032801D15AF0020A5FEA8A7037
:1010200010D44846C0B210F00300012801D15AF094
:10103000100A5FFA89F919F00C09B9F1040F01D10E
:101040005AF0080A86F82FA00020BDE8F28F474525
:1010500001D2A54212D1B8F10B0F02D15AF0030A06
:10106000C2E7A54201D05AF0030AAC42BCD3250026
:1010700008275FF00B085FEA8909ADE7584680B2A0
:10108000802812DB0021584680B200F017FD83460D
:10109000584680B2002806D0DFF848051FFA8BFBBF
:1010A000584410F880BC5AF0020A584680B2002812
:1010B00007D0594689B2DFF83005FFF7A8F80028B5
:1010C00004D05FF05F0B5AF0030A10E0584680B27C
:1010D00041381A2802D259F0020908E0584680B275
:1010E00061381A2803D259F00109BBF1200B06EB35
:1010F000070080F824B07F1C6EE773B5040025005C
:101100002E6802E00198401C0190019800782F2879
:10111000F8D0019800785C28F4D00020A8600198ED
:10112000007820281FD2802084F82F000021200082
:10113000FFF744FB2AE02000FFF76EFD94F82F2014
:101140000100C9B2002917D151071DD4A879C006E2
:101150001BD56069C005C00D304410F1340130006A
:10116000FFF744FCA86001A92000FFF794FE0100EE
:10117000C9B20029DFD009E00100C9B2042902D1B7
:10118000510700D4052001E000E00520C0B276BD83
:1011900010B402005FF0FF30116800291AD0146803
:1011A00000E0641C2178202902D321783A29F8D163
:1011B00021783A290DD11368197830395B1C0A2936
:1011C00006D2A34204D1002902D10800611C11609B
:1011D00000E0002010BC704710B504000020E07053
:1011E0005FF0FF3020632000FFF7FDF8002801D0FA
:1011F00004202CE004F23220FEF7C6FF4AF6552107
:10120000884201D0032022E094F83400E92807D076
:1012100094F83400EB2819D194F83600902815D1B1
:1012200014F16A00FEF7B6FF20F07F40DFF8BC1330
:10123000884201D100200AE014F18600FEF7AAFFDF
:10124000DFF8AC13884201D1002000E0022010BD7D
:101250000000000034650008F8B584B00F001400E9
:1012600000213960FFF794FF0600002E01D50B2006
:1012700060E1DFF8800350F82650002D01D10C20EA
:1012800058E13D6014F0FE04287800280DD06878FD
:1012900000F0C8FBC10708D4E4B2002C03D040071B
:1012A00001D50A2046E1002044E1002028706E703C
:1012B000687800F0C6FBC10701D503203AE1E4B22B
:1012C000002C03D0400701D50A2033E1002421007F
:1012D0002800FFF781FF0100C9B202292AD10024AA
:1012E00010E000200AE02001284410F5F971087987
:1012F0000028F6D011F10800FEF74CFF694641F8CE
:101300002400641C042CEED30026002E00D0761E90
:10131000684650F82640002C04D021002800FFF732
:101320005BFF00E003200100C9B2022902DB761C4A
:10133000042EEDD30100C9B2042901D10120F9E046
:10134000C0B2022801DB0D20F4E015F13F00FEF7EA
:101350001BFFB0F5007F01D00D20EBE015F14A0036
:10136000FEF712FF0700002F04D115F15800FEF719
:1013700011FF0700EF6195F84400A870A8780128D4
:1013800004D0A878022801D00D20D3E0A8784743E4
:1013900095F8410068816889002804D068896989C6
:1013A000491E084201D00D20C4E015F14500FEF7AA
:1013B000EBFE2881287A10F00F0F01D00D20B9E044
:1013C00015F14700FEF7E0FE0600002E04D115F1EE
:1013D0005400FEF7DFFE060015F14200FEF7D4FED2
:1013E0000100080080B2002801D10D20A2E017FA08
:1013F00081F2288912EB1012964201D20D2099E059
:10140000B61A6889B6FBF0F0002801D10D2091E0F2
:1014100003264FF6F673984200D2022640F6F67382
:10142000984200D20126801CA8612C6214FA81F037
:1014300068621219EA623000C0B2032814D115F1B3
:101440005E00FEF7A1FE002801D00D2072E0288981
:10145000002801D00D206DE015F16000FEF79AFE26
:10146000A862A869800016E02889002801D10D2013
:1014700060E0686A3F18AF623000C0B2022802D153
:10148000A869400007E0A96903204143287E10F0C5
:10149000010010EB5100E96900F2FF10B1EB502F91
:1014A00001D20D2046E05FF0FF3068616869286175
:1014B000802028713000C0B203282ED115F16400BD
:1014C000FEF762FE012828D1641C21002800FEF7E7
:1014D0008AFF002821D10020287105F23220FEF772
:1014E00053FE4AF65521884217D115F13400FEF714
:1014F00051FE4149884210D115F50670FEF74AFEAB
:101500003E49884209D115F50770FEF743FE686130
:1015100015F50870FEF73EFE28612E7038480188E8
:10152000491C01800088E8803648E8602800FEF702
:101530001FFF002005B0F0BD70B504000D000926A6
:10154000002C12D0206800280FD0206800780028D6
:101550000BD0A0882168C988884206D120684078CD
:1015600000F060FAC00700D400263000C0B20028A6
:1015700001D1206800E0002028603000C0B270BDBA
:10158000F3B581B01500029800906846FFF700FEA1
:101590000600002E01D50B2020E0164F57F82640FC
:1015A000002C04D02000FEF7E3FE002020700198FC
:1015B000002802D0002001990870019847F8260001
:1015C0000198002802D0EDB2012D01D0002005E0E5
:1015D000002201A902A8FFF73FFEC0B2FEBD000035
:1015E00084650008F8620008A865000846415400B8
:1015F00046415433480800205252614172724161A1
:101600005C080020F00400202DE9F3418EB00400B6
:101610001700002C01D109201FE117F03F073A0005
:10162000D2B269460FA8FFF717FE06003000C0B21D
:10163000002840F00A81009801900F9901A8FFF757
:101640005CFD06003000C0B200280FD19DF83300C9
:10165000000601D5062609E017F0FE0F01D0012192
:1016600000E0002101A8FEF7DCFD060017F01C0FCA
:101670005ED03000C0B2002810D03000C0B20428C4
:1016800009D1FEF709FE002804D001A8FFF750FB9E
:10169000060000E0122657F0080709E09DF80A004E
:1016A00010F0110F01D0072602E0780700D50826B8
:1016B0003000C0B200284CD138074AD500F098FA63
:1016C0000500290009980E30FEF776FD29000998DB
:1016D0001630FEF771FD20200999C872099900980B
:1016E000FFF784F90500002209990098FFF791F9A6
:1016F000002109981C30FEF75FFD01200099C87099
:10170000002D26D00098D0F830800022290001A8B2
:10171000FEF78FFF06003000C0B2002819D1414605
:101720000098FEF760FE06006D1E0098056110E04F
:101730003000C0B200280CD19DF80A00C00601D5C7
:10174000042606E0B80704D59DF80A00C00700D5B6
:1017500007263000C0B2002816D1380701D557F04F
:1017600040070098006B60620998A06217F0FE0FB6
:1017700001D0012100E0002101A8FEF79EFD2061BB
:101780002069002800D102263000C0B200285CD1B8
:1017900009990098FFF72AF9A06009981C30FEF714
:1017A000F9FCE0600020E062009820600098C088AA
:1017B000A080277500206075002020620020A061B5
:1017C0004FF40072002114F13000FEF70BFDB80653
:1017D0003BD5E068002838D0E068A06100984789D0
:1017E0004FF400704743A168E5680BE02000FEF766
:1017F00026FE0100022900D2022611F1010F00D1BC
:101800000126ED1B3000C0B2002801D1AF42EDD35C
:10181000E1613000C0B2002817D1E80515D000986A
:10182000FEF700FE0100002801D102260DE011EBB9
:10183000552121620123226A14F130010098407879
:1018400000F01CF9002800D001263000C0B20028AA
:1018500001D0002020603000C0B210B0BDE8F0819F
:101860002DE9FC470600884614001F000020386060
:1018700069463000FFF760FE0100C9B2002904D1BB
:10188000717D0800C9B2002901D0C0B2C8E0307D26
:10189000C00701D40720C3E0F168B069081AA0426C
:1018A0004FD204004DE010F1010F6ED0F061F169EC
:1018B0000098FEF7B7FD8246BAF1000F69D015EB2C
:1018C0000A0AA1465FEA5929B9F1000F69D00098C8
:1018D000408919EB0501884204D200984089A94645
:1018E000B0EB09094B46524641460098407800F05B
:1018F000C5F8002851D1307D000613D5306AB0EB11
:101900000A0048450ED24FF4007216F13001306AD9
:10191000B0EB0A0A4FF4007000FB0AFA08EB0A0069
:10192000FEF756FC4FF4007000FB09F9C844B0699B
:1019300019EB0000B061386819EB00003860B4EBB7
:101940000904002C6BD0B069C0054AD1B069009978
:101950004D896D1E15EA5025002DA8D1B0690028CB
:1019600001D1B0680BE0F06A002804D0B169300002
:10197000FEF70FFF03E0F1693000FEF760FD02287B
:1019800091D20220707502204AE00120707501207A
:1019900046E002207075022042E0012070750120AF
:1019A0003EE0306A50451AD0307D00060DD5012347
:1019B000326A16F130010098407800F06EF8002885
:1019C00025D1307D10F07F0030750123524616F18D
:1019D00030010098407800F051F800281BD1C6F87B
:1019E00020A0D6F818905FEAC9595FEAD959D9F50D
:1019F00000794C4500D2A1464A46B069C005C00DE9
:101A0000304410F130014046FEF7E2FB8EE7012042
:101A10007075012004E001207075012000E00020B5
:101A2000BDE8F68780B50100234A0800C0B2104423
:101A3000007AC9B202EB8101496849688847C0B29F
:101A400002BD38B5040000201B4D2100C9B2695CFD
:101A5000002911D12000C0B22844007A2100C9B267
:101A600005EB81014968096888470100C9B200296E
:101A700002D10121E4B22955C0B232BD38B504000B
:101A80000D4D2000C0B22844007AE4B205EB840476
:101A90006468A468A047C0B232BD38B50400064DE2
:101AA0002000C0B22844007AE4B205EB84046468E4
:101AB000E468A047C0B232BD2C08002010B4020078
:101AC00092B2802A24DB00290ED0010089B2B1F540
:101AD000807F01DB00201BE03B4980B201EB40002E
:101AE000B0F58070008813E0002100E0491C0A0076
:101AF00092B2802A08DA0200334B0C00A4B233F809
:101B0000143092B29A42F1D10800803000F0FF0008
:101B100080B210BC704770B4010089B2B1F5805F2B
:101B200001DA2A4907E02A4905E092B2002A02D1E7
:101B3000A4B201EB44010B888A1C190089B2002968
:101B400005D001001C0089B2A4B2A14200D237E046
:101B50001488911C220092B2120A04F0FF040500BE
:101B6000ADB22600B6B216FA83F6B542DDDA92B20D
:101B7000002A0CD0022A15D00FD3042A16D013D372
:101B8000062A17D014D3082A18D015D318E080B22B
:101B90009BB2C01A31F8100012E0C31A13F001030F
:101BA000C01A0DE010380BE0203809E0303807E0AB
:101BB0001A3805E0083003E0503801E0B0F5E35092
:101BC00080B270BC70470000E05F0008EC5D000868
:101BD0003C62000880B50349034800F02CF8034933
:101BE000087001BD44080020206500085E08002040
:101BF0000020704730B4040001200023104D6B7AA0
:101C0000002B15D100206B7AE854687A05EB800030
:101C10004460687A28440272687A421C6A723030E2
:101C200008703A2048702F2088700020C87000206B
:101C3000C0B230BC704780B50022FFF7DBFF02BDA9
:101C40002C0800202DE9F0439FB000BF65A6269C1C
:101C5000DFF8B48A8DF83B40029100240B944FF0DA
:101C6000FF37044691461D460AE019F8011B029809
:101C7000A0470028029000F0A1800B98401C0B9018
:101C800099F8000050B12528EFD1002100220591DC
:101C900006920791089209910A9203E00B98A5E039
:101CA00041F0010119F8010F2028F9D023280CD0A8
:101CB0002B2804D02D2805D0302809D080E041F011
:101CC0000201EFE741F00401ECE741F00801E9E728
:101CD00041F01001E6E70D920AE00D98404505DA63
:101CE00000EB800002EB4002303A0D9209F101094D
:101CF00099F80020A2F130000A28EED399F80000EC
:101D00002E2818BF0C9726D119F8010F2A2808D1C0
:101D10002868286009F1010950F8042B28600C920A
:101D200019E02D280CBF09F10109002000220C92B6
:101D30000BE040B90C9A424505DA02EB820203EB54
:101D40004203303B0C9309F1010999F80030A3F1EB
:101D500030020A2AEDD3ADF83810304699F8001059
:101D600000F086FE08B119F8010B8DF83A009DF8D5
:101D70003A00682805D199F8000068280CD1622142
:101D800006E06C2804BF99F800006C2804D171218A
:101D90008DF83A1009F1010910A804902A4619F8A3
:101DA000013B6946204600F061F838B910AA69463F
:101DB000204600F08FF900287FF562AF384615E025
:101DC0002A2888D12A682A6052F8040B2A60002841
:101DD0000D9003D540420D9041F0040109F1010935
:101DE0008CE70000686A6C747A4C00001FB0BDE894
:101DF000F083622820D0682811D06A2803D06C288C
:101E000027D0712825D10868C01D20F00700086080
:101E1000D0E9002308300860194610467047002AB0
:101E20000A680A60106803D0121D0A6000B217E049
:101E3000121D0A6080B217E0002A0A680A60106862
:101E400003D0121D0A6040B20AE0121D0A60C0B23F
:101E50000AE0002A0A680A60106803D0121D0A60AE
:101E6000C1177047121D0A600021704770B51C46EB
:101E70000D46B4F125002E69114600F019811C3879
:101E800068D0001F022865D9133842D0093861D0C4
:101E9000801E16D0401E1ED0401E02285AD9001F98
:101EA00019D0401F00F08180401E32D0401E00F04B
:101EB000CB80C01E00F0DA80801E2AD0C01E28D041
:101EC000FCE06869421C6A610A680A6052F8043BD7
:101ED0000A603354FCE095F83A000122FFF789FFCD
:101EE000C5E90001002904D56869411C69612D22FA
:101EF0000DE0288F810704D56869411C69612B2298
:101F000005E0C00721D56869411C6961202232546F
:101F10001BE095F83A000022FFF76BFFC5E90001CE
:101F200095F83800010710D5D5E90023002B08BF2C
:101F3000002A0AD044F02000782806D168693021B0
:101F40003154401C421C6A61345421466869304453
:101F5000E86087E00868C01D20F007000860D0E94D
:101F6000002308300860C5E90023D5E90001C80F47
:101F700004D06869411C69612D220DE0288F81071A
:101F800004D56869411C69612B2205E0C00704D5AE
:101F90006869411C69612022325468693044E860F4
:101FA0002146284600F0C4F992E005F13A02507843
:101FB00020B14FF0FF340FF6202062E01078622845
:101FC00008D0682824D06A2812D06C282ED0712816
:101FD0000ED02BE00A680A6052F8040B0A6020B9A0
:101FE0004FF0FF340FF608204BE0E96A01706FE014
:101FF0000A680A6052F8040B0A6020B94FF0FF34F7
:102000000FF6EC103DE0EA6AD317C0E900235FE069
:102010000A680A6052F8040B0A6020B94FF0FF34D6
:102020000FF6CC102DE0E96A018051E00A680A60E1
:1020300052F8040B0A6020B94FF0FF340FF6B010CD
:102040001FE0E96A016043E00A680A6052F8040B85
:102050000A60002120F0000221F0FF33C5E90023CF
:10206000EE607821284600F0BBF831E0086808608F
:1020700050F8044B0860EC603CB94FF0FF340FF6A9
:10208000881000F001FD201A70BD2E6B002E04D5C3
:10209000204600F019FD044608E0324600212046A3
:1020A00000F02EFD002814BF041B3446AC610FE085
:1020B0006869411C69612522325409E06969481C3C
:1020C000686125227254210002D0431C6B61345494
:1020D000002070BD2DE9FC410F46064690467A6B04
:1020E0007869396ABC6A121AB869521A796A121A7E
:1020F000F869521A121A97F83800141B41070FD4C6
:102100002020002C8DF800000ADD254601236A46B8
:102110003946304600F048FC00285DD16D1EF5D1EF
:102120007B6942463946304600F03EFC002853D1D8
:1021300030208DF800003D6A002D09DD01236A463C
:102140003946304600F030FC002845D16D1EF5D1EF
:10215000BB69FA683946304600F026FC00283BD1BE
:1021600030208DF800007D6A002D08DD01236A46CD
:102170003946304600F018FC70BB6D1EF6D1F86889
:10218000B969FB6942183946304600F00DFC18BBAE
:1021900030208DF80000BD6A002D08DD01236A465D
:1021A0003946304600F000FCB0B96D1EF6D197F804
:1021B000380041070DD52020002C8DF8000008DDE7
:1021C00001236A463946304600F0EEFB20B9641E12
:1021D000F6D10020BDE8F6814FF0FF30BDE8F68172
:1021E0002DE9FC4307466F293E6908BF082405D046
:1021F00041F02000782814BF0A2410243C25D7E998
:102200000023642918BF69299046994605D1002BFF
:1022100003D5D8F1000869EB4909B9F1000F08BFEF
:10222000B8F1000F1FD1386BE8B9082C4CD197F8E2
:102230003800010748D530203B2586F83B0043E0B5
:1022400000280ED597F8380000F01400102808D1A7
:102250007B6B7969386A5B1A1B1A9A1A002AC8BF05
:102260003A62BDE8F3838DF80010404649462246A5
:10227000E31700F071FC3032D0B26D1E3A280195A0
:1022800004DB9DF80000A0F151018A187255404608
:1022900049462246E31700F05FFC80465FEA0109E9
:1022A00008BFB8F1000F03D0F86871198842DCD379
:1022B000082C09D197F83800010705D5705D302842
:1022C00002D06D1E30207055C5F13C02BA61711903
:1022D000F960386B8242B3DA821A3A624FF6EF70D5
:1022E000398F01403987BDE8F3832DE9D043064695
:1022F0000F4614464FF00008DFF8109412E0E00794
:1023000007D542464B463046394600F03DFD06466D
:102310000F464046494642464B4600F035FD6410A4
:1023200080468946002CEAD130463946BDE8D08344
:102330002DE9F84F05468A464AF020048EB0D5E9CB
:102340000089612C02AE09D0286B002848BF062006
:1023500003D408BF672C01D101202863D5E900010F
:102360004A005215521C0DD10B030BD0AAF161018A
:1023700003201A29A86102D20FF2A86110E00FF21F
:10238000A8610DE04A005215521C0ED10B030CD16E
:10239000AAF1610103201A29A86116D30FF29061F6
:1023A000E868032200F0C2FDC0E1CDE90C01DDE9DF
:1023B0000C2323F00043B3F5801F0DD20027002B20
:1023C00008BF002A019703D111E00FF26061E7E72F
:1023D00001AA00F0FFFD0AE0CD48CE4900EB135002
:1023E000DDE90C2301900B40CB4910461943C5E9A8
:1023F0000001612C0DD1E86830210170821CBAF116
:10240000610FEA600CBF7821582141706869801C17
:102410006861D5E90001CDE90C01DDE90C2333F059
:10242000004104BF0028002300F04881612C40F0E7
:10243000A080286B494600284CBF4FF0210B00F1CB
:10244000010B404600220023DDE90C8900F0FAFD73
:1024500001990BF1010738BF89F00049091F002FCE
:1024600001918DF808200DF1090040F33581A9494B
:1024700000910646404649460022002300F0FAFD3E
:1024800080F029814800400D00F11C0211D0002A83
:102490000FDD40F2FF739A4205DBA04909F00040CE
:1024A0000143002011E0009B194041EA02514046DF
:1024B0000BE028F0000039F0004108BF00280FBFF2
:1024C00049461C22494600F0EDFD8046894600F051
:1024D00087FEFF1F002F044609DD00F09FFE024625
:1024E0000B464046494600F0ABFE80468946F01D4B
:1024F000072104E004F00F0200F8012D2411002C44
:1025000001DD491EF6D5491E5CBF002200F8012DF1
:10251000F9D5DCE00020194602AA0A4400E05B1E5F
:1025200012F80149491E8442F9D00F2804D10DF157
:102530000900425C521C4254002904D50198001D38
:1025400002AE5B1C0190581E0CD43118AAF13A045B
:102550000A783032D7B23A2FA8BFA218401E01F82D
:102560000129F5D5286B002840F1A780591E296361
:10257000A3E001996A4A47F29750414391FBF2F276
:10258000019229F00046D2F1070204DD40463146AF
:10259000FFF7ABFE0AE0524200206249FFF7A5FEBA
:1025A00002460B464046314600F0BCFE8046662C93
:1025B000286B06BF019F0A3706273F18142FC8BF94
:1025C000142730208DF8080089460DF1090000E03D
:1025D0003046002F34DD06464046494600F0C6FF2F
:1025E00001460A4606F1080304200A26B2FBF6F665
:1025F00006EB860EA2EB4E02303203F8012C0A22C3
:10260000B6FBF2F202EB820EA6EB4E063036401E0F
:1026100003F8026DE9D1083F002F03F10806D7DD6A
:10262000084600F0B7FF02460B464046494600F018
:1026300007FE00223C4B00F0A7FB80468946CBE713
:102640000DF10901401A0DF1090604E00199491E36
:10265000401E0191761C31783029F7D0662C02D1CA
:102660000199491C03E0652C0CBF012100212B6B53
:10267000CB189842B8BF431E002B1ED4834204DA05
:10268000F05C3528A8BF392000DA30201946721EC8
:1026900002EB010800E05B1E18F80199491E814514
:1026A000F9D0392802D1705C401C7054002904D53F
:1026B0000198401C16465B1C0190019800B20090E6
:1026C0001BB232465146284600F034F82EE0C61DB3
:1026D000002F3FF7CFAE30460DF10901401A0346F7
:1026E0005845C8BF5B46002B0DF109063FF53AAFD0
:1026F0008342BFF60FAF0DF10900C15C07297FF7D8
:1027000009AF0F2007E70000CBCCCC0C0000244021
:1027100002FCFFFFFFFF0F800000E03F0000F07FA2
:10272000A08601000000F03F84D797410FB0BDE8BC
:10273000F08F00002DE9F84783B006468A46174619
:10274000984600F035FFB8F1000F406A356B90F8FD
:10275000009002DC4FF00108B6A74AF02000BDF956
:102760003040662808BF641C15D0672840F084807C
:1027700014F1040FC0F28680AC4280F2838096F898
:102780003800641C010702D4A845B8BF454620B2F2
:102790002D1A48BF00250FFA84FAF068B169BAF122
:1027A000000F25DC4A1C30234354002D03DC96F82F
:1027B0003800010703D5F06800F80290521C15EBB1
:1027C0000A0FB8BF6C4220B2441941424445B8BF19
:1027D000A046B26171620FFA88F5F561F068B369DD
:1027E0002A463946184400F0A1FB641BB462C4E0D9
:1027F00022B29045084417DA4246394600F096FB6B
:10280000B0694044B061AAEB0801002D716203DC9D
:1028100096F838100A0705D5F16801F80090F069BC
:10282000401CF061B562A8E0394600F07FFBB0695A
:10283000002D5044A8EB040803DC96F838100A0772
:1028400003D5F16801F80090401CB0610FFA88F0E0
:102850008542F368B069B8BFA8460FFA88F207EB63
:102860000A01184400F062FBB1690FFA88F00144D4
:10287000B161281A706280E0BAF1610F14D14FF093
:10288000700A16E0A84504DA96F838100A0758BF0F
:1028900045466D1E48BF0025BAF1670F14BF4FF0C3
:1028A000450A4FF0650A04E0BAF1410F08BF4FF046
:1028B000500AB169F368481CB061002D17F8012B6C
:1028C0005A5403DC96F838100A071BD5F168431CEC
:1028D000B36101F80090002D14DDA8F101080FFA92
:1028E00088F039468542F768B8BFA8460FFA88F2E3
:1028F000F81800F01BFBB0690FFA88F108446D1A54
:10290000B0617562F068B1690844002C80F800A0DD
:1029100003D42B224270811C03E02D2141706442BC
:10292000811C00206A460AE023460A2493FBF4F443
:1029300004EB8405A3EB450302F8013B401C24B2E1
:10294000002CF1DC012806DC4AF02002652A04BFD5
:10295000302201F8012B48B9302001F8010B07E0C3
:10296000401E1DF80030303301F8013B0028F7DC31
:10297000F268B0691044091AF16196F8380000F065
:10298000140010280DD17269B169706A8A18F16952
:102990008218B06A8A188218706B8242BCBF821A91
:1029A000326204B0BDE8F087F8B505460E4617461A
:1029B0001C46002074B117F8011BB068A847B0602E
:1029C00030B1F06A401CF0620020641EF3D1F2BD09
:1029D0004FF0FF30F2BD00007072696E74665F7375
:1029E0003A20256E20646973616C6C6F77656400B2
:1029F0007072696E74663A2062616420256E20618F
:102A00007267756D656E74007072696E74665F735F
:102A10003A2062616420257320617267756D656E6E
:102A2000740000006E616E004E414E00696E6600DB
:102A3000494E4600300030B4002513E050F8042B16
:102A4000D30744BFA9F101039A18091F042942F8CA
:102A5000045BFAD213468C0744BF15809B1CC90740
:102A600048BF1D7050F8041B0029E7D130BC7047E7
:102A7000C9B202788A421AB11CBF10F8012FF9E7D7
:102A800018BF00207047000080B500B906A00549B6
:102A90000B681BB122220021984701E000F08CFD59
:102AA000222002BD58080020636F6E737472616942
:102AB0006E742068616E646C65723A206261642095
:102AC0006D6573736167650000F10103810704D0D0
:102AD00010F8011B820781B1FAD10268A2F101311D
:102AE000914311F0803104BF50F8042FF6E709BA82
:102AF000B1FA81F100EBD100401CC01A7047000010
:102B0000C9B2830706D0521E22D310F8013B994266
:102B1000F7D11FE0083A13D302F1040241EA012180
:102B200041EA014150F8043B121F21BF4B40A3F181
:102B3000013C2CEA030C1CF0803FF3D0C9B2001F0B
:102B4000083210F8013B521E28BF91EA030FF8D853
:102B500018BF0120401E7047BBBBE1B1B2F5803FFA
:102B600080F07E80022A1ED98C46B1FBF2F102FB76
:102B700011C31B0443EA1043B3FBF2FC02FB1C33FA
:102B800080B240EA0343B3FBF2F002FB103240EAAA
:102B90000C4000237047022A05D98446B0FBF2F0AE
:102BA00002FB10C270474AB105D100F0010249088A
:102BB0005FEA3000704700220023704700F000BD3C
:102BC0000B000200002100207047904271EB030CC3
:102BD000F6D3B3F5803F2FD2F0B5B3FA83F7B1FA4D
:102BE00081F4A7F10F0E3D1B5340CEF1200602FAEF
:102BF0000EF2F3415340B5F10F0746D80F3C2C4479
:102C00004140C4F12006A040F1414140B1FBF3F640
:102C100003FB1611A2FB0645001BA94102D2761E3A
:102C20008018594180EA010221FA0EF362FA0EF28D
:102C300000215A403046F0BD30B4B1FBF3FC03FB39
:102C40001C11A2FB0C45001BA94103D2ACF1010CE5
:102C50008018594130BC02460B466046002170473F
:102C6000B2F1807F65D3F0B5B2FA82F7B1FA81F4A0
:102C7000C7F10F063D1B22FA06F307F1110EF241D0
:102C800020355A40B5F10F07B8D94140C4F12006AC
:102C9000A040F1414140B1FBF3FC03FB1C11A2FB3E
:102CA0000C45001BA94103D2BCF1010C801859410D
:102CB0000F2F12D30F3FC90341EA5041B1FBF3F686
:102CC00003FB1611A2FB0645D4EBC030A94102D28A
:102CD000761E8018594146EACC3C07B34140C7F103
:102CE0002006B840F1414140B1FBF3F603FB161159
:102CF000A2FB0645001BA94102D2761E801859414D
:102D000080EA010221FA0EF3C7F1200462FA0EF202
:102D10000CFA07F05A402CFA04F13043F0BD80EA77
:102D2000010221FA0EF3002162FA0EF260465A40C7
:102D3000F0BD8C46B1FBF2F102FB11C31B0243EA6A
:102D40001063B3FBF2FC02FB1C331B024CEA0020B5
:102D500043EA1063B3FBF2FC02FB1C331B024CEA98
:102D6000002043EA1063B3FBF2FC02FB1C331B029E
:102D70004CEA002043EA1063B3FBF2FC02FB1C3276
:102D80004CEA002000237047B0B581EA030C0CF038
:102D9000004C40F2FF7515EA11541DBF15EA135798
:102DA000AC42AF4239E0E41923EA455343F48013BF
:102DB000C90241F0004141EA505EC7021100A7FB81
:102DC000020200284FF00000EEFB01204FF000014E
:102DD000E3FB072118BF42F00102401800214941DE
:102DE000E3FB0E01A4F580640F0302D252004041C0
:102DF000494154F101046CDD470872F1004250F181
:102E0000000051EB0451A1F580115CBF41EA0C01B7
:102E1000B0BD4CEA05510020B0BD05EA1357AC42E5
:102E200014BFAF4241E050EA410E1CBF52EA430ECC
:102E300002E061460020B0BD24423C441BD15FEA61
:102E4000070EF6D0090302BF01460020AEF1140EB2
:102E5000B1FA81F7AEEB070401FA07FE0C37C7F1B0
:102E6000200100FA07F7C8404EEA000E23EA455356
:102E700043F48013A2E733F00043B3FA83F704BFAF
:102E8000B2FA82FE77440B3FE41BB7F1200E2FBF4E
:102E900002FA0EF3BB40C7F1200E22FA0EFE38BF35
:102EA00043EA0E03BA40641C82E750EA410E14BFA5
:102EB00052EA430E6FF000014FF4001717EB430F77
:102EC0008ABF194617EB410FB5E74CEA05510020C0
:102ED000B0BDD4F10104B4F120070FDAC4F120072A
:102EE000520828BF42F0010210FA07F501FA07F76D
:102EF000E1BF2A43E0403843E1400FE0352C98DC45
:102F0000C7F1200452EA400220FA07F218BF42F04B
:102F1000010231FA07F0A1400A43002172F1004298
:102F200050F1000051EB0C01B0BD000062B38B0703
:102F300008D0521E11F8013B00F8013B00F024803C
:102F40008B07F6D1830740F0208000BF103A07D3EB
:102F500030B4B1E83810103AA0E83810F9D230BCDB
:102F6000530724BFB1E80810A0E8081044BF51F887
:102F7000043B40F8043BD20724BF31F8022B20F871
:102F8000022B44BF0B7803707047121F17D35B00EE
:102F900009D151F8043B20F8023B1B0C121F20F80A
:102FA000023BF6D20BE051F8043B00F8013B1B0A50
:102FB00020F8023B1B0C121F00F8013BF3D238BF74
:102FC000121D521E24BF11F8013B00F8013BF8D836
:102FD0007047000010B5144600F002F8226010BDE2
:102FE000C1F30A5343B14A0012F5001F28D2A3F2DD
:102FF000FE32A1EB0251704750EA410C20D001F0A3
:10300000004C31EA0C01B1FA81F204BFB0FA80F34E
:10301000D2180B3AB2F120032CBF00FA03F1914011
:1030200041EA0C013EBFC2F1200C20FA0CF3194317
:103030009040524240F2FD33D21A01EB03517047E7
:10304000002270474FF4001C1CEB410F94BF1CEB97
:10305000430F09E041EA030C50EA4C0C52EA0C0C15
:1030600003D2994208BF9042704714BF8B428242FC
:10307000704700004FF4001C1CEB410F94BF1CEB89
:10308000430F09E041EA030C50EA4C0C52EA0C0CE5
:1030900003D28B4208BF8242704714BF99429042CC
:1030A00070470000124254D440F2FF7C1CEA1153D6
:1030B0000FD0634531D09B1863453CBF01EB0251F3
:1030C000704701F0004141EA0C510020AFF300804D
:1030D000704750EA410320D001F0004C91EA0C0106
:1030E0001CD0B1FA81F30B3B9A420DD9D21A994008
:1030F00051EA0C01C3F1200C20FA0CFC6144984009
:10310000531C40F2FF7CD7E7914041EA0C01C2F129
:10311000200C20FA0CF3194390407047B0FA80F36A
:103120001533202BE0D3202AEED3203A203B9A42BD
:1031300009D9D21A00FA03F141EA0C010020531C0C
:1031400040F2FF7CB8E700FA02F141EA0C010020EE
:103150007047524240F2FF7C1CEA11530DD0634588
:10316000DBD0B2EB030C3CBFA1EB025170470CF17A
:10317000010221EA035141F4801150EA410CCCD004
:1031800001F0004C352A27DC30B481EA0C01B2F1A1
:10319000200309DAC2F12003044601FA03F5D04006
:1031A0002843D1409C400CE0C3F12002450020FAA6
:1031B00003F418BF44F0010421FA03F091400C43DA
:1031C000002174F1004550F1000051EB0C01244244
:1031D00030BC7FF47BAF70476146002076E700008B
:1031E000C1F30A5340F2FE329B1A14DDD3F12003DF
:1031F0004FEAE17208DDC90241EA505141F0004056
:10320000D84080185040704703F2E13010B1D243EB
:1032100082F000407047002070470000C11768B17D
:103220004840401AB0FA80F29040D21CC907C2F55B
:10323000846241EA025202EBD0214005704700004F
:1032400070B44FF0004591EA030F40F1BB816B4031
:10325000841A71EB030603D2001BB14112197341AA
:103260004FF4001C1CEB410F34BF7CEB430442E0E5
:103270000C0DA4EB1356352E4FDC45EAC323DB0AB5
:1032800045EAC121C912B6F120050DDD63FA05F644
:10329000EB4086EA0305124218BF45F00105C0184D
:1032A00051F100010CD213E062FA06F5F2405540EC
:1032B000F3415A40B340F3405A408018594107D374
:1032C00049085FEA30005FEA350528BF45F001058F
:1032D00001F58011420875F1004250F1000041EB08
:1032E00004514E0016F5001F70BC38BF7047002017
:1032F000090D090570471CEB410F10D252EA430635
:103300000BD0BCEB410F05D80C0DAB43661E342E21
:10331000B6DD02E0AB438018594170BC704770BC09
:1033200070470000F0B540F2FF7581EA030C0CF025
:10333000004C15EA11541DBF15EA1357AC42AF42B9
:10334000E5E0BC41C1F31301C3F31303801A9941B3
:1033500043F4801304D2641E40004941801859414F
:10336000C90241EA5051B1FBF3F603FB1611A2FB6F
:103370000675D7EBC020A94102D2761E80185941AC
:10338000C90241EA5051B1FBF3FE03FB1E11A2FB3F
:103390000E75D7EBC020A94103D2AEF1010E801803
:1033A0005941890241EA9051760546EA8E2EB1FBD9
:1033B000F3F603FB1611A2FB0675D7EB8020A9419B
:1033C00002D2761E80185941C90241EA50514EEA94
:1033D000060EB1FBF3F603FB1611A2FB0675D7EB45
:1033E000C020A94102D2761E80185941C90241EA83
:1033F0005051B1FBF3F703FB1711A2FB0735D3EBD9
:10340000C020A94167F100070CBF004247F0010747
:1034100066F3D5274FEA1E31B80814F5806412DD33
:10342000BD0775F1004250EB0E5051EB045111F500
:10343000801F5CBF41EA0C01F0BD4CF07F6141F0A0
:10344000E0410020F0BDBD076D0840EA0E5041F498
:103450008011D4F10104B4F120060ADAC4F1200687
:103460000200E04001FA06F3E1401843B240154380
:103470000EE0342C13DCC6F1200445EA40056D084B
:1034800020FA06F2154321FA06F0A1400D4300216F
:1034900075F1004250F1000051EB0C01F0BD00202D
:1034A0005FEA0C01F0BDCFB992185B41B3FA83F724
:1034B00004BFB2FA82F6BF190B3FB7F120062FBF47
:1034C00002FA06F3BB40C7F1200622FA06F638BF1F
:1034D0003343BA401CB1E419641E33E77F4231F034
:1034E0000041B1FA81F404BFB0FA80F6A4190B3C94
:1034F000B4F120062FBF00FA06F1A140C4F1200666
:1035000020FA06F638BF3143A0403C1B1AE7AC4214
:103510001ABF05EA1357AF4212E050EA41061CBF3A
:1035200052EA4306BFE750EA4107304661461CBFF6
:1035300041EA0551F0BD52EA430C08BFC143F0BD5A
:1035400000204FF4001616EB410F98BF16EB430F07
:1035500008BF16EB410F24BFC14305E016EB430F34
:103560000CBF61464CEA0551F0BD0000400D491802
:1035700040EA81200CD2490DA1F58061491C40F040
:10358000004005DBD1F11F0154BFC840C017704790
:1035900000207047014648B1B0FA80F18840C91C4C
:1035A000C1F58461090501EBD02140057047000099
:1035B0000048704748000020012000F0B9B8000022
:1035C00070470000841A71EB030604D26E40001BA2
:1035D000B141121973414FF4001C1CEB410F34BF71
:1035E0007CEB430683E00C0DA4EB1356362E00F360
:1035F0007C80012E45EAC32341DC43EA525312BFCB
:10360000D20292025B08240545EAC12141EA5051E9
:10361000D2EBC020994125D407D1B0FA80F610FA38
:1036200006F162D00020203608E0B1FA81F6B14000
:10363000C6F1200220FA02F21143B0404FEAF474BE
:10364000B4EB465434F001064FEA74040AD8D6F5B8
:103650000016760D04F00044F04061FA06F2504086
:10366000F1404840C00A40EA415021F0004128BFE3
:103670005FEA500550F1000044EBD12135E0DB0A50
:1036800045EAC121C90AB6F120050EDD42EA02422F
:10369000120CC5F1200603FA06F6EB4042EA0605D5
:1036A0006D42984161F100010DE062FA06F5F240C9
:1036B000554063FA06FC82EA0C02F3405A406D4220
:1036C000904161EB030111F4801F05D1641E620576
:1036D00002D06D004041494121F48011430875F149
:1036E000004350F1000041EB045170BC70471CEBEB
:1036F000410F15D223F0004352EA43060BD04FEAA4
:103700004C0CBCEB410F04D80C0D661E342EB7DDFB
:10371000EBE7801A994150EA410608BF0021E4E72F
:1037200008BF1CEB430F28BF6FF00001DDE700006E
:1037300080B5AFF30080024A11001820ABBEFBE752
:103740002600020010B50400002C01D101201AE06F
:1037500094F83400002804D100202077200000F0E5
:103760004AFE032084F83400200000F00DF8002801
:1037700001D0012007E00020A06300202063012089
:1037800084F83400002010BD30B589B0040000205A
:103790000390002004900020059000200690002057
:1037A00007907620089003A983B068461822FFF797
:1037B000CDFB0EBC206800F0AFFEC0B2002801D0E7
:1037C000012039E0DFF83C5500202860206800F037
:1037D000C2FE01202860022001F014FA200000F04F
:1037E00090FC002807D0012184F83410A16B084315
:1037F000A063012020E0200000F00AFC002807D090
:10380000012184F83410A16B0843A063012013E068
:103810004FF40071206800F0D7FE00280BD0DFF8CD
:10382000E81422689163A16B0843A063012084F827
:103830003400012000E0002009B030BD2DE9F04740
:1038400086B006000C001500994601F0EFF907005C
:10385000A046002C05D1B06B50F00060B063012091
:103860002FE196F83400012840F026810020B06353
:10387000F06D19EB0501884205D2B06B50F0007075
:10388000B06301201DE1032086F834000020316878
:10389000C862706C012802D04FF4007045435FF09D
:1038A000FF3000904FF4007000FB09F00190902071
:1038B00002900220039000200490012005906946A8
:1038C000306800F06BFEB9F1020F06D302203063BE
:1038D0002900306800F0AAFE05E0012030632900CD
:1038E000306800F08AFE00280DD0DFF81C14326822
:1038F0009163B16B0843B063012086F83400002067
:1039000030630120DDE0019C0E9D3068406B40F289
:103910002A3108423AD13068406B000420D5002C8F
:103920001ED05FF0000A18E0306800F00CFE88F846
:10393000000018F10101641E0200120A0A70491CFD
:10394000641E0200120C0A70491C641E000E0870EE
:1039500011F10108641E1AF1010ABAF1080FE3D34C
:1039600001F064F9C01BA84201D2002DCDD1DFF8CF
:10397000980331688863B06B50F00040B063012059
:1039800086F834000020306303209AE03068406BF2
:10399000C00518D5B9F1020F15D3706C032812D0E9
:1039A000306800F08EFE00280DD0DFF85C1332681E
:1039B0009163B16B0843B063012086F834000020A6
:1039C000306301207DE03068406B000703D430682D
:1039D000406B80050ED5DFF8300331688863B06B2B
:1039E00050F00800B063012086F8340000203063F6
:1039F000012066E03068406B80070ED5DFF80803D1
:103A000031688863B06B50F00200B063012086F823
:103A1000340000203063012053E03068406B8006A2
:103A20000ED5DFF8E40231688863B06B50F02000F7
:103A3000B063012086F8340000203063012040E0AC
:103A40003068406B80022ED5002C2CD0306800F0FE
:103A50007AFD88F8000018F10101641E0200120AC4
:103A60000A70491C641E0200120C0A70491C641E74
:103A7000000E087011F10108641E01F0D7F8C01B98
:103A8000A84201D2002DDBD1DFF87C0231688863C7
:103A9000B06B50F00040B063012086F83400002085
:103AA000306301200DE040F23A5031688863012014
:103AB00086F83400002004E0B06B50F00050B06392
:103AC000012006B0BDE8F0872DE9F04F87B0070070
:103AD0000C001500984601F0A9F88146A346002C79
:103AE00005D1B86B50F00060B863012007E197F88A
:103AF0003400012840F0FE800020B863F86D18EB18
:103B00000501884205D2B86B50F00070B8630120FF
:103B1000F5E0032087F8340000203968C862786C2B
:103B2000012802D04FF4007045435FF0FF30019050
:103B30004FF4007000FB08F00290902003900020EA
:103B40000490002005900120069001A9386800F03B
:103B500025FDB8F1020F07D320203863290038680B
:103B600000F096FD060006E0102038632900386852
:103B700000F075FD0600002E0DD0DFF88C013968CD
:103B80008863B86B0643BE63012087F834000020C9
:103B900038630120B3E0029D109C3868406B40F20E
:103BA0001A31084243D13868406B400429D5002DB2
:103BB00027D05FF0000A21E09BF8000000901BF185
:103BC00001006D1E0099027851EA02210091401C0B
:103BD0006D1E0099027851EA02410091401C6D1E51
:103BE0000099027851EA0261009110F1010B6D1EFB
:103BF0006946386800F0AAFC1AF1010ABAF1080F08
:103C0000DAD301F013F8B0EB0900A04201D2002C86
:103C1000C3D1DFF8F40039688863B86B0643BE632C
:103C2000012087F8340000203863032067E03868FB
:103C3000406BC00518D5B8F1020F15D3786C032876
:103C400012D0386800F03DFD00280DD0DFF8B81024
:103C50003A689163B96B0843B863012087F8340070
:103C60000020386301204AE03868406B000703D425
:103C70003868406B80050ED5DFF88C0039688863A2
:103C8000B86B50F00800B863012087F834000020BA
:103C90003863012033E03868406B80070ED5DFF8C9
:103CA000680039688863B86B50F00200B86301207F
:103CB00087F8340000203863012020E03868406B2A
:103CC000C0060ED5DFF8400039688863B86B50F045
:103CD0001000B863012087F8340000203863012009
:103CE0000DE040F23A5039688863012087F83400CB
:103CF000002004E0B86B50F00050B863012007B01A
:103D0000BDE8F08FA0802542FF05400010B4426E50
:103D1000920F0A70426E920E12F00F024A70426EBB
:103D2000120E12F003028A70426E120CCA70426EBA
:103D3000120A0A71426E4A71826E120DCA80826E38
:103D4000120C12F00F020A72826ED20B12F00102F4
:103D50004A72826E920B12F001028A72826E520BCC
:103D600012F00102CA72826E120B12F001020A7383
:103D700000224A73426C002A40F09B80826E40F61B
:103D8000FC7313EA8203C26E53EA92730B61C26E34
:103D9000D20E12F007020A75C26E120E12F007025E
:103DA0004A75C26E520D12F007028A75C26E920CED
:103DB00012F00702CA75C26ED20B12F007020A7621
:103DC0000A69521C42650122436D0C7E14F00704FF
:103DD000A41C12FA04F4634343650B7A13F00F0337
:103DE0009A408265426D836D5B0A5A43C2654FF407
:103DF00000720266C26E920B12F001024A76C26E27
:103E0000D20912F07F028A7690F86C2012F07F02BD
:103E1000CA76026FD20F0A77026F520F12F00302B6
:103E20004A77026F920E12F007028A77026F920DA4
:103E300012F00F02CA77026F520D12F0010281F8E0
:103E40002020002281F82120026F120C12F00102C2
:103E500081F82220026FD20B12F0010281F8232098
:103E6000026F920B12F0010281F82420026F520BB4
:103E700012F0010281F82520026F120B12F00102EC
:103E800081F82620026F920A12F0030281F827209F
:103E9000026F120A12F0030281F82820006FC0F3AB
:103EA000460081F82900012081F82A00002010BC7A
:103EB0007047426C012A15D1826E120412F47C12F2
:103EC000C36E52EA13420A610B695B1C4FF48062B5
:103ED00053434365426DC2654FF400728265826D43
:103EE000026687E7DFF8C81202689163816B51F0C0
:103EF00080518163012180F834100120D7E7426CA2
:103F00000A60826C4A60C26C8A60026DCA60426D4F
:103F10000A61826D4A61C26D8A61006EC8610020CB
:103F2000704778B589B004000E000025032084F89E
:103F30003400606C03281FD0B6F5805F04D1A06BFD
:103F400050F08050A0631BE0B6F5006F06D1200052
:103F500000F048F9A16B0843A06311E0002E06D1E0
:103F6000200000F06AF9A16B0843A06308E0A06B91
:103F700050F00060A06303E0A06B50F08050A0639D
:103F8000A06B002808D0DFF8280221688863012090
:103F900084F83400012514E060680390A068049060
:103FA000E0680590069660690790A069089003A9EB
:103FB00083B068461822FEF7C9FF0EBC206800F0E7
:103FC000ABFA4FF40071206800F0FEFA002807D029
:103FD000DFF8DC1122689163A16B0843A06301251F
:103FE000012084F834002800C0B20AB070BD1CB5AE
:103FF0000400002000906946200000F0DDF8002851
:1040000002D0A16B0843A0630098C0F3432016BD03
:1040100018B58FB004000120ADF80C00206800F046
:104020009EFA002802D15FF0806068E0606C03288F
:1040300019D0206800F00CFC002860D10021206815
:1040400000F0A8FA60670421206800F0A3FAA067D6
:104050000821206800F09EFAE0670C21206800F03B
:1040600099FAC4F88000606C032805D003A9206881
:1040700000F01BFC002842D1606C03281DD0BDF865
:104080000C002065216D0904206800F0F8FB002871
:1040900035D10021206800F07DFA60660421206897
:1040A00000F078FAA0660821206800F073FAE06654
:1040B0000C21206800F06EFA20670421206800F0CF
:1040C00069FA000DE06404A92000FFF71FFE002834
:1040D00002D05FF0805012E0226D120400232068AD
:1040E00000F009FB00280AD1211D83B06846182280
:1040F000FEF72CFF0EBC206800F00EFA002010B076
:1041000010BD7CB505000020009000260024286822
:1041100000F00AFB002849D1286800F01CFB0028A9
:1041200007D00020A864286800F0FEFA002802D01A
:104130003CE00120A864A86C012818D1002128685F
:1041400000F021FB002812D05FF080502EE01949CA
:10415000286800F031FB002817D10021286800F002
:1041600019FA06003400E40F0098401C00904FF646
:10417000FF70009981420BD2002C09D100212868E0
:1041800000F001FB0028E2D010E05FF080500DE06D
:104190000099814202D35FF0807007E0700002D581
:1041A0000120686401E000206864002076BD000002
:1041B000FF054000000010C138B505000C00002CC0
:1041C00002D15FF000600CE0296D0904286800F05E
:1041D00086FB002805D10021286800F0DBF920606B
:1041E000002032BD1CB50400684600210022C0E951
:1041F00000120021206800F0CDF9800102D54FF4B3
:10420000006019E06946200000F042F8002813D150
:10421000019840030ED5216D0904206800F0B3FA1F
:10422000002809D10221206800F0DFFA002803D11C
:10423000002001E05FF0806016BD1CB504006846F8
:1042400000210022C0E900120021206800F0A2F93C
:10425000800102D54FF4006019E06946200000F0AB
:1042600017F8002813D10198C0030ED5216D090459
:10427000206800F088FA002809D10021206800F0A9
:10428000B4FA002803D1002001E05FF0806016BD81
:10429000F8B588B004000F0000F0C8FC0500002647
:1042A000684600210022C0E900120821206800F0C1
:1042B0008BF9002840F08180216D0904206800F00E
:1042C00062FA002879D15FF0FF3002900820039055
:1042D00030200490022005900020069001200790D5
:1042E00002A9206800F05AF9206800F097FA002827
:1042F00063D12068406B10F02A0F18D12068406B02
:10430000800207D5206800F01EF9694641F82600B2
:10431000761C03E02068406B800408D500F086FC22
:10432000401B10F1010FE4D15FF0004045E0206830
:10433000406B000703D42068406B800504D508203B
:1043400021688863082038E02068406B800704D526
:1043500002202168886302202FE02068406B8006DD
:1043600004D5202021688863202026E040F23A50BE
:1043700021688863684641684268120212F47F022D
:1043800052EA01624168090A11F47F410A43406818
:1043900052EA10623A60381D0099009A120212F433
:1043A0007F0252EA01620099090A11F47F410A432F
:1043B000009952EA11620260002009B0F0BD0000CD
:1043C00081B0002000904C48016851F480410160A8
:1043D000006810F48040009000980020009047484A
:1043E000016851F080510160006810F08050009029
:1043F000009801B0704710B586B0040001A81421E0
:1044000000F01AFC20683E4988423FD1002000900D
:104410003948016851F400610160006810F40060DF
:1044200000900098002000903648016851F0040187
:104430000160016811F004010091009900210091D0
:10444000016851F008010160006810F00800009058
:1044500000984FF4F8500190022002900020039041
:10446000032004900C20059001A9274800F0E8FBE8
:104470000420019002200290002003900320049069
:104480000C20059001A9214800F0DAFB06B010BD10
:1044900010B586B0040001A8142100F0CDFB2068FF
:1044A0001B49884226D1002000901348016851F032
:1044B00010010160006810F01000009000980020CA
:1044C00000901048016851F001010160006810F08F
:1044D0000100009000984FF4C0600190022002900B
:1044E00000200390032004900720059001A90948AB
:1044F00000F0A6FB06B010BD443802404038024030
:10450000002C01403038024000080240000C0240FC
:1045100000100140000002400EB40022009B0199EF
:104520000B4302990B4303990B4304990B430599E1
:104530000B431A434368DFF8B8160B401A43426036
:10454000002003B07047D0F8800070470968C0F8B9
:104550008010002070470321016000207047006830
:1045600010F00300704710B400230A6882604C68A2
:104570008A681443CA68144309690C432343C16819
:10458000090B09030B43C360002010BC704700698E
:10459000C0B27047143009180868704710B400237F
:1045A0000A6842624A6882628C68CA6814430A696F
:1045B000144349690C432343C16A31F0F7010B43AB
:1045C000C362002010BC704718B585B0040000918C
:1045D0001020019040200290002003904FF4806052
:1045E000049069462000FFF7BEFF41F28832102197
:1045F000200000F08DF906B010BD18B585B004009C
:1046000000911120019040200290002003904FF46F
:104610008060049069462000FFF7A5FF41F28832D0
:104620001121200000F074F906B010BD18B585B056
:10463000040000911220019040200290002003907D
:104640004FF48060049069462000FFF78CFF41F230
:1046500088321221200000F05BF906B010BD18B5B9
:1046600085B00400009118200190402002900020A5
:1046700003904FF48060049069462000FFF773FFB9
:1046800041F288321821200000F042F906B010BD36
:1046900018B585B0040000911920019040200290C7
:1046A000002003904FF48060049069462000FFF7DB
:1046B0005AFF41F288321921200000F029F906B092
:1046C00010BD18B585B00400002000900C200190AA
:1046D00040200290002003904FF4806004906946CF
:1046E0002000FFF740FFDFF80C250C21200000F030
:1046F0000FF906B010BD18B585B004000092072070
:10470000019040200290002003904FF480600490BC
:1047100069462000FFF727FF41F288320721200079
:1047200000F0F6F806B010BD18B585B00400002002
:1047300000900020019000200290002003904FF490
:104740008060049069462000FFF70DFF200000F014
:1047500036FA06B010BD18B585B004004FF4D57018
:1047600000900820019040200290002003904FF418
:104770008060049069462000FFF7F5FE200000F0FD
:10478000F2F906B010BD18B585B0040000913720CD
:10479000019040200290002003904FF4806004902C
:1047A00069462000FFF7DFFE41F288323721200002
:1047B00000F0AEF806B010BD18B585B00400DFF803
:1047C00038040143009129200190402002900020EC
:1047D00003904FF48060049069462000FFF7C3FE09
:1047E000200000F053F906B010BD18B585B00400E4
:1047F00000910620019040200290002003904FF489
:104800008060049069462000FFF7ADFE41F28832D7
:104810000621200000F07CF806B010BD18B585B068
:1048200004000020009033200190402002900020DE
:1048300003904FF48060049069462000FFF793FED8
:1048400041F288323321200000F062F806B010BD3A
:1048500018B585B004000020009002200190C0200F
:104860000290002003904FF480600490694620007D
:10487000FFF779FE200000F0E0F806B010BD18B593
:1048800085B00400009109200190C0200290002012
:1048900003904FF48060049069462000FFF763FEA8
:1048A000200000F0CAF806B010BD30B585B0040095
:1048B0000D00002000900320019040200290002075
:1048C00003904FF48060049069462000FFF74BFE90
:1048D0002A000321200000F0FBF805B030BD18B518
:1048E00085B0040000910D2001904020029000202E
:1048F00003904FF48060049069462000FFF733FE78
:1049000041F288320D21200000F002F806B010BDFF
:1049100038B504000D00DFF8E4020068C0084FF469
:104920007A71B0FBF1F042431000421E00280CD017
:10493000606B10F0450FF7D00005F5D4606B4007B1
:1049400006D50420A063042076E05FF0004073E009
:10495000606BC00703D50120A06301206CE0C52077
:10496000A0632000FFF713FEEDB2A84201D00120A2
:1049700062E000212000FFF70DFEA149084201D1AD
:10498000002059E0002802D55FF0007054E041009B
:1049900001D5402050E0810001D580204CE0C100CD
:1049A00002D54FF4807047E0010102D54FF400704A
:1049B00042E0410102D54FF480603DE0C10102D5E3
:1049C0004FF4006038E0010202D54FF4805033E02C
:1049D000410202D54FF400502EE0810202D54FF47F
:1049E000804029E0C10202D54FF4004024E0410399
:1049F00002D55FF400301FE0810302D55FF4802010
:104A00001AE0C10302D55FF4002015E0010402D5CD
:104A10005FF4801010E0410402D55FF400100BE059
:104A2000810402D55FF4800006E0000702D55FF440
:104A3000000001E05FF4803032BD70490968C908A8
:104A40004FF47A72B1FBF2F241F288314A4311001D
:104A50004A1E00290CD0416B11F0450FF7D0090513
:104A6000F5D4416B490706D50421816304200CE08D
:104A70005FF0004009E0416BC90703D50121816364
:104A8000012002E0C5218163002070475B4909686D
:104A9000C9084FF47A72B1FBF2F241F288314A430D
:104AA00011004A1E00290CD0416B11F0450FF7D0C0
:104AB0000905F5D4416B490706D50421816304201B
:104AC00005E05FF0004002E0C521816300207047EF
:104AD00070B505000E00140048480068C0084FF487
:104AE0007A71B0FBF1F141F2883041430800411E78
:104AF00000280CD0686B10F0450FF7D00005F5D4F6
:104B0000686B400706D50420A86304202AE05FF004
:104B1000004027E0686BC00703D50120A86301208F
:104B200020E02800FFF733FDF6B2B04201D00120AB
:104B300018E0C520A86300212800FFF72BFD10F422
:104B4000604F03D1000C208000200BE0410402D50F
:104B50004FF4005006E0000402D54FF4805001E00D
:104B60005FF4803070BD25490968C9084FF47A7236
:104B7000B1FBF2F241F288314A4311004A1E00298A
:104B80000CD0416B11F0450FF7D00905F5D4416BFE
:104B9000490706D50421816304200FE05FF000403F
:104BA0000CE0416BC90703D501218163012005E0B9
:104BB000416B490601D540218163002070470F49B0
:104BC0000968C9084FF47A72B1FBF2F241F28831F8
:104BD0004A4311004A1E002906D0416B0906F8D548
:104BE000C5218163002070475FF00040FBE70000B3
:104BF0000081FFFF00E1F505000010808400002027
:104C000008E0FFFD38B5040000F010F8050014F1CD
:104C1000010F02D004480078241800F007F8401B68
:104C2000A042FAD331BD00BF8900002001480068CE
:104C3000704700BF54080020002200F009B90000AE
:104C4000F8B4002200220022002337E0082704E005
:104C5000DFF8C4219042F9D10727FFB213F0030215
:104C6000D2B2920097403E431A00920845F8226063
:104C7000DFF8A8512A68A2434E68F60200D5224305
:104C80002A60DFF89C512A68A2434E68B60200D51C
:104C900022432A60DFF88C512A68A2434E68B6038B
:104CA00000D522432A60DFF880512A68A2434E686B
:104CB000F60301D5144322002A605B1C102B80F000
:104CC000A880012515FA03F20C6814409442F4D12F
:104CD0000A7912F00302012A04D00A7912F00302C1
:104CE000022A16D1866803271A00D2B252009740D2
:104CF000BE43CF681A00D2B2520097403E4386604E
:104D000042689D40AA434D68C5F300159D402A4363
:104D100042600A7912F00302032A0DD0C568032607
:104D20001A00D2B252009640B5438E681A00D2B231
:104D3000520096403543C5600A7912F00302022AF8
:104D400017D11A00D20800EB8202156A0F2613F061
:104D50000702D2B292009640B5430E6913F00702E3
:104D6000D2B29200964035431A00D20800EB82027C
:104D70001562056803261A00D2B252009640B54368
:104D80000E7916F003061A00D2B25200964035434F
:104D900005604A6812F4403F8FD000220092234AF7
:104DA000156855F480451560126812F4804200922F
:104DB000009A1F4D1A00920855F822600F2713F031
:104DC0000302D2B292009740BE431A4A904201D1E8
:104DD000002742E7184A904201D101273DE7174AD0
:104DE000904201D1022738E7154A904201D10327AA
:104DF00033E7144A904201D104272EE7124A904229
:104E000001D1052729E7114A90427FF421AF0627F7
:104E100023E7F1BC70470000001C0240083C014041
:104E20000C3C0140043C0140003C0140443802403D
:104E3000083801400000024000040240000802401F
:104E4000000C024000100240001402400018024012
:104E500000B500BF130096469446103928BFA0E85D
:104E60000C50FAD85FEA417C28BF0CC048BF40F81C
:104E7000042BC90728BF20F8022B48BF00F8012BDC
:104E800000BD000010B50400002C01D1012035E068
:104E9000A0690028FFD194F84100002805D1002026
:104EA00084F840002000FFF7F3FA242084F8410042
:104EB0002068C06830F400502168C860200000F00D
:104EC000F0F82068006930F490402168086120689B
:104ED000406930F02A00216848612068C06850F4B9
:104EE00000502168C86000206064202084F84100E0
:104EF000202084F8420000206063002010BD2DE9CE
:104F0000FC4106000D0014001F00002096F841002F
:104F1000202851D1002D03D0200080B2002801D1DB
:104F200001204AE000207064212086F84100FFF74C
:104F30007DFE8046B484F484B068B0F5805F04D10F
:104F40003069002801D1002412E02C0000250FE078
:104F5000207831684860641C07E0002CF8D128886C
:104F6000C005C00D31684860AD1CF08C401EF08457
:104F7000F08C00280DD0009743460022802130009D
:104F800000F01DF80028E8D0202086F8410003201A
:104F900013E00097434600224021300000F00FF854
:104FA000002804D0202086F84100032005E02020BE
:104FB00086F84100002000E00220BDE8F6812DE9DE
:104FC000FC4105000E0090461F00089C2868006800
:104FD0003040B04201D1012000E000204146C9B27A
:104FE00088422AD114F1010FF0D0FFF71FFEC01B39
:104FF000844201D3002C01D103201FE02868C0683F
:105000004007E3D5802EE1D0402EDFD0286800682D
:105010000007DBD500200090286800680090286811
:10502000406800900098280000F00AF808206864A2
:10503000002085F84000012000E00020BDE8F68156
:1050400001680C3151E8002F32F49072016811F1BF
:105050000C0343E800210029F2D10168143151E822
:10506000002F52085200016811F1140343E8002197
:105070000029F2D1016B01290CD101680C3151E8F2
:10508000002F32F01002016811F10C0343E80021F7
:105090000029F2D1202180F84210002101637047DD
:1050A00000002DE9FE4F05002868016931F44051E8
:1050B000E868014328680161A968286901436869B3
:1050C0000143E86901432868C268B04802401143BF
:1050D0002868C1602868416931F44071A8690143BA
:1050E000286841612868AA49884203D02868A949EC
:1050F000884203D100F0FBF9040002E000F0ECF973
:105100000400E869B0F5004F40F09F805FF0640A4A
:10511000022600275FF019085FF000092200002333
:10512000A8FB020108FB031109FB0211CDE90001F4
:1051300068680021A6FB002306FB013307FB003350
:10514000DDE90001FDF708FD6421B0FBF1F00290FC
:1051500022000023A8FB020108FB031109FB021136
:10516000CDE9000168680021A6FB002306FB01339E
:1051700007FB0033DDE90001FDF7EEFC834622006A
:105180000023A8FB020108FB031109FB0211CDE972
:10519000000168680021A6FB002306FB013307FB22
:1051A0000033DDE90001FDF7D7FC6421B0FBF1F02D
:1051B0000AFB10B0C00032306421B0FBF1F04000B7
:1051C00010F4F870029910EB0110029022000023F5
:1051D000A8FB020108FB031109FB0211CDE9000144
:1051E00068680021A6FB002306FB013307FB0033A0
:1051F000DDE90001FDF7B0FC83462000002102003C
:105200000B00A8FB020108FB031109FB02116A68ED
:10521000002390469946A6FB082306FB093307FBAB
:105220000833FDF799FC6421B0FBF1F00AFB10BADA
:105230005FEACA0032306421B0FBF1F111F00701DE
:1052400002980918286881609CE0042600275FF016
:10525000640A5FF019085FF0000922000023A8FB30
:10526000020108FB031109FB0211CDE90001686886
:105270000021A6FB002306FB013307FB0033DDE919
:105280000001FDF769FC6421B0FBF1F002902200FF
:105290000023A8FB020108FB031109FB0211CDE961
:1052A000000168680021A6FB002306FB013307FB11
:1052B0000033DDE90001FDF74FFC834622000023A7
:1052C000A8FB020108FB031109FB0211CDE9000153
:1052D00068680021A6FB002306FB013307FB0033AF
:1052E000DDE90001FDF738FC6421B0FBF1F00AFBB9
:1052F00010B0000132306421B0FBF1F010F0F0008A
:10530000029910EB0110029022000023A8FB020179
:1053100008FB031109FB0211CDE9000168680021B7
:10532000A6FB002306FB013307FB0033DDE9000188
:10533000FDF712FC83462000002102000B00A8FBB1
:10534000020108FB031109FB02116A680023904661
:105350009946A6FB082306FB093307FB0833FDF734
:10536000FBFB6421B0FBF1F00AFB10BA5FEA0A1004
:1053700032306421B0FBF1F111F00F0102980918ED
:1053800028688160BDE8F78F00000000F369FFFF27
:1053900000100140001401402DE9F04104000E000E
:1053A000002C01D1012092E0564D286810F0070032
:1053B000B04207D22E70286810F00700B04201D02A
:1053C000012084E02078800716D52078400704D596
:1053D0004D48016851F4E05101602078000704D580
:1053E0004948016851F46041016047490A6832F058
:1053F000F002A06802430A602078C00735D56068D3
:10540000012805D141480068800313D401205EE0E3
:105410006068022802D06068032805D13B48006814
:10542000800107D4012052E038480068800701D489
:1054300001204CE0344F39688908890060680143D5
:105440003960FFF7F3FB8046386810F00C006168A4
:10545000B0EB810F09D0FFF7E9FBB0EB080041F298
:1054600089318842F0D3032031E0286810F007002A
:10547000864207D22E70286810F00700B04201D093
:10548000012024E02078400706D51F490A6832F43D
:10549000E052E06802430A602078000707D51A4806
:1054A000016831F46041226951EAC201016000F0F3
:1054B00037F81749144A1268C2F30312895CC840CE
:1054C000144908601448006800F06AF80020BDE83C
:1054D000F08110480068704780B5FFF7FAFF0F4968
:1054E000094A1268C2F38222895CC84002BD80B5B5
:1054F000FFF7EFFF0949044A1268C2F34232895CA0
:10550000C84002BD003C024008380240003802405A
:10551000546500088400002080000020B065000869
:1055200010B500200020002000201948006810F06D
:105530000C00002804D0042804D0082804D025E05A
:10554000144824E0144822E0144C226812F03F0270
:105550002068400209D52068C0F388100E49A1FBDD
:1055600000010023FDF7F8FA08E02068C0F3881076
:105570000849A1FB00010023FDF7EEFA2168C1F301
:105580000141491C4900B0FBF1F000E0014810BDA9
:10559000083802400024F40040787D0104380240BD
:1055A00010B504004FF47A700D490978B0FBF1F0A2
:1055B0000C490968B1FBF0F000F086F8002801D032
:1055C00001200CE0102C09D2002221005FF0FF30F6
:1055D00000F069F804480460002000E0012010BDDC
:1055E00089000020840000208000002010F00700C7
:1055F000374B1A684FF6FF010A40364951EA00213D
:105600000A431A60704732480068C0F302207047AE
:10561000020052B2002A04D409012F4A40B21154A8
:1056200007E009012D4A40B210F00F00104400F8C5
:10563000041C704710B410F00700D0F10703052BCD
:1056400001D3042301E0D0F10703041D072C01D28C
:10565000002000E0C01E012414FA03F35B1E194071
:10566000814014FA00F0401E1040084310BC7047FF
:1056700080B5411EB1F1807F01D301200EE0401EB4
:10568000174908600F215FF0FF30FFF7C1FF0020CE
:1056900014490860072014490860002002BD80B545
:1056A000FFF7A4FF01BD70B504000D001600002037
:1056B000FFF7A9FF32002900FFF7BCFF010020001F
:1056C00040B2FFF7A5FF70BD80B5FFF7D1FF02BD67
:1056D0000CED00E00000FA0500E400E018ED00E049
:1056E00014E000E018E000E010E000E02DE9FC41EB
:1056F0000400002C01D10120C4E12078C0075FD54F
:10570000DFF88403016811F00C01042909D0006856
:1057100010F00C0008280ED1DFF87003006840027A
:1057200009D5DFF86C030068800349D5606800285C
:1057300046D10120A6E16068B0F5803F06D1DFF8D0
:105740005003016851F48031016018E06068B0F5E1
:10575000A02F0AD1DFF83803016851F480210160DD
:10576000016851F48031016009E0DFF82403016829
:1057700031F480310160016831F48021016060689A
:1057800000280ED0FFF752FA0500DFF80403006886
:10579000800315D4FFF74AFA401B6528F5D3032090
:1057A00070E1FFF743FA0500DFF8E40200688003C8
:1057B00006D5FFF73BFA401B6528F5D3032061E1CE
:1057C000207880071DD5B048016811F00C0F08D073
:1057D000006810F00C0008282AD1AC48006840028C
:1057E00026D4AB480168890704D5E168012901D0B6
:1057F000012047E1016831F0F801226951EAC20154
:1058000001602078000751D5606900283DD0012053
:10581000A0490860FFF70AFA05009F480068800762
:1058200044D4FFF703FA401B0328F6D3032029E1F1
:10583000E068002818D0012098490860FFF7F6F9C1
:10584000050093480168890706D4FFF7EFF9401B6C
:105850000328F6D3032015E1016831F0F80122692D
:1058600051EAC2010160CCE700208C490860FFF7D3
:10587000DDF90500864800688007C2D5FFF7D6F934
:10588000401B0328F6D30320FCE000208149086078
:10589000FFF7CCF9050080480068800706D5FFF7C0
:1058A000C5F9401B0328F6D30320EBE0207840071E
:1058B0006FD500267A4D2868C0000BD400200090D8
:1058C000286850F080502860286810F080500090C0
:1058D00000980126734F3868C00511D4386850F419
:1058E00080703860FFF7A2F980463868C00507D499
:1058F000FFF79CF9B0EB08000328F6D30320C1E0C2
:10590000A068012805D16848016851F001010160D3
:1059100015E0A068052809D16348016851F0040129
:105920000160016851F00101016008E05E48016812
:10593000490849000160016831F004010160A06874
:1059400000280FD0FFF772F907005748006880075A
:1059500018D4FFF76BF9C01B41F289318842F4D3A8
:1059600003208FE0FFF762F907004F4800688007C7
:1059700008D5FFF75BF9C01B41F289318842F4D3A7
:1059800003207FE0F6B2012E03D1286830F080506A
:105990002860A069002874D03B48006810F00C0013
:1059A000082843D0A06902282FD1404E0020306043
:1059B000FFF73CF90700364D2868800106D5FFF750
:1059C00035F9C01B0328F6D303205BE0E169206AA8
:1059D0000143606A51EA8011A06A4008401E51EA02
:1059E0000041E06A51EA006128480160012030600E
:1059F000FFF71CF904002868800142D4FFF716F96C
:105A0000001B0328F7D303203CE00020274908604F
:105A1000FFF70CF904001E480068800131D5FFF73C
:105A200005F9001B0328F6D303202BE0A069012809
:105A300001D1012026E015480068A16901291ED086
:105A400010F48001E269914219D110F03F01226AFD
:105A5000914214D147F6C0710140626AB1EB821FD6
:105A60000DD110F44031A26A5208521EB1EB024F20
:105A700005D110F07060E16AB0EB016F01D0012038
:105A800000E00020BDE8F6810838024004380240FA
:105A900000380240800E47427438024000004742FE
:105AA00040380240007000407038024060004742B9
:105AB00001B500980A280BD10D2000904FF6FF7316
:105AC00001226946DFF82802FFF719FA0A20009040
:105AD0004FF6FF7301226946DFF81402FFF70FFA51
