:020000040800F2
:100000000020001069D900080DD700080FD700089C
:1000100011D7000813D7000815D70008000000000A
:1000200000000000000000000000000017D70008DA
:1000300019D70008000000001BD700081DD70008D2
:10004000C9DA0008CDDA0008D1DA0008D5DA0008EC
:10005000D9DA0008DDDA0008E1DA0008E5DA00089C
:10006000E9DA0008EDDA0008F1DA0008F5DA00084C
:10007000F9DA0008FDDA000801DB000805DB0008FA
:1000800009DB00080DDB000811DB000815DB0008A8
:1000900019DB00081DDB000821DB000825DB000858
:1000A00029DB00082DDB000831DB000835DB000808
:1000B00039DB00083DDB000841DB000845DB0008B8
:1000C00049DB00084DDB000851DB000855DB000868
:1000D00059DB00085DDB000861DB000865DB000818
:1000E00069DB00086DDB000871DB000875DB0008C8
:1000F00079DB00087DDB000881DB000885DB000878
:1001000089DB00088DDB000891DB000895DB000827
:1001100099DB00089DDB0008A1DB0008A5DB0008D7
:10012000A9DB0008ADDB0008B1DB0008B5DB000887
:10013000B9DB0008BDDB0008C1DB0008C5DB000837
:10014000C9DB0008CDDB0008D1DB0008D5DB0008E7
:10015000D9DB0008DDDB0008E1DB0008E5DB000897
:10016000E9DB0008EDDB0008F1DB0008F5DB000847
:10017000F9DB0008FDDB000801DC000800000000DE
:1001800005DC000809DC00082DE9FE4F0500002D04
:1001900008D1DFF87C3C8322DFF8D417DFF8D407DE
:1001A00001F03AFDDFF86C6C6868306068891428EB
:1001B00004DA280001F097FFBDE8F78FDFF8B87781
:1001C0003968786902F0A6F9002804D1387D10F06A
:1001D000F000E02800D1ECE73068808902F0C0F937
:1001E00080B2000B81000800C0B2142805DB28890A
:1001F0000A00D2B292B2904200D2DAE7DFF87C472E
:100200000800C0B214382080DFF874870020C8F8D6
:10021000000068890A00D2B292B2904208D32088C6
:10022000DFF860271080C9B2280001F00FFF46E018
:100230002868002808D1DFF8D83BC222DFF8481729
:10024000DFF8300701F0E8FC1421280001F0FEFE81
:10025000DFF8300769890180218804880C1B018838
:10026000280001F0F3FE28684089210089B2884205
:100270009FD328684068C8F80000210089B2286828
:1002800001F0E4FE2889041B2C816889002808D02D
:10029000DFF87C3BDF22DFF8F416DFF8D80601F048
:1002A000BBFC288929680989884208D0DFF8603BAF
:1002B000E022DFF8DC16DFF8BC0601F0ADFC3068A8
:1002C000008802F04DF9316808803068408802F0FB
:1002D00047F9316848803168486802F049F9316867
:1002E0004860DFF84C1C08603168886802F040F90B
:1002F00031688860DFF83C8CC8F800003068C0893D
:1003000002F02EF93168C8813068808902F028F93E
:1003100010F03F00DFF87C160870DFF81C9C28897D
:10032000A9F80000DFF86C06007810F0030F0AD07F
:10033000B9F80000401CA9F80000B9F800002989AC
:100340008842FFF436AF5FF0000BDFF8F0ABDAF86D
:10035000004001E0A346E468002C67D0207D00281F
:1003600008D1DFF8AC3AFB22DFF82C16DFF80406E0
:1003700001F052FC207D0A2808D1DFF8943AFC22D3
:10038000DFF81816DFF8EC0501F046FC207D0128A7
:1003900008D1DFF87C3AFD22DFF8A41BDFF8D40592
:1003A00001F03AFC207A002809D0207A796891F887
:1003B0003010491CC9B2884201D0A346CBE7208B3C
:1003C000316809888842C5D1E08A31684988884205
:1003D000C0D1606839698842BCD120687969884297
:1003E000B8D1E068A04209D1DFF8243A40F20D12FA
:1003F000DFF8501BDFF87C0501F00EFCBBF1000FAD
:1004000007D0E068CBF80C00DAF80000E060CAF82A
:100410000040E068A04209D1DFF8F43940F215123B
:10042000DFF8C41BDFF84C0501F0F6FB002C71D19E
:10043000DFF8B80B046808E0207A796891F830108A
:10044000491CC9B2884212D0E468002C28D0207D13
:100450000A2809D0DFF8B83940F21F12DFF8901BE4
:10046000DFF8100501F0D8FB207A0028E4D1208BBA
:10047000316809888842E7D1E08A31684988884232
:10048000E2D1606839698842DED1206879698842A2
:10049000DAD1200000F01BFA280001F024FE8BE6E0
:1004A0000022DFF8503B186806E0002823D00168DE
:1004B000002920D00200C06800281CD0017A002941
:1004C0000CD0017AD7F804C09CF830C01CF1010CA4
:1004D0005FFA8CFC614501D00200ECE7C18AD6F8D6
:1004E00000C0BCF802C06145E4D10168D7F814C06F
:1004F0006145DAD1FFE700280CD0002A04D0C1689A
:10050000D1601968C160186000F043F9280001F05B
:10051000EAFD51E6002C00F0F080DFF88C7B002033
:100520003860288938817D603068F860DFF87C6B3E
:1005300000203060DFF8788B002088F80000DFF8BA
:1005400074BB0020ABF80000DFF848040078000717
:1005500003D5687B50F001006873A06F002813D0AA
:10056000200002F060FD10F10D0F06D0A06F0028F2
:100570000AD0B9F80000002806D0608D002802D10A
:10058000200003F093FFA9E0DFF82C5B2C60200033
:1005900000F006FA40B210F10D0F00F09F8098F8BD
:1005A0000000000711D5D4F89000002805D07FF096
:1005B0000D012069D4F8902090472100504602F0A8
:1005C0001BFF200001F0EDFF88E00020BBF80000D9
:1005D000002815D0BBF80020D4F88000002806D0F1
:1005E00092B221002069D4F88030984700E00020C2
:1005F0007FF00C0140B2884270D00020ABF80000C0
:10060000200000F09BF8002868D13068002833D023
:10061000A06F002809D0DFF8F8374FF4F372DFF845
:100620009C1ADFF8500301F0F7FAA07EC00606D549
:10063000306801F058FD200002F0BAF94EE0D4F81D
:100640008400002807D00023326821002069D4F8F4
:1006500084C0E04705E0002332682100002002F05A
:1006600073FD01007FF00C0249B2914236D040B2D6
:10067000002801D03068A06798F80000800608D5EF
:10068000A06F00280DD0A06F407B50F02000A16F1C
:10069000487300202860200000F050F800281AD08D
:1006A0001CE0208DB0F5066F02D0208D401C208507
:1006B000D4F88400002807D00023002221002069FC
:1006C000D4F884C0E04700E000207FF00C0140B285
:1006D0008842DED102E0200003F07EFA0020DFF83D
:1006E000D8190860002030607868002825D0786824
:1006F00001F0F9FC002078601FE03068808901F08B
:100700002FFF400716D43068008802903068408878
:10071000019017F11000009017F11403DFF8100892
:100720000068B9F8001010FA81F2D8F80010002023
:1007300003F071FE280001F0D6FC3DE510B5040081
:10074000002C08D1DFF8C83640F25A22DFF87019C1
:10075000884801F061FADFF858090078C00616D51C
:10076000A07EC00609D4D4F89000002805D07FF000
:100770000E012069D4F8902090472100DFF8BC07D3
:1007800002F03AFE200001F00CFF012000E0002002
:1007900010BDFEB505007F4C2078400700F1968023
:1007A000002D08D1DFF8683640F28122DFF81419F5
:1007B000704801F031FA2078C0061BD56E48DFF88A
:1007C00054160A681288029209684988019110F14A
:1007D0001001009110F11403DFF854070068DFF8EE
:1007E000581709884218DFF84C070168280003F001
:1007F00012FE6BE02078800768D5687D02F05EFD10
:100800000400002C0CD1A869002806D05FF0FF324C
:1008100000212869AB69984701E07FF00F0055E09F
:1008200055484169216000696060E88AE082DFF82C
:10083000E46530680088208303202075DFF8F076B7
:100840003868401C6062606AE062200002F038FE96
:10085000A06520656064E0653868401E60652869B1
:100860002061E567687A10F00C006072287A2072C7
:10087000DFF8C8060168E160046003F06CFF012046
:10088000DFF844180870200001F038F93068C0899A
:10089000A4F86000B4F86000A4F86200201D04F021
:1008A0002BF80100221D608E02F024FE60861221CA
:1008B000200003F0CDF840B2002804D00021200031
:1008C00001F0EFFF02E0200003F086F9F7BD3EB52E
:1008D0000400304D2878400748D4002C08D1DFF8B8
:1008E000303540F2EE22DFF8E417224801F094F9A7
:1008F0002878800727D5DFF838160A68606A121A48
:10090000002A27D40A68606A121A208D121A012A56
:1009100020DA1948DFF8FC2413681B880293126858
:100920005288019210F11002009210F1140308682D
:10093000DFF8041609884218DFF8F805016820007E
:1009400003F069FD12E02878C00703D5DFF88007BF
:1009500000682062DFF8E0050088002806D0608B80
:1009600050F002006083200003F036F937BD00002C
:100970001CD600082CC70008D8830020A4840020BF
:1009800078840020A684002008D900086CDA0008CA
:100990001CCF0008B584002054C7000804C3000819
:1009A0007FB5050000240020002D09D1DFF8603458
:1009B0004FF44772DFF81C17DFF81C0701F02CF921
:1009C000DFF8246A3078400742D5287D022807D115
:1009D000DFF860050068296D884219D1012417E00D
:1009E000DFF84C1508686A6A904201D101240FE0D3
:1009F0000A68686A121A002A0AD40968686A091A19
:100A0000288D091A012903DA688B50F002006883E7
:100A1000E4B2002C1AD0287D002809D1DFF8F03389
:100A20004FF44E72DFF8B416DFF8AC0601F0F4F8BC
:100A3000DFF87C06017851F008010170698B4FF6F0
:100A4000FE70014069837FF00D006EE200206CE2D1
:100A5000307880070BD5287D022808D0287D032810
:100A600005D0688B50F00200688300205DE2A87E0C
:100A7000C00603D4DFF8580600682862002085F815
:100A80009B00002085F89A00280001F037F8287DA7
:100A9000022814D0C0F04882042800F07081C0F011
:100AA000D280062800F0CD81C0F07881082800F0BF
:100AB000F681C0F06481092800F0228234E23078A7
:100AC00010F01200122840F09680DFF868140868D1
:100AD0006A6C521C904240F08E80DFF85404026829
:100AE000521C6A626A6AEA6209686964DFF8241360
:100AF0000968C989A5F86010B5F86010A5F86210FA
:100B00000068401E686504202875281D03F0F4FE67
:100B100001002A1D688E02F0EDFC688641F21D106E
:100B2000698E4900814202D3698E490001E041F299
:100B30001C116A8E92008A4203D2688E80B28000B5
:100B400009E0698E4900814203D3688E80B240007B
:100B500001E041F21C10A5F84800B5F86600002835
:100B600008D1AB4B4FF45B72DFF87415DFF8680502
:100B700001F052F8B5F86600401EA5F866002C6F2B
:100B8000002C0ED1EC6E002C08D1A14B4FF45D72FD
:100B9000DFF85015DFF8400501F03EF82068E86600
:100BA00001E020682867200002F09EFA286F0028E4
:100BB00003D15FF0FF30288604E000202886002063
:100BC00085F84200D5F88800002807D000222900C7
:100BD0002869D5F888309847010000E000217FF0AF
:100BE0000C00020049B2914200F09F81688B50F0E6
:100BF0000200688326E03078C00623D5DFF8E804D9
:100C000084490A681288029209684988019110F1A2
:100C10001001009110F11403DFF814030068DFF8ED
:100C2000181309884218DFF80C030168280003F044
:100C3000F2FB95F84200062804DA002028862800F6
:100C400003F050FA70E13078C00640F18B80B9496A
:100C50000A68686C121A521E002A6BD40A68286D42
:100C6000121A012A66DA04202875E86F002802D1DA
:100C70007FF005011AE0E86F8069002808D1644B15
:100C80004FF46A72DFF86414DFF84C0400F0C4FF1C
:100C9000E86F8069002807D0002229002869EB6FDF
:100CA0009B699847010001E07FF00F01080040B206
:100CB000002809D049B211F10D0F02D0280001F02F
:100CC00077FE7FF00C0030E1280000F011FADFF829
:100CD000E4130888002802D00888401E088041F2EA
:100CE0001D10698E4900814202D3698E490001E0DE
:100CF00041F21C116A8E92008A4203D2688E80B241
:100D0000800009E0698E4900814203D3688E80B279
:100D1000400001E041F21C10A5F84800DFF8900304
:100D2000007880062AD5688B50F00200688307207F
:100D3000287523E0DFF8B003364A13681B88029356
:100D400012685288019210F11002009210F11403FF
:100D500077480068784A128882180968280003F0EA
:100D60005AFB0BE03078800708D571480068696A43
:100D7000491E884202D1280003F0CCF9D4E02800B3
:100D800000F0B6F9DFF828030078800605D5688BF7
:100D900050F00200688307202875C5E0280000F0A5
:100DA000A7F9C348007880063DD53078C00633D512
:100DB00060480068296D88422ED1E86E00282BD14A
:100DC000688B50F002006883280002F0D9FA5B4873
:100DD0000168A94203D10168C968016009E000689F
:100DE00000E0C068002804D0C168A942F9D1E968D0
:100DF000C1600020E8600120B34908700A2028750E
:100E00007A480168E960056003F0A5FC18E000BFBE
:100E100030B7000874840020688B50F002006883AB
:100E2000082028750CE03078C00609D541480068D4
:100E3000296D884204D1E86E002801D1062028756A
:100E400072E0280000F054F999480078800625D512
:100E5000688B50F002006883280002F091FA37484E
:100E60000168A94203D10168C968016009E000680E
:100E700000E0C068002804D0C168A942F9D1E9683F
:100E8000C1600020E86001208F4908700A202875A1
:100E900056480168E960056003F05DFC44E0280005
:100EA00000F026F93078C00629D522480068296D5F
:100EB000884224D1E86E002821D1280002F060FA8F
:100EC0001E480168A94203D10168C968016009E0B0
:100ED000006800E0C068002804D0C168A942F9D1C8
:100EE000E968C1600020E8600120774908700A20A5
:100EF00028753E480168E960056003F02CFC13E0AA
:100F0000280000F0F5F83078C0060CD509480068D4
:100F1000296D884207D1E86E002804D16448017821
:100F200051F010010170FFE7002004B070BD000017
:100F30007C84002080840020AC8400206C8400200D
:100F40007CC7000830C3000838B505000C00002D30
:100F500008D1DFF8503C40F21F42DFF89C1B5E488E
:100F600000F05AFEE868808901F0FAFAC00716D549
:100F7000200002F0B0F8002434E0E068808901F03D
:100F8000EFFAC00707D5012001F0EAFAE96889897C
:100F90000843E96888812000246802F0A5F8002C45
:100FA0000BD0E0684168DFF8000C00682A898018DF
:100FB000411A2089091A0029DFD5002C12D0E068D7
:100FC0004168DFF8E40B02682B89D218511A012915
:100FD00008DBE26851680068091A29812989686874
:100FE00000F093FF2C6031BD5CC3000870840020CA
:100FF00018C10008688400202DE9F04106000C00AB
:101000001D0033E027002468786801F0D9F8804695
:10101000B6F86600414689B2884208D2DFF8843BC0
:1010200040F25742DFF8841B2B4800F0F5FDB6F87C
:101030006600B0EB0808A6F866801E490A88388961
:1010400082180A80380002F04FF8B6F866000028CF
:101050000CD0002C0AD1002D08D1DFF8483B40F21B
:101060006242DFF84C1B1C4800F0D6FD002C17D064
:10107000E168486801F07CFA0700E068808901F0C7
:101080006FFA10F0030F01D0012100E00021208948
:1010900038180918DFF81C0B0068091A0129B1DBA0
:1010A0002000BDE8F0810000F0830020848400204F
:1010B000B6840020AA84002088840020ACD30008D5
:1010C000A4C700083CCF0008B28400205CCF000811
:1010D00060840020C8D300082CC700087CCF00081B
:1010E00034D6000810D80008D88300209CCF000810
:1010F0002DE9F84306000024002E09D1DFF8A43AB8
:1011000040F27B42DFF8B01ADFF8B00A00F084FD4D
:10111000307D042809DADFF88C3A40F27C42DFF8AF
:10112000A01ADFF8980A00F077FDAF480078C006F3
:1011300040F19B81B6F86000B16D0918DFF8682AAC
:10114000736D10681B1A002B18D4706D13689842C9
:1011500006D1B36DDFF85C0A00681B1A002B0DD4B2
:10116000B06DDFF8503A1B6898421DD1B6F86000A8
:10117000DFF8503A1B68DB89984215D2DFF8440A41
:101180000068C089A6F86000B6F86200B6F8603062
:10119000984203D2B6F86000A6F862001068706545
:1011A000DFF8100A0068B065DFF8085A2A68706C2A
:1011B000121A012A46DADFF8100A008800283AD10C
:1011C000B06DB6F860208018884234D1B6F930008E
:1011D000002830D4706C296888422CD1012496F8FC
:1011E000430096F84310491CC9B2884204D296F8CD
:1011F0004300401C86F8430096F84300042813DBA4
:10120000B6F84810708E4118B6F8480089B281428D
:1012100006D3B6F84810708E4118A6F8481003E0BF
:101220004FF6FF70A6F8480096F84300032802DB4B
:10123000300002F0B9FF002C40F0EA80002086F870
:101240004300E5E02968706C091A491E002900F185
:10125000DC802968306D091A012980F2D680B07EC1
:1012600040070BD5718B4FF6FB7001407183B6F8C8
:101270004A00A6F848000020A6F86A00002086F878
:101280004200B6F93C00C010B6F93E104018A6F86E
:1012900040002868716C411A002086F843002868D5
:1012A0007064307D04285EDBB6F84800B6F84A204A
:1012B000904225D2708B000501D5012200E0022268
:1012C0000B001400E4B2708E44439BB2A4B2A3425C
:1012D00003D3D2B2708E12FB00F1B6F848000818A2
:1012E000B6F8482080B2904205D3B6F848000918F5
:1012F000A6F8481003E04FF6FF70A6F8480032E069
:10130000B6F86A000818B6F86A2080B2904205D391
:10131000B6F86A000918A6F86A1003E04FF6FF70E5
:10132000A6F86A00B6F86A00B6F8481088421AD3E0
:10133000B6F86A10B6F84800091AA6F86A10B6F8A6
:101340004810708E4118B6F8480089B2814206D321
:10135000B6F84810708E4118A6F8481003E04FF612
:10136000FF70A6F84800F36EDFF86028316F300098
:10137000FFF742FE3067336FDFF85428F16E30001C
:10138000FFF73AFEF066306F002803D15FF0FF30C0
:10139000308601E00020308600203077F06E002893
:1013A00002D10020A6F86800B6F86410DFF824081F
:1013B00000884118A6F86410708B000528D5306F9E
:1013C000002813D1F06E002808D0F06EC16848687C
:1013D00001F0CEF8F16C081A012819DA718B4FF27E
:1013E000FF700140718313E0B5840020306FC16845
:1013F000486801F0BDF8F16C081A012808DA718B11
:101400004FF2FF700140718302E0300003F04EF8AC
:10141000706B002829D0B16B2868091A002924D5DF
:10142000DFF8B4070168706B081A00B2B6F93C1017
:10143000B0EBE100B18F4118B187010009B200297A
:1014400001D500B2404200B2B6F93E10B0EBA100A7
:10145000F18F4018F087B6F93C00C010B6F93E1085
:101460004018A6F8400000207063DFF85C87B8F8E9
:101470000000002800F00E83307D072880F20A83E8
:10148000DFF82477716A3868091A491E00295CD48C
:10149000716A3868091AB8F80000091A491C01294C
:1014A00053DADFF838476568706AD7F80090B0EB18
:1014B00009096068002809D1DFF8E83640F2945243
:1014C000DFF81C17DFF8F40600F0A6FB4FF6FF70FC
:1014D000814509D3DFF8CC3640F29552DFF8041786
:1014E000DFF8D80600F098FB60680089494689B2A9
:1014F000884209D2DFF8AC3640F29752DFF8E8169E
:10150000DFF8B80600F088FB2089B0EB09002081E5
:1015100060680189B1EB090106E06889B9EB00094F
:101520002981002068812D6868894A4692B29042DC
:10153000F3D31FFA89F94946280000F087FD706A45
:101540003860E0683968416008E03968706A091AF3
:10155000002903D5708B50F0020070833968706ADF
:10156000091A002900F192823968706A091A308DCF
:10157000091A491C012980F28982706A39688842F7
:1015800040F09D81DFF85456E868808900F0E8FF5C
:1015900010F0030F01D0012000E00020298940183D
:1015A000A8F80000308DB8F80010884247D2E868EB
:1015B000808900F0D5FFC00710D5E868808900F069
:1015C000CFFFC0B210F03E0000F0CAFFE9688A8980
:1015D0004CF2FF010A401043E9688881308D288170
:1015E000E868808900F0BCFF800702D52889401E8A
:1015F00028812989686800F088FCE868808900F003
:10160000AFFF10F0030F01D0012000E00020298976
:101610004018A8F800003868B8F8001010FA81F0F7
:10162000716A328D8918884209D0DFF8783540F226
:10163000CC52DFF8B815DFF8840500F0EDFA706FD2
:10164000002800F08680E868808900F089FFC007E4
:1016500009D5706F00287CD0706F716F0968716751
:1016600001F042FDF5E7746F25E000201BE0E06823
:10167000808900F075FFC00719D5E868808900F0FF
:101680006FFF800713D4012000F06AFFE9688989A1
:101690000843E9688881E868808900F061FF10F0FC
:1016A000030FE2D0012029894018A8F8000020008B
:1016B000246801F019FD002C0BD0E06841683868FF
:1016C000B8F8002010FA82F0411A2089091A00297E
:1016D000CDD5002C3CD0E16848683968B8F80020C6
:1016E00011FA82F1081A012832DBE0684168386893
:1016F000091A2981E868808900F032FF800702D545
:101700002889401E28812989686800F0FEFBE86866
:10171000808900F025FF10F0030F01D0012000E0C8
:10172000002029894018A8F80000E1684868396855
:10173000B8F8002011FA82F1814209D0DFF8643450
:1017400040F2FD52DFF8A814DFF8700400F064FAEC
:1017500074673868B8F8001010FA81F07062308D44
:10176000B8F80010884209D2DFF8383440F2076236
:10177000DFF88014DFF8440400F04EFA318DB8F839
:101780000000091A3185300001F017F968680089F6
:10179000002805D06868DFF86014086000206860E1
:1017A000E868808900F0DCFEC00737D5DFF84C041C
:1017B000017851F02001017030E06068106015E0A0
:1017C0000021328D2089121A511A3185300001F022
:1017D000F4F86068008900280AD0DFF81C2410683B
:1017E0000028EAD06168106800F007FD0020606002
:1017F000E068808900F0B4FEC0070AD5DFF8FC037A
:10180000017851F020010170307D042801D10720BA
:10181000307520687067200001F066FC706F00284A
:101820003BD0706FC1684868716A884235D1746F67
:10183000706FC16848683860E068808900F090FE89
:1018400010F0030F01D0012000E00020716A22890E
:10185000801841187162E068808900F081FE10F004
:10186000030F01D0012000E00020318D2289801873
:10187000814209D2DFF82C3340F22C62DFF880136A
:10188000DFF8380300F0C8F9E068808900F068FEEE
:1018900010F0030F94D0012193E7B07EC00709D563
:1018A000718B4FF6FE7001407183708B50F0020017
:1018B000708303E0708B50F001007083FCE0706F68
:1018C000002805D1DFF8140301F01DFC7067D9E092
:1018D0000024756F0AE02C002868002805D1E9680B
:1018E00048683968081A01285ADA2D68002D00F076
:1018F000C980E96848683968814211D0002C22D13A
:10190000E96848683968081A0028E4D5B34801F046
:10191000FAFB002803D070672900FFF715FBB1E040
:10192000AE482989028991420CD201F0ECFB0028D3
:1019300007D0002C01D0206000E070672900FFF77D
:1019400003FB9FE09EE0E16848683968081A401E82
:101950000028C0D4E96848683968081A401C012882
:10196000B9DA9E4801F0CFFB8046B8F1000F16D0DF
:10197000E1684868218941183868091A012908DB9B
:10198000E16848683968081A20812189606800F098
:10199000BCFAC4F8008029004046FFF7D5FA71E090
:1019A000E868808900F0DCFDC0076BD48B4801F04B
:1019B000AAFB28602868002864D0E968486829895B
:1019C00041183868091A012908DBE968486839684C
:1019D000081A28812989686800F097FAB8F8000089
:1019E000396811FA80F1706A091A308D091A0129D3
:1019F00048DB2868C068808900F0B2FDC00713D5B5
:101A00002868C068808900F0ABFDC0B210F03E00CD
:101A100000F0A6FD2968C9688A894CF2FF010A40D6
:101A200010432968C9688881716A308D4118386807
:101A3000091A28680181286801892868406800F02F
:101A400064FA2868C068808900F08AFD10F0030FEE
:101A500001D0012000E00020296809894018A8F879
:101A600000003868B8F8001010FA81F0716A328D01
:101A70008918884206D04B4B40F2F9625B494F48C7
:101A800000F0CAF8300002F011FD15E0300002F05D
:101A90000DFD11E044490A68706A121A002A07D441
:101AA0000968706A091A308D091A491C012903DB7B
:101AB000708B50F002007083BDE8F18310B4514880
:101AC00001880288521C02804F4A1068002805D005
:101AD0004E480B0004889BB2A34205D239480068E7
:101AE000143089B2405C04E00088091A1068C9B259
:101AF000405C10BC70470000CCC70008F8B504007B
:101B0000002C06D1274B40F27D7241492B4800F052
:101B100083F8404D288800283DD03A4E0020308080
:101B2000FFE730882988884235D2FFF7C7FFC0B267
:101B300000280ED002280DD0F3D3FFF7BFFF01001D
:101B4000C9B2022926DB3188C0B2801E411831801B
:101B5000E7E720E0FFF7B2FF042804D128883188A6
:101B6000891C884200DA16E0FFF7A8FF07003F0251
:101B7000FFF7A4FF0743380080B240F219218842E2
:101B800003DA380080B2002802D14FF40677FFE76D
:101B90006786C6E7FFE7F1BD1848017851F01001EC
:101BA0000170704730B700087C840020F4C700083B
:101BB000BCCF000880840020E4D300082CC70008B4
:101BC00000D4000874840020AC840020B0DA00083F
:101BD000B8DA0008AA84002060840020F083002086
:101BE00018D9000828D9000838D9000828BD0008ED
:101BF000D0BB0008DCCF000884840020B68400201D
:101C00001CC80008A884002078840020A684002036
:101C10001CD40008A48400200EB4C0B5024603A85A
:101C200000210190009101AB0121044878440C305F
:101C300003F040F806BC5DF810FB00BFE9BA0000F5
:101C400080B50020DFF81C180870DFF8580800681D
:101C500000E0C068002805D0416F0029F9D001F0EC
:101C6000F7FCFFE701BD0120DFF8F81708707047A7
:101C700070B4BDF90C50049C0026066041600281DE
:101C8000438105734473012181730021C17370BCCA
:101C900070472DE9FC470E009046C0B20500404653
:101CA00000B2012808D0412806D0B0F5C17F0ED07F
:101CB000B0F5207F7BD0C8E0424612B2310089B235
:101CC000002000F0CEF804002000BDE8F6870024D4
:101CD0005FF000093700082003F035FF0600002EF2
:101CE00045D039002A0092B2D21C4FF6FC70024057
:101CF000D2F5147289B292B2914241D2BA46002012
:101D00000190404600B2009053469BB23A0092B216
:101D1000280080B2304410F11001C91C89088900E4
:101D20003000FFF7A5FF307910F0030F09D0DFF87E
:101D3000783740F20112DFF87417DFF87407FFF705
:101D40006BFFADB2ED1CAD08AD00D5F51475002DDF
:101D500009D1DFF8543740F20312DFF85817DFF8E3
:101D60005007FFF759FF002C16D1340016E0FFF79B
:101D70007AFF002C02D0200000F0B5F90020A4E783
:101D8000AA461FFA8AFA1AF1030A4FF6FC7010EA03
:101D90000A0ADAF5147AB2E7C9F80060B146B7EB7F
:101DA0000A070025380080B2002894D18CE729006A
:101DB00089B2C91C4FF6FC700140320092B2D21CAD
:101DC0004FF6FC700240511811F1100089B2320038
:101DD00092B2D21C92089200914208D3010089B2BB
:101DE000320092B2D21C92089200914201D200209D
:101DF0006BE780B204F0F3F80400002C01D100205E
:101E000063E7002001900FFA88F8CDF800803300D6
:101E10009BB2320092B2ADB204EB050010F110019A
:101E2000C91C890889002000FFF722FF207910F0E3
:101E3000030F09D0DFF8703640F22312DFF878166E
:101E4000DFF86C06FFF7E8FE3EE7DFF85C3640F2AD
:101E50002712DFF86816DFF85806FFF7DDFE0020CE
:101E600033E7FEB505000E001700380000B2412828
:101E70000DD0380000B2012809D0DFF82C364FF41D
:101E8000A572DFF83C16DFF82806FFF7C5FE07202D
:101E900003F059FE0400002C01D100200CE00020CA
:101EA00001903FB2009733009BB2320092B22900FA
:101EB0002000FFF7DDFE2000FEBD3EB51C00079BA5
:101EC000C0B29BB20500ADB2ED1CAD08AD0015FA75
:101ED00081F5AB4201D2002016E0069B002B05D015
:101EE00080B2C01C80088000184400E0002002235B
:101EF000019312B200920B009BB20A0092B2010051
:101F00002000FFF7B5FE20003EBD70B504000D00B7
:101F1000002C09D1DFF890354FF4CC72DFF8A4150E
:101F2000DFF88C05FFF778FE2800218980B288420F
:101F300044D22689761B11E060892D1A2089801BE6
:101F400020812468002C09D1DFF85C3540F2AF1203
:101F5000DFF87415DFF85805FFF75EFE6089290089
:101F600089B28842E8D3207B10F00F0F1BD12800E4
:101F7000618980B2884216D0607B800713D4616883
:101F8000091B691889B2200003F06BFF0400002CC4
:101F900009D1DFF8143540F2BD12DFF83015DFF853
:101FA0001005FFF739FE65816089208120680028CF
:101FB00002D0206800F097F80020206070BD70B556
:101FC00004000D001600002C09D1DFF8DC3440F2CB
:101FD000DF12DFF8FC14DFF8D804FFF71DFE002C39
:101FE00002D0B5F5803F01D3012027E0002D01D1BB
:101FF000002023E02900208940180A0080B292B214
:10200000904201D2012019E0207B000608D56068CB
:102010006D42284414F11002904207D201200DE0D5
:10202000F6B2002E0BD060686D4228446060608973
:1020300008186081208909182181002070BD0120C5
:10204000FCE780B50022FFF7BAFF02BD38B50400F7
:102050000D00002C09D1DFF8503440F24B22DFF89C
:102060007014DFF84C04FFF7D7FD002C02D0B5F553
:10207000803F01D3012020E0002D01D100201CE091
:10208000290060890A0092B290420BD2DFF818341E
:1020900040F25522DFF83C14DFF81404FFF7BCFDD2
:1020A00001200AE060686068284460606089401A26
:1020B00060812089411A2181002032BD80B50B004A
:1020C0001BB2002B04D509B24942FFF7BFFF03E062
:1020D000D2B209B2FFF773FF02BD80B5012209B287
:1020E000FFF7ECFF02BDF8B50400002C0DD1002C69
:1020F00009D1DFF8B4334FF43772DFF8D413DFF8C7
:10210000B003FFF789FD002059E000250BE0DFF860
:10211000983340F20F32DFF8C013DFF89403FFF773
:102120007BFD6D1C3400002C47D0A07B002809D11A
:10213000DFF8743340F2F122DFF8A013DFF8700308
:10214000FFF76AFDA07B401EA073A07BC0B20028F1
:1021500031D12668207B10F00F00617B890711D5F3
:1021600027003869002809D1DFF83C3340F2FF220C
:10217000DFF86C13DFF83803FFF74EFD20003969F4
:102180008847CEE70100C9B2022904D12100082006
:1021900003F018FDC5E70100C9B2012904D12100EF
:1021A000072003F00FFDBCE7C0B20028AFD120002C
:1021B00003F003FEB5E70024B5E72800C0B2F2BD86
:1021C0000100002001E0401C09680029FBD180B219
:1021D000704780B500280FD0817B491C8173807BBC
:1021E000002809D1DFF8C03240F24232DFF8F412A1
:1021F000DFF8BC02FFF710FD01BD38B504000D008B
:10220000002C01D0002D0AD1DFF89C3240F25A3266
:10221000DFF8D412DFF89802FFF7FEFC28E004E0B4
:102220002189288941182181246820680028F7D154
:1022300020896189884209D0DFF86C3240F262322D
:10224000DFF8A812DFF86802FFF7E6FC2068002834
:1022500009D0DFF8543240F26332DFF89412DFF82D
:102260005002FFF7D9FC2189288941182181256076
:1022700031BD2DE9F84305000C0000260027002D94
:1022800005D0002C03D02889218988420CD2DFF8A0
:10229000183240F2CA32DFF85C12DFF81402FFF79E
:1022A000BBFC7FF00F0059E06889801B6189C91B66
:1022B000884204D3B4F80A80B8EB070803E0B5F805
:1022C0000A80B8EB06084246606800EB07016868C0
:1022D00000EB0609484603F06FFF18EB060618EB03
:1022E00007076889B04209D2DFF8BC3140F2D93221
:1022F000DFF80412DFF8B801FFF78EFC6089B842FE
:1023000009D2DFF8A43140F2DA32DFF8F011DFF859
:10231000A001FFF781FC6089874201D30027246870
:102320006889864205D100262D68002D01D1002C38
:1023300016D1002C06D060892189884202D12068FC
:1023400000281AD1002D06D068892989884202D137
:10235000286800281ED1002CA6D10020BDE8F283F9
:10236000DFF844314FF47972DFF89411DFF840015F
:10237000FFF752FC7FF00F00F0E7DFF82C3140F25E
:10238000EA32DFF88011DFF82801FFF745FC7FF023
:102390000500E3E7DFF8103140F2EF32DFF86411B7
:1023A000DFF80C01FFF738FC7FF00500D6E72DE9D8
:1023B000F04704000D00904600260027002C0BD1AA
:1023C000DFF8E43040F20A42DFF83C11DFF8E000C9
:1023D000FFF722FC002042E0002D0BD1DFF8C830CF
:1023E00040F20B42DFF82411DFF8C400FFF714FCC1
:1023F000002034E02BE0B4F80A90B9EB0309404622
:10240000494680B289B2884200D2C1464A4692B259
:1024100060689BB200EB0301300080B205EB000A5C
:10242000504603F0C9FE19EB070719EB0606B8EB97
:10243000090800230AE0180080B20028DBD0180049
:10244000618980B28842D6D360891B1A24684046CD
:1024500080B2002801D0002CEDD1380080B2BDE858
:10246000F0870000B184002038B515000A0012B2D0
:102470002989C0B2FFF70DFC0400002C01D1002017
:102480000EE029002000FFF7F4FE40B2002806D03D
:10249000054B40F224521E490548FFF7BDFB2000C2
:1024A00032BD00006C8400208CB9000828C00008F0
:1024B000ECC5000868BE0008FCC1000840D2000856
:1024C000ACD7000844D500085CD500085CD20008F1
:1024D00054DA00089CCE0008C0D7000874D5000864
:1024E000A8CB0008D4D70008B8BC000858C0000822
:1024F000A8D8000888C000088CD5000878D2000849
:10250000B8D8000828C20008BCCE0008CCCB000810
:10251000E8D7000810B40300C243002A01D0002805
:1025200001D101201AE091F82D20920701D400205A
:1025300014E04A68904201D100200FE08A681340FD
:102540004C688A681440A34207D18A68904389681E
:10255000C943884201D1012000E0002010BC70472F
:102560000100080080B2000A50EA012080B27047E2
:102570000100080210F47F0050EA01600A00120A0C
:1025800012F47F42104350EA1160704780B503F0A7
:1025900067FE8004800CB0F58040DFF810150880DD
:1025A00001BD10B50400207D012808D1DFF80035F9
:1025B000D422DFF80015DFF80005FFF72DFB21001E
:1025C000012003F0FFFA10BD10B50400207D0128A2
:1025D00008D1DFF8DC34DF22DFF8E014DFF8D804BC
:1025E000FFF71AFB2100022003F0ECFA10BD80B5C2
:1025F00000F0DAFCDFF8C8040178491C01700078AB
:10260000C00701D500F076FA01BD38B504000D0011
:10261000002D08D1DFF89834FF22DFF8A814DFF886
:102620009804FFF7F9FA05E0E06FA84201D1002015
:10263000E067E468002CF7D131BD38B50400002C08
:1026400009D1DFF86C3440F21112DFF87C14DFF8A6
:102650006804FFF7E1FA207D012809D0DFF8503443
:102660004FF48972DFF86414DFF84C04FFF7D4FAF2
:10267000012508E02100DFF8580450F82500006823
:10268000FFF7C3FF6D1C042DF4D331BD3EB504002C
:102690000D00002C09D1DFF818344FF4AF72DFF8C9
:1026A0003414DFF81404FFF7B7FAEDB2002D4ED062
:1026B000207D042802D0207D072848D1A06F002863
:1026C00003D1208DB0F5066F41D0A07EC00609D49D
:1026D000DFF8DC334FF4B272DFF8FC13DFF8D80315
:1026E000FFF79AFA208B0290E08A0190201D00905B
:1026F0002300626A216D200001F08DFE200000F0B1
:102700003FFEDFF8D8030168A14203D10168C96820
:10271000016009E0006800E0C068002804D0C168DA
:10272000A142F9D1E168C1600020E0600120DFF83A
:10273000B0130870DFF8AC030068A04202D1FFF7C5
:102740002BFA02E02000FFF72CFF002022E0207D82
:10275000002803D002282AD01DD335E0E08A0028C3
:1027600014D0DFF884030168A14203D10168C9686D
:10277000016009E0006800E0C068002804D0C1687A
:10278000A142F9D1E168C1600020E0602000FFF7BC
:1027900008FF00203EBD2000FFF74FFF2100DFF8BB
:1027A0004C0300F029FE2000FFF70EFFF1E72100A7
:1027B000DFF8280300F020FE0120DFF82413087062
:1027C0002000FFF7EEFEE4E7200000F001F8E1E76B
:1027D00038B50400002C09D1DFF8D4324FF4CE72A2
:1027E000DFF8E412DFF8D002FFF716FA207D0328A5
:1027F00004D0042816D007281FD029E0200001F0BB
:10280000EEF80500280040B2002801D1052020750F
:10281000280040B200281DD1200001F0DDF9280079
:1028200040B232BD200001F0DAF80500280040B2C5
:10283000002801D105202075EAE7200001F0CFF83B
:102840000500280040B2002801D109202075DFE7EB
:102850000020E6E728005FF0FF3140B28842DED179
:10286000608B50F0080060830020DAE780B5002814
:102870000CD1DFF83C324FF4F472DFF87412DFF859
:102880001807FFF7C9F97FF00F0009E0017D012962
:1028900003D0418B51F0100141830121FFF7F6FE77
:1028A00002BD2DE9FE4F04008B46002C0AD1DFF853
:1028B000003240F23D22DFF8E416DFF8FC01FFF7BA
:1028C000ABF973E0207D012809D1DFF8E43140F253
:1028D0004122DFF8CC16DFF8E001FFF79DF9207DFB
:1028E0000A2808D12100DFF8BC0600F085FD200091
:1028F000FFF757FE5AE000250026276DD4F8248004
:10290000D4F89090D4F810A0207D002818D1E08A47
:10291000002820D0DFF8D0010168A14203D101686E
:10292000C968016009E0006800E0C068002804D0C0
:10293000C168A142F9D1E168C1600020E0600AE00D
:102940005D46E68A2100DFF8940100F055FD012084
:10295000DFF88C110870206F002802D0206F00F083
:10296000BAFBE06E002802D0E06E00F0B4FB606FAE
:10297000002802D0606F00F0AEFB002D0BD0208B42
:102980000290B6B20196201D009023004246390005
:10299000200001F040FD207D2000FFF702FE4846A8
:1029A000002803D07FF00C015046C847BDE8F78FE0
:1029B00080B50121FFF775FF01BD38B50400002C7B
:1029C00008D13B4B40F2A632DFF8E418DFF8C80527
:1029D000FFF722F9606A218D4018618E40F2314282
:1029E000914202DB4FF4866100E0618EE26A821A56
:1029F000511A002904D4218D6185E16A401A18E03A
:102A0000616AE06A091A012902DB002060850FE093
:102A1000E06A656A451BB5F5803F08D3244B40F258
:102A2000B632DFF89018DFF87005FFF7F5F8658526
:102A3000002032BD38B504000D00002C09D11C4B1C
:102A400040F2CF32DFF87018DFF84C05FFF7E4F8FA
:102A50002AE0207D012808D1154B40F2D332DFF85F
:102A60001C19DFF83405FFF7D7F8208D2D18280042
:102A700080B240F66101884204DA2800218D80B2DC
:102A8000884203D24FF40660208500E025852000AF
:102A9000FFF793FFB0F5067F06D3608B50F002007E
:102AA0006083200001F098F831BD0000A8000020EC
:102AB000E0B90008FCD7000814C6000894D200084A
:102AC000B38400203CC6000860DA0008A4D50008E2
:102AD000F8D80008DCCE0008B0D200086C840020D2
:102AE000B284002088840020648400206884002050
:102AF000BCD500082DE9FE4F0020DFF8F098D9F88A
:102B00000000401CC9F80000DFF8E4A89AF80000B3
:102B1000401C8AF8000035E0DBF80000A84209D02C
:102B2000DFF8243A40F27152DFF8C818DFF8680481
:102B3000FFF772F8E868CBF80000F6B2002E0BD071
:102B4000288B0290E88A0190281D00902B006A6A69
:102B5000296D280001F05FFC2E69287D2800ED68B2
:102B6000FFF71FFDDFF87C89002088F8000038009F
:102B7000002803D07FF00C013000B84798F800001F
:102B8000002807D00024DFF834B9DBF8005001E05A
:102B90002C00ED68002D00F0B681287D002809D1B9
:102BA000DFF8A43940F2BE42DFF83C19DFF8E80351
:102BB000FFF732F8287D012809D1DFF88C3940F27F
:102BC000BF42DFF82819DFF8D003FFF725F8287D8A
:102BD0000A2809D1DFF870394FF49862DFF810192C
:102BE000DFF8B403FFF718F8A87F9AF800108842BE
:102BF000CED09AF80000A87700270026287D02286A
:102C000005D195F84200062801DB7F1CCEE095F83F
:102C100042000C2801DB7F1CC8E095F899000028D1
:102C200063D0286F002809D0DFF81C3940F2D44265
:102C3000DFF81819DFF86003FEF7EEFFE86E0028F2
:102C400009D1DFF8043940F2D542DFF83C19DFF84A
:102C50004803FEF7E1FF95F89A000C2801DB7F1C82
:102C6000A4E0DFF8280995F89910084410F8010C41
:102C700095F898100200D2B2914204D295F89810BB
:102C8000491C85F8981095F89810C0B28142C0F0A0
:102C90008D805FF00108B5F86000002807D128009A
:102CA00001F098FC002810D05FF000080DE0B5F8A6
:102CB0006010280000F091FD002806D1280000F0E7
:102CC0008BFF002801D15FF00008B8F1000F6DD034
:102CD000002085F8980095F89900072866D295F8A5
:102CE0009900401C85F8990060E0B5F93000002893
:102CF00008D4B5F9300047F6FF71884202D0288E1B
:102D0000401C2886B5F93000B5F9401088424DDBEB
:102D1000280001F081F9002805D0286F002845D14E
:102D2000E86E002842D0287D02281AD095F842008B
:102D30000C2802D295F8420000E00C20B5F93C10B6
:102D4000C910B5F93E208918DFF88C28C0B210569A
:102D500011FA00F047F6FF71884200DB0800A5F881
:102D6000400000202886B5F84800B5F86010884279
:102D700002D2B5F8480001E0B5F8600080B2400822
:102D8000A5F84A00B5F84A00698E490089B2884220
:102D900003D2688E4000A5F84A00688EA5F8480066
:102DA0000020A5F86A00280001F081F9287D062896
:102DB00009D1A87EC00606D5D9F80010286A091ADC
:102DC000292900D37F1C687A000734D5287D042880
:102DD00002D0287D07282ED1D5F89410DFF8FC0703
:102DE00041184FF4FA70B1FBF0F1D9F80020286ACD
:102DF000121A914202D27F1C761C1CE0D5F8941066
:102E000095F89B20DFF8D80700FB02114FF4FA7009
:102E1000B1FBF0F1D9F80020286A121A91420AD2C7
:102E2000280001F0A1FB40B2002804D195F89B00D6
:102E3000401C85F89B00686F00280DD0D9F8001061
:102E4000286A091AB5F94000062210FB02F08142F7
:102E500002D3280000F0FCFB287D032806D1D9F816
:102E60000010286A091A292900D37F1C287D092807
:102E700006D1D9F80010286A091AF12900D37F1C5D
:102E8000FFB2002F17D0D5F89070280000F078FA24
:102E9000002C3FF441AEDBF80000854208D1DFF89A
:102EA000A83640F26D52DFF83C173B48FEF7B4FEFF
:102EB000E868E06041E62C00ED68207F401C207748
:102EC000207F617F8842FFF465AE00202077DFF825
:102ED000146600203070D4F88C00002806D0210041
:102EE0002069D4F88C209047010000E00021307860
:102EF00000287FF447AE49B200297FF44BAE200092
:102F000000F06AFE46E60024264E356811E030687F
:102F1000A84208D0DFF8303640F2B352DFF8C816C6
:102F20001D48FEF779FEE86830602800ED68FFF77D
:102F300038FB002D2DD0287D0A2808D0DFF8083670
:102F400040F2A152DFF8A4161348FEF765FE0020F8
:102F5000D9F80020296A521AF12A00D3401CC0B2C5
:102F6000002813D0280000F00BFA002CCFD03068D6
:102F7000854208D1DFF8D03540F2AF52DFF8701645
:102F80000548FEF749FEE868E060CEE72C00ED68F2
:102F9000CFE7BDE8F78F000014C60008CCD20008C8
:102FA0009CBE000870840020F8B5DFF844542878EF
:102FB000401C287029E02878A077A07EC0070BD598
:102FC000608B50F002006083200000F005FE618BF2
:102FD0004FF6FC7001406183A07E000707D5618B2E
:102FE0004FF6F770014061832000FFF7F1FBE668C0
:102FF000A06F00280DD0DFF8EC740020387020009E
:1030000000F011F83878002803D0DFF8E8050468EC
:1030100000E03400002C05D0A07F29788842CAD176
:10302000E468F7E7F1BDF8B50400002C0CD1DFF837
:10303000183540F20962DFF8C015DFF8C005FEF769
:10304000EBFD7FF00F0045E0A06F467BA56F0020F1
:10305000A067D4F88400002807D000232A002100AC
:103060002069D4F88470B84705E000232A002100C5
:10307000002000F069F8010049B200291DD1B00616
:1030800027D5208DB0F5066F02D0208D401C2085FD
:10309000D4F88400002808D00023002221002069F1
:1030A000D4F88440A047010000E000217FF00C002C
:1030B000020049B291420CD10CE07FF00C010A00F1
:1030C00040B2904201D1080004E0A5677FF00400FF
:1030D00000E00020F2BD10B503E0046800F004F841
:1030E00020000028F9D110BD10B50400002C09D033
:1030F0006068002802D06068FEF7F5FF2100032019
:1031000002F060FD10BD70B50500002D09D1DFF89B
:10311000383440F28262DFF8E814DFF8E004FEF7AA
:103120007BFD032002F00FFD0400002C01D10020E4
:1031300009E0102226002900300003F03DF8606805
:10314000FFF747F8200070BD10B5080014000028F4
:103150000CD1DFF8B0344FF4D362DFF8AC14DFF8F1
:103160009C04FEF759FD7FF00F0008E0002C07D00B
:103170002189FFF75FFC2000FEF7B5FF002010BD9E
:103180005BB2002BFAD1FFF771FBF8E7000038B50E
:103190000100C9B2802901DB7F20FFE70100C9B22D
:1031A000002923D0441E00230020DFF848140968BA
:1031B00016E04A7D2500EDB2AA420AD34A7D2500D9
:1031C000EDB2AA420BD1894A15680A6AAD1A9D422E
:1031D00005D3864800680B6AC31A08004C7DC9688D
:1031E0000029E6D1002801D0FFF7E2FB31BD70B520
:1031F00004002000C0B208280DD02000C0B2092869
:1032000009D0DFF8003440F2DD62DFF80014DFF8A7
:10321000EC03FEF701FD00230022DFF8D80300686D
:103220000FE0017D2500EDB2A94209D16F4D2E6856
:10323000016A761A9E4203D32968036ACB1A0200F8
:10324000C0680028EDD1002A03D000211000FFF74C
:1032500028FB70BD38B500230020DFF8B4130968DF
:103260000AE0624C25680A6AAD1A9D4203D32068C1
:103270000B6AC31A0800C9680029F2D1002801D0DE
:10328000FFF796FB31BD10B5DFF8680300680BE06F
:10329000C468817E090706D5428B4FF6F7710A4054
:1032A0004283FFF795FA20000028F1D110BD0000FD
:1032B000F0CB0008E8D20008D4D5000870B50500AE
:1032C000012002F040FC0400002C23D1FFF7DBFFBB
:1032D000FFF7C0FF012002F036FC0400002C19D1DA
:1032E0000920FFF784FF012002F02DFC0400002CD0
:1032F00010D10820FFF77BFF012002F024FC04001E
:10330000002C07D12800C0B2FFF741FF012002F0D6
:103310001AFC0400002C2FD09C2100222600300033
:1033200002F0F0FF65754FF48660A4F864004FF476
:1033300006616185618D2185FF21E1724FF406717F
:1033400061860621A4F840100621E1875FF0FF3175
:1033500021860121A4F848102449096821622449E2
:103360000978A177A4F84A00DFF8A802C4F884001D
:10337000DFF8A402C4F89400200070BD64C6000801
:1033800010B50400002C07D16F4B40F65102A34941
:103390009A48FEF741FC26E0207D002823D0207DBE
:1033A0000A2820D0207D01281DD0A06F002804D03D
:1033B000A06FFEF798FE0020A067606F002802D083
:1033C000200000F045F95FF0FF302086E06EFFF747
:1033D00082FE206FFFF77FFE0020E066E06E206730
:1033E0000020A4F8680010BD0000000060840020E8
:1033F000B4840020D8C2000838B505000C00002CA9
:1034000006D1804B40F6830285497C48FEF704FCD8
:10341000002D06D17B4B40F6840282497748FEF7A7
:10342000FBFB2868A04203D12868C068286009E037
:10343000286800E0C068002804D0C168A142F9D122
:10344000E168C1600020E0602000FFF799FF207D67
:103450000A280CD0207D012809D0A07EC00706D5FF
:10346000608B50F002006083200000F0B5FB207DEF
:1034700001281DD0E06E002806D0624B40F6930272
:1034800069495E48FEF7C8FB206F002806D05D4BF7
:1034900040F6940265495948FEF7BEFB606F00286C
:1034A00006D0584B40F6960261495448FEF7B4FBEB
:1034B000002020750020E08231BD00006C840020D7
:1034C00080B5002806D14F4B40F6AF0259494B4812
:1034D000FEF7A2FB58490A685848006882180A603B
:1034E000086802BDB284002054C2000880C20008EF
:1034F000B8C0000838B505000C00002A06D1414BC1
:1035000040F6C5024E493D48FEF786FB002C02D12D
:10351000280080B217E0A18C080080B2002810D0EB
:10352000282002000B0092B29BB29A4201D2081AE4
:1035300000E000202900020089B292B2914200D33B
:103540000500280080B232BDE0B90008D0BE0008F6
:1035500070B505000C00002D06D12A4B4FF4106207
:1035600038492648FEF758FB04E0E6682000FFF7DC
:103570001FFA3400002C05D0206829688842F4D056
:10358000E468F7E770BD0000F0BC0008A8DA0008A6
:1035900038B504000D00002C1DD0206800281AD07A
:1035A000144801682000FFF7D3FF27480168200076
:1035B000FFF7CEFF002D0ED0286800280BD023483F
:1035C000006806E001682268914201D12968016023
:1035D000C0680028F6D131BDE8D80008B84C0A0010
:1035E000F8240100ACC20008B4C60008E8C0000816
:1035F0008CC600086C840020DCC6000814C60008D5
:1036000004D30008E0B9000820D30008D8D8000887
:10361000708400204931000800DD6D003CD30008B3
:1036200058D30008FCCE0008ECD5000874D300087D
:1036300004D6000890D30008A40000206084002075
:1036400004C7000804BF00086484002068840020C8
:1036500010B50400606F002804D0606FFFF73BFDD9
:103660000020606710BD30B4002513E050F8042B33
:10367000D30744BFA9F101039A18091F042942F88E
:10368000045BFAD213468C0744BF15809B1CC90704
:1036900048BF1D7050F8041B0029E7D130BC7047AB
:1036A00080B5002806D0017A002903D0007A03F003
:1036B00024F802E0100001F01FF902BD2DE9F047E7
:1036C00005000E0091469A46002D08D1DFF86C33B4
:1036D000A322DFF86C13DFF86C03FEF79DFA002ECF
:1036E00008D1DFF85833A422DFF85C13DFF8540365
:1036F000FEF792FA089FF80702D55FF0040801E090
:103700005FF00008B80701D5002000E0002039076D
:1037100001D5002100E00021FA0601D5002200E0D9
:10372000002210EB080811EB080812EB0808032030
:1037300002F009FA0400002C04D13000FEF7D3FC9B
:10374000002048E0A7720020206066603089414672
:10375000C9B289B2884208D2DFF8E032B022DFF87D
:10376000EC12DFF8E002FEF757FA31894046C0B2AA
:10377000091A218114213000FEF763FC002804D0CF
:103780002000FFF7B1FC002025E060684068E060A1
:10379000E88AFEF7E5FEE1680880288BFEF7E0FE88
:1037A000E16848805046FEF7E3FEE16848605FFA52
:1037B00088F8042098FBF0F0401D5FFA89F959EA77
:1037C0000039484680B2FEF7CBFEE16888810020D0
:1037D000E16848822000BDE8F0872DE9F84F060037
:1037E0008846002400200020002E07D1934B40F291
:1037F0004B32DFF83C1B9348FEF70EFAF76E002FB2
:1038000002D15FF0FF306FE0404680B200280AD15D
:103810008A4B40F25332DFF81C1B8A48FEF7FCF952
:103820007FF0050060E04046398980B2884201D3CC
:10383000002059E0708E414689B2884207D27F4B02
:1038400040F25B32DFF8F01A7E48FEF7E5F938897E
:10385000002807D1794B4FF45772DFF8E01A794806
:10386000FEF7DAF997F80A905FEAC97002D55FF0BF
:10387000040B01E05FF0000B5FEA897001D50020C6
:1038800000E000205FEA097101D5002100E000217D
:103890005FEAC96201D5002200E0002210EB0B0BA9
:1038A00011EB0B0B12EB0B0BB7F808A0BAEB080AE5
:1038B0004FF420725AFA8BF189B23620FEF7E9F9FB
:1038C0000500002D12D1002C07D05C4B4FF476720E
:1038D000DFF8DC1A5B48FEF79FF9002D02D02800C4
:1038E000FEF701FC5FF0FF30BDE8F28F78680089D9
:1038F0003B89C31A18EB03039BB2524692B2686825
:103900005FFA8BFB00EB0B017868FEF750FD514628
:1039100089B28842D7D1F8688089FEF721FE8346B4
:103920001BF03F0B00245FEA0B7003D51BF0F70B75
:1039300054F008045FEACB7003D51BF0FE0B54F083
:103940000104F9684868FEF713FE5FFA89F9CDF8BB
:10395000009010FA88F32200D2B229003000FFF75D
:10396000ADFE0400002CAED07868FEF729FCB6F856
:103970006610081AA6F8660078680189B1EB0A019A
:1039800089B27868FEF7C1FA3889B0EB0A0AA7F85D
:1039900008A05FFA8BFB584680B2FEF7E1FDF9689C
:1039A00089890843F96888817868FEF709FCB6F8C8
:1039B00066104018A6F866006068FEF701FCB6F8CD
:1039C00066104018A6F86600386820603C602068E1
:1039D000002802D10020A6F86800002084E738B54E
:1039E0000400002C07D1154B40F2EB32DFF8B81A77
:1039F0001448FEF711F9E06E00281AD0E56E00E0D9
:103A00002D6828680028FBD1E8688089FEF7A8FDAA
:103A100010F0070F0DD10120FEF7A2FDE96889899A
:103A20000843E9688881608B50F0200060830020A3
:103A300003E00121200000F00BF832BD88B7000838
:103A4000FCCF000844C8000814CC00084CD600087D
:103A50002DE9FC4104000D000026002015F0030FA5
:103A600009D1DFF8F83A40F21242DFF8F41ADFF831
:103A7000540BFEF7D1F8002C09D1DFF8E03A40F200
:103A80001342DFF8E01ADFF83C0BFEF7C5F8A80791
:103A900000D50126F00701D5042700E00027B00774
:103AA00001D5002000E00020310701D5002100E011
:103AB0000021F20601D5002200E00022C719CF192B
:103AC000D7194FF420723900C9B289B23620FEF7F7
:103AD000E0F88046002806D1608B50F080006083BB
:103AE0005FF0FF3075E0B8F80A00FFB2BFB2B8422D
:103AF00009D2DFF8683A40F23A42DFF8CC1ADFF830
:103B0000C40AFEF789F8F6B20096E36D2A00D2B235
:103B100041462000FFF7D2FD0600002806D1608B49
:103B200050F0800060835FF0FF3052E0307B10F097
:103B3000030F09D0DFF8243A40F24242DFF88C1A32
:103B4000DFF8800AFEF768F83089002809D0DFF82E
:103B50000C3A40F24342DFF8781ADFF8680AFEF7C1
:103B60005BF8E06E002801D1E66606E0E16E00E059
:103B7000096808680028FBD10E600020A4F86800DE
:103B800015F0030F02D0E06D401CE065E80703D597
:103B9000608B50F0200060837068FEF711FBB4F872
:103BA00066104018A4F86600B4F8660000280FD02C
:103BB000206F00280CD1E06E002809D1DFF89C3975
:103BC00040F26642DFF8F81ADFF8F809FEF724F849
:103BD0000020BDE8F68100002DE9F0470500002D2A
:103BE00009D1DFF8783940F2E142DFF8D81ADFF87E
:103BF000D409FEF711F8287D012809D1DFF85C39D6
:103C000040F2E442DFF8C01ADFF8B809FEF704F822
:103C1000DFF8B80A0068A84201D10020F8E0B5F842
:103C20006000B5F84810884202D2B5F8608001E023
:103C3000B5F84880EC6E002C07D1A87E800703D52C
:103C4000280000F033FCE3E0DCE02A1D2900280016
:103C5000FFF726FD0600002E02D17FF00300D7E01B
:103C6000002D02D0286800280BD1002E01D0301D75
:103C700000E00020002802D17FF00300C8E00068C7
:103C80002860E1684868FEF773FC696C401A218976
:103C9000401880451BD2B5F8600080450FD1286FD1
:103CA00000280CD195F89900002808D1002085F84B
:103CB0009800012085F89900002085F89A00A87ED8
:103CC000800703D5280000F0F1FBA1E09AE0002076
:103CD00085F899002F6F002F04D000E03F68386806
:103CE0000028FBD1002C00F08780E1684868FEF7CF
:103CF0003FFC696C401A2189401880457CD3E068FC
:103D00008089FEF72DFC400709D5DFF8503840F2D6
:103D10003752DFF8BC19DFF8AC08FDF77DFF286FDC
:103D2000002817D0A87E10F0440F13D1E86E0028A9
:103D300008D0E86E006800280CD1E86E0089698E12
:103D4000884207D2B5F86400002803D0B5F86600B1
:103D5000092801DB012000E00020002803D1A87E13
:103D600010F0A00F48D0287D022807D01020FEF7C1
:103D7000F7FBE16889890843E168888132002900FE
:103D8000200000F09BF8010049B2002942D12068D0
:103D9000E866287D022804D0698B4FF6FC7001404C
:103DA0006983E1684868FEF7E3FB8146E068808943
:103DB000FEF7D6FB10F0030F32D00121208919EB5A
:103DC00000000818296D091A002900D52865E06847
:103DD0008089FEF7C5FB10F0030F23D00120218955
:103DE0004018002850D000202060286F00281BD1E8
:103DF0002C672700EC6E75E7E86E002802D10020E2
:103E0000A5F86800698B4FF67F7001406983002038
:103E1000BDE8F087698B51F08001698340B2F7E714
:103E20000021CBE70020DAE7E1684868FEF7A0FB55
:103E30008146F9684868FEF79BFBB9EB0009B9F1C8
:103E4000000F1ED515F1700901E0D9F80090D9F8DE
:103E5000000000280FD0D9F80000C1684868FEF7BC
:103E600087FB8246E1684868FEF782FBBAEB000AEE
:103E7000BAF1000FE9D4D9F800002060C9F8004079
:103E8000B8E73C603F68B5E72000FFF72DF9B1E7E0
:103E900010B50400002C09D1DFF8C03640F29A5268
:103EA000DFF83018DFF81C07FDF7B6FE6068807B8E
:103EB000012801D0012000E0002010BDFEB5040063
:103EC0000D001600002C09D1DFF890364FF4B762D0
:103ED000DFF80418DFF8EC06FDF79EFE002D09D18F
:103EE000DFF8783640F2B952DFF8F017DFF8D40681
:103EF000FDF792FE002E09D1DFF8603640F2BA528B
:103F0000DFF8DC17DFF8BC06FDF786FE2000FFF7C0
:103F1000BFFF002801D000207DE0686AFEF728FB83
:103F2000E1688860688DFEF71BFBE168C881686AFC
:103F3000698D4018E862E06810F11407A07AC007A4
:103F40000CD52A1D31004FF40670FFF7D3FA80B26A
:103F500050F00170FEF70CFB38603F1DB5F93000E2
:103F6000002801D500202886686B002808D1DFF8DA
:103F7000740700686863E1684868FEF7F9FAA863A7
:103F8000E16860684068081A61684989091A6268CE
:103F9000518161680989081A61680881E06861686F
:103FA00048600020E1680882A07AC00701D504209B
:103FB00000E00020A17A890701D5002100E000215E
:103FC000A27A120701D5002200E00022A37ADB06C4
:103FD00001D5002300E00023D4F80CC0604408445D
:103FE000104418441430874209D0DFF8703540F28D
:103FF0001C62DFF8F416DFF8CC05FDF70DFE029623
:1040000006200190A87A0090EB7A2A1D29006068AA
:1040100000F0B1FD40B2FEBD70B50400002C09D126
:10402000DFF8383540F26362DFF8C016DFF8940538
:10403000FDF7F2FD206F002802D17FF0050035E08A
:10404000256F00E02D682868002807D02800FFF7BA
:104050001FFF0028F6D07FF0050027E02800FFF7BB
:1040600017FF002802D07FF005001FE0E06E2860F7
:10407000206FE06600202067608B50F40060608352
:10408000E9684868FEF774FA0600E8688089FEF778
:1040900067FA10F0030F01D0012000E00020298909
:1040A00071184018E06400206063002070BD10B5F6
:1040B0000400002C09D1DFF8A4344FF4D362DFF8F8
:1040C0003016DFF80005FDF7A7FD94F84200FF2841
:1040D00004D094F84200401C84F842002000FFF70E
:1040E0007BFD10BD10B50400002C09D1DFF86C3445
:1040F00040F2AD62DFF8FC15DFF8C804FDF78CFD77
:104100002000FFF789FF002802D12000FFF7CFFF32
:1041100010BD0000F8B50400002C09D1DFF83C34D4
:1041200040F2C162DFF8D015DFF89804FDF774FDA6
:10413000206F002802D17FF0050033E0256F2800B2
:10414000FFF7A6FE002802D07FF005002AE02868CD
:10415000206714F16C0600E03668306800280CD047
:104160003068C1684868FEF703FA0700E9684868E4
:10417000FEF7FEF93F1A002FEED430682860356054
:104180002868002802D10020A4F8680094F84200B2
:10419000FF2804D094F84200401C84F8420000201C
:1041A00060630020F2BD000010B50400002C09D1AE
:1041B000DFF8A83340F2F962DFF84015DFF80404B5
:1041C000FDF72AFD206F002830D0A07E40072DD4B7
:1041D0002000FFF79FFF002828D1B4F84800B4F86A
:1041E0006010884202D2B4F8480001E0B4F86000E0
:1041F000022190FBF1F0A4F84A00B4F84A00618E65
:10420000B0EB410F04D2608E80B24000A4F84A00A7
:10421000B4F84A10628E032042435018A4F84800B4
:10422000608B50F0040060830020208610BD0000E9
:104230002DE9F84F82468846110099464FF42072C6
:1042400011EB0801143189B22220FDF722FD040090
:10425000002C41D06089414689B21431884208DA85
:10426000BE4B40F22472DFF89814DFF85803FDF7D4
:10427000D3FC0D9D0C9E0B9F0A98D4F804B080B21D
:10428000FEF76EF9ABF80000380080B2FEF768F96F
:10429000ABF80200CBF804905046FEF769F9CBF872
:1042A00008001FFA88F8042098FBF0F0401DF6B2D1
:1042B00056EA0036300080B2FEF752F9ABF80C0037
:1042C000280080B2FEF74CF9ABF80E000020ABF8E6
:1042D00010000020ABF812002000BDE8F28FF8B506
:1042E00084B004000D0016001F00002C07D19B4B6A
:1042F00040F24272DFF80C14B248FDF78DFC608D7D
:10430000039010200290208B0190E08A00903B00E7
:10431000320092B2290089B2606AFFF789FF002853
:1043200003D0616A628D8918E16205B0F0BD0000BA
:1043300038CC00085CCC000848D9000858D90008DF
:1043400070B50C0016000025002C07D1834B40F2FD
:104350005672DFF8B4139B48FDF75EFC616811F1FB
:104360001400F20701D5042200E00022B30701D5B2
:10437000002300E00023340701D5002400E00024DE
:10438000F60601D5002600E00026ADB201EB85015E
:1043900011441944214431441431884206D06F4BF2
:1043A00040F27572D0498748FDF736FC70BD0000B9
:1043B00078DA0008FEB505000C0016001F00002C7E
:1043C00006D1664B40F28772D0497E48FDF724FC47
:1043D0003A0031002800FFF763F9002802D17FF08E
:1043E000030512E0002D02D0EB7AA97A01E0FF2349
:1043F0000021029006200190C9B20091DBB23A0080
:104400003100200000F0B7FB05002000FDF76BFE37
:10441000280040B2FEBD2DE9F84F84B080468A46A0
:1044200091461C00002C06D14C4B40F2C472B84996
:104430006448FDF7F1FB0E9D002D06D1474B40F27D
:10444000C572B4495F48FDF7E7FB109E0F9F5046C9
:104450005FF0000A46F2080BFEF78AF81FFA8BFBA2
:10446000CDF80CB014210291B6B20196BFB20097FC
:10447000030000225146C9B289B24846FFF7D8FE70
:104480000600002E0CD05346DBB20022310040461D
:10449000FFF756FF2B00220031004046FFF78AFF4E
:1044A00005B0BDE8F08F000038D40008F8B504006E
:1044B00000260027002C06D1284B40F2EA729649CC
:1044C0004048FDF7A9FBF00701D5042500E00025D1
:1044D000B00701D5002000E00020310701D5002100
:1044E00000E00021F20601D5002200E0002245197B
:1044F0004D195519206DFEF73BF803000022EDB26F
:10450000290089B22000FFF7EAFE0500002D06D140
:10451000608B50F0030060837FF001001CE03B00E3
:10452000DBB23200D2B229002000FFF709FF231DC1
:10453000220029002000FFF73DFF010049B20029B9
:1045400004D0618B51F00301618304E0628B4FF66C
:10455000FC710A40628340B2F2BD000088B70008D7
:10456000E0B700081CD0000870B505000026002D3B
:1045700006D16A4B40F6240269491248FDF74CFB0C
:10458000286D401EFDF7F4FF030000223100C9B280
:1045900089B22800FFF7A3FE0400002C02D15FF0CF
:1045A000FF300DE03300DBB2002221002800FFF7CE
:1045B000C7FE2B1D2A0021002800FFF7FBFE40B29A
:1045C00070BD000044C800080CBC000864D6000898
:1045D00088C300082DE9F84304005FF00008002CB0
:1045E00006D14E4B40F64F024E494F48FDF714FBA3
:1045F000E66E002E01D100205FE094F89A00FF28BB
:1046000004D094F89A00401C84F89A00F0688089DD
:10461000FDF7A6FFC00704D53089002801D1012786
:1046200000E000273800C0B2002801D0002200E0DE
:104630000122F068436892B24146C9B289B22000B3
:10464000FFF74DFE0500002D02D15FF0FF3034E092
:10465000D5F80490FFB2002F0BD01120FDF780FF9A
:10466000B9F80C204CF2FF010A401043A9F80C00E5
:104670000BE0686810F114017068038930891B1A17
:104680009BB201227068FDF792FEF1684868FDF761
:104690006FFF401C216D091A002900D52065434693
:1046A000DBB2002229002000FFF74AFE231D220072
:1046B00029002000FFF77EFE40B2BDE8F283000033
:1046C0006CC800087CD6000894C8000888840020C4
:1046D00094D60008BCC800083CD000085CD0000894
:1046E00080CC00086084002024D80008A4CC0008F6
:1046F000C8CC000854D40008ACD600087CD0000810
:1047000048C10008E4C800080CC90008B4C3000888
:1047100070D400088CD400089CD0000888B700082A
:10472000A8D40008ECCC000844C8000880B5FDF708
:104730005EFF64480068002803D1634800680028D1
:1047400005D000226149FA2000F080F802E0002044
:104750005F49086001BD80B55D49086800280ED139
:1047600058480068002803D157480068002806D040
:104770000120086000225549FA2000F067F801BDC9
:1047800070B504000D001600062001F0DCF90028C9
:1047900008D1002805D14F4BBE224F494F48FDF7A5
:1047A0003BFA27E0002101608560C66044604C4A06
:1047B0001168002901D110601CE043681168496844
:1047C0005B1AB3F1004F03D311680160106011E070
:1047D000126800E01268002A0CD01168002906D087
:1047E0004368116849685B1AB3F1004FF2D311684E
:1047F0000160106070BD38B504002500686880470E
:1048000002F0BCF837490B682968CB18191AB1F1C6
:10481000004F06D3220034492B681818FFF7B0FF69
:1048200004E0220030491800FFF7AAFF31BD10B59F
:10483000012408E02D4800EBC4022B4950F8340055
:1048400000F004F8641C032CF4D310BD70B5040010
:104850000D001600B4F1804F06D31E4B40F2291212
:1048600023491E48FDF7D8F902F088F824183200D1
:1048700029002000FFF784FF70BD70B502F07EF8BC
:10488000040013E04A68A21AB2F1004F19D20A6874
:1048900002608D68CE684868124A1060062001F0F8
:1048A00091F92800002801D03000A847114800786D
:1048B000002801D0FDF7C4F9094801680029E1D1B9
:1048C000FFE770BD6C840020708400202D47000835
:1048D0009484002038B8000890BB000834C9000850
:1048E0008C84002090840020F7470008C4D600087C
:1048F00060BD0008B184002010B4DFF8941309688B
:1049000008E091F82D20920703D40268CB689A4200
:1049100015D00968002914D091F82D2012F0050255
:10492000052AF6D14A68002AF3D003688A68134042
:104930004C688A681440A342E3D1080019E00800DB
:1049400017E0DFF85023116800290FD0116891F8A3
:104950002D1011F00501052908D1116849680029B9
:1049600004D0007800F0FF007F2801D1002000E093
:10497000106810BC704780B5010091F82D00C00789
:104980000FD5486800280CD0DFF80C0342694B684B
:104990009A4204D04069FDF7BDFD002801D00120F6
:1049A00000E0002002BD2DE9F84305000E006F680D
:1049B0003878C0B20009C0B2042804D02800FDF73E
:1049C00092FB0020D5E0387810F00F005FEA8008F5
:1049D0005FFA88F87888FDF7C3FD04002000298974
:1049E00080B2884204D2210089B22800FDF78DFAF6
:1049F0006889414689B2884207D32889A4B2A04277
:104A000003D3404680B2142804DA2800FDF76BFB7C
:104A10000020AEE03869DFF88092C9F81400F86829
:104A2000C9F8100099F8140010F0F000E0280AD13D
:104A300096F82D00C00704D57068002801D0340016
:104A40001CE000241AE03000FFF795FF002801D099
:104A5000340013E0002499F8140000F0FF007F28D0
:104A60000CD08B48046800E02468002C06D0B442C7
:104A7000FAD02000FFF77FFF0028F5D03100D9F8E9
:104A80001000FDF747FD002805D199F8100010F03F
:104A9000F000E02804D12800FDF725FB002068E0A5
:104AA000002C04D12800FDF71EFB002061E0F888EF
:104AB0004FF63F71084208D0280002F0F6FA0500D0
:104AC000002D01D1002054E06F68C9F80040C9F8FA
:104AD0000460C9F80870387810F00F008000C0B288
:104AE000A9F80C00414689B22800FDF7AFFA787AA0
:104AF00001280DD0062806D011280ED1310028003B
:104B000002F0C7FD22E031002800FBF73DFB1DE06D
:104B10003100280002F0C4FE18E02100D9F814008A
:104B2000FDF7F8FC00280ED199F8140010F0F00001
:104B3000E02808D0414609B22800FDF7CEFA02214C
:104B4000280002F084FF2800FDF7CDFA0020C9F804
:104B500000000020C9F804000020C9F80800002067
:104B6000A9F80C000020C9F810000020C9F81400B2
:104B70000020BDE8F2837FB50A9E0C00002A05D014
:104B8000002902D00968002900D1341D0999089D27
:104B90000296C9B20191EDB20095DBB2210000F09E
:104BA00002F804B070BD2DE9F84306000D001400B2
:104BB0009846B07B012806D0384B4FF455723849DF
:104BC0003848FDF729F8002C42D05FF01409142171
:104BD0003000FDF736FA002802D07FF0010054E0E3
:104BE00077687089142806D22C4B40F289322E49FE
:104BF0002C48FDF711F80998089987F80880787211
:104C0000206838611FFA89F9042099FBF0F050F010
:104C10004000387079703089FDF7A2FC7880002060
:104C2000F880DFF88880B8F80000FDF799FCB880BC
:104C3000B8F80000401CA8F80000002D03D11C4863
:104C40000068F86001E02868F8600020788109E0D9
:104C50007089142802DA7FF0010016E0706801699B
:104C600000916C460A9B988C002809D0988C318959
:104C7000884205D222001900300002F06EFB04E0E9
:104C80002200310018005B699847BDE8F2830000FC
:104C90005484002058840020D883002080B6000867
:104CA000A0D90008FCC4000868BF0008A084002048
:104CB000C0DA00082DE9F0439FB000BF65A6269C2E
:104CC000DFF8B48A8DF83B40029100240B944FF03A
:104CD000FF37044691461D460AE019F8011B029869
:104CE000A0470028029000F0A1800B98401C0B9078
:104CF00099F8000050B12528EFD10021002205913C
:104D000006920791089209910A9203E00B98A5E098
:104D100041F0010119F8010F2028F9D023280CD007
:104D20002B2804D02D2805D0302809D080E041F070
:104D30000201EFE741F00401ECE741F00801E9E787
:104D400041F01001E6E70D920AE00D98404505DAC2
:104D500000EB800002EB4002303A0D9209F10109AC
:104D600099F80020A2F130000A28EED399F800004B
:104D70002E2818BF0C9726D119F8010F2A2808D120
:104D80002868286009F1010950F8042B28600C926A
:104D900019E02D280CBF09F10109002000220C9216
:104DA0000BE040B90C9A424505DA02EB820203EBB4
:104DB0004203303B0C9309F1010999F80030A3F14B
:104DC00030020A2AEDD3ADF83810304699F80010B9
:104DD00002F09CFE08B119F8010B8DF83A009DF81D
:104DE0003A00682805D199F8000068280CD16221A2
:104DF00006E06C2804BF99F800006C2804D17121EA
:104E00008DF83A1009F1010910A804902A4619F802
:104E1000013B6946204600F061F838B910AA69469E
:104E2000204600F08FF900287FF562AF384615E084
:104E30002A2888D12A682A6052F8040B2A600028A0
:104E40000D9003D540420D9041F0040109F1010994
:104E50008CE70000686A6C747A4C00001FB0BDE8F3
:104E6000F083622820D0682811D06A2803D06C28EB
:104E700027D0712825D10868C01D20F007000860E0
:104E8000D0E9002308300860194610467047002A10
:104E90000A680A60106803D0121D0A6000B217E0A9
:104EA000121D0A6080B217E0002A0A680A601068C2
:104EB00003D0121D0A6040B20AE0121D0A60C0B29F
:104EC0000AE0002A0A680A60106803D0121D0A600E
:104ED000C1177047121D0A600021704770B51C464B
:104EE0000D46B4F125002E69114600F019811C38D9
:104EF00068D0001F022865D9133842D0093861D024
:104F0000801E16D0401E1ED0401E02285AD9001FF7
:104F100019D0401F00F08180401E32D0401E00F0AA
:104F2000CB80C01E00F0DA80801E2AD0C01E28D0A0
:104F3000FCE06869421C6A610A680A6052F8043B36
:104F40000A603354FCE095F83A000122FFF789FF2C
:104F5000C5E90001002904D56869411C69612D2259
:104F60000DE0288F810704D56869411C69612B22F7
:104F700005E0C00721D56869411C696120223254CF
:104F80001BE095F83A000022FFF76BFFC5E900012E
:104F900095F83800010710D5D5E90023002B08BF8C
:104FA000002A0AD044F02000782806D16869302110
:104FB0003154401C421C6A613454214668693044B3
:104FC000E86087E00868C01D20F007000860D0E9AD
:104FD000002308300860C5E90023D5E90001C80FA7
:104FE00004D06869411C69612D220DE0288F81077A
:104FF00004D56869411C69612B2205E0C00704D50E
:105000006869411C69612022325468693044E86053
:105010002146284600F0C4F992E005F13A025078A2
:1050200020B14FF0FF340FF6202062E010786228A4
:1050300008D0682824D06A2812D06C282ED0712875
:105040000ED02BE00A680A6052F8040B0A6020B9FF
:105050004FF0FF340FF608204BE0E96A01706FE073
:105060000A680A6052F8040B0A6020B94FF0FF3456
:105070000FF6EC103DE0EA6AD317C0E900235FE0C9
:105080000A680A6052F8040B0A6020B94FF0FF3436
:105090000FF6CC102DE0E96A018051E00A680A6041
:1050A00052F8040B0A6020B94FF0FF340FF6B0102D
:1050B0001FE0E96A016043E00A680A6052F8040BE5
:1050C0000A60002120F0000221F0FF33C5E900232F
:1050D000EE607821284600F0BBF831E008680860EF
:1050E00050F8044B0860EC603CB94FF0FF340FF609
:1050F000881002F017FD201A70BD2E6B002E04D50B
:10510000204602F02FFD044608E0324600212046EA
:1051100002F044FD002814BF041B3446AC610FE0CC
:105120006869411C69612522325409E06969481C9B
:10513000686125227254210002D0431C6B613454F3
:10514000002070BD2DE9FC410F46064690467A6B63
:105150007869396ABC6A121AB869521A796A121ADD
:10516000F869521A121A97F83800141B41070FD425
:105170002020002C8DF800000ADD254601236A4618
:105180003946304600F048FC00285DD16D1EF5D14F
:105190007B6942463946304600F03EFC002853D138
:1051A00030208DF800003D6A002D09DD01236A469C
:1051B0003946304600F030FC002845D16D1EF5D14F
:1051C000BB69FA683946304600F026FC00283BD11E
:1051D00030208DF800007D6A002D08DD01236A462D
:1051E0003946304600F018FC70BB6D1EF6D1F868E9
:1051F000B969FB6942183946304600F00DFC18BB0E
:1052000030208DF80000BD6A002D08DD01236A46BC
:105210003946304600F000FCB0B96D1EF6D197F863
:10522000380041070DD52020002C8DF8000008DD46
:1052300001236A463946304600F0EEFB20B9641E71
:10524000F6D10020BDE8F6814FF0FF30BDE8F681D1
:105250002DE9FC4307466F293E6908BF082405D0A5
:1052600041F02000782814BF0A2410243C25D7E9F7
:105270000023642918BF69299046994605D1002B5F
:1052800003D5D8F1000869EB4909B9F1000F08BF4F
:10529000B8F1000F1FD1386BE8B9082C4CD197F842
:1052A0003800010748D530203B2586F83B0043E015
:1052B00000280ED597F8380000F01400102808D107
:1052C0007B6B7969386A5B1A1B1A9A1A002AC8BF65
:1052D0003A62BDE8F3838DF8001040464946224605
:1052E000E31702F087FC3032D0B26D1E3A280195E8
:1052F00004DB9DF80000A0F151018A187255404668
:1053000049462246E31702F075FC80465FEA010930
:1053100008BFB8F1000F03D0F86871198842DCD3D8
:10532000082C09D197F83800010705D5705D3028A1
:1053300002D06D1E30207055C5F13C02BA61711962
:10534000F960386B8242B3DA821A3A624FF6EF7034
:10535000398F01403987BDE8F3832DE9D0430646F4
:105360000F4614464FF00008DFF8109412E0E007F3
:1053700007D542464B463046394602F053FD0646B5
:105380000F464046494642464B4602F04BFD6410EC
:1053900080468946002CEAD130463946BDE8D083A4
:1053A0002DE9F84F05468A464AF020048EB0D5E92B
:1053B0000089612C02AE09D0286B002848BF062066
:1053C00003D408BF672C01D101202863D5E900016F
:1053D0004A005215521C0DD10B030BD0AAF16101EA
:1053E00003201A29A86102D20FF2A86110E00FF27F
:1053F000A8610DE04A005215521C0ED10B030CD1CE
:10540000AAF1610103201A29A86116D30FF2906155
:10541000E868032200F0D0FEC0E1CDE90C01DDE92F
:105420000C2323F00043B3F5801F0DD20027002B7F
:1054300008BF002A019703D111E00FF26061E7E78E
:1054400001AA02F0C1FD0AE0CD48CE4900EB13509D
:10545000DDE90C2301900B40CB4910461943C5E907
:105460000001612C0DD1E86830210170821CBAF175
:10547000610FEA600CBF7821582141706869801C77
:105480006861D5E90001CDE90C01DDE90C2333F0B9
:10549000004104BF0028002300F04881612C40F047
:1054A000A080286B494600284CBF4FF0210B00F12B
:1054B000010B404600220023DDE90C8902F0BCFD0F
:1054C00001990BF1010738BF89F00049091F002F2E
:1054D00001918DF808200DF1090040F33581A949AB
:1054E00000910646404649460022002302F0BCFDDA
:1054F00080F029814800400D00F11C0211D0002AE3
:105500000FDD40F2FF739A4205DBA04909F000402D
:105510000143002011E0009B194041EA025140463E
:105520000BE028F0000039F0004108BF00280FBF51
:1055300049461C22494602F0AFFD8046894602F0EA
:1055400049FEFF1F002F044609DD02F061FE0246FE
:105550000B464046494602F06DFE80468946F01DE6
:10556000072104E004F00F0200F8012D2411002CA3
:1055700001DD491EF6D5491E5CBF002200F8012D51
:10558000F9D5DCE00020194602AA0A4400E05B1EBF
:1055900012F80149491E8442F9D00F2804D10DF1B7
:1055A0000900425C521C4254002904D50198001D98
:1055B00002AE5B1C0190581E0CD43118AAF13A04BB
:1055C0000A783032D7B23A2FA8BFA218401E01F88D
:1055D0000129F5D5286B002840F1A780591E2963C1
:1055E000A3E001996A4A47F29750414391FBF2F2D6
:1055F000019229F00046D2F1070204DD404631460F
:10560000FFF7ABFE0AE0524200206249FFF7A5FE19
:1056100002460B464046314602F07EFE8046662C2E
:10562000286B06BF019F0A3706273F18142FC8BFF3
:10563000142730208DF8080089460DF1090000E09C
:105640003046002F34DD06464046494602F088FFCA
:1056500001460A4606F1080304200A26B2FBF6F6C4
:1056600006EB860EA2EB4E02303203F8012C0A2222
:10567000B6FBF2F202EB820EA6EB4E063036401E6F
:1056800003F8026DE9D1083F002F03F10806D7DDCA
:10569000084602F079FF02460B464046494602F0B2
:1056A000C9FD00223C4B02F0BDFB80468946CBE79A
:1056B0000DF10901401A0DF1090604E00199491E96
:1056C000401E0191761C31783029F7D0662C02D12A
:1056D0000199491C03E0652C0CBF012100212B6BB3
:1056E000CB189842B8BF431E002B1ED4834204DA65
:1056F000F05C3528A8BF392000DA30201946721E28
:1057000002EB010800E05B1E18F80199491E814573
:10571000F9D0392802D1705C401C7054002904D59E
:105720000198401C16465B1C0190019800B2009045
:105730001BB232465146284600F034F82EE0C61D12
:10574000002F3FF7CFAE30460DF10901401A034656
:105750005845C8BF5B46002B0DF109063FF53AAF2F
:105760008342BFF60FAF0DF10900C15C07297FF737
:1057700009AF0F2007E70000CBCCCC0C0000244081
:1057800002FCFFFFFFFF0F800000E03F0000F07F02
:10579000A08601000000F03F84D797410FB0BDE81C
:1057A000F08F00002DE9F84783B006468A46174679
:1057B000984602F0F7FEB8F1000F406A356B90F89A
:1057C000009002DC4FF00108B6A74AF02000BDF9B6
:1057D0003040662808BF641C15D0672840F08480DC
:1057E00014F1040FC0F28680AC4280F2838096F8F8
:1057F0003800641C010702D4A845B8BF454620B252
:105800002D1A48BF00250FFA84FAF068B169BAF181
:10581000000F25DC4A1C30234354002D03DC96F88E
:105820003800010703D5F06800F80290521C15EB10
:105830000A0FB8BF6C4220B2441941424445B8BF78
:10584000A046B26171620FFA88F5F561F068B3693C
:105850002A463946184400F0AFFC641BB462C4E029
:1058600022B29045084417DA4246394600F0A4FCBB
:10587000B0694044B061AAEB0801002D716203DCFD
:1058800096F838100A0705D5F16801F80090F0691C
:10589000401CF061B562A8E0394600F08DFCB069AB
:1058A000002D5044A8EB040803DC96F838100A07D2
:1058B00003D5F16801F80090401CB0610FFA88F040
:1058C0008542F368B069B8BFA8460FFA88F207EBC3
:1058D0000A01184400F070FCB1690FFA88F0014425
:1058E000B161281A706280E0BAF1610F14D14FF0F3
:1058F000700A16E0A84504DA96F838100A0758BF6F
:1059000045466D1E48BF0025BAF1670F14BF4FF022
:10591000450A4FF0650A04E0BAF1410F08BF4FF0A5
:10592000500AB169F368481CB061002D17F8012BCB
:105930005A5403DC96F838100A071BD5F168431C4B
:10594000B36101F80090002D14DDA8F101080FFAF1
:1059500088F039468542F768B8BFA8460FFA88F242
:10596000F81800F029FCB0690FFA88F108446D1AA4
:10597000B0617562F068B1690844002C80F800A03D
:1059800003D42B224270811C03E02D21417064421C
:10599000811C00206A460AE023460A2493FBF4F4A3
:1059A00004EB8405A3EB450302F8013B401C24B241
:1059B000002CF1DC012806DC4AF02002652A04BF35
:1059C000302201F8012B48B9302001F8010B07E023
:1059D000401E1DF80030303301F8013B0028F7DC91
:1059E000F268B0691044091AF16196F8380000F0C5
:1059F000140010280DD17269B169706A8A18F169B2
:105A00008218B06A8A188218706B8242BCBF821AF0
:105A1000326204B0BDE8F087F8B505460E46174679
:105A20001C46002074B117F8011BB068A847B0608D
:105A300030B1F06A401CF0620020641EF3D1F2BD68
:105A40004FF0FF30F2BD00007072696E74665F73D4
:105A50003A20256E20646973616C6C6F7765640011
:105A60007072696E74663A2062616420256E2061EE
:105A70007267756D656E74007072696E74665F73BF
:105A80003A2062616420257320617267756D656ECE
:105A9000740000006E616E004E414E00696E66003B
:105AA000494E4600300000000021826811604268C3
:105AB000D21C92089200002107E083681B681360E3
:105AC00083681A6003881A44491C43889942F4DBAE
:105AD000704710B5002407E04548210089B250F80E
