:020000040800F2
:100000000020001029230008ED210008EF2100083E
:10001000F1210008F3210008F5210008000000008C
:10002000000000000000000000000000F7210008B0
:10003000F921000800000000FB210008FD21000854
:1000400065230008692300086D2300087123000858
:1000500075230008792300087D2300088123000808
:1000600085230008892300088D23000891230008B8
:1000700095230008992300089D230008A123000868
:10008000A5230008A9230008AD230008B123000818
:10009000B5230008B9230008BD230008C1230008C8
:1000A000C5230008C9230008CD230008D123000878
:1000B000D5230008D9230008DD230008E123000828
:1000C000E5230008E9230008ED230008F1230008D8
:1000D000F523000805220008F9230008FD23000885
:1000E0000124000805240008092400080D24000844
:1000F0001124000815240008192400081D240008F4
:100100002124000825240008292400082D240008A3
:100110003124000835240008392400083D24000853
:100120004124000845240008492400084D24000803
:100130005124000855240008592400085D240008B3
:100140006124000865240008692400086D24000863
:100150007124000875240008792400087D24000813
:100160008124000885240008892400088D240008C3
:10017000912400089524000899240008000000003C
:100180009D240008A124000810B50400002C01D112
:10019000012035E0A0690028FFD194F84100002833
:1001A00005D1002084F84000200000F0D4FC242079
:1001B00084F841002068C06830F400502168C860AD
:1001C000200000F033FB2068006930F49040216883
:1001D00008612068406930F02A0021684861206881
:1001E000C06850F400502168C8600020606420207E
:1001F00084F84100202084F8420000206063002041
:1002000010BD2DE9FC4106000D0014001F00002068
:1002100096F84100202851D1002D03D0200080B253
:10022000002801D101204AE000207064212086F8D6
:10023000410000F0D7FC8046B484F484B068B0F587
:10024000805F04D13069002801D1002412E02C0025
:1002500000250FE0207831684860641C07E0002C1E
:10026000F8D12888C005C00D31684860AD1CF08CFD
:10027000401EF084F08C00280DD0009743460022E9
:100280008021300000F081F90028E8D0202086F895
:100290004100032013E00097434600224021300034
:1002A00000F073F9002804D0202086F841000320D4
:1002B00005E0202086F84100002000E00220BDE893
:1002C000F68180B590F84230202B0DD1002903D063
:1002D00013009BB2002B01D1012006E00023036331
:1002E00092B200F093F900E0022002BD38B504009C
:1002F000206801682068C2682068436900200020E7
:1003000011F00F00002807D18D0605D5950603D5FD
:10031000200000F014FA37E1002879D0D80702D481
:1003200012F4907F74D011F00100C0B2002805D003
:10033000D00503D5606C50F001006064480708D513
:1003400013F00100C0B2002803D0606C50F002002E
:100350006064880708D513F00100C0B2002803D0FC
:10036000606C50F00400606408070AD5900604D45D
:1003700013F00103DBB2002B03D0606C50F00800D7
:100380006064606C002842D0880604D5900602D5CF
:10039000200000F0D4F920684069800910F00100C5
:1003A000616C090701D400282CD0200000F04DF921
:1003B00020684069400621D52068143050E8001FAD
:1003C00031F04001206810F1140242E800100028CA
:1003D000F2D1E06B00280DD00FF2D120E16B08655F
:1003E000E06B00F053FC002811D0E06BE16B096D6D
:1003F00088470CE0200000F05CFC08E0200000F0E2
:1004000058FC04E0200000F054FC00206064BBE0D5
:10041000206B012840F0A880C80640F1A580D006D6
:1004200040F1A280002000902068006800902068C1
:1004300040680090009820684069400657D5E06BFE
:1004400000684168080080B200284FD00800A28DE3
:1004500080B290424AD2E185E06BC069B0F5807FFE
:100460003BD020680C3050E8001F31F480712068C8
:1004700010F10C0242E800100028F2D1206814307C
:1004800050E8001F49084900206810F1140242E8B2
:1004900000100028F2D12068143050E8001F31F01D
:1004A0004001206810F1140242E800100028F2D147
:1004B000202084F842000020206320680C3050E89F
:1004C000001F31F01001206810F10C0242E800100A
:1004D0000028F2D1E06B00F08BFB02206063A18D5D
:1004E000E08D091A89B2200000F0E4FB4CE0A08DF9
:1004F000E18D411AE08D002835D0080080B2002837
:1005000031D020680C3050E8002F32F4907220680F
:1005100010F10C0343E800200028F2D120681430C9
:1005200050E8002F52085200206810F1140343E8ED
:1005300000200028F2D1202084F84200002020630F
:1005400020680C3050E8002F32F01002206810F1C3
:100550000C0343E800200028F2D10220606389B236
:10056000200000F0A7FB0FE0080605D5100603D514
:10057000200000F0A5F807E0480605D5500603D591
:10058000200000F0CEF8FFE731BD2DE9FC41050069
:100590000E0090461F00089C286800683040B0425A
:1005A00001D1012000E000204146C9B288422AD191
:1005B00014F1010FF0D000F015FBC01B844201D3F1
:1005C000002C01D103201FE02868C0684007E3D554
:1005D000802EE1D0402EDFD0286800680007DBD5F0
:1005E000002000902868006800902868406800900B
:1005F0000098280000F029F808206864002085F899
:100600004000012000E00020BDE8F6818162828583
:10061000C28500214164222180F84210016900292D
:1006200005D00168C96851F480710268D160016821
:10063000496951F00101026851610168C96851F0CE
:1006400020010068C1600020704701680C3151E84A
:10065000002F32F49072016811F10C0343E800217D
:100660000029F2D10168143151E8002F52085200DC
:10067000016811F1140343E800210029F2D1016B54
:1006800001290CD101680C3151E8002F32F0100221
:10069000016811F10C0343E800210029F2D1202167
:1006A00080F84210002101637047000080B5806B24
:1006B0000021C1850021C18400F0FBFA01BD0000CA
:1006C00090F8411021292AD18168B1F5805F0CD1C1
:1006D0000169002909D1016A0988C905C90D0268A3
:1006E0005160016A891C016205E0016A4A1C0262CC
:1006F000097802685160C18C491EC18489B2002901
:100700000BD10168C96831F080010268D1600168CD
:10071000C96851F040010068C160002000E002207B
:10072000704780B50168C96831F040010268D16046
:10073000202180F8411000F0BEFA002002BD80B5F3
:1007400090F8421022296FD18168B1F5805F0DD1F8
:10075000016900290AD10021816A02685268D20524
:10076000D20D0A80816A891C816217E0826A0021A9
:100770008168B1F5805F05D08168002906D10169E3
:10078000002903D101684968117004E001684968D3
:1007900011F07F011170816A491C8162C18D491E6F
:1007A000C18589B200293DD10168C96831F02001B5
:1007B0000268D1600168C96831F480710268D16053
:1007C000016849694908490002685161202180F89F
:1007D000421000214163016B01291FD100210163F7
:1007E00001680C3151E8002F32F01002016811F15C
:1007F0000C0343E800210029F2D101680968C90609
:1008000008D50021009101680968009101684968D4
:1008100000910099818D00F04DFA01E000F04CFA52
:10082000002002E0002000E0022002BD2DE9FE4F82
:1008300005002868016931F44051E86801432868DF
:100840000161A9682869014368690143E8690143B6
:100850002868C268AF48024011432868C160286810
:10086000416931F44071A8690143286841612868F1
:10087000A949884203D02868A849884203D100F0DA
:10088000BAFB040002E000F0ABFB0400E869B0F53D
:10089000004F40F09F805FF0640A022600275FF05F
:1008A00019085FF0000922000023A8FB020108FBE1
:1008B000031109FB0211CDE9000168680021A6FBC4
:1008C000002306FB013307FB0033DDE9000100F0E4
:1008D000EBFB6421B0FBF1F0029022000023A8FBA7
:1008E000020108FB031109FB0211CDE90001686850
:1008F0000021A6FB002306FB013307FB0033DDE9E3
:10090000000100F0D1FB834622000023A8FB020176
:1009100008FB031109FB0211CDE900016868002101
:10092000A6FB002306FB013307FB0033DDE90001D2
:1009300000F0BAFB6421B0FBF1F00AFB10B0C0007C
:1009400032306421B0FBF1F0400010F4F8700299ED
:1009500010EB0110029022000023A8FB020108FB0B
:10096000031109FB0211CDE9000168680021A6FB13
:10097000002306FB013307FB0033DDE9000100F033
:1009800093FB83462000002102000B00A8FB02011C
:1009900008FB031109FB02116A680023904699467F
:1009A000A6FB082306FB093307FB083300F07CFB9A
:1009B0006421B0FBF1F00AFB10BA5FEACA003230E2
:1009C0006421B0FBF1F111F00701029809182868C1
:1009D00081609CE0042600275FF0640A5FF019083C
:1009E0005FF0000922000023A8FB020108FB0311AD
:1009F00009FB0211CDE9000168680021A6FB002374
:100A000006FB013307FB0033DDE9000100F04CFB7E
:100A10006421B0FBF1F0029022000023A8FB020148
:100A200008FB031109FB0211CDE9000168680021F0
:100A3000A6FB002306FB013307FB0033DDE90001C1
:100A400000F032FB834622000023A8FB020108FBD2
:100A5000031109FB0211CDE9000168680021A6FB22
:100A6000002306FB013307FB0033DDE9000100F042
:100A70001BFB6421B0FBF1F00AFB10B00001323027
:100A80006421B0FBF1F010F0F000029910EB0110BE
:100A9000029022000023A8FB020108FB031109FBBE
:100AA0000211CDE9000168680021A6FB002306FBC6
:100AB000013307FB0033DDE9000100F0F5FA83465E
:100AC0002000002102000B00A8FB020108FB03111B
:100AD00009FB02116A68002390469946A6FB082389
:100AE00006FB093307FB083300F0DEFA6421B0FB94
:100AF000F1F00AFB10BA5FEA0A1032306421B0FB51
:100B0000F1F111F00F010298091828688160BDE821
:100B1000F78F0000F369FFFF00100140001401404F
:100B200081B0002000902A48016851F480410160A2
:100B3000006810F480400090009800200090254844
:100B4000016851F080510160006810F08050009001
:100B5000009801B0704710B586B0040001A81421B8
:100B600000F0BAFB20681C4988422ED1002000907A
:100B70001748016851F010010160006810F0100082
:100B800000900098002000901448016851F0010185
:100B90000160006810F00100009000984FF4C06000
:100BA000019002200290002003900320049007206F
:100BB000059001A90A4800F0AFFB00220021252082
:100BC00000F031FD252000F03FFD06B010BD000013
:100BD00044380240403802400010014030380240A2
:100BE0000000024001480068704700BFCC010020AF
:100BF00070B50400A56DFFF7F5FF060094F8350009
:100C0000022806D080206065002084F8340001208E
:100C10003BE02068006830F016002168086020681A
:100C2000406930F0800021684861206C002802D1C2
:100C3000A06C002805D02068006830F0080021680A
:100C4000086020680068400840002168086020684B
:100C50000068C0070ED5FFF7C5FF801B0628F6D336
:100C600020206065032084F83500002084F83400DB
:100C700003200AE03F21E06D8140A960012084F853
:100C80003500002084F83400002070BD90F8351045
:100C9000022903D080214165012009E0052180F867
:100CA00035100168096849084900006801600020A2
:100CB000704770477047704710B500686E498842AA
:100CC00009D16E4C012221006D48FFF7FAFA217814
:100CD0006C4800F0DAFC10BD10B50400200000F0F4
:100CE00001FD0A23020092B221006548FFF789FA4C
:100CF00010BD10B500F012FD00F02CF800F089F8DE
:100D000000F06DF801225D495D48FFF7DAFA5D48B1
:100D100000F0B4FC00F01CFD5B48FFF7DDFF00F0C5
:100D20001FFD5A4C00224FF48051200000F0DFFBE1
:100D3000642000F0E7FF01224FF48051200000F012
:100D4000D6FB642000F0DEFF4FF40051200000F0DD
:100D5000D8FBE4E780B592B006A8302100F0BCFAD9
:100D600001A8142100F0B8FA00200090484801685A
:100D700051F080510160006810F0805000900098A0
:100D8000002000904348016851F4804101600068F0
:100D900010F48040009000980220069001200990F5
:100DA00010200A9000200C9006A800F0BFFF002839
:100DB00001D000F073F80F20019000200290002075
:100DC00003900020049000200590002101A800F06D
:100DD00067F8002801D000F061F813B000BD80B5BD
:100DE0002748254901605FF4E131416000218160BD
:100DF0000021C160002101610C214161002181615C
:100E00000021C161FFF7C0F9002801D000F046F8C9
:100E100001BD10B586B001A8142100F05DFA0020D4
:100E200000901D48016851F001010160016811F056
:100E300001010091009900210091016851F04001E9
:100E40000160006810F04000009000980F4C0022F4
:100E50004FF44051200000F04AFB4FF44050019005
:100E600001200290002003900020049001A920009E
:100E700000F052FA06B010BD00100140D001002071
:100E80000001002048010020002300080018024053
:100E900040380240007000403038024072B6FEE731
:100EA0002DE9F04104000E00002C01D1012092E058
:100EB000564D286810F00700B04207D22E702868FF
:100EC00010F00700B04201D0012084E020788007B4
:100ED00016D52078400704D54D48016851F4E051FB
:100EE00001602078000704D54948016851F4604149
:100EF000016047490A6832F0F002A06802430A60C4
:100F00002078C00735D56068012805D141480068C0
:100F1000800313D401205EE06068022802D060687C
:100F2000032805D13B480068800107D4012052E026
:100F300038480068800701D401204CE0344F3968FC
:100F400089088900606801433960FFF74BFE8046DD
:100F5000386810F00C006168B0EB810F09D0FFF722
:100F600041FEB0EB080041F289318842F0D3032002
:100F700031E0286810F00700864207D22E702868FA
:100F800010F00700B04201D0012024E02078400793
:100F900006D51F490A6832F4E052E06802430A604D
:100FA0002078000707D51A48016831F460412269AA
:100FB00051EAC201016000F037F81749144A12687B
:100FC000C2F30312895CC8401449086014480068E1
:100FD00001F08EF80020BDE8F081104800687047ED
:100FE00080B5FFF7FAFF0F49094A1268C2F382225F
:100FF000895CC84002BD80B5FFF7EFFF0949044A8C
:101000001268C2F34232895CC84002BD003C024013
:10101000083802400038024018230008040000206D
:10102000000000205C23000810B5002000200020F4
:1010300000201948006810F00C00002804D0042893
:1010400004D0082804D025E0144824E0144822E005
:10105000144C226812F03F022068400209D5206833
:10106000C0F388100E49A1FB0001002300F01CF81A
:1010700008E02068C0F388100849A1FB00010023A4
:1010800000F012F82168C1F30141491C4900B0FB8E
:10109000F1F000E0014810BD083802400024F400DF
:1010A00040787D0104380240BBBBE1B1B2F5803F1E
:1010B00080F07E80022A1ED98C46B1FBF2F102FB41
:1010C00011C31B0443EA1043B3FBF2FC02FB1C33C5
:1010D00080B240EA0343B3FBF2F002FB103240EA75
:1010E0000C4000237047022A05D98446B0FBF2F079
:1010F00002FB10C270474AB105D100F00102490855
:101100005FEA3000704700220023704701F016B8F4
:101110000B000200002100207047904271EB030C8D
:10112000F6D3B3F5803F2FD2F0B5B3FA83F7B1FA17
:1011300081F4A7F10F0E3D1B5340CEF1200602FAB9
:101140000EF2F3415340B5F10F0746D80F3C2C4443
:101150004140C4F12006A040F1414140B1FBF3F60B
:1011600003FB1611A2FB0645001BA94102D2761E05
:101170008018594180EA010221FA0EF362FA0EF258
:1011800000215A403046F0BD30B4B1FBF3FC03FB04
:101190001C11A2FB0C45001BA94103D2ACF1010CB0
:1011A0008018594130BC02460B466046002170470A
:1011B000B2F1807F65D3F0B5B2FA82F7B1FA81F46B
:1011C000C7F10F063D1B22FA06F307F1110EF2419B
:1011D00020355A40B5F10F07B8D94140C4F1200677
:1011E000A040F1414140B1FBF3FC03FB1C11A2FB09
:1011F0000C45001BA94103D2BCF1010C80185941D8
:101200000F2F12D30F3FC90341EA5041B1FBF3F650
:1012100003FB1611A2FB0645D4EBC030A94102D254
:10122000761E8018594146EACC3C07B34140C7F1CD
:101230002006B840F1414140B1FBF3F603FB161123
:10124000A2FB0645001BA94102D2761E8018594117
:1012500080EA010221FA0EF3C7F1200462FA0EF2CD
:101260000CFA07F05A402CFA04F13043F0BD80EA42
:10127000010221FA0EF3002162FA0EF260465A4092
:10128000F0BD8C46B1FBF2F102FB11C31B0243EA35
:101290001063B3FBF2FC02FB1C331B024CEA002080
:1012A00043EA1063B3FBF2FC02FB1C331B024CEA63
:1012B000002043EA1063B3FBF2FC02FB1C331B0269
:1012C0004CEA002043EA1063B3FBF2FC02FB1C3241
:1012D0004CEA002000237047002200F031BF30B4F8
:1012E000002513E050F8042BD30744BFA9F10103F4
:1012F0009A18091F042942F8045BFAD213468C0796
:1013000044BF15809B1CC90748BF1D7050F8041BC3
:101310000029E7D130BC7047F8B400220022002237
:10132000002337E0082704E0DFF8EC219042F9D1F0
:101330000727FFB213F00302D2B2920097403E4358
:101340001A00920845F82260DFF8D0512A68A243BB
:101350004E68F60200D522432A60DFF8C4512A689D
:10136000A2434E68B60200D522432A60DFF8B4518A
:101370002A68A2434E68B60300D522432A60DFF8EC
:10138000A8512A68A2434E68F60301D514432200EF
:101390002A605B1C102B80F0A880012515FA03F24F
:1013A0000C6814409442F4D10A7912F00302012A25
:1013B00004D00A7912F00302022A16D186680327A4
:1013C0001A00D2B252009740BE43CF681A00D2B280
:1013D000520097403E43866042689D40AA434D6854
:1013E000C5F300159D402A4342600A7912F00302BA
:1013F000032A0DD0C56803261A00D2B252009640C7
:10140000B5438E681A00D2B2520096403543C5608B
:101410000A7912F00302022A17D11A00D20800EB4F
:101420008202156A0F2613F00702D2B2920096408C
:10143000B5430E6913F00702D2B2920096403543CD
:101440001A00D20800EB82021562056803261A0012
:10145000D2B252009640B5430E7916F003061A0038
:10146000D2B252009640354305604A6812F4403FBC
:101470008FD0002200922D4A156855F480451560E2
:10148000126812F480420092009A294D1A009208C4
:1014900055F822600F2713F00302D2B29200974052
:1014A000BE43244A904201D1002742E7224A90429B
:1014B00001D101273DE7214A904201D1022738E7B7
:1014C0001F4A904201D1032733E71E4A904201D1BF
:1014D00004272EE71C4A904201D1052729E71B4A21
:1014E00090427FF421AF062723E7F1BC7047D2B2C8
:1014F000002A02D089B2816102E089B209048161C7
:10150000704742690B009BB2134089B2914351EA84
:101510000341816170470000001C0240083C01400B
:101520000C3C0140043C0140003C01404438024076
:101530000838014000000240000402400008024058
:10154000000C02400010024000140240001802404B
:1015500010F00700414B1A684FF6FF010A4040495E
:1015600051EA00210A431A6070473C480068C0F302
:1015700002207047010049B2002908D4012210F06E
:101580001F018A40374940B2400941F82020704786
:10159000020052B2002A04D40901334A40B2115465
:1015A00007E00901314A40B210F00F00104400F882
:1015B000041C704710B410F00700D0F10703052B8E
:1015C00001D3042301E0D0F10703041D072C01D24D
:1015D000002000E0C01E012414FA03F35B1E194032
:1015E000814014FA00F0401E1040084310BC7047C0
:1015F00080B5411EB1F1807F01D301200EE0401E75
:101600001B4908600F215FF0FF30FFF7C1FF00208A
:1016100018490860072018490860002002BD80B5FD
:10162000FFF796FF01BD70B504000D001600002005
:10163000FFF79BFF32002900FFF7BCFF01002000ED
:1016400040B2FFF7A5FF70BD80B540B2FFF792FF33
:1016500001BD80B5FFF7CCFF02BD00000CED00E03E
:101660000000FA0500E100E000E400E018ED00E011
:1016700014E000E018E000E010E000E0402101701C
:101680000021417000218170704790F902200244CE
:10169000D1708178491C817090F90210402291FB31
:1016A000F2F302FB13118170704710B401000020A7
:1016B00091F9012091F902309A4201D1C0B20FE0B4
:1016C00091F901000844C0784A78521C4A7091F997
:1016D0000120402392FBF3F403FB14224A70C0B2B2
:1016E00010BC704700F10103810704D010F8011B02
:1016F000820781B1FAD10268A2F10131914311F060
:10170000803104BF50F8042FF6E709BAB1FA81F12D
:1017100000EBD100401CC01A7047000080B50B4898
:10172000016851F400710160016851F48061016049
:10173000016851F4807101600320FFF770FF0F20F2
:1017400000F0D6FCFFF7ECF9002002BD003C02409F
:1017500080B50020DFF89815087000F0A1FA01BDEF
:1017600010B5DFF88C452078002808D0022845D035
:1017700008D304285CD054D3052860D063E001204E
:10178000207060E0DFF86C05FFF78FFF0100C9B241
:10179000002932D00100C9B20D2903D00100C9B21D
:1017A0000A291AD194F8411003290EDB94F841104C
:1017B0002144487094F84100401C84F84100002006
:1017C00084F841000220207017E0002084F84100D6
:1017D0004021601C00F0E5FC0FE094F84110402926
:1017E00002D3002184F8411094F84110214448703C
:1017F00094F84100401C84F8410024E014F14201B7
:10180000601C00F0BAF8012808D194F850000028B4
:1018100001D0032000E00420207001E005202070AA
:1018200011E014F1420000F0F2F9042020700AE007
:1018300014F1420000F0F4F90520207003E000F0FC
:101840002FFA0120207010BD0100C9B22D290BD044
:101850000100C9B22E2907D00100C9B22C2903D03A
:10186000C0B230380A2801D2012000E000207047C1
:10187000F8B505000C0000260020002D01D0002C3A
:1018800001D100200EE02778641C3800C0B2FFF7B9
:10189000DBFF002802D02F706D1C761CFFB2002FDA
:1018A000F1D13000F2BD70B41400002805D0002939
:1018B00003D02200D2B2002A03D1002027E0401C2E
:1018C000491C2200541ED2B2002A1FD002781500F3
:1018D000EDB2252D0CD10A78B2F130052A00D2B232
:1018E000002A11D02A00D2B2072A0DDA1D700A7818
:1018F00015000E78EDB2B542E1D0D2B20D78203DA0
:10190000AA42DCD0002002E0002000E0012070BCF0
:1019100070472DE9F84304000D00002600E0761C16
:101920003000C0B2022824D2200000F032FC8146F0
:101930000D27DFF8C4833000C0B278434044401C18
:1019400000F027FC8145EAD1200000F022FC0200D3
:101950002B00D2B221003000C0B207FB00F708EB29
:101960000700401CFFF79FFF0028D8D0300040B28E
:1019700001E05FF0FF30BDE8F283F8B58CB0050000
:101980000C00002601A800210022002380E80E00A0
:1019900004A82021FFF7A0FC002200230021002042
:1019A0002F783000C0B2002807D0022800F0BB809A
:1019B00036D3032800F0DA80CBE03800C0B24128EB
:1019C0000BD03800C0B2542807D03800C0B261280C
:1019D00003D03800C0B2742821D101A894465FFA20
:1019E0008CFC00F80C70521C94465FFA8CFCBCF125
:1019F000020F14DB9DF804C0BCF1410F04D09DF828
:101A000004C0BCF1610F09D190F801C0BCF1540FC2
:101A100002D04078742801D1012600E0022198E02C
:101A20003800C0B2202802D1022600237AE010003C
:101A3000C0B2092860DB9DF80400412803D09DF85E
:101A40000400612858D101A890F801C0BCF1540FDE
:101A500004D090F801C0BCF1740F4DD190F802C0D1
:101A6000BCF1430F04D090F802C0BCF1630F43D126
:101A700090F803C0BCF1530F04D090F803C0BCF140
:101A8000730F39D190F804C0BCF14D0F04D090F819
:101A900004C0BCF16D0F2FD190F805C0BCF14F0F01
:101AA00004D090F805C0BCF16F0F25D190F806C0A6
:101AB000BCF1440F04D090F806C0BCF1640F1BD1F8
:101AC00090F807C0BCF1450F04D090F807C0BCF1F6
:101AD000650F11D190F808C0BCF14C0F02D0007A0C
:101AE0006C2809D10226002304A89C465FFA8CFCCE
:101AF00000F80C705B1C15E03800C0B20D2803D054
:101B00003800C0B20A2801D103260BE01000C0B291
:101B10000B2800D3002201A894465FFA8CFC00F841
:101B20000C70521C15E03800C0B20D2803D03800EC
:101B3000C0B20A2801D103260BE01800C0B2202849
:101B400000D3002304A89C465FFA8CFC00F80C70BC
:101B50005B1C3800C0B2002800D06D1CFFB2002F03
:101B60007FF41EAF0800C0B20DB0F0BD00208DF8AC
:101B70000000694601A8FFF7CCFE010049B2002928
:101B800043D49DF8001021700D215B4A03005BB225
:101B900013FB01F3D35CA37040B210FB01F01044BF
:101BA000007B84F8AF0001A9E01C00F0E2FA94F891
:101BB000AF00002805D002280ED005D3032817D087
:101BC00021E00020A0731EE004A914F10F00FFF72C
:101BD0004FFE0120A07316E004A914F10F00FFF7D7
:101BE00047FE002801D0012000E00020A0730AE099
:101BF00004A914F10F0000F0BCFA002801D0012064
:101C000000E00020A0730120AEE70220ACE70178DD
:101C1000491E002901D5002001E00078401E7047D0
:101C200070B504002078401E002801D5002001E096
:101C30002078401E314DE11C280000F09AFA060081
:101C400020203100C9B26854761CA078012802D047
:101C500002280BD011E04F203100C9B26854761C25
:101C60004B203100C9B26854761C06E0244930008C
:101C7000C0B2284400F07DFA86190D203100C9B2A7
:101C80006854761C0A203100C9B26854761C0020C2
:101C90003100C9B26854761C2800FFF71DF870BDEA
:101CA00010B5134C002084F84100002084F8420055
:101CB000002084F84300002084F84400002084F8C9
:101CC0005000002084F8F1004021601C00F069FA07
:101CD0000B2114F1450000F064FA202114F15100A9
:101CE00000F05FFA4021054800F05BFA10BD0000EB
:101CF0000C00002048010020E42200088C01002094
:101D00005423000838B50400FEF76CFF050014F1F9
:101D1000010F02D0044800782418FEF763FF401B2F
:101D2000A042FAD331BD00BF080000202DE9FC41DC
:101D30000400002C01D10120C4E12078C0075FD548
:101D4000DFF88403016811F00C01042909D0006850
:101D500010F00C0008280ED1DFF870030068400274
:101D600009D5DFF86C030068800349D56068002856
:101D700046D10120A6E16068B0F5803F06D1DFF8CA
:101D80005003016851F48031016018E06068B0F5DB
:101D9000A02F0AD1DFF83803016851F480210160D7
:101DA000016851F48031016009E0DFF82403016823
:101DB00031F480310160016831F480210160606894
:101DC00000280ED0FEF70EFF0500DFF804030068C0
:101DD000800315D4FEF706FF401B6528F5D30320CA
:101DE00070E1FEF7FFFE0500DFF8E4020068800303
:101DF00006D5FEF7F7FE401B6528F5D3032061E109
:101E0000207880071DD5B048016811F00C0F08D06C
:101E1000006810F00C0008282AD1AC480068400285
:101E200026D4AB480168890704D5E168012901D0AF
:101E3000012047E1016831F0F801226951EAC2014D
:101E400001602078000751D5606900283DD001204D
:101E5000A0490860FEF7C6FE05009F48006880079D
:101E600044D4FEF7BFFE401B0328F6D3032029E12C
:101E7000E068002818D0012098490860FEF7B2FEFB
:101E8000050093480168890706D4FEF7ABFE401BA6
:101E90000328F6D3032015E1016831F0F801226927
:101EA00051EAC2010160CCE700208C490860FEF7CE
:101EB00099FE0500864800688007C2D5FEF792FEAD
:101EC000401B0328F6D30320FCE000208149086072
:101ED000FEF788FE050080480068800706D5FEF7FB
:101EE00081FE401B0328F6D30320EBE02078400757
:101EF0006FD500267A4D2868C0000BD400200090D2
:101F0000286850F080502860286810F080500090B9
:101F100000980126734F3868C00511D4386850F412
:101F200080703860FEF75EFE80463868C00507D4D2
:101F3000FEF758FEB0EB08000328F6D30320C1E0FB
:101F4000A068012805D16848016851F001010160CD
:101F500015E0A068052809D16348016851F0040123
:101F60000160016851F00101016008E05E4801680C
:101F7000490849000160016831F004010160A0686E
:101F800000280FD0FEF72EFE070057480068800794
:101F900018D4FEF727FEC01B41F289318842F4D3E2
:101FA00003208FE0FEF71EFE07004F480068800701
:101FB00008D5FEF717FEC01B41F289318842F4D3E1
:101FC00003207FE0F6B2012E03D1286830F0805064
:101FD0002860A069002874D03B48006810F00C000D
:101FE000082843D0A06902282FD1404E002030603D
:101FF000FEF7F8FD0700364D2868800106D5FEF78C
:10200000F1FDC01B0328F6D303205BE0E169206AE1
:102010000143606A51EA8011A06A4008401E51EAFB
:102020000041E06A51EA0061284801600120306007
:10203000FEF7D8FD04002868800142D4FEF7D2FDE7
:10204000001B0328F7D303203CE000202749086049
:10205000FEF7C8FD04001E480068800131D5FEF778
:10206000C1FD001B0328F6D303202BE0A069012843
:1020700001D1012026E015480068A16901291ED080
:1020800010F48001E269914219D110F03F01226AF7
:10209000914214D147F6C0710140626AB1EB821FD0
:1020A0000DD110F44031A26A5208521EB1EB024F1A
:1020B00005D110F07060E16AB0EB016F01D0012032
:1020C00000E00020BDE8F6810838024004380240F4
:1020D00000380240800E47427438024000004742F8
:1020E00040380240007000407038024060004742B3
:1020F00010B504004FF47A700D490978B0FBF1F087
:102100000C490968B1FBF0F0FFF7A3FA002801D0F1
:1021100001200CE0102C09D2002221005FF0FF30DA
:10212000FFF781FA04480460002000E0012010BDA0
:10213000080000200400002000000020704700007C
:1021400000B500BF130096469446103928BFA0E89A
:102150000C50FAD85FEA417C28BF0CC048BF40F859
:10216000042BC90728BF20F8022B48BF00F8012B19
:1021700000BD03000020002901D0002B01D107E0A1
:10218000401C0A78491C1A705B1CD2B2002AF7D195
:102190007047020000E0521C11780029FBD1101A90
:1021A0007047002803D0002901D0002903D506E09C
:1021B00000220270401C0A00511E002AF8D170470C
:1021C00030B450F8041B79B1026843680244083007
:1021D000DC0744BFA9F10104E31852F8045B43F89B
:1021E000045B091FF9D1ECE730BC7047FEE7FEE75E
:1021F000FEE7FEE7FEE770477047704780B500F0E6
:1022000009F801BD80B50248FEF770F801BD000075
:102210000001002003480168034A12788918016010
:10222000704700BFCC0100200800002010B507490E
:1022300079441831064C7C44163404E00A68081DC1
:10224000114488470146A142F8D110BD2C0000007E
:102250004C0000004EF68851CEF20001086840F4B0
:1022600070000860BFF34F8FBFF36F8F4FF00070A7
:10227000E1EE100A7047000067F0FFFFC8010000A0
:102280000C0000200000000039FFFFFF0C000000E0
:1022900014020000000000200000000000F00DF813
:1022A000002801D0FFF7C2FFAFF300800020AFF39A
:1022B0000080FEF71EFD00F002F80120704700F0DC
:1022C00001B800000746384600F002F8FBE70000BE
:1022D00080B5AFF30080024A11001820ABBEFBE7C7
:1022E00026000200014154435A0000000000000093
:1022F0000002415443564552000000000000000017
:10230000707574735F554152542066756E63207406
:1023100065737421200D0A00000000000000000019
:1023200001020304060708090148804701480047E5
:1023300039230008492300080248016851F470015C
:102340000160704788ED00E0AFF30080FFF782FF87
:10235000FFF7A4FF4A4D505F3076310000000000C7
:1023600001020304FFF7FEBFFFF7FEBFFFF7FEBF4A
:10237000FFF7FEBFFFF7FEBFFFF7FEBFFFF7FEBF91
:10238000FFF7FEBFFFF7FEBFFFF7FEBFFFF7FEBF81
:10239000FFF7FEBFFFF7FEBFFFF7FEBFFFF7FEBF71
:1023A000FFF7FEBFFFF7FEBFFFF7FEBFFFF7FEBF61
:1023B000FFF7FEBFFFF7FEBFFFF7FEBFFFF7FEBF51
:1023C000FFF7FEBFFFF7FEBFFFF7FEBFFFF7FEBF41
:1023D000FFF7FEBFFFF7FEBFFFF7FEBFFFF7FEBF31
:1023E000FFF7FEBFFFF7FEBFFFF7FEBFFFF7FEBF21
:1023F000FFF7FEBFFFF7FEBFFFF7FEBFFFF7FEBF11
:10240000FFF7FEBFFFF7FEBFFFF7FEBFFFF7FEBF00
:10241000FFF7FEBFFFF7FEBFFFF7FEBFFFF7FEBFF0
:10242000FFF7FEBFFFF7FEBFFFF7FEBFFFF7FEBFE0
:10243000FFF7FEBFFFF7FEBFFFF7FEBFFFF7FEBFD0
:10244000FFF7FEBFFFF7FEBFFFF7FEBFFFF7FEBFC0
:10245000FFF7FEBFFFF7FEBFFFF7FEBFFFF7FEBFB0
:10246000FFF7FEBFFFF7FEBFFFF7FEBFFFF7FEBFA0
:10247000FFF7FEBFFFF7FEBFFFF7FEBFFFF7FEBF90
:10248000FFF7FEBFFFF7FEBFFFF7FEBFFFF7FEBF80
:10249000FFF7FEBFFFF7FEBFFFF7FEBFFFF7FEBF70
:1024A000FFF7FEBF100000000024F4000100000050
:040000050800234983
:00000001FF
