:020000040800F2
:10000000F8AE002029B30008DFB20008E1B2000812
:10001000E3B20008E5B20008E7B200080000000003
:1000200000000000000000000000000065B30008B0
:10003000E9B200080000000069B30008EBB2000854
:100040006DB3000871B3000875B3000879B30008F8
:100050007DB3000881B30008EFB2000885B3000843
:1000600089B300088DB3000891B3000895B3000868
:1000700099B300089DB30008A1B30008A5B3000818
:10008000A9B30008ADB30008B1B30008B5B30008C8
:10009000B9B30008BDB30008C1B30008C5B3000878
:1000A000C9B30008CDB30008D1B30008D5B3000828
:1000B000D9B30008DDB30008E1B30008E5B30008D8
:1000C000E9B30008EDB30008F1B30008F5B3000888
:1000D000F9B30008FDB3000801B4000805B4000836
:1000E00009B400080DB4000811B4000815B40008E4
:1000F00019B400081DB4000821B4000825B4000894
:1001000029B400082DB4000831B4000835B4000843
:1001100039B400083DB4000841B4000845B40008F3
:1001200049B400084DB4000851B4000855B40008A3
:1001300059B400085DB4000861B4000865B4000853
:1001400069B400086DB4000871B4000875B4000803
:1001500079B400087DB4000881B4000885B40008B3
:1001600089B400088DB4000891B4000895B4000863
:1001700099B400089DB40008A1B400080000000074
:10018000A5B40008A9B400082DE9FF470500DFF871
:10019000149B06D109F1280383220FF2844100F059
:1001A0001DFDDFF8D87A68683862698914293DDB5B
:1001B000DFF8CC6A3168706901F09EF8002840F0E1
:1001C000F781307D00F0F000E02800F0F181386A1E
:1001D00000F05EFD000B81001429A4BF288988422D
:1001E00024DBA1F114000022B8827A626B898B4271
:1001F00004DBF882284601F04CFA36E0286830B972
:1002000009F12803C2220FF2304100F0E7FC14216B
:10021000284601F03EFA6989BC8AF9822846641AA8
:1002200001F037FA28684189A4B2A142C0F2C08126
:1002300042687A62214601F02CFA298968890C1BF0
:100240002C8130B109F12803DF220FF2FC3100F0DC
:10025000C5FC296828890A89904206D009F128033B
:10026000E0220FF2F03100F0B9FC386A008801F0AA
:100270008BFC396A0880488801F086FC396A48801E
:1002800000F002FD396A4860B862396A886801F096
:1002900081FC396A8860F862386AC08901F074FCB0
:1002A000396AC88100F003FF00F03F0038703978E8
:1002B0002889B88311F0030F05D0411CB98389B296
:1002C0008142C0F07581DFF8BCA9DAF800404FF038
:1002D000000801E0A046E468002C00F07181207D58
:1002E00030B909F12803FB2209F17C0100F076FC0A
:1002F000207D0A2806D109F12803FC2209F1A40176
:1003000000F06CFC207D012806D109F12803FD22B4
:1003100009F1D00100F062FC207A10B100F0B8F9C8
:10032000D8D1386A218B0288914202BFE18A408885
:100330008142CFD161683069814202BF2168706912
:100340008142C7D1E168A14207D109F1280340F2F7
:100350000D1209F1F80100F041FCB8F1000F07D0CF
:10036000E068C8F80C00DAF80010E160CAF8004054
:10037000E068A04207D109F1280340F2151209F5FF
:10038000927100F02BFC002078602989386AB981CD
:1003900038610021396379707983BD60387801074D
:1003A00003D5687B40F0010068736FF00C06606F46
:1003B000002809D0204602F0D7F8B04205D0606F7F
:1003C00000281CBFB88B002870D0608D002802D197
:1003D000204603F0DFF8E1E0E468002C00F0F48050
:1003E000207D0A2807D009F1280340F21F1209F5E1
:1003F000A87100F0F3FB207A10B100F049F9EBD1BD
:10040000386A218B0288914202BF4388E08A984271
:10041000E2D161683069814202BF2168706981421E
:10042000DAD13978480727D4B88B5FEA817816D5B6
:10043000D7F82880616AB8EB010C16D4218DACEB9B
:100440000101002911DC0292019306F110020092D1
:1004500008EB0002F96A06F114032046D1E0C9074F
:1004600003D5DFF87C2C13682362002804D000F049
:10047000A7FB204602F01DFD9AE0017A31B17468B5
:1004800094F83040641CE4B2A1420CD1C18A5C886B
:10049000A14208D101687469A14218BF002818BFA1
:1004A000002900F0B1800246C06893E07C632046DA
:1004B00000F0AAF9B04271D0787801070ED5D4F8CF
:1004C0008C201AB120696FF00D01904721465046EB
:1004D00002F0AEF9204601F093FB5FE07A8B42B167
:1004E000E36F23B1206921469847B04256D00020DF
:1004F0007883204600F0D3F800284FD1386B38B30A
:10050000606F30B109F128034FF4F37259A100F084
:1005100065FBA07E3A6BC10606D5104601F0EAF8ED
:10052000204601F071FD39E0D4F880C0BCF1000F25
:1005300004D0206900232146E04704E0002321463F
:10054000002002F06AF8B04228D008B1386B60672A
:100550007878810619D5606F20B1417B41F0200188
:10056000417312E0208D40F6683188421CBF401C68
:100570002085D4F880C0BCF1000F06D0206900238C
:1005800000222146E047B04208D000207863204690
:1005900000F085F810B9204602F08BFC002078634B
:1005A0003863B86850B101F0A5F80020B86005E0E4
:1005B000284604B0BDE8F04701F09CB8BDE8FF87CD
:1005C000DFF8A40B046808E7DFF8A08B3B6AD8F8D3
:1005D0000000002200287FF450AF988901F0D4FA7F
:1005E0004007E5D4386A0188029106F1100240887C
:1005F000B98B0190009206F11403B86A4218F96AA7
:10060000002002F086FFD3E732B1C168D160D8F88C
:100610000020C260C8F8000000F069F8C8E70000D8
:100620007463705F696E7075743A20696E76616C80
:100630006964207062756600702D3E6E6578742066
:10064000213D204E554C4C00702D3E6C656E203D7A
:100650003D203000702D3E746F745F6C656E203DE0
:100660003D20702D3E6E6578742D3E746F745F6C06
:10067000656E00007063622D3E7265667573656419
:100680005F64617461203D3D204E554C4C0000007C
:10069000716891F83020521CD2B29042704710B568
:1006A000040009D1DFF8FC0500F1280340F25A22CA
:1006B00000F5C07103F026F9DFF8C0255078C106B7
:1006C00013D5A07EC10606D4D4F88C201AB12069B7
:1006D0006FF00E0190472146DFF8A80502F0A8F858
:1006E000204601F08DFA012010BD002010BDFEB59E
:1006F000DFF8886504463078410720D44CB9DFF82C
:10070000A4050FF6782100F1280340F2812203F0BE
:10071000F9F83078DFF86875C10611D5306A0188BC
:10072000029107F110024088B18B0190009207F10D
:100730001403B06A4218F16A204602F0EAFEF7BDDF
:1007400080075FD5607D01F0B2FF05000AD1A36983
:10075000002B57D0206903B0BDE8F0404FF0FF32C6
:10076000002118477869286003223969696005F11A
:100770006007E08AE882316A088828832A75B06AAF
:10078000401C6862E862284602F0A2F8A865286565
:100790006864E865B06A401E686520692861BC61CC
:1007A000607A00F00C006872207A2872DFF8D404B6
:1007B0000168E960056003F0CDF8DFF8B4190120A5
:1007C0000870284600F08EFC306AC0893880788036
:1007D000281D03F073F90146688E2A1D02F089F87E
:1007E00068861221284602F0D1FA30B1284603B0BB
:1007F000BDE8F040002101F091BB2846BDE8FE4075
:1008000002F057BBF7BD00002DE9F84F040084B09B
:10081000DFF8909407D109F128034FF447720FF6DF
:100820007C1100F0DBF9DFF854542878410704F11B
:10083000440729D5207D022805D1E86AF968884255
:1008400040F0BA810CE0616AAA6A8A4214D138B9D0
:1008500009F128034FF44E720FF65C1100F0BEF957
:10086000687840F0080068704FF6FE70618B0140B8
:1008700061836FF00D00A0E1511A00F19D81208D80
:10088000091A0029DCDC9CE0800704D5207D0228C1
:1008900018BF0328F7D1A07EC10603D4DFF84008B3
:1008A0000268226204F19600002141700170204626
:1008B00000F018FCAA6AA88B95F800A0DFF8C0E346
:1008C000DFF8C063101803900AF0100094F814B019
:1008D0002B6AE96AABF1020BBBF1070F41F21C185E
:1008E00071D8DFE81BF008008A00E600EF001B016A
:1008F000E6002C0159010AF01205122D02BF3E68D4
:10090000761CB14260D1501C6062E0623960521EB8
:10091000D889B883F8833A6104202075201D03F03C
:10092000CDF80146608E221D01F0E3FF42004245F2
:100930008CBF1346434660868100994238BF8000D1
:1009400003D342458CBF40004046B880788C38B90C
:1009500009F128034FF45B720FF67C0100F03EF9B9
:10096000788CD7F82C80411EB8F1000F798410D113
:10097000D7F82880B8F1000F07D109F128034FF408
:100980005D720FF66C0100F029F9D8F80000B8622A
:1009900002E0D8F80010F962404601F030FEF86A33
:1009A00000280EBF4FF0FF30002084F84200208660
:1009B0003B6C33B1206900222146984710F10D0F9E
:1009C00041D000F0FDF8F7E00028FCD01888029034
:1009D00020465A8801920EF1100300930EF1140381
:1009E000039A02F096FD94F84200062804DA0021EA
:1009F0002186204602F04FFCDEE000284ED0386809
:100A0000081A401E3CD4F868081A002838DC042173
:100A10002175786BA0B1806938B909F128034FF4CA
:100A20006A720FF2E07100F0D9F8786B83693BB11C
:100A3000206900222146984740B110F10D0F02D0E5
:100A4000204601F0E1FA6FF00C00B6E000F0C4F8C7
:100A5000688B08B1401E6883608E420042458CBF9F
:100A6000134643468100994238BF800003D3424574
:100A70008CBF40004046B880687881061ED49BE059
:100A80001888029020465A8801920EF110030093B4
:100A90000EF11403039A02F03CFD8DE05FEA8A70C8
:100AA000FBD5616A491E8A4202D1204602F009FC48
:100AB00082E000F091F8687881067DD500F080F83A
:100AC000072129E000F088F86A782878E96A930617
:100AD00000F0100017D590B1FA68914204BFB86ACF
:100AE00000280CD100F071F83068A04239D000E045
:100AF0000846002840D0C168A142F9D13AE000F090
:100B00005FF8082108E0002856D0FA68914204BF37
:100B1000B86A002850D1062121754DE000F05CF83C
:100B20006878810648D500F050F83068A04218D0A7
:100B300000E0084600B3C168A142FAD11AE000F013
:100B40004BF82878C10637D5E86AF968884204BFAF
:100B5000B86A002830D1204601F03DFE3068A0423E
:100B600004D13068C168316006E0084620B1C16830
:100B7000A142FAD1E168C1600020DFF8F425E0600D
:100B8000012111700A202075DFF8DC050168E160A1
:100B9000046002F0DFFE0FE000F01EF82878C106C6
:100BA0000AD5E86AF968884204BFB86A002803D108
:100BB000687840F010006870002005B0BDE8F08F44
:100BC000608B40F0020060837047608B40F0020051
:100BD0006083204601F0FFBD20465DE0484602F0FC
:100BE00091BE2DE9F04780460C461D46DFF8B490D3
:100BF000224F002C3FD0E16800F046F80646E0683E
:100C000000F046F810F003002189FA6A18BF0120AD
:100C100071184018801A01282DDA26462468706859
:100C200000F0C1FD8246B8F86600504507DA09F1C8
:100C3000280340F2574209F5D471FFF7CFFFB8F807
:100C40006600A0EB0A00A8F86600798B308941188D
:100C50007983304601F0D3FCB8F866000028C8D08C
:100C6000002CC6D13DB90FF2BC5109F1280340F266
:100C70006242FFF7B3FF2046BDE8F08724A60020BC
:100C80007CA6002080020020486800F083BF306905
:100C9000808900F079BF00002DE9F8430400DFF8F7
:100CA000048001E0D8A1000807D108F1280340F230
:100CB0007B420FF2905100F0FDF9207D042807DA05
:100CC00008F1280340F27C420FF2945100F0F2F94F
:100CD000DFF8A0643078C1064FF6FF7940F1078154
:100CE00004F14405B06A2F69D5F814E0B5F81CC0CA
:100CF000336AF16A3F1A0EEB0C0208D402D1BEEB44
:100D0000010704D48E4512D1DF89BC450FD2DB899F
:100D1000AB8304F1440704F14403B3F81CC0FB8B1C
:100D200028619C4538BF9C46A5F81EC0696104F146
:100D300042032F68C81B002829DCB08B002801BFA4
:100D40006869B5F81CE0704490421DD1B4F93000D8
:100D5000002819D48F4217D15878411CCAB290424A
:100D600038BF59705878042808DBA988628E521859
:100D700093B28B422CBFAA80A5F80490032802DB13
:100D8000204602F0D5FA90E0002058708DE0401E19
:100D900000F18880E868081A002800F38380628BDD
:100DA000500707D54FF6FB70024062830020EA88A7
:100DB000AA80E88400221A70B4F93C00B4F93E20FD
:100DC00002EBE002A4F84020002228685A70296053
:100DD000081A217D042929DBA988EA88914210D2CA
:100DE000638B1A054CBF01220222638E96461EFBBE
:100DF00003FE87B21FFA8EFE774510D31046584384
:100E00000DE0EA8C801883B293422CBFE884A5F8E9
:100E10002690E88C884209D3401AE884608E4018F6
:100E200082B28A422CBFA880A5F80490AB6AE96A16
:100E30000FF248422046FFF7D4FE0346EB622046FD
:100E4000A96A0FF24042FFF7CCFEA862E86A0028C8
:100E50000CBF4FF0FF300020208600202077A86ACA
:100E600008B90021A9842A8C718B8A182A84628B84
:100E700011051AD5E96A41B970B1C168FFF704FFDD
:100E8000A968081A002810DC06E0C968FFF7FCFE14
:100E9000A968081A002808DC618B4FF2FF70014036
:100EA000618302E0204602F075FB606BF8B1A26B33
:100EB000F16A521A1BD58A4A1368B4F93C10B4F986
:100EC0003E20181A00B2A0EBE10005B24118002D37
:100ED00048BF4042A1878018A0EBA200E087090428
:100EE000C91401FA80F00021A4F840006163B08BBE
:100EF000B16A002800F0CD80227D072A80F2C980E7
:100F0000626A571A7B1E3CD4381A401C39DCB5681B
:100F10003DB908F1280340F294520FF2703100F00D
:100F2000C9F84F4507D308F1280340F295520FF254
:100F30006C3100F0BFF8B0680189BFB2B94207DA7E
:100F400008F1280340F297520FF2603100F0B2F836
:100F5000B089C01BB081B1680889C01B05E0288139
:100F60007F1A00216981BFB22D686989B942F6DB19
:100F70003946284600F08DFB606AB06231694860EE
:100F800003E0891A01D5FFF71BFE616AB26A531AA2
:100F90007AD4208D1B1A5B1C76DC914274D1FFF74A
:100FA00076FE10F00300B18918BF01204018B0830D
:100FB00080B2228D824237D2FFF769FEC0070CD57E
:100FC00000F074F800F03E0000F0DEFD3269938915
:100FD0004CF2FF010B4018439081208DB08100F04E
:100FE00065F8800703D5B1898944A6F80C90B189CA
:100FF000B06800F0D0FAFFF74AFE10F00300B189A4
:1010000018BF01204018B083B26A616A12FA80F0FA
:10101000228D8A18904207D008F1280340F2CC5262
:1010200008F5E87100F046F8B08BB16A228D091816
:101030008242616280F0078008F1280340F2076273
:101040009EA100F037F8218DB08B091A218520462A
:1010500000F0DCFFB168088910B131630020B06096
:10106000FFF715FEC00703D5717841F020017170BC
:10107000608BC10705D5618B022060F3010161839C
:1010800012E040F001000EE02046BDE8F24302F01D
:1010900081BA606A091A03D4208D091A491C03DD3C
:1010A000608B40F002006083BDE8F183316988897C
:1010B00000F06ABD404602F025BC2E49088B02466E
:1010C000401C0883486A10B1CB8A9A4203DA086A46
:1010D0001044007D7047D21AD2B2805C7047000085
:1010E00074020020F8B5040007D123487BA100F169
:1010F000280340F27D7202F005FC1E4EB58A65B3EE
:101100000020308317E0FFF7D8FF042825D1318B6A
:10111000891C8D4221DBFFF7D0FF0746FFF7CDFF8B
:1011200040EA072040F2B552904201DA010001D1B5
:1011300040F2B4506086308BA8420ED2FFF7BDFF5C
:1011400058B10228DFD0F6D3FFF7B7FF0228A1BFBE
:10115000318B801E41183183EDDAF1BD05484178AD
:1011600041F0100141707047840200207C02002091
:101170007002002024A60020D8A100087463705FCC
:101180006C697374656E5F696E7075743A20696E10
:1011900076616C6964207063620000007463705F44
:1011A00070726F636573733A20696E76616C6964FF
:1011B00020706362000000007463705F696E707578
:1011C000743A207063622D3E737461746520213D12
:1011D00020434C4F534544007063622D3E736E6450
:1011E0005F71756575656C656E203E20300000008E
:1011F0006E6F207365676D656E7420746F20667204
:10120000656500007063622D3E6C697374656E6580
:10121000722D3E61636365707420213D204E554CF4
:101220004C0000007463705F726563656976653AAF
:101230002076616C6964207175657565206C656EDA
:10124000677468007463705F726563656976653A98
:1012500020696E76616C6964207063620000000032
:101260007463705F726563656976653A2077726F43
:101270006E6720737461746500000000756E6163B1
:101280006B656400756E73656E740000696E7365DE
:10129000672E7020213D204E554C4C00696E7361C5
:1012A0006E65206F666673657421000070627566F6
:1012B00020746F6F2073686F727421007463705FA5
:1012C000726563656976653A207463706C656E203B
:1012D0003E207263765F776E640A00007463705F0D
:1012E00070617273656F70743A20696E76616C69B3
:1012F0006420706362000000C24318BF002810D051
:1013000091F82D2093070ED54A6890420BD089683A
:1013100001EA00030A40934202BFC94308408842E1
:1013200001D10120704700207047F0B402461068D8
:1013300095681318506803EB5004C0071DD54D4441
:101340001BE013F8017B05F8017B491EF9D1A0B120
:10135000B60813F8011B06F00306032E08BF13F8A6
:10136000016B01EB06214942801C294405D011F88C
:10137000016B05F8016B401EF9D1A3420ED013F8A2
:10138000016B16F0030104BF13F8011BC91C3009DF
:101390000F28DAD113F8010B0F30D6E7F0BC02F1B9
:1013A0000C00704770B5BDF91050059C0026066012
:1013B0004160057344730121C673028143818173C7
:1013C00070BD2DE9FE4F9246BAF1010F18BFBAF178
:1013D000410F05460F46DFF83C9606D0BAF5C17FAF
:1013E0000AD0BAF5207F59D08CE0002000F093F8A5
:1013F00004462046BDE8FE8F0024A346082002F0E4
:101400001FFD5FEA00083DD0EE1C4FF6FC7140F274
:10141000F4500E40861BB9B2B2B2914238BF3E467C
:1014200000200190CDF800A008EB050000F11001AC
:10143000C91C8908B3B2BAB289004046FFF7B2FFAF
:1014400098F8040010F0030F07D009F1580340F298
:10145000011209F1280100F07EFAED1C40F2F4506F
:10146000AD08B0EB850507D109F1580340F203122E
:1014700009F1A80100F06FFA002C0CBF4446CBF82C
:10148000008004E004B3204600F034F91CE0BF1BE8
:101490000025B8B20028C346B0D1AAE7EA1CF91C5F
:1014A00092088908920002EB810202F1100092B2C8
:1014B000B2EB810F24BF82B2B2EB810F04D380B2B2
:1014C00002F0A0FE040001D1002093E7002001906B
:1014D000CDF800A0601900F11001C91C89083B4635
:1014E0003A4689002046FFF75DFF207910F0030F90
:1014F00007D009F1580340F2231209F1DC0100F092
:101500002AFA76E709F1580340F227120FF2085140
:1015100000F021FAD8E7FEB51746412F18BF012F7A
:1015200005460E4609D0DFF8EC040FF2085100F131
:1015300058034FF4A57202F0E5F9072002F080FC91
:10154000040001D10020FEBD002001900097334629
:10155000324629462046FFF725FF2046FEBD3EB510
:101560001C46C01C079B800801EB8005AB4201D2E2
:1015700000203EBD069B0092002B14BF03EB8000B1
:101580000020022301930A460B4601462046FFF73E
:1015900009FF20463EBD2DE9F04104000E46DFF86C
:1015A000745407D105F158034FF4CC720FF29841EF
:1015B00000F0F6F82789BE4238D2BF1BBFB20FF247
:1015C000A0480CE0361A2089C01B2081B6B22468DE
:1015D0002CB905F1580340F2AF1200F0E0F8608931
:1015E000B042EFDB207B10F00F0F16D160898642EE
:1015F00013D0617B880710D46168091B711889B208
:10160000204602F06FFD040007D105F1580340F2B7
:10161000BD120FF2644100F0C3F866816089208139
:10162000206808B100F066F800202060BDE8F08175
:1016300070B558B9DFF8DC030FF2584100F15803D8
:1016400040F2DF1202F05EF9012070BDB1F5803F7B
:10165000FAD2D1B103895B189CB28DB2AC42F3D3FC
:10166000067B340607D542684D422A4400F1100437
:10167000A24205D2E8E7002AE6D042684C42224462
:1016800042600381428989184181002070BD002297
:10169000CEE710B5DFF87C4330B904F1580340F2CF
:1016A0004B220FF2F0310DE0B1F5803F0DD2B1B118
:1016B00043898AB293420ADA04F1580340F2552270
:1016C0000FF2DC31204602F01DF9012010BD446804
:1016D000214441609B1A018943818A1A02810020BA
:1016E00010BD0B0058BFFFF7A3BF5B421946D0E700
:1016F0000122F6E72DE9F8430400DFF8185309D179
:1017000005F158034FF437720FF2883100F048F8B2
:10171000002042E000260FF2C0380FF2A439A07B6F
:1017200030B905F1580340F2F122494600F038F88B
:10173000A07B401EA073C0B270BB617B207B27687A
:101740008A0700F00F000DD5206938B905F158035C
:1017500040F2FF2205F5847100F022F8216920464D
:10176000884716E0022802D12146082003E001281C
:1017700004D12146072002F09DFB0AE018B920465B
:1017800002F05BFC05E005F1580340F20F3200F077
:1017900006F8761C3C00C2D1F0B2BDE8F2834146A7
:1017A000284602F0AFB80146002001E00968401C5D
:1017B0000029FBD180B2704770B1817B491C8173D5
:1017C000C9B249B9DFF84C020FF2203100F15803D9
:1017D00040F2423202F096B8704770B504000D46F0
:1017E00018BF002DDFF82C620FD106F1580306F563
:1017F00096713046BDE8704040F25A3202F082B82D
:1018000021892A8951182181044620680028F7D1AE
:1018100020896189884208D006F1580340F262327B
:1018200006F5B271304602F06DF8206840B106F15D
:10183000580340F263320FF2C821304602F062F8DA
:101840002189288941182181256070BD10B50C4679
:10185000FFF7C3FF2046BDE81040ADE72DE9F04794
:101860000546002600270C46002D18BF002C6FF0FF
:101870000F08DFF8A09103D028892189884222D25D
:1018800009F1580340F2CA3209F5DC7107E0002C77
:101890005ED009F158034FF479720FF2A82100F0DD
:1018A0005AF8404655E009F1580340F2EA3203E0A5
:1018B00009F1580340F2EF3209F5F47100F04BF8EA
:1018C0006FF0050045E060896168A0EB070A688950
:1018D000801B824588BF824668685246C9198019B4
:1018E00002F096FD69895644B142574407D209F186
:1018F000580340F2D9320FF2182100F02CF8608919
:10190000B84207D209F1580340F2DA320FF2182137
:1019100000F021F860898742688924BF0027246885
:10192000864202BF00262D68002DB0D034B16089F8
:101930002189884202D120680028B4D135B1688954
:101940002989884202D128680028B1D1002CBAD157
:101950000020BDE8F087484601F0D4BF2DE9F843E8
:101960000446002688461546B1462A4834B900F197
:10197000580340F20A420FF2DC1108E0B8F1000F00
:1019800029D100F1580340F20B4200F5057101F036
:10199000B9FF00200AE0678998B248B1B84207D37E
:1019A0002468DB1B002CF6D11FFA89F0BDE8F28316
:1019B000FF1ABFB2A8B29BB2B8426068B8BFAFB25C
:1019C000C118B0B23A46404402F022FD2468B9443E
:1019D000BE19ED1B0023A8B20028E5D0E2E7000005
:1019E00038B515460A462989FFF7EBFC040001D1FA
:1019F000002032BD2946FFF731FF40B1DFF8140067
:101A00005CA100F1580340F2245201F07BFF204614
:101A100032BD0000549F0008706275665F616C6C97
:101A20006F633A206572726F6E656F75732074799B
:101A300070650000696E76616C696420706275661D
:101A40005F74797065000000706275665F72656131
:101A50006C6C6F633A207020213D204E554C4C0039
:101A6000706275665F7265616C6C6F633A2071209D
:101A7000213D204E554C4C006D656D5F7472696D53
:101A80002072657475726E65642071203D3D204E34
:101A9000554C4C007020213D204E554C4C00000010
:101AA000696E6372656D656E745F6D61676E697492
:101AB000756465203C3D20702D3E6C656E00000015
:101AC000706275665F667265653A20702D3E72655C
:101AD00066203E2030000000696E76616C696420EB
:101AE00070627566207479706500000070627566BA
:101AF00020726566206F766572666C6F77000000F5
:101B0000702D3E6E657874203D3D204E554C4C0046
:101B10006F66667365745F746F203C3D20705F7400
:101B20006F2D3E6C656E00006F66667365745F6650
:101B3000726F6D203C3D20705F66726F6D2D3E6C44
:101B4000656E0000705F746F20213D204E554C4C37
:101B500000000000706275665F636F70795F70618E
:101B6000727469616C3A20696E76616C6964206296
:101B700075660000706275665F636F7079206661DC
:101B8000696C6564000000000146000A40EA01201B
:101B900080B270470146080200F47F000A0A40EA5A
:101BA000016002F47F42104340EA1160704730B494
:101BB000002513E050F8042BD30744BFA9F101031B
:101BC0009A18091F042942F8045BFAD213468C07BD
:101BD00044BF15809B1CC90748BF1D7050F8041BEB
:101BE0000029E7D130BC704780B502F01DFCC0F37E
:101BF0000D00DFF83815A0F58040088001BD000019
:101C000010B50446207D012840F00880DFF820054B
:101C100005A100F12803D42201F074FE2146BDE89D
:101C20001040012002F046B97463705F667265650A
:101C30003A204C495354454E0000000080B500F056
:101C40005AFCDFF8A4080178491C0170C80703D5C5
:101C5000BDE8014000F07CBA01BD00002DE9FE4363
:101C600004000D46DFF8C88440F0078008F128031F
:101C70004FF4AF7275A100F027F9217DDFF86C6891
:101C8000002D44D0042918BF072940D1606F0028D7
:101C900002BF208D40F66832904238D0A07EC10647
:101CA00000F1078008F128034FF4B2726FA100F031
:101CB0000BF9208B0290221DE18A009201912346AC
:101CC000626A216D204601F024FC204600F083FD6D
:101CD0003069A04203D1C068306106E0084620B1F7
:101CE000C168A142FAD1E168C1600020E060012131
:101CF000DFF8702831701068A04204D1FFF72EFA87
:101D00000020BDE8FE832046FFF77AFFF8E719B10F
:101D1000022955D013D35BE0E08A0028F3D0B068E5
:101D2000A04203D1C068B06006E0084620B1C16897
:101D3000A142FAD1E168C1600020E060E3E794B914
:101D400008F1280340F211125CA100F0BDF8002058
:101D5000017D012900F0078008F128034FF4897202
:101D600049A100F0B1F801270FF2B03959F8270066
:101D700005686CB908F12803FF2208F1780100F02A
:101D8000A3F805E0A86FA04204BF0021A967ED6891
:101D9000002DF7D17F1C042FE8D3214606F10C005B
:101DA00000F046FD207D012805D108F12803DF223F
:101DB0003BA100F089F82146022002F07BF89FE762
:101DC000214606F1100000F033FD012030709AE743
:101DD0002046BDE8FE4300BF38B5050040F009804D
:101DE000DFF84C0335A100F128034FF4CE7201F067
:101DF00089FD287D032804D004280AD0072813D0A1
:101E000019E0284600F098FF040007D10520287546
:101E100005E0284600F090FF0400F7D06CB9284692
:101E200001F047F8204632BD284600F085FF040047
:101E3000F4D10920EBE7002032BD14F1010FF1D1FC
:101E4000688B40F008006883F5E700007463705FFA
:101E5000636C6F73655F73687574646F776E3A2037
:101E6000696E76616C696420706362007063622DD4
:101E70003E666C61677320262054465F5258434C7F
:101E80004F534544000000007063622D3E7374613F
:101E90007465203D3D204C495354454E00000000E0
:101EA0007463705F667265655F6C697374656E3AC2
:101EB00020214C495354454E0000000070636220BD
:101EC000213D204E554C4C00404601F01BBD00000A
:101ED00080B558B9DFF858020AA100F128034FF481
:101EE000F47201F00FFD6FF00F0002BD017D0129BA
:101EF00003D0418B41F0100141830121BDE8044032
:101F0000ACE600007463705F636C6F73653A2069C0
:101F10006E76616C69642070636200002DE9F84F91
:101F2000040084B08B46DFF808020AD10DF1140DCD
:101F3000BDE8F04F00F1280340F23D222BA101F053
:101F4000E1BC217D012907D100F1280340F24122A3
:101F500000F1A00101F0D6FC217DDFF890750A297F
:101F600009D1214607F1140000F062FC204605B0BB
:101F7000BDE8F04F44E6206D03900025666AD4F872
:101F80008CA0D4F81080E08AA94621B960B100F095
:101F9000D1F8E56008E08146214607F1100000F025
:101FA00047FC01205D463870206F08B100F01EFB31
:101FB000E06E08B100F01AFB5DB1208B0290211D8C
:101FC0000091CDF80490234603993246204601F053
:101FD000A0FA2046FFF714FE5FEA0A0003D06FF074
:101FE0000C014046D04705B0BDE8F08F7463705FC8
:101FF0006162616E646F6E3A20696E76616C6964CD
:102000002070636200000000012187E7F8B504003A
:10201000DFF8885908D105F1280340F2A63205F50A
:10202000B271284601F06EFC218D666A628E7018CE
:1020300040F2B557BA42E36AA8BF40F2B452C01AA0
:10204000821A01D46185F2BDF01A0028C8BF0026AB
:102050000CDC9E1BB6F5803FC0F0088005F128031C
:1020600040F2B63203A1284601F04CFC6685002000
:10207000F2BD00006E65775F7263765F616E6E5FC2
:10208000776E64203C3D203078666666660000000E
:1020900038B504000D46DFF804090AD10DF1040D2E
:1020A000BDE8304000F1280340F2CF3215A101F025
:1020B00029BC217D012907D100F1280340F2D33248
:1020C00000F5C47101F01EFC208D2D18ADB240F654
:1020D00069318D4201DA854201DA40F6683525859D
:1020E0002046FFF793FF40F2DA21884208D3608B45
:1020F00040F0020060832046BDE8324000F0D9BEC7
:1021000031BD00007463705F7265637665643A2068
:10211000696E76616C696420706362007C020020E5
:102120007802002080020020840200202C0300207E
:10213000AC9A0008B868A04203D1C068B860704784
:10214000084620B1C168A142FAD1E168C160704778
:102150002DE9FE4FDFF89463DFF868A67068401C35
:1021600070607078401C70705BE1A946ED68002DCE
:1021700000F0B481287D38B90AF1280340F2BE424C
:102180000AF5F07100F0B4F9287D012807D10AF1B1
:10219000280340F2BF420AF5037100F0A9F9287D37
:1021A0000A2807D10AF128034FF498620AF50E7144
:1021B00000F09EF97078A97F8142D6D0A8774FF0C1
:1021C000000B287D0228D84605F1400405F194074C
:1021D00006D1A0780628A8BF4FF0010B80F29E80A0
:1021E000A0780C2819DA7878002840D0206B38B114
:1021F0000AF1280340F2D4420AF51A7100F078F986
:10220000E06A38B90AF1280340F2D5420AF527718D
:1022100000F06EF9B8780C2802DB4FF0010B70E08B
:1022200079780FF67400014411F8010C3978814275
:10223000BCBF491C39703978814262DB218C00298E
:10224000284604D101F008FA00285AD107E000F02E
:10225000B7FC20B9284600F02CFE002851D087F8A2
:102260000080787807284CD2401C787049E0B5F996
:102270003000010005D447F6FF7290421CBF401C9D
:102280002886B5F93000B4F90010884239DB2846B9
:1022900000F0B3FF18B1206B98BBE06A88B3287DCB
:1022A000022814D0A078B5F93C10B5F93E200C28CE
:1022B00002EBE10228BF0C200FF2CC71085602FAA3
:1022C00000F047F6FF718842A8BF0846208005F15C
:1022D000400005F14001A5F8308000890A8C698E24
:1022E000904288BF1046490040088BB2984238BFE0
:1022F00008466081688E2081A4F82A80284600F074
:10230000B4FF287D062809D1A87EC10606D57068CD
:10231000296A401A292828BF0BF1010B687A0107A6
:1023200028D5287D042818BF072823D17168286A7A
:10233000DFF86C26081A216D52184FF4FA73B2FBBD
:10234000F3F3834204D20BF1010B4FF0010811E0CB
:10235000FA78DFF8503603FB02114FF4FA72B1FB42
:10236000F2F1814206D2284601F048F910B9F87816
:10237000401CF8700BF10101287D032804D170681E
:102380002A6A801A292805E0092805D170682A6A76
:10239000801AF12828BF8B465FFA8BF0002844D0C2
:1023A000E76C284600F017FAB9F1000F30690DD03C
:1023B000854207D10AF1280340F26D520AF53571C2
:1023C00000F096F8E868C9F80C000BE0A84207D0C6
:1023D0000AF1280340F271520AF5407100F088F8C2
:1023E000E8683061B8F1000F0BD0288B02902A1DED
:1023F000E98A009201912B466A6A2169284601F018
:1024000088F82C692846ED68FFF7FAFB0020002FBA
:10241000307009D06FF00C012046B84730780028A2
:1024200002D035694FF00009A1E6A94699F81C00D1
:1024300099F81D10ED68401C89F81C00C0B2884254
:10244000F2D3002089F81C003070D9F8882042B1FE
:10245000D9F810004946904731780029E1D1002889
:1024600002D1484600F025FD81E6A84207D00AF1D6
:10247000280340F2B3520AF5617100F039F8E868B8
:1024800070612846ED68FFF7BBFB5DB3287D0A2825
:1024900007D00AF1280340F2A1520AF54B7100F06F
:1024A00027F87068296A401AF12814D3284600F0EA
:1024B00092F97069B9F1000FD7D0854207D10AF1BE
:1024C000280340F2AF520AF5577100F011F8E8689E
:1024D000C9F80C00D5E7A946ED68D6E775694FF055
:1024E0000009D2E7BDE8F78FF4A6002070020020B3
:1024F000504601F007BA70B5DFF8AC546878401C5C
:1025000068702C6920E0A077608BC10706D500F0C9
:1025100023F8608B4FF6FC7108406083608B0107E5
:1025200006D54FF6F772104060832046FFF754FC43
:10253000E668606F38B100212970204600F014F879
:1025400028780028DDD134462CB16878A17F8142FB
:10255000D9D1E468F8E770BD40F0020060832046FE
:1025600000F0A7BC58A600202DE9F04104000AD1D4
:1025700000F02DF940F2096200F56B7101F0C2F92B
:102580006FF00F0030E0676FD4F880507E7B002042
:10259000002D606703463A46214602D02069A847CD
:1025A00001E000F03AF801006FF00C0813D1B0061A
:1025B00019D5208D40F6683188421CBF401C20850B
:1025C000D4F880507DB12069002300222146A8471D
:1025D000404508D101E0404501D1404604E067672D
:1025E0006FF0040000E00020BDE8F08110B5002885
:1025F00003E0046800F003F82000FAD110BD10B524
:10260000040009D0606808B1FFF774F82146BDE8FE
:102610001040032001F04EBC10BD10B50800144658
:1026200007D168480FF28C3100F128034FF4D362D0
:102630000EE03CB12189FFF72BFD2046FFF75AF849
:10264000002010BD002BFBD1BDE81040FFF740BCBF
:1026500001F058F96FF00F0010BDB0B5082818BF91
:102660000928044608D057480FF2643100F12803C6
:1026700040F2DD6201F046F9DFF82C3318695F683B
:102680000021002209E0057DA54205D1056A7D1BD8
:102690008D4224BF29460246C0680028F3D12AB1E2
:1026A000BDE8B04000211046FFF738BCB0BDF8B51A
:1026B000064600F089F80400DFF8EC5258D128698A
:1026C00000280AE0418BC4680A0705D54FF6F77366
:1026D00019404183FFF780FB2000F3D168696C68E3
:1026E0000022002106E0036AE31A934224BF1A463F
:1026F0000146C0680028F6D111B10846FFF784FCF6
:1027000000F062F8040033D10920FFF7A6FF00F0C3
:102710005BF804002CD10820FFF79FFF00F054F86D
:10272000040025D1802EA8BF7F2001DA30001CD004
:10273000421E2869D2B20023002110E0447D944259
:1027400007DB0BD16F68D0F820C0A7EB0C079F42C6
:1027500004D36968036ACB1A01462246C068002880
:10276000ECD111B10846FFF74FFC00F02DF80446FC
:1027700024B39821204601F0A9FE04F148006675B3
:1027800041F2D061818340F66832628522854FF440
:102790000673FF22E27263860622A4F84020E287D5
:1027A00001234FF0FF32228603806A6822626B7831
:1027B0007E4AA377418082647D4981632046F2BDD1
:1027C00000000000AC9A0008012001F039BB7348FA
:1027D00000F12803704738B504000BD101B0BDE803
:1027E00030406E480FF2F81100F1280340F6510214
:1027F00001F088B8207D00281CBF0A28012814D0C9
:1028000004F16805E86818B1FEF774FF0020E8607D
:102810004FF0FF3121866868FFF7E8FEA868FFF7F0
:10282000E5FE00206860A860288031BD000000003F
:1028300070B50C000546594E07D106F1280340F645
:1028400083020FF2B81100F040F83DB906F12803F9
:1028500040F684020FF2C01100F037F82868A04259
:1028600003D1C068286006E0084620B1C168A142D3
:10287000FAD1E168C1600020E0602046FFF7ABFFBD
:10288000207D0A2809D001281BD0608BC10704D500
:10289000FFF762FE207D012813D0D4F86C0030B120
:1028A00006F1280340F6930263A100F00EF8D4F875
:1028B000700030B106F1280340F6940264A100F0E4
:1028C00004F800202075E08270BD304601F01AB88F
:1028D00080B540B9DFF8C40064A100F1280340F6D8
:1028E000AF0201F00FF8304A906951680818906102
:1028F00002BD38B505460C463AB9FFF768FF40F609
:10290000C50200F24C4100F0FDFF002C1CBFA08C62
:10291000002807D02828CCBF2838002080B2854264
:1029200088BF0546284632BD70B505000C4609D162
:10293000FFF74DFF4FF4106200F2744100F0E2FF28
:1029400000E0344644B120682968E668884204BF44
:102950002046FFF759FBF4E770BD70B504001CBFBB
:10296000206800280D4618D00F4E31692046FFF729
:10297000DBFFB1682046FFF7D7FF002D1CBF28689A
:1029800000280AD0F06806E001682268914204BF7E
:102990002B680360C0680028F6D170BDAC9A0008AF
:1029A000B84C0A00F82401007002002000DD6D0020
:1029B0001B2600087463705F726563765F6E756CCA
:1029C0006C3A20696E76616C696420706362000005
:1029D000696E76616C6964207374617465000000CF
:1029E0007463705F7063625F70757267653A2069C7
:1029F0006E76616C69642070636200007463705F5E
:102A00007063625F72656D6F76653A20696E76619C
:102A10006C696420706362007463705F7063625FEE
:102A200072656D6F76653A20696E76616C696420B7
:102A30007063626C69737400756E73656E74207375
:102A400065676D656E7473206C65616B696E670098
:102A5000756E61636B6564207365676D656E747315
:102A6000206C65616B696E67000000007463705FC5
:102A70006E6578745F6973733A20696E76616C690C
:102A8000642070636200000001020304050607076A
:102A9000070707070700000003060C1830607800DE
:102AA00020B1007A002818BF01F0A3BE104601F043
:102AB00005B800002DE9F84F04000E4692469846EE
:102AC000DFF800B606D10BF12803A3222EA1584649
:102AD00000F018FF3EB90BF12803A4220BF17C0192
:102AE000584600F00FFFDDF828905FEAC9704CBF30
:102AF00004270027032001F0A3F9050003D1304685
:102B0000FEF7F8FD19E085F80A90002028606E6055
:102B10003189B94206DA0BF12803B02222A15846C6
:102B200000F0F0FE3089C01B288114213046FEF7EA
:102B3000AEFD20B12846FFF762FD002021E0686865
:102B40004168E960E08AFFF71FF8E9680880208B98
:102B5000FFF71AF8E96848804046FFF71BF8E96874
:102B60004860781007EB9077BF107F1D4AEA073165
:102B700088B2FFF709F8E96888810020E96848828F
:102B80002846BDE8F28F00007463705F6372656170
:102B900074655F7365676D656E743A20696E766102
:102BA0006C69642070636200702D3E746F745F6C9A
:102BB000656E203E3D206F70746C656E00000000F5
:102BC0002DE9FE4F5FEA00098846DFF8F85407D187
:102BD00005F1280340F24B3205F51D7100F06AFC47
:102BE000D9F86C40002C3AD0B8F1000F0AD105F1A9
:102BF000280340F2533205F5267100F05BFC6FF0BC
:102C000005008FE02189884580F0858009F1320731
:102C10003888404507D205F1280340F25B320FF6B1
:102C2000243100F047FC208938B905F128034FF41E
:102C300057720FF6203100F03DFCA07A0190C007DA
:102C40002589A5EB08054CBF04260026ADB27119F5
:102C50004FF4207289B200F06CF85FEA000A5FD08E
:102C6000606821890389DAF804C05B1A43449BB287
:102C70002A460CEB0601FEF771FEA8424DD100F08A
:102C80004DFD00F03F064FF0000B300744BF06F04B
:102C9000F7064FF0080BF00703D5760876004BF0E7
:102CA000010B00F037FD0199C9B2009100EB080358
:102CB0005A4651464846FFF7FDFE5FEA00092CD010
:102CC0006068FEF770FDB98E081AB88660680189E1
:102CD000491B89B2FEF75FFC2089451B25813046E0
:102CE000FEF752FF00F020F86068FEF75CFDB98E39
:102CF0004018B886D9F80400FEF755FDB98E401883
:102D0000B8862268C9F80020C4F80090D9F80000FD
:102D100008B90021F986002004E05046FEF7EAFCDD
:102D20004FF0FF30BDE8FE8FE1688A89104388814B
:102D300070473620FEF745BB38B5040009D1DFF8EF
:102D400084030FF6202100F1280340F2EB3200F05B
:102D5000D9FDE56EB5B100E0054628680028FBD135
:102D6000E86800F0DCFC10F0070F0BD10120FEF743
:102D70000BFFE968FFF7D9FF608B40F0200060830C
:102D8000002032BD2046BDE8344001212DE9F84342
:102D90008946002619F0030F0446DFF8288307D17F
:102DA00008F1280340F2124208F52F7100F07EF876
:102DB0003CB908F1280340F213420FF6C41100F0A9
:102DC00075F85FEA897046BF0126042700274FF493
:102DD00020723946FFF7ADFF050013D06889B8426D
:102DE00007DA08F1280340F23A4208F5457100F08D
:102DF0005DF800964A46E36D29462046FFF75AFEE5
:102E0000050006D1608B40F0800060834FF0FF30FA
:102E100048E0287B10F0030F07D008F1280340F2A8
:102E200042420FF67C1100F041F8288938B108F1D0
:102E3000280340F2434208F5547100F037F804F1DA
:102E40006C06316811B9356004E001460868002855
:102E5000FBD10D6004F16607002019F0030F7880A4
:102E600002D0E06D401CE0655FEAC97003D5618B5C
:102E700041F0200161836868FEF795FC39884018AD
:102E8000388080B268B17168002904BF30680028BA
:102E900007D108F1280340F2664208F55F7100F09F
:102EA00005F80020BDE8F2830FF67801404600F0F7
:102EB00029BD2DE9F84F0500DFF8088207D108F198
:102EC000280340F2E1420FF6F001FFF7EFFF287D03
:102ED000012807D108F1280340F2E44208F569719E
:102EE000FFF7E4FFDFF864070168A94200F0DF8024
:102EF00005F14807388BB7F800907C6A484538BF21
:102F0000814654B32A1D29462846FFF7C9FD009083
:102F100038B1002D1CBF2868002807D10098001D7B
:102F200002D16FF00300C3E00068286000F0F2FBFC
:102F3000696C2389401AC018814505F1940214D2A6
:102F4000398B894504BFB86A002806D1507820B96A
:102F500000210120117050709170A87E810740F10E
:102F6000A1802846BDE8F24F14E300205070BE6AED
:102F700026B100E0064630680028FBD100F0CAFB0D
:102F8000696C2289401A80188145C0F08780E16809
:102F90008889FEF7F9FD400707D508F1280340F2BC
:102FA00037520FF62C01FFF781FFB86A98B16A8B90
:102FB00012F0440F0FD1796A29B1086858B908890D
:102FC000698E884207D2B88B28B1F88B082802DABC
:102FD00012F0A00F62D0287D022804D01020FEF746
:102FE000D3FDFFF7A1FE2946009A204600F07FF8A6
:102FF000010028D120687862297D022904D0698BDC
:103000004FF6FC700140698300F084FB824600F0BB
:1030100085FB10F00301208918BF012150440818D6
:10302000B968091A48BFB86000F078FB10F00300D7
:10303000218918BF0120401829D000222260B86AD7
:1030400030B9BC6221E0698B41F0800169832FE0D7
:1030500000F060FBF168824600F05DFBBAEB000017
:1030600012D505F1700ADAF8000018B3C16800F053
:1030700052FBE168834600F04EFBBBEB000048BF0B
:10308000DAF800A0EFD415E03460264602E02046CE
:10309000FFF7B5FA7C6A002C7FF470AF786A08B944
:1030A000002139844FF67F70698B014069830020CD
:1030B000BDE8F28FDAF800002060CAF80040E9E7C6
:1030C000000000007C95000810B5040007D100F056
:1030D000A5F940F29A5200F5737100F013FC606894
:1030E000817B012901D0012010BD002010BD2DE9F8
:1030F000FF4104000D461646DFF8547507D107F16D
:1031000028034FF4B7620FF2E06100F073F83DB9A5
:1031100007F1280340F2B9520FF2EC6100F06AF8AF
:103120003EB907F1280340F2BA5207F57D7100F06D
:1031300061F82046FFF7C8FF08B1002057E0686A31
:10314000FEF728FDE1688860688DFEF71DFDE168E7
:10315000C881686A6A8D8218EA6201F11408A07A4F
:10316000C1070BD52A1D314640F2B450FFF7C1FB11
:1031700040F00170FEF70EFD48F8040BB5F9300081
:10318000002844BF00212986686B30B9DFF8C414D9
:103190000868686300F0BEFAA8636168E0684A687E
:1031A0004B89821A92B29B1A4B810B8948609A1AFA
:1031B0000A8100210182A27AD1074CBF042100219B
:1031C00008441430804507D007F1280340F21C6200
:1031D0000FF2546100F00EF80620029601902A1DAD
:1031E000A97A0091EB7A6068294600F051FD04B09D
:1031F000BDE8F081384600F085BB70B5040007D10A
:1032000000F00CF940F2636200F5836100F07AFB94
:10321000256F5DB103E0FFF757FF38B92D682868C7
:1032200000282846F7D1FFF74FFF10B16FF00500D7
:1032300070BDE06E28600020216FE1662067618B21
:1032400041F400616183E96800F065FA0646E868C8
:1032500000F065FA10F00300298918BF01207118E9
:103260004018E0640020606370BD10B5040007D111
:1032700000F0D4F84FF4D36200F23C4100F042FB7E
:1032800094F84200FF281CBF401C84F842002046EE
:10329000BDE810400DE610B5040009D1DFF8B00319
:1032A0000FF2985100F1280340F2AD6200F02AFBC2
:1032B0002046FFF7A2FF18B92046BDE81040D4E72A
:1032C00010BDF8B5050009D1DFF884030FF288516D
:1032D00000F1280340F2C16200F014FB05F134064E
:1032E000F46B1CB12046FFF7EFFE10B16FF0050044
:1032F000F2BD2068F0636C35286850B1C16800F0F9
:103300000AFAE168074600F006FA3F1A48BF2D683E
:10331000F2D4296821602C60206808B90021B186A8
:10332000B07BFF281CBF401CB07300203060F2BD92
:1033300038B5040008D1C6480FF2345100F1280313
:1033400040F2F96200F0DEFA04F14805A86A00B321
:10335000A07E41071DD42046FFF7B3FFC8B9288BD4
:103360002988814238BF084600EBD0704010618E3A
:1033700082B2B2EB410F38BF4800688001EB4101D7
:103380006888091829800020628B208642F0040298
:10339000628331BD2DE9F84F0D4682461146491929
:1033A000143199464FF4207289B22220FEF709F8B1
:1033B000040030D0608905F11401884207DA00F07A
:1033C0002DF840F2247200F58C6100F09BFADDF8D4
:1033D00034800C9EDDF82CB00A986768FEF7D4FBA9
:1033E00038802D065846FEF7CFFB7880C7F804904A
:1033F0005046FEF7CFFBAD0EB8606D1D46EA0536B0
:10340000B0B2FEF7C1FBB8814046FEF7BDFBF881C4
:103410000020388278822046BDE8F28F8C4800F187
:1034200028037047F8B5040084B00D4616461F46C1
:1034300007D1FFF7F3FF40F2427200F5926100F00E
:1034400061FA608D0390102102913B46228B01921C
:103450003246E08A00902946606AFFF79BFF18B168
:10346000616A628D8A18E26205B0F0BD70B50C0029
:103470001646774D07D105F1280340F2567205F53F
:10348000976100F017F86068F1074CBF0421002134
:1034900000F114021430084482420AD005F12803D6
:1034A0002846BDE8704040F275720FF27C3100F0A2
:1034B00029BA70BD284600F025BAFEB50C000546B5
:1034C00016461F4607D1FFF7A9FF40F2877200F5A5
:1034D0009C6100F017FA3A4631462846FFF7E0FAB9
:1034E00010B96FF003050FE0002D19BFEB7AA97A30
:1034F000FF23002102900091062001903A463146B8
:10350000204600F0C5FB05462046FEF7F3F82846A6
:10351000FEBD2DE9FF471C0080468A4691464C4E71
:1035200008D106F1280340F2C4720FF2643130462C
:1035300000F0E8F90C9D45B906F1280340F2C57288
:103540000FF26831304600F0DDF90E9E0D9F5046B7
:10355000FEF720FB46F60B0114220391029203466C
:1035600001960097002200214846FFF713FF06004E
:103570000DD00023002231464046FFF777FF2B464F
:1035800022463146404604B0BDE8F04795E7BDE825
:10359000FF87000038B5040007D12D48CAA100F10B
:1035A000280340F2EA7200F0ADF9206DFEF7F2FA5E
:1035B0000346002200212046FFF734FF050006D114
:1035C000608B40F0030060836FF0010032BD002388
:1035D000002229462046FFF749FF231D224629469F
:1035E0002046FFF76AFF628B010012BF42F0030220
:1035F0004FF6FC710A40628332BD000038B5050009
:1036000007D11348B8A100F1280340F6240200F0C6
:1036100079F9286D401EFEF7BDFA0346002200210D
:103620002846FFF7FFFE040002D14FF0FF3032BD05
:103630000023002221462846FFF718FF2B1D2A46AB
:103640002146284601B0BDE8304036E758A60020A4
:103650007C950008740200202DE9F041040007D198
:10366000FFF7DCFE40F64F0200F20C5100F04AF981
:10367000E66E0EB900204BE094F89600FF281CBFC0
:10368000401C84F89600F06800F049F8C00704D5A3
:1036900031894D1EAD41ED0F00E00025F068436813
:1036A00085F0010200212046FFF7BCFE5FEA00081A
:1036B00008BF4FF0FF302BD0D8F804704DB1112067
:1036C000FEF762FABA894CF2FF010A401043B88152
:1036D00009E07068318903895B1A9BB2012207F106
:1036E0001401FEF73BF9F16800F015F8216D401C5C
:1036F000091A48BF20650023002241462046FFF7F3
:10370000B5FE231D224641462046BDE8F041D4E6E1
:10371000BDE8F081E1684868FEF73CBAE06880895E
:10372000FEF732BA7463705F77726974653A207617
:10373000616C6964207175657565206C656E677470
:103740006800000073706C6974203C3D206D7373D9
:1037500000000000757365672D3E6C656E203E208D
:10376000300000007463705F73656E645F66696E3D
:103770003A20696E76616C696420706362000000B3
:103780007463705F656E71756575655F666C6167A2
:10379000733A20696E76616C696420706362000020
:1037A0007365672D3E746370686472206E6F742059
:1037B000616C69676E6564007463705F6F757470C7
:1037C00075743A20696E76616C696420706362007A
:1037D000525354206E6F742065787065637465640D
:1037E00020686572652100007463705F6F75747086
:1037F00075745F7365676D656E743A20696E766186
:103800006C696420736567007463705F6F757470B2
:1038100075745F7365676D656E743A20696E766165
:103820006C696420706362006F7074696F6E7320DE
:103830006E6F742066696C6C656400007463705F01
:103840007265786D69745F72746F3A20696E766123
:103850006C696420706362007463705F7265786D78
:1038600069743A20696E76616C69642070636200E5
:103870007463705F7265786D69745F666173743AC2
:1038800020696E76616C69642070636200000000DC
:103890007463705F7273743A20696E76616C6964E8
:1038A000206C6F63616C5F69700000007463705F0F
:1038B0007273743A20696E76616C69642072656D0A
:1038C0006F74655F697000007463705F73656E6428
:1038D0005F656D7074795F61636B3A20696E7661C4
:1038E0006C696420706362007463705F6B656570FF
:1038F000616C6976653A20696E76616C69642070E6
:10390000636200000EB4C0B5024603A80021019016
:10391000009101AB0121044878440C3000F0BEFF57
:1039200006BC5DF810FB00BFDD79000080B5FEF736
:1039300085F955490868002802BF544908680028DD
:1039400005D0BDE8084000225149FA2069E05149FC
:10395000086001BD4F49086868B94B4A10680028E3
:1039600002BF4A4A1068002805D001220A60FA20E6
:103970000022474955E0704770B504460D4616468B
:10398000062000F05DFA48B9BDE87040424800F1F9
:103990006803BE2200F12801FFF7B4BF00210160D7
:1039A0008560C66044603D4B1A682AB15168641A4C
:1039B000B4F1004F02D30260186070BD116839B1D4
:1039C00043684C681B1BB3F1004F38BF0A46F5D360
:1039D0000160106070BD38B504466068804701F032
:1039E000ABFA2E4925684B682D49EB181A1AB2F12B
:1039F000004F22462CBF28181846BDE83840BBE7C8
:103A000038B5274C27A505F1080221464FF47A70F6
:103A100000F007F805F110022146BDE838404FF4E8
:103A20007A7070B50446B4F1804F0D46164608D33F
:103A3000194800F1680340F2291200F1BC01FFF7B8
:103A400061FF01F079FA324629462018BDE870403E
:103A500092E7F8B501F070FA0446104D0BE00A68E1
:103A60002A608E68CF686860062000F023FA300074
:103A70001CBF3846B047296821B14868221AB2F104
:103A8000004FECD3F1BD0000800200208402002032
:103A90002D390008E8A6002068AC0008B0A6002078
:103AA000D7390008FA0000003D1C0008E8030000B8
:103AB000AD510008E80300006D63000870B5DFF841
:103AC000C81204680A68B2B192F82D3003F00501FB
:103AD00005290CD1516851B1956805EA04062940C1
:103AE0008E4219D0990702D4D3689C4214D0126830
:103AF000E9E7084670BDA549096859B191F82D203C
:103B000002F00502052A05D14A68002A1CBF007888
:103B10007F28EED1002070BD104670BD80B50146F3
:103B200091F82D00C2070AD54A6842B19848406909
:103B3000904202D0FDF7E0FB08B1012002BD002059
:103B400002BD2DE9F843054689466F6839780809B2
:103B5000042834D1880000F03C087888FEF714F877
:103B600029898842044603D221462846FDF713FDE1
:103B70006889404523DB2989A14220D3B8F1140F7D
:103B80001DDB3869824E7061F8683061307D00F06D
:103B9000F000E02817D199F82D00C10702D5D9F817
:103BA0000400A0B9002430694946FDF7A5FB30B9EF
:103BB000307C00F0F000E02818BF002C1AD1284615
:103BC000FDF798FD20E04846FFF7A8FF08B14C46F6
:103BD000E9E7307D00247F28E5D06B480468002C9D
:103BE000E1D04C4504D02046FFF798FF0028DAD1F9
:103BF0002468F4E7F8884FF63F71084207D028465A
:103C000001F080FC050001D100203FE06F683460C6
:103C1000C6F80490B76041463878800000F03C0058
:103C2000B0812846FDF735FD787A01280DD00628A9
:103C300006D011280ED14946284601F002FF1EE0A9
:103C400049462846FCF7A0FA19E04946284602F002
:103C500085FA14E070692146FDF74EFB60B9307DAE
:103C600000F0F000E02807D041462846FDF740FD6F
:103C70000221284602F006FB2846FDF73BFD002006
:103C800030607060B060B08130617061BDE8F28317
:103C90007FB50A9E0C4622B100291ABF0968002987
:103CA000341D0999089D019102960095214600F066
:103CB00003F804B070BD00002DE9F84306468846BD
:103CC000B07BDFF8D090012814461D4600F0088034
:103CD00009F128034FF4557231A14846FFF712FE4F
:103CE000ACB314213046FDF7D2FC98BB70897768DD
:103CF000142808D209F1280340F2893209F17C0125
:103D00004846FFF7FFFD099808993D7278724522F1
:103D10002068214D38613A7079703089FDF734FFA1
:103D200078800020F8802888FDF72EFFB88028884A
:103D3000401CB8F1000F288003D118480168F960D1
:103D400002E0D8F80000F8600021798109E070896C
:103D5000142802DA6FF0010014E07168086900901D
:103D60006C460A9B988C40B13189884205D2224624
:103D70001946304601F0DCFC04E018465B69224637
:103D800031469847BDE8F28398A600209CA6002003
:103D90007CA60020D0AE0008F0A6002060B300088A
:103DA000702D3E726566203D3D20310030B5816842
:103DB00000220A6000234268D21C9208920005E0AB
:103DC0000C6814600A605B1C05882A444488A3427E
:103DD000F6DB30BD38B50024414DA0B255F82000C7
:103DE000FFF7E4FF641CA1B20929F6D331BD10B579
:103DF0008068046884B12168016014F0030009D070
:103E0000374800F1700300F14C0140F219122430E0
:103E1000FFF778FD204610BD002010BD80B558B9D1
:103E2000DFF8BC002FA100F170034FF49E72243024
:103E3000FFF768FD002002BDBDE80240D7E70000A3
:103E400010B50928264C0ADB04F1700340F2571222
:103E500029A104F12400FFF755FD002010BD54F8FE
:103E60002000BDE81040C2E738B504460D4615F005
:103E7000030009D0DFF8680027A100F1700340F2C9
:103E80006D122430FFF73EFDA068016829600560CF
:103E900031BD000040B9124812A100F1700340F298
:103EA00095122430FFF72EBD002918BFFFF7DCBFA5
:103EB0007047000010B50928094C0ADB04F17003B3
:103EC00004F12400BDE810404FF4D5721AA1FFF7A9
:103ED00019BD21B154F82000BDE81040C4E710BD61
:103EE0005CAD0008696E76616C696420706F6F6C00
:103EF00020646573630000006D656D705F6D616CBB
:103F00006C6F633A2074797065203C204D454D50AC
:103F10005F4D4158000000006D656D705F66726511
:103F2000653A206D656D2070726F7065726C7920D6
:103F3000616C69676E6564006D656D705F66726562
:103F4000653A2074797065203C204D454D505F4D99
:103F50004158000070B5DFF8D443DFF8D46305465C
:103F60002068854207D206F1280340F2DF120FF2E3
:103F7000CC3100F043F96068854207D306F128038D
:103F80004FF4F0720FF2CC3100F038F9287938B1E3
:103F900006F1280340F2E1120FF2D43100F02EF9BD
:103FA000288842F60101884207D306F128034FF41E
:103FB000F27206F1780100F021F921682A888B1845
:103FC0009D4211D0187978B9606883420CD0A668F8
:103FD0009E4208BFA560188828801888B0F5205F29
:103FE00002D08E1C6B1A33526B880B44AB420ED03E
:103FF000187960B9A068A84208BFA3602888188013
:104000002888B0F5205F02D05A1A891C0A5270BD68
:10401000C64820B500F10F0189080023890001601E
:104020004B800B714FF420520A808B18436001259E
:104030001D711A805A80816020BD010000D1704737
:104040002DE9F04111F00302B94806D000F1280330
:1040500040F2732200F1A40140E0B44C2668A1F1C3
:104060000802B24222BF65680C318D4206D200F1CF
:10407000280340F27F220FF214312FE0117931B979
:1040800000F128034FF4237200F1C80126E01388E1
:10409000B2F802C042F60108911BF718434538BF39
:1040A000C44589B2664413D28C451CBF36888E4203
:1040B0000ED1AF421CBF7D888D4209D10020107106
:1040C0001046A1688A4238BFA260BDE8F04141E7CE
:1040D00000F1280340F2952200F1F001BDE8F04123
:1040E000FFF710BC2DE9F047CD1C4FF6FC721540D0
:1040F0000C2D32BF0C2542F6010295422DD28D4285
:104100002BDB8A4F8A4E80463868804502D3796817
:10411000884506D306F1280340F2D222A2A100F07E
:104120006DF83C68A04566D37868804563D2A8F1F5
:1041300008010C1B38F8080CA4B2001B08381FFA41
:1041400080F9A94580F2078006F128034FF43972FF
:104150009BA100F053F8A94501DA00204CE04D4541
:1041600049D038F8082C396801EB020A9CA19AF86A
:104170000400D0B9B2F5205F05D106F1280340F262
:10418000F52200F03BF82D1908353968BB68BAF8FC
:104190000000ADB24A19534508BFBA600E1D002396
:1041A00073551080881C44531DE005F114008145AF
:1041B00021D32D190835B2F5205F05D106F128036A
:1041C00040F2163200F01AF83968BB68A8B20A1833
:1041D0009A4238BFBA600E1D002333548B1C38F846
:1041E000087C17801C5228F8085C1088B0F5205F06
:1041F0001CBF891C0D524046BDE8F0873046FFF7D2
:1042000081BB00002DE9F84301005AD0C21C4FF6D3
:10421000FC7101EA0209B9F10C0F38BF4FF00C092B
:1042200002D3B9F5205F4CD881454ADB3F4F39684E
:10423000BD686D1AADB200E01588C9F520529542EF
:104240003FD24A19144620790028F5D12088401B16
:1042500008384845F0D309F114018842DFF8D080CE
:1042600020D309EB05060836B6B2B6F5205F06D1B5
:1042700008F1280340F2873259A100F05BF8386852
:10428000021D00219155811923880B80821C9553B2
:104290002680012525710988B1F5205F04D0801C96
:1042A000465201E001212171B9688C4219D17A6826
:1042B000087948B191421EBF386809884118F7D182
:1042C00002E00020BDE8F283914218BF0028B960E7
:1042D00000F0078008F1280340F2B53245A100F054
:1042E00029F87868A14409F10801884207D208F149
:1042F000280340F2BA3208F5927100F01BF814F06E
:1043000003000FD008F128034FF46F7208F5AA716B
:1043100000F010F808F1280340F2BE3208F5C2712F
:1043200000F008F804F10800CCE7000098700020C5
:10433000E4A500084046FFF7E5BA0000706C756719
:104340005F686F6C65733A206D656D203E3D20722D
:10435000616D0000706C75675F686F6C65733A2003
:104360006D656D203C2072616D5F656E64000000BC
:10437000706C75675F686F6C65733A206D656D2D45
:104380003E75736564203D3D203000006D656D5FB6
:10439000667265653A20696C6C6567616C206D6555
:1043A0006D6F7279000000006D656D5F7472696DEC
:1043B0003A206C6567616C206D656D6F72790000E5
:1043C0006D656D5F7472696D2063616E206F6E6CD8
:1043D0007920736872696E6B206D656D6F727900FC
:1043E000696E76616C6964206E6578742070747291
:1043F000000000006D656D5F6D616C6C6F633A204D
:10440000216C667265652D3E757365640000000061
:104410004AB1000011F8013B521E00F8013B1CBFDD
:1044200011F8013BF8E77047F0B5244C244A207896
:10443000244B6FF0004150BB0820656803FB052545
:104440000E46B5FBF6F601FB1655401E6560F4D12D
:104450001D4D2E461020676803FB07278C46B7FBCF
:10446000FCFC01FB1C77676046F8047B8E4603FB6F
:104470000727B7FBFEFE01FB1E776760401E46F86C
:10448000047BE8D1E86FC5F88000012525706068DD
:1044900003FB00220B46B2FBF3F301FB13210A4A94
:1044A000616092F8803003F01F0352F82300C2F8D5
:1044B000800042F8231020F04040F0BD940200201C
:1044C0005FF36E3C0D66190050A50020002201F03C
:1044D00023BF0268531C03601170704770472DE9B9
:1044E000F0470500DFF82C8306D108F1280340F2DD
:1044F00027120FF22C3108E0099C200008D108F1A6
:1045000028034FF4947208F17C0100F0A2F82DE02A
:10451000DFF8040301B9014602B9024603B90346B4
:104520000A98089F0FF2C5260FF210394FF0000CC1
:10453000C5F804C0C5F808C0C5F80CC06E61A5F880
:1045400024C005F12D0686F800C02F62C5F81CC0F6
:10455000DFF8C87297F800C086F803C028612846C3
:1045600000F090F82846A047002803D0002032E051
:10457000401CF0704FF0000AF078FF2804BF0021C3
:10458000F1707C681BE0AC4206D108F1280340F2D0
:104590008B12494600F05DF80AF1010ABAF5807FF6
:1045A00007DB08F1280340F28D1208F1A00100F0AA
:1045B00050F8F07894F830108142D9D02468002C5B
:1045C000E1D1F078FE280CBF0020401C38707868DC
:1045D00028607D602846BDE8F08738B504460D4662
:1045E000FEF7BBF929462046BDE8344001F0B5BCD2
:1045F0002DE9FC410C00064615460FF25427DFF862
:10460000148205D108F1280340F2CB1200F020F803
:104610002DB908F128034FF4E67200F019F820686C
:104620007168884211D000902846716829606946F7
:10463000FFF7D3FF002C0CBF002020687060012121
:10464000304600F061F8012000E00020BDE8F6816E
:1046500039464046FFF756B90A6883689A4204D043
:1046600001B90022826001207047002070470A686B
:10467000C3689A4204D001B90022C2600120704789
:10468000002070472DE9FC4180460C006248174627
:104690001E4608BF044607B9074606B90646002C61
:1046A0001CBF2068002803D100F012F8012500E0AB
:1046B0000025002239464046FFF7CEFF0022314652
:1046C0004046FFF7D4FF0DB900F002F8BDE8F381D2
:1046D0006A46214640468BE7504988607047000093
:1046E00038B94C485EA100F128034FF45472FFF72B
:1046F00009B990F82D10CA0705D441F0010180F8DE
:104700002D10032100E0704738B504000D4608D194
:10471000404800F1280340F26D3200F1F401FFF748
:10472000F1F894F82D1001F0050005280BD1EA07E7
:1047300009D5606838B1080705D5211D2046BDE8B8
:10474000344002F09BB931BD38B932484BA100F179
:10475000280340F29B32FFF7D5B890F82D10CA0716
:1047600007D501F0FE0180F82D10090748BF01F0C0
:1047700028BF704738B504000BD101B0BDE8304008
:10478000244800F128034FF4787200F58C71FFF78C
:10479000B9B804F11C05687C41070CD440F0040052
:1047A000687403212046FFF7AFFF296819B120463E
:1047B000BDE83440084731BD40B9164800F1280330
:1047C00040F2064200F59E71FFF79CB800F11C0113
:1047D0004A7C530706D502F0FB024A740968002997
:1047E00018BF0847704700B1C16170476FF00B00F8
:1047F000704701000BD00948406800E0006830B104
:1048000090F830305B1CDBB29942F7D17047002042
:10481000704700008CA7000860B3000894A6002031
:104820006E657469665F6164643A20696E76616C76
:104830006964206E65746966000000006E657469C5
:104840006620616C726561647920616464656400EE
:10485000696E76616C696420706F696E7465720050
:104860006E657469665F7365745F75703A20696E12
:1048700076616C6964206E65746966006E65746942
:10488000665F7365745F646F776E3A20696E7661F8
:104890006C6964206E657469660000002DE9F84F4C
:1048A0000FF2FC4590461F4694B0D5E900230491D1
:1048B000CDE900231E9C944E8DF83740002182469E
:1048C0000A914FF0FF3513E0C3464C461BF8011B1D
:1048D0000498D0470028049000F001810A98401CF9
:1048E000641E0A90F2D102E0EED54FF00109C844EF
:1048F00098F80000252805D1002100220791089290
:1049000009910CE06A462946404602F033F9814697
:10491000B9F1000FE8D10A98F8E041F0010118F868
:10492000010F2028F9D023280CD02B2804D02D28C3
:1049300005D0302809D0D4E041F00201EFE741F082
:104940000401ECE741F00801E9E741F01001E6E776
:104950000C920AE00C98B04205DA00EB800402EBFE
:104960004402303A0C9208F1010898F80020A2F1B4
:1049700030000A28EED398F800002E2818BF0B95B7
:1049800026D118F8010F2A2808D13868386008F1B4
:10499000010850F8042B38600B9219E02D280CBF49
:1049A00008F10108002000220B920BE040B90B9A9D
:1049B000B24205DA02EB820403EB4403303B0B9373
:1049C00008F1010898F80030A3F130020A2AEDD36B
:1049D000ADF834100FF2D03098F8001002F0CEF895
:1049E00008B118F8010B8DF836009DF836006828DC
:1049F00004BF98F80010682904D162208DF83600B1
:104A000008F101080EA806903A4618F8013B03A9E0
:104A1000504600F0A9F8002861D10C980799099A2E
:104A2000401A0899801AA0EB01099DF8340041074B
:104A300010D42020B9F1000F8DF808000ADD4C4693
:104A4000012302AA03A9504600F093F9002846D199
:104A5000641EF5D1079C0DF1380B5CB11BF8011BEE
:104A60000498D0470028049039D00A98401C641E4E
:104A70000A90F3D1099C3020002C8DF8080008DD45
:104A8000012302AA03A9504600F073F938BB641E43
:104A9000F6D1DDF814B0089C54B11BF8011B049842
:104AA000D0470490D8B10A98401C641E0A90F4D1F3
:104AB0009DF8340041077FF51BAF2020B9F1000FAE
:104AC0008DF808007FF714AF4C46012302AA03A912
:104AD000504600F04EF910B9641EF6D108E728469A
:104AE00014E02A287FF434AF3A683A6052F8040B95
:104AF0003A6000280C9003D540420C9041F004012C
:104B000008F1010837E70000CBCCCC0C15B0BDE8AC
:104B1000F08F62280ED0682819D1002A0A680A602E
:104B2000106803D0121D0A6000B217E0121D0A605F
:104B300080B217E0002A0A680A60106803D0121DCC
:104B40000A6040B20AE0121D0A60C0B20AE0002A00
:104B50000A680A60106803D0121D0A60C117704706
:104B6000121D0A600021704770B51C460D46252CA9
:104B7000EE68114600F08480582C37D0632C0ED09C
:104B8000642C18BF692C14D06F2C2FD0702C49D0F6
:104B9000732C53D0752C18BF782C27D076E0286959
:104BA000421C2A610A680A6052F8043B0A603354C6
:104BB00076E095F82A000122FFF7ABFF0028286075
:104BC00004D52869411C29612D220DE0288D81071B
:104BD00004D52869411C29612B2205E0C0071CD59A
:104BE0002869411C29612022325416E095F82A00D8
:104BF0000022FFF78EFF286095F8280001070CD5EA
:104C0000286850B144F02001782906D12869302164
:104C10003154401C421C2A613454214628693044D6
:104C2000A86007E00868086050F8042B08602A6054
:104C3000AE607821284600F035F831E00868086059
:104C400050F8044B0860AC603CB900BF58A001F0BC
:104C5000A1FF4FF0FF34201A70BD2E6A002E04D53C
:104C6000204601F0B7FF044608E032460021204606
:104C700001F0BAFF002814BF041B34466C610FE03A
:104C80002869411C29612522325409E02969481C00
:104C9000286125227254210002D0431C2B61345418
:104CA000002070BDF0B402466F29D46808BF082602
:104CB00005D041F02000782814BF0A2610261825B8
:104CC0001368642918BF6929184602D1002B48BF10
:104CD0004042F0B9136AE3B9082E39D192F828009E
:104CE000010735D530201725E07531E000280ED5B5
:104CF00092F8280000F01400102808D1546A1169B5
:104D00009069641A241AE31A012BA8BF9361F0BCBE
:104D10007047B0FBF6F706FB170030306D1EC3B2CC
:104D20003A2BA4BFA1F1510318186055380003D0E5
:104D300093686719BB42ECD3082E09D192F828007A
:104D4000010705D5605D302802D06D1E302060550A
:104D5000C5F11803106A5361611983429160C5DA85
:104D6000118DC31A4FF6EF70014093611185F0BCAD
:104D70007047F8B505460E4617461C46002074B12C
:104D800017F8011B7068A847706030B1F069401CCB
:104D9000F0610020641EF3D1F2BD4FF0FF30F2BD90
:104DA0000000000000000000686C747A4C000000F5
:104DB0007072696E74665F733A2062616420257355
:104DC00020617267756D656E7400000038B58CB037
:104DD0000D4668463021FFF779FB30216846FFF722
:104DE00075FB002428460FE00C2262430DEB020104
:104DF00043680B6042894A600CB141F8041C0068AA
:104E000008B900228A60641C20B1042CECD36FF036
:104E10000B000BE0C54829898160C0F80CD0856380
:104E2000011D14223C3002F027F800200DB030BDE7
:104E300038B50446BD4D06E022692146904710B1C1
:104E40000098FCF757FC00212878009138B9694692
:104E500005F13C0002F06AF800980028ECD131BD61
:104E60007CB5040007D1B248C9A100F1280340F283
:104E70001512FEF747FD04F12605732028727421F0
:104E80006972AC48AC4900BFBFA26061A161D2E9C0
:104E90000036CDE90036A949A44EF16306F1EC00D5
:104EA0004FF40001F06471644FF4BF6006F5C67101
:104EB0003065B164C6F840D006F13C0001F0C0FE98
:104EC0000620A87102210020A870E870287168717E
:104ED000012229706A7040F2DC50A084E97900BF99
:104EE000AFA041F00A01E97106F50B75FEF75EFF10
:104EF0003821301D02F0FEFB212070604FF440018C
:104F00000020B161706106F51371284602F0F5FBCF
:104F1000284602F00BFC204600F0A2F8002076BDE7
:104F200080B501469EA0FEF7B5FF804801780129B3
:104F300004BF0022027001BD02F0A4BC70B586B0AF
:104F4000044601A81421FFF7C1FA00267C4D009603
:104F5000286840F001002860296801F001010091F3
:104F6000862100F05CF842F002022A60286800F016
:104F7000020000F053F842F004022A60286800F0B2
:104F8000040000F04BF842F040022A600322286837
:104F900000F04000009000986A48019104920221BC
:104FA000029103960B21059101A902F071FC4FF4C7
:104FB0004050019001A9644802F06AFC322001903F
:104FC00001A9624802F064FC4FF40060019001A95D
:104FD0005F4802F05DFC0096296841F0007129608D
:104FE000286800F0007000F019F842F080622A6032
:104FF000286800F0806000F011F842F000622A603A
:10500000286800F0006000900099A06820B9002294
:105010004FF4800102F04EFE06B070BD0090009883
:1050200000962A68704780B54A4802F0F6F80020DA
:1050300002BD00207047134680B50A460146454828
:1050400002F028F806E0134680B50A4601464148BA
:1050500002F049F808B14FF0FF3002BD02F012BC77
:10506000F0B599B0044668466421FFF72FFA2F4E39
:1050700006F50B7002F0B7FB94F82D100025002701
:105080004A070CD5022831D206F13C0001F0B8FEE7
:105090002046FFF759FB2046FFF78EFB26E002284B
:1050A00024D3801E03284FF480414FF400621DD8A2
:1050B000DFE800F00203050617460D4600E017463C
:1050C000694606F13C0002F034F8069705956946FA
:1050D00006F13C0002F095F806F13C0001F048FEB4
:1050E0002046FFF7FDFA2046FFF744FB19B0F0BD5C
:1050F0001CB504462AA0FEF791FE03000FD003F171
:10510000200020604FF4BF621349196101924122CF
:105110002068009000210020FCF721FA13BD03490C
:10512000012008700022226013BD00000000002052
:105130007CAF000809670008CD4D000800800240E0
:1051400030380240000002400004024000080240E3
:10515000001802403C000020214F000830B5A2F1A9
:10516000200400222260228163810268002A0EBF8F
:1051700004600D682C600C6002E0018959180181FF
:1051800000680028F9D130BD0201000000000000D5
:105190006E6574696620213D204E554C4C00000020
:1051A00020060A0030030020BCA6002038B5DFF836
:1051B00038074468002503E0401EE07725460C468A
:1051C0004CB1E07F21680028F6D120460C462946E4
:1051D00000F002F8F4E731BD2DE9F84F07460D461F
:1051E0000026BD42DFF8048706D108F12803AB2270
:1051F0000FF2007100F05EF8002D1CBF2868B84265
:1052000006D008F12803AD220FF2F46100F052F845
:105210007C680FF2007961688888D0B90868786086
:105220001422606807F10801FFF7F2F80121204617
:1052300001F02BF82046FCF7B6FA0646B6F5803F9B
:1052400004DB08F12803BC2200F033F82046FCF709
:1052500051FA7C6815E06068A24604685046FCF785
:10526000A2FA83460BEB0600B0F5803F04DB08F1A1
:105270002803CC2200F01DF850465E44FCF73AFAB1
:10528000B6B2002CE7D12946384600F072F8DFF8B4
:1052900058462088B04206DA08F12803D22208F1E5
:1052A000840100F007F82088801B20803046BDE88C
:1052B000F28F49464046FEF725BB2DE9F0410446F2
:1052C00088460023DFF820667168002000278646A4
:1052D0008446002917E0E2684D69954202BF2269C1
:1052E0008D69954202BF8A89A588AA4207D07F1C92
:1052F00018B1C27FCD7FAA4201D30846F4460A689E
:1053000002B18E461100E6D120B11D466146FFF77D
:1053100063FF4319434501DA012FD5DC1846BDE888
:10532000F08170B505460E460420FEF789FD0400A5
:105330000CD131462846FFF7C0FFB04204DB042001
:10534000FEF77EFD040001D1002070BD2021204623
:10535000FFF7BCF80F20E0771422DFF88C054168D6
:1053600021604460294604F10800FFF751F8204607
:1053700070BD38B50546DFF870050C464168A94296
:1053800002D12A6842600CE04CB9DFF860050FF2E8
:10539000A45100F1280340F24512FEF7B3FA2A683F
:1053A00022602946BDE834400420FEF783BD2DE984
:1053B000F84F88468346D8F80450688891460126FD
:1053C000FCF7E2FB2F78BF0007F03C07B8428246AB
:1053D0007ADBE888FCF7D8FBD8F804500021C0003D
:1053E00029608244A880AAEB0702EA8080B292B2C8
:1053F000824269D3DBF804A0524609E064D0CA882F
:10540000944261D300280A681EBFC08898420026D3
:10541000002A084644D05168AC888B889C42EDD263
:105420002A60E8B1C3889C4222BF8988EA889142F9
:105430004AD3C0F80080C088A988884218BF0026D7
:10544000B9F1000F03D19BF81E00C10725D5002E2E
:1054500056D0DBF80440F4B161688888D8B912E00E
:105460008888E98888422FD3CBF80480E8E7BAF12E
:10547000000FF9D000F1280340F2BF1200F1A8019B
:10548000FEF740FAF0E72868294600B34568C88867
:10549000A9888842F7D0002632E00020BDE8F28FCC
:1054A0000700DFF84804E2D0A988FA88914207D2C1
:1054B00000F128034FF4DB720FF29441FEF722FA59
:1054C000C7F80080F888B7E74FF0FF30E6E760687C
:1054D000DFF81874A84208D107F1280340F2E1125E
:1054E0000FF28C413846FEF70DFA286840B107F1FB
:1054F000280340F2E31207F1E0013846FEF702FA12
:105500003046CBE72DE9F84F8146D9F80460307872
:10551000800000F03C00142840F0D680F088FCF7B2
:1055200033FB4FEAC00A7088FCF72EFB3178890004
:1055300001F03C018842C0F2C780471A4846FCF798
:1055400032F9DFF8A4538046288840440A280ADD4F
:1055500041463046FFF7B1FE002800F0B5802888AC
:1055600040440A28D8DC6C6800E02468002C00F075
:10557000B180F0686169814202BF3069A1698142EE
:1055800002BFA089B1888842EFD1F088FCF7FCFA0D
:10559000C0040AD1E089FCF7F7FAC00405D0142250
:1055A000314604F10800FEF733FFF088CF4E0006C5
:1055B000400F00F0010090F0010B574408D0B8B242
:1055C0001FFA8AF1884263DB4FF6EC7188425FDA9A
:1055D0005A4649462046FFF7EAFE10F1010F57D020
:1055E00029884144BBF1000F298004D0A17FA78303
:1055F00041F00101A177012869D16068A78B41685A
:10560000D1F800908A46142204F108015046FEF7B2
:10561000FFFE1437B8B2FCF7B7FAAAF80200002070
:10562000AAF80600AAF80A0067680BE0D9F804A0F7
:1056300014214846FCF72DF849463846FCF7CDF8CA
:10564000DAF80090B9F1000FF0D169688C4218D1F6
:1056500000212046FFF78DFE3846FCF7A4F80446EB
:105660002888A04280F2088006F1280340F29B229D
:10567000C3A13046FEF746F92888041B2C80384623
:1056800026E000291EBF0868A0420146F9D1E0E7E4
:1056900044B906F128034FF42A7200BFBFA1304677
:1056A000FEF730F9606878B96868844200F00880D5
:1056B00006F1280340F2AB22BBA13046FEF722F9E7
:1056C00000212046FFF755FE4846FCF713F800205E
:1056D000BDE8F28F41463046FFF723FE04007FF419
:1056E00064AFF1E710B5040007D18048B6A100F11E
:1056F00028034FF43172FEF705F92146BDE810404A
:105700000520FEF7D7BB000010B5040007D177488D
:10571000B0A100F1280340F2CE22FEF7F3F8606951
:1057200008B1FBF7E7FF2046BDE81040DAE70000CC
:105730002DE9F24F8AB00546888C1438811000EBB1
:105740005170C010069000266868059014460178D4
:10575000890001F03C0114294FF014096FF005078E
:105760000BD1688914280ADADFF880019CA100F1C6
:1057700028034FF43F72FEF7C5F8384673E00598EA
:10578000C088FCF701FAC0F30C0200F40050089046
:1057900004922889A1A30793A0F1140292B2029265
:1057A000099495E041F4005173E04FF42072142104
:1057B0000E20FBF706FE040053D06089142808DA97
:1057C000DFF828018DA100F1280340F22532FEF711
:1057D00099F8059960681422FEF71AFE6068039034
:1057E000A046B8B204461FE0B0B2019053466868C4
:1057F000484400904122B1B20020FBF7B0FE5FEABE
:10580000000B33D02846FBF7D7FF3948CAF8100001
:10581000CAF8145059464046FBF7DFFFA41BA4B258
:1058200044B32D684FF0000924B36889B0EB090632
:1058300007DA2E48079900F1280340F22D32FEF7CF
:1058400061F8B0B28442B8BF2646B0B20028E8D0B2
:105850000520FEF7F5FA5FEA000AC5D14046FBF7DE
:1058600049FF4FF0FF300BB0BDE8F08F5046FFF717
:1058700039FFF3E70A98828C029B0499143AB144E9
:105880009A421FFA89F9C1F30C018BDB08980028B2
:1058900088D10846FCF778F90399C88007F114000D
:1058A00080B2FCF771F90399488000200399488180
:1058B00041460A98099A4469A0474046FBF71AFFF7
:1058C00002980499C71B0698BFB241180297049129
:1058D00002980028C7D00699CA0092B29042B4BF7D
:1058E0000746CF0061E70000A0A6002064AB0008D7
:1058F000095700087072657620213D20697072009A
:10590000707265762D3E6E657874203D3D2069701D
:105910007200000070627566735F66726565642070
:105920002B20636C656E203C3D2030786666666691
:105930000000000073616E69747920636865636BB1
:10594000206C696E6B6564206C69737400000000E4
:10595000636865636B20667261676D656E74732042
:10596000646F6E2774206F7665726C617000000042
:1059700073616E69747920636865636B0000000071
:1059800069705F72656173735F70627566636F756E
:105990006E74203E3D20636C656E0000697072205D
:1059A000213D204E554C4C006E6F74206669727319
:1059B00074616C74686F756768206A7573742065AC
:1059C0006E717565756564007020213D204E554CE3
:1059D0004C00000070637220213D204E554C4C005D
:1059E0006970345F6672616728293A207062756653
:1059F00020746F6F2073686F72740000746869732D
:105A0000206E656564732061207062756620696E22
:105A1000206F6E652070696563652100702D3E6C96
:105A2000656E203E3D20706F6666000080B5FEF713
:105A3000FBFCC0F30D00DFF85415A0F58040088092
:105A400001BD2DE9F14F82B00E4640B9DFF8403577
:105A50000FF24C51DFF83C05CF22FDF753FF46B95A
:105A6000DFF830050FF2505100F14C03D022FDF762
:105A700049FF029841890829C0F288804468DFF80C
:105A8000187539687869DFF80C85FBF735FC8146B5
:105A90002088FCF779F882466088FCF775F8DFF813
:105AA000EC144C6800904FF0000B002528E0002C0F
:105AB0001CBF2068002845D0796911F1010F1FBF74
:105AC000B2681040114088423CD017E0B9F1000F95
:105AD0000BD0786910F1010F07D1706829688142F5
