:020000040800F2
:1000000000200010393B0008D1390008D33900081E
:10001000D5390008D7390008D93900080000000098
:10002000000000000000000000000000DB390008B4
:10003000DD39000800000000DF390008E139000860
:10004000793B00087D3B0008813B0008853B0008A8
:10005000893B00088D3B0008913B0008953B000858
:10006000993B00089D3B0008A13B0008A53B000808
:10007000A93B0008AD3B0008B13B0008B53B0008B8
:10008000B93B0008BD3B0008C13B0008C53B000868
:10009000C93B0008CD3B0008D13B0008D53B000818
:1000A000D93B0008DD3B0008E13B0008E53B0008C8
:1000B000E93B0008ED3B0008F13B0008F53B000878
:1000C000F93B0008FD3B0008013C0008053C000826
:1000D000093C00080D3C0008113C0008153C0008D4
:1000E000193C00081D3C0008213C0008253C000884
:1000F000293C00082D3C0008313C0008353C000834
:10010000393C00083D3C0008413C0008453C0008E3
:10011000493C00084D3C0008E9390008513C000802
:10012000553C0008593C00085D3C0008613C000853
:10013000653C0008693C00086D3C0008713C000803
:10014000753C0008793C00087D3C0008813C0008B3
:10015000853C0008893C00088D3C0008913C000863
:10016000953C0008993C00089D3C0008A13C000813
:10017000A53C0008A93C0008AD3C000800000000B8
:10018000B13C0008B53C00082DE9F0439FB000BF2A
:1001900065A6269CDFF8B48A8DF83B4002910024C6
:1001A0000B944FF0FF37044691461D460AE019F8BC
:1001B000011B0298A0470028029000F0A1800B9834
:1001C000401C0B9099F8000050B12528EFD1002178
:1001D0000022059106920791089209910A9203E084
:1001E0000B98A5E041F0010119F8010F2028F9D082
:1001F00023280CD02B2804D02D2805D0302809D056
:1002000080E041F00201EFE741F00401ECE741F04A
:100210000801E9E741F01001E6E70D920AE00D98C8
:10022000404505DA00EB800002EB4002303A0D92C7
:1002300009F1010999F80020A2F130000A28EED353
:1002400099F800002E2818BF0C9726D119F8010F35
:100250002A2808D12868286009F1010950F8042BE0
:1002600028600C9219E02D280CBF09F1010900202B
:1002700000220C920BE040B90C9A424505DA02EBE1
:10028000820203EB4203303B0C9309F1010999F818
:100290000030A3F130020A2AEDD3ADF83810304611
:1002A00099F8001000F086FE08B119F8010B8DF8DE
:1002B0003A009DF83A00682805D199F800006828AE
:1002C0000CD1622106E06C2804BF99F800006C286C
:1002D00004D171218DF83A1009F1010910A8049098
:1002E0002A4619F8013B6946204600F061F838B902
:1002F00010AA6946204600F08FF900287FF562AF0A
:10030000384615E02A2888D12A682A6052F8040B5A
:100310002A6000280D9003D540420D9041F0040161
:1003200009F101098CE70000686A6C747A4C0000DE
:100330001FB0BDE8F083622820D0682811D06A2859
:1003400003D06C2827D0712825D10868C01D20F063
:1003500007000860D0E900230830086019461046FD
:100360007047002A0A680A60106803D0121D0A60EC
:1003700000B217E0121D0A6080B217E0002A0A6876
:100380000A60106803D0121D0A6040B20AE0121D14
:100390000A60C0B20AE0002A0A680A60106803D046
:1003A000121D0A60C1177047121D0A6000217047B4
:1003B00070B51C460D46B4F125002E69114600F0BB
:1003C00019811C3868D0001F022865D9133842D023
:1003D000093861D0801E16D0401E1ED0401E022853
:1003E0005AD9001F19D0401F00F08180401E32D022
:1003F000401E00F0CB80C01E00F0DA80801E2AD0A4
:10040000C01E28D0FCE06869421C6A610A680A6064
:1004100052F8043B0A603354FCE095F83A0001229C
:10042000FFF789FFC5E90001002904D56869411C6F
:1004300069612D220DE0288F810704D56869411C70
:1004400069612B2205E0C00721D56869411C6961FB
:10045000202232541BE095F83A000022FFF76BFF90
:10046000C5E9000195F83800010710D5D5E900234A
:10047000002B08BF002A0AD044F02000782806D1BB
:10048000686930213154401C421C6A613454214651
:1004900068693044E86087E00868C01D20F0070004
:1004A0000860D0E9002308300860C5E90023D5E9D9
:1004B0000001C80F04D06869411C69612D220DE05C
:1004C000288F810704D56869411C69612B2205E0EA
:1004D000C00704D56869411C6961202232546869EB
:1004E0003044E8602146284600F0C4F992E005F166
:1004F0003A02507820B14FF0FF340FF6202062E02E
:100500001078622808D0682824D06A2812D06C2875
:100510002ED071280ED02BE00A680A6052F8040B26
:100520000A6020B94FF0FF340FF608204BE0E96A6B
:1005300001706FE00A680A6052F8040B0A6020B983
:100540004FF0FF340FF6EC103DE0EA6AD317C0E934
:1005500000235FE00A680A6052F8040B0A6020B9C1
:100560004FF0FF340FF6CC102DE0E96A018051E026
:100570000A680A6052F8040B0A6020B94FF0FF3491
:100580000FF6B0101FE0E96A016043E00A680A60F4
:1005900052F8040B0A60002120F0000221F0FF3322
:1005A000C5E90023EE607821284600F0BBF831E071
:1005B0000868086050F8044B0860EC603CB94FF0E4
:1005C000FF340FF6881000F001FD201A70BD2E6B6D
:1005D000002E04D5204600F019FD044608E03246FE
:1005E0000021204600F02EFD002814BF041B3446D5
:1005F000AC610FE06869411C69612522325409E051
:100600006969481C686125227254210002D0431C8C
:100610006B613454002070BD2DE9FC410F46064645
:1006200090467A6B7869396ABC6A121AB869521AAC
:10063000796A121AF869521A121A97F83800141BBC
:1006400041070FD42020002C8DF800000ADD25463C
:1006500001236A463946304600F048FC00285DD147
:100660006D1EF5D17B6942463946304600F03EFCAE
:10067000002853D130208DF800003D6A002D09DD9F
:1006800001236A463946304600F030FC002845D147
:100690006D1EF5D1BB69FA683946304600F026FC7C
:1006A00000283BD130208DF800007D6A002D08DD48
:1006B00001236A463946304600F018FC70BB6D1EB7
:1006C000F6D1F868B969FB6942183946304600F03E
:1006D0000DFC18BB30208DF80000BD6A002D08DD30
:1006E00001236A463946304600F000FCB0B96D1E61
:1006F000F6D197F8380041070DD52020002C8DF851
:10070000000008DD01236A463946304600F0EEFB62
:1007100020B9641EF6D10020BDE8F6814FF0FF300D
:10072000BDE8F6812DE9FC4307466F293E6908BF05
:10073000082405D041F02000782814BF0A24102492
:100740003C25D7E90023642918BF692990469946BA
:1007500005D1002B03D5D8F1000869EB4909B9F19F
:10076000000F08BFB8F1000F1FD1386BE8B9082C93
:100770004CD197F83800010748D530203B2586F842
:100780003B0043E000280ED597F8380000F0140035
:10079000102808D17B6B7969386A5B1A1B1A9A1A80
:1007A000002AC8BF3A62BDE8F3838DF800104046C6
:1007B00049462246E31700F071FC3032D0B26D1E7C
:1007C0003A28019504DB9DF80000A0F151018A1838
:1007D0007255404649462246E31700F05FFC8046CA
:1007E0005FEA010908BFB8F1000F03D0F86871197A
:1007F0008842DCD3082C09D197F83800010705D5C9
:10080000705D302802D06D1E30207055C5F13C025D
:10081000BA617119F960386B8242B3DA821A3A62AE
:100820004FF6EF70398F01403987BDE8F3832DE92A
:10083000D04306460F4614464FF00008DFF81094E8
:1008400012E0E00707D542464B463046394600F0F5
:100850003DFD06460F464046494642464B4600F09F
:1008600035FD641080468946002CEAD13046394671
:10087000BDE8D0832DE9F84F05468A464AF02004AA
:100880008EB0D5E90089612C02AE09D0286B002812
:1008900048BF062003D408BF672C01D1012028637C
:1008A000D5E900014A005215521C0DD10B030BD0A3
:1008B000AAF1610103201A29A86102D20FF2A861EE
:1008C00010E00FF2A8610DE04A005215521C0ED143
:1008D0000B030CD1AAF1610103201A29A86116D3D8
:1008E0000FF29061E868032200F0C2FDC0E1CDE99B
:1008F0000C01DDE90C2323F00043B3F5801F0DD27A
:100900000027002B08BF002A019703D111E00FF246
:100910006061E7E701AA00F0FFFD0AE0CD48CE499B
:1009200000EB1350DDE90C2301900B40CB4910463E
:100930001943C5E90001612C0DD1E868302101702F
:10094000821CBAF1610FEA600CBF78215821417016
:100950006869801C6861D5E90001CDE90C01DDE919
:100960000C2333F0004104BF0028002300F048812D
:10097000612C40F0A080286B494600284CBF4FF006
:10098000210B00F1010B404600220023DDE90C8918
:1009900000F0FAFD01990BF1010738BF89F0004919
:1009A000091F002F01918DF808200DF1090040F377
:1009B0003581A94900910646404649460022002358
:1009C00000F0FAFD80F029814800400D00F11C0282
:1009D00011D0002A0FDD40F2FF739A4205DBA049D7
:1009E00009F000400143002011E0009B194041EA5A
:1009F000025140460BE028F0000039F0004108BFEA
:100A000000280FBF49461C22494600F0EDFD8046F4
:100A1000894600F087FEFF1F002F044609DD00F025
:100A20009FFE02460B464046494600F0ABFE80461C
:100A30008946F01D072104E004F00F0200F8012DA3
:100A40002411002C01DD491EF6D5491E5CBF002291
:100A500000F8012DF9D5DCE00020194602AA0A446D
:100A600000E05B1E12F80149491E8442F9D00F28AC
:100A700004D10DF10900425C521C4254002904D5F6
:100A80000198001D02AE5B1C0190581E0CD4311859
:100A9000AAF13A040A783032D7B23A2FA8BFA21886
:100AA000401E01F80129F5D5286B002840F1A780E8
:100AB000591E2963A3E001996A4A47F297504143BE
:100AC00091FBF2F2019229F00046D2F1070204DD17
:100AD00040463146FFF7ABFE0AE052420020624931
:100AE000FFF7A5FE02460B464046314600F0BCFE2D
:100AF0008046662C286B06BF019F0A3706273F18E1
:100B0000142FC8BF142730208DF8080089460DF136
:100B1000090000E03046002F34DD064640464946D5
:100B200000F0C6FF01460A4606F1080304200A2623
:100B3000B2FBF6F606EB860EA2EB4E02303203F85D
:100B4000012C0A22B6FBF2F202EB820EA6EB4E0655
:100B50003036401E03F8026DE9D1083F002F03F143
:100B60000806D7DD084600F0B7FF02460B464046B0
:100B7000494600F007FE00223C4B00F0A7FB8046F0
:100B80008946CBE70DF10901401A0DF1090604E091
:100B90000199491E401E0191761C31783029F7D009
:100BA000662C02D10199491C03E0652C0CBF012180
:100BB00000212B6BCB189842B8BF431E002B1ED4CC
:100BC000834204DAF05C3528A8BF392000DA3020EF
:100BD0001946721E02EB010800E05B1E18F801992D
:100BE000491E8145F9D0392802D1705C401C7054EF
:100BF000002904D50198401C16465B1C0190019801
:100C000000B200901BB232465146284600F034F83C
:100C10002EE0C61D002F3FF7CFAE30460DF1090183
:100C2000401A03465845C8BF5B46002B0DF1090624
:100C30003FF53AAF8342BFF60FAF0DF10900C15C3B
:100C400007297FF709AF0F2007E70000CBCCCC0CBA
:100C50000000244002FCFFFFFFFF0F800000E03F88
:100C60000000F07FA08601000000F03F84D797418C
:100C70000FB0BDE8F08F00002DE9F84783B00646BD
:100C80008A461746984600F035FFB8F1000F406AD3
:100C9000356B90F8009002DC4FF00108B6A74AF0DF
:100CA0002000BDF93040662808BF641C15D06728B5
:100CB00040F0848014F1040FC0F28680AC4280F2D0
:100CC000838096F83800641C010702D4A845B8BF99
:100CD000454620B22D1A48BF00250FFA84FAF06865
:100CE000B169BAF1000F25DC4A1C30234354002DB2
:100CF00003DC96F83800010703D5F06800F802908D
:100D0000521C15EB0A0FB8BF6C4220B24419414285
:100D10004445B8BFA046B26171620FFA88F5F5612B
:100D2000F068B3692A463946184400F0A1FB641BF9
:100D3000B462C4E022B29045084417DA424639460C
:100D400000F096FBB0694044B061AAEB0801002DA9
:100D5000716203DC96F838100A0705D5F16801F8CE
:100D60000090F069401CF061B562A8E0394600F0DF
:100D70007FFBB069002D5044A8EB040803DC96F813
:100D800038100A0703D5F16801F80090401CB061E3
:100D90000FFA88F08542F368B069B8BFA8460FFA29
:100DA00088F207EB0A01184400F062FBB1690FFA00
:100DB00088F00144B161281A706280E0BAF1610FD5
:100DC00014D14FF0700A16E0A84504DA96F83810EE
:100DD0000A0758BF45466D1E48BF0025BAF1670F88
:100DE00014BF4FF0450A4FF0650A04E0BAF1410F15
:100DF00008BF4FF0500AB169F368481CB061002D7C
:100E000017F8012B5A5403DC96F838100A071BD543
:100E1000F168431CB36101F80090002D14DDA8F1C6
:100E200001080FFA88F039468542F768B8BFA8462E
:100E30000FFA88F2F81800F01BFBB0690FFA88F17E
:100E400008446D1AB0617562F068B1690844002CFD
:100E500080F800A003D42B224270811C03E02D21D6
:100E600041706442811C00206A460AE023460A243D
:100E700093FBF4F404EB8405A3EB450302F8013B78
:100E8000401C24B2002CF1DC012806DC4AF02002D0
:100E9000652A04BF302201F8012B48B9302001F83F
:100EA000010B07E0401E1DF80030303301F8013B14
:100EB0000028F7DCF268B0691044091AF16196F86D
:100EC000380000F0140010280DD17269B169706A01
:100ED0008A18F1698218B06A8A188218706B824287
:100EE000BCBF821A326204B0BDE8F087F8B505468F
:100EF0000E4617461C46002074B117F8011BB06857
:100F0000A847B06030B1F06A401CF0620020641E57
:100F1000F3D1F2BD4FF0FF30F2BD00007072696E88
:100F200074665F733A20256E20646973616C6C6F20
:100F3000776564007072696E74663A20626164203D
:100F4000256E20617267756D656E74007072696ED2
:100F500074665F733A206261642025732061726752
:100F6000756D656E740000006E616E004E414E003E
:100F7000696E6600494E4600300030B4002513E02B
:100F800050F8042BD30744BFA9F101039A18091F95
:100F9000042942F8045BFAD213468C0744BF15803B
:100FA0009B1CC90748BF1D7050F8041B0029E7D1DE
:100FB00030BC7047C9B202788A421AB11CBF10F81F
:100FC000012FF9E718BF00207047000080B500B975
:100FD00006A005490B681BB122220021984701E0B9
:100FE00000F08CFD222002BDA8010020636F6E730B
:100FF000747261696E742068616E646C65723A2007
:10100000626164206D6573736167650000F10103BF
:10101000810704D010F8011B820781B1FAD1026860
:10102000A2F10131914311F0803104BF50F8042F37
:10103000F6E709BAB1FA81F100EBD100401CC01A01
:1010400070470000C9B2830706D0521E22D310F8A1
:10105000013B9942F7D11FE0083A13D302F1040291
:1010600041EA012141EA014150F8043B121F21BF2E
:101070004B40A3F1013C2CEA030C1CF0803FF3D061
:10108000C9B2001F083210F8013B521E28BF91EA76
:10109000030FF8D818BF0120401E7047BBBBE1B159
:1010A000B2F5803F80F07E80022A1ED98C46B1FBCB
:1010B000F2F102FB11C31B0443EA1043B3FBF2FC41
:1010C00002FB1C3380B240EA0343B3FBF2F002FBA5
:1010D000103240EA0C4000237047022A05D98446AA
:1010E000B0FBF2F002FB10C270474AB105D100F02C
:1010F000010249085FEA3000704700220023704770
:1011000000F000BD0B00020000210020704790425B
:1011100071EB030CF6D3B3F5803F2FD2F0B5B3FAE1
:1011200083F7B1FA81F4A7F10F0E3D1B5340CEF1C6
:10113000200602FA0EF2F3415340B5F10F0746D8EC
:101140000F3C2C444140C4F12006A040F1414140F5
:10115000B1FBF3F603FB1611A2FB0645001BA941E8
:1011600002D2761E8018594180EA010221FA0EF35C
:1011700062FA0EF200215A403046F0BD30B4B1FBA5
:10118000F3FC03FB1C11A2FB0C45001BA94103D27D
:10119000ACF1010C8018594130BC02460B46604648
:1011A00000217047B2F1807F65D3F0B5B2FA82F7C3
:1011B000B1FA81F4C7F10F063D1B22FA06F307F1DD
:1011C000110EF24120355A40B5F10F07B8D9414010
:1011D000C4F12006A040F1414140B1FBF3FC03FB08
:1011E0001C11A2FB0C45001BA94103D2BCF1010C50
:1011F000801859410F2F12D30F3FC90341EA5041C4
:10120000B1FBF3F603FB1611A2FB0645D4EBC0308D
:10121000A94102D2761E8018594146EACC3C07B358
:101220004140C7F12006B840F1414140B1FBF3F61F
:1012300003FB1611A2FB0645001BA94102D2761E34
:101240008018594180EA010221FA0EF3C7F1200407
:1012500062FA0EF20CFA07F05A402CFA04F130430D
:10126000F0BD80EA010221FA0EF3002162FA0EF2CB
:1012700060465A40F0BD8C46B1FBF2F102FB11C34F
:101280001B0243EA1063B3FBF2FC02FB1C331B029C
:101290004CEA002043EA1063B3FBF2FC02FB1C3370
:1012A0001B024CEA002043EA1063B3FBF2FC02FB92
:1012B0001C331B024CEA002043EA1063B3FBF2FC30
:1012C00002FB1C324CEA002000237047B0B581EAD3
:1012D000030C0CF0004C40F2FF7515EA11541DBFD1
:1012E00015EA1357AC42AF4239E0E41923EA4553FB
:1012F00043F48013C90241F0004141EA505EC70245
:101300001100A7FB020200284FF00000EEFB0120B5
:101310004FF00001E3FB072118BF42F00102401823
:1013200000214941E3FB0E01A4F580640F0302D2C2
:1013300052004041494154F101046CDD470872F10B
:10134000004250F1000051EB0451A1F580115CBF47
:1013500041EA0C01B0BD4CEA05510020B0BD05EAE0
:101360001357AC4214BFAF4241E050EA410E1CBFDC
:1013700052EA430E02E061460020B0BD24423C44E4
:101380001BD15FEA070EF6D0090302BF0146002019
:10139000AEF1140EB1FA81F7AEEB070401FA07FEC5
:1013A0000C37C7F1200100FA07F7C8404EEA000EDB
:1013B00023EA455343F48013A2E733F00043B3FA22
:1013C00083F704BFB2FA82FE77440B3FE41BB7F108
:1013D000200E2FBF02FA0EF3BB40C7F1200E22FAF7
:1013E0000EFE38BF43EA0E03BA40641C82E750EA9F
:1013F000410E14BF52EA430E6FF000014FF4001784
:1014000017EB430F8ABF194617EB410FB5E74CEABC
:1014100005510020B0BDD4F10104B4F120070FDA6A
:10142000C4F12007520828BF42F0010210FA07F564
:1014300001FA07F7E1BF2A43E0403843E1400FE0FB
:10144000352C98DCC7F1200452EA400220FA07F25A
:1014500018BF42F0010231FA07F0A1400A4300210F
:1014600072F1004250F1000051EB0C01B0BD0000E0
:1014700062B38B0708D0521E11F8013B00F8013B04
:1014800000F024808B07F6D1830740F0208000BF56
:10149000103A07D330B4B1E83810103AA0E8381049
:1014A000F9D230BC530724BFB1E80810A0E80810F7
:1014B00044BF51F8043B40F8043BD20724BF31F845
:1014C000022B20F8022B44BF0B7803707047121FC9
:1014D00017D35B0009D151F8043B20F8023B1B0CE9
:1014E000121F20F8023BF6D20BE051F8043B00F843
:1014F000013B1B0A20F8023B1B0C121F00F8013BAA
:10150000F3D238BF121D521E24BF11F8013B00F860
:10151000013BF8D87047000010B5144600F002F8FF
:10152000226010BDC1F30A5343B14A0012F5001FF7
:1015300028D2A3F2FE32A1EB0251704750EA410CCF
:1015400020D001F0004C31EA0C01B1FA81F204BF65
:10155000B0FA80F3D2180B3AB2F120032CBF00FA94
:1015600003F1914041EA0C013EBFC2F1200C20FA88
:101570000CF319439040524240F2FD33D21A01EB72
:1015800003517047002270474FF4001C1CEB410FC1
:1015900094BF1CEB430F09E041EA030C50EA4C0CEA
:1015A00052EA0C0C03D2994208BF9042704714BF14
:1015B0008B428242704700004FF4001C1CEB410F2D
:1015C00094BF1CEB430F09E041EA030C50EA4C0CBA
:1015D00052EA0C0C03D28B4208BF8242704714BF00
:1015E0009942904270470000124254D440F2FF7C6E
:1015F0001CEA11530FD0634531D09B1863453CBFA3
:1016000001EB0251704701F0004141EA0C5100200A
:10161000AFF30080704750EA410320D001F0004C46
:1016200091EA0C011CD0B1FA81F30B3B9A420DD91F
:10163000D21A994051EA0C01C3F1200C20FA0CFC9B
:1016400061449840531C40F2FF7CD7E7914041EA47
:101650000C01C2F1200C20FA0CF3194390407047A2
:10166000B0FA80F31533202BE0D3202AEED3203AB2
:10167000203B9A4209D9D21A00FA03F141EA0C013F
:101680000020531C40F2FF7CB8E700FA02F141EA67
:101690000C0100207047524240F2FF7C1CEA1153BB
:1016A0000DD06345DBD0B2EB030C3CBFA1EB025184
:1016B00070470CF1010221EA035141F4801150EA14
:1016C000410CCCD001F0004C352A27DC30B481EA43
:1016D0000C01B2F1200309DAC2F12003044601FA39
:1016E00003F5D0402843D1409C400CE0C3F12002D8
:1016F000450020FA03F418BF44F0010421FA03F076
:1017000091400C43002174F1004550F1000051EB71
:101710000C01244230BC7FF47BAF7047614600204F
:1017200076E70000C1F30A5340F2FE329B1A14DD43
:10173000D3F120034FEAE17208DDC90241EA5051BA
:1017400041F00040D84080185040704703F2E1302B
:1017500010B1D24382F00040704700207047000073
:10176000C11768B14840401AB0FA80F29040D21CCC
:10177000C907C2F5846241EA025202EBD02140055A
:101780007047000070B44FF0004591EA030F40F13C
:10179000BB816B40841A71EB030603D2001BB1417D
:1017A000121973414FF4001C1CEB410F34BF7CEB4A
:1017B000430442E00C0DA4EB1356352E4FDC45EAF2
:1017C000C323DB0A45EAC121C912B6F120050DDDAC
:1017D00063FA05F6EB4086EA0305124218BF45F0AE
:1017E0000105C01851F100010CD213E062FA06F5B0
:1017F000F2405540F3415A40B340F3405A408018FC
:10180000594107D349085FEA30005FEA350528BF30
:1018100045F0010501F58011420875F1004250F1D3
:10182000000041EB04514E0016F5001F70BC38BF9C
:1018300070470020090D090570471CEB410F10D2BD
:1018400052EA43060BD0BCEB410F05D80C0DAB435D
:10185000661E342EB6DD02E0AB438018594170BCE1
:10186000704770BC70470000F0B540F2FF7581EA28
:10187000030C0CF0004C15EA11541DBF15EA135768
:10188000AC42AF42E5E0BC41C1F31301C3F3130323
:10189000801A994143F4801304D2641E40004941E8
:1018A00080185941C90241EA5051B1FBF3F603FBDC
:1018B0001611A2FB0675D7EBC020A94102D2761EF5
:1018C00080185941C90241EA5051B1FBF3FE03FBB4
:1018D0001E11A2FB0E75D7EBC020A94103D2AEF1B9
:1018E000010E80185941890241EA9051760546EA75
:1018F0008E2EB1FBF3F603FB1611A2FB0675D7EB98
:101900008020A94102D2761E80185941C90241EABD
:1019100050514EEA060EB1FBF3F603FB1611A2FB83
:101920000675D7EBC020A94102D2761E8018594116
:10193000C90241EA5051B1FBF3F703FB1711A2FBB7
:101940000735D3EBC020A94167F100070CBF004267
:1019500047F0010766F3D5274FEA1E31B80814F5A2
:10196000806412DDBD0775F1004250EB0E5051EB63
:10197000045111F5801F5CBF41EA0C01F0BD4CF031
:101980007F6141F0E0410020F0BDBD076D0840EAF5
:101990000E5041F48011D4F10104B4F120060ADAAA
:1019A000C4F120060200E04001FA06F3E1401843CA
:1019B000B24015430EE0342C13DCC6F1200445EA96
:1019C00040056D0820FA06F2154321FA06F0A14001
:1019D0000D43002175F1004250F1000051EB0C0164
:1019E000F0BD00205FEA0C01F0BDCFB992185B4159
:1019F000B3FA83F704BFB2FA82F6BF190B3FB7F10F
:101A000020062FBF02FA06F3BB40C7F1200622FAD8
:101A100006F638BF3343BA401CB1E419641E33E7FD
:101A20007F4231F00041B1FA81F404BFB0FA80F690
:101A3000A4190B3CB4F120062FBF00FA06F1A14017
:101A4000C4F1200620FA06F638BF3143A0403C1B03
:101A50001AE7AC421ABF05EA1357AF4212E050EA48
:101A600041061CBF52EA4306BFE750EA4107304631
:101A700061461CBF41EA0551F0BD52EA430C08BF64
:101A8000C143F0BD00204FF4001616EB410F98BF84
:101A900016EB430F08BF16EB410F24BFC14305E00F
:101AA00016EB430F0CBF61464CEA0551F0BD000038
:101AB000400D491840EA81200CD2490DA1F5806102
:101AC000491C40F0004005DBD1F11F0154BFC84064
:101AD000C017704700207047014648B1B0FA80F146
:101AE0008840C91CC1F58461090501EBD02140057E
:101AF000704700000048704748000020012000F0B7
:101B0000B9B8000070470000841A71EB030604D2D4
:101B10006E40001BB141121973414FF4001C1CEBC5
:101B2000410F34BF7CEB430683E00C0DA4EB13564E
:101B3000362E00F37C80012E45EAC32341DC43EAC4
:101B4000525312BFD20292025B08240545EAC1211A
:101B500041EA5051D2EBC020994125D407D1B0FAC7
:101B600080F610FA06F162D00020203608E0B1FAC3
:101B700081F6B140C6F1200220FA02F21143B040D2
:101B80004FEAF474B4EB465434F001064FEA74049F
:101B90000AD8D6F50016760D04F00044F04061FA3C
:101BA00006F25040F1404840C00A40EA415021F05E
:101BB000004128BF5FEA500550F1000044EBD121FD
:101BC00035E0DB0A45EAC121C90AB6F120050EDD80
:101BD00042EA0242120CC5F1200603FA06F6EB4077
:101BE00042EA06056D42984161F100010DE062FA9A
:101BF00006F5F240554063FA06FC82EA0C02F34017
:101C00005A406D42904161EB030111F4801F05D1F0
:101C1000641E620502D06D004041494121F48011EB
:101C2000430875F1004350F1000041EB045170BCD2
:101C300070471CEB410F15D223F0004352EA4306D4
:101C40000BD04FEA4C0CBCEB410F04D80C0D661EB8
:101C5000342EB7DDEBE7801A994150EA410608BF00
:101C60000021E4E708BF1CEB430F28BF6FF0000121
:101C7000DDE7000080B5AFF30080024A11001820B4
:101C8000ABBEFBE72600020010B50400002C01D11A
:101C9000012035E0A0690028FFD194F84100002818
:101CA00005D1002084F84000200000F0C6FA24206E
:101CB00084F841002068C06830F400502168C86092
:101CC000200000F0F0F82068006930F490402168AE
:101CD00008612068406930F02A0021684861206866
:101CE000C06850F400502168C86000206064202063
:101CF00084F84100202084F8420000206063002026
:101D000010BD2DE9FC4106000D0014001F0000204D
:101D100096F84100202851D1002D03D0200080B238
:101D2000002801D101204AE000207064212086F8BB
:101D3000410000F0C7FA8046B484F484B068B0F57E
:101D4000805F04D13069002801D1002412E02C000A
:101D500000250FE0207831684860641C07E0002C03
:101D6000F8D12888C005C00D31684860AD1CF08CE2
:101D7000401EF084F08C00280DD0009743460022CE
:101D80008021300000F01DF80028E8D0202086F8DF
:101D90004100032013E00097434600224021300019
:101DA00000F00FF8002804D0202086F8410003201E
:101DB00005E0202086F84100002000E00220BDE878
:101DC000F6812DE9FC4105000E0090461F00089C9D
:101DD000286800683040B04201D1012000E00020B6
:101DE0004146C9B288422AD114F1010FF0D000F067
:101DF00069FAC01B844201D3002C01D103201FE0EB
:101E00002868C0684007E3D5802EE1D0402EDFD09F
:101E1000286800680007DBD500200090286800686B
:101E200000902868406800900098280000F00AF8A8
:101E300008206864002085F84000012000E00020B0
:101E4000BDE8F68101680C3151E8002F32F4907240
:101E5000016811F10C0343E800210029F2D1016867
:101E6000143151E8002F52085200016811F1140397
:101E700043E800210029F2D1016B01290CD101684E
:101E80000C3151E8002F32F01002016811F10C03FF
:101E900043E800210029F2D1202180F842100021DE
:101EA0000163704700002DE9FE4F050028680169B5
:101EB00031F44051E868014328680161A968286944
:101EC000014368690143E86901432868C268B04872
:101ED000024011432868C1602868416931F44071AB
:101EE000A8690143286841612868AA49884203D04B
:101EF0002868A949884203D100F095FA040002E05D
:101F000000F086FA0400E869B0F5004F40F09F80C9
:101F10005FF0640A022600275FF019085FF00009ED
:101F200022000023A8FB020108FB031109FB021198
:101F3000CDE9000168680021A6FB002306FB013300
:101F400007FB0033DDE90001FFF7A8F86421B0FBCF
:101F5000F1F0029022000023A8FB020108FB03110C
:101F600009FB0211CDE9000168680021A6FB0023EE
:101F700006FB013307FB0033DDE90001FFF78EF8B4
:101F8000834622000023A8FB020108FB031109FB82
:101F90000211CDE9000168680021A6FB002306FBC1
:101FA000013307FB0033DDE90001FFF777F8642117
:101FB000B0FBF1F00AFB10B0C00032306421B0FB7E
:101FC000F1F0400010F4F870029910EB011002904B
:101FD00022000023A8FB020108FB031109FB0211E8
:101FE000CDE9000168680021A6FB002306FB013350
:101FF00007FB0033DDE90001FFF750F883462000BE
:10200000002102000B00A8FB020108FB031109FBE1
:1020100002116A68002390469946A6FB082306FB36
:10202000093307FB0833FFF739F86421B0FBF1F0FF
:102030000AFB10BA5FEACA0032306421B0FBF1F14A
:1020400011F0070102980918286881609CE00426B5
:1020500000275FF0640A5FF019085FF000092200B2
:102060000023A8FB020108FB031109FB0211CDE9C3
:10207000000168680021A6FB002306FB013307FB73
:102080000033DDE90001FFF709F86421B0FBF1F04E
:10209000029022000023A8FB020108FB031109FBA8
:1020A0000211CDE9000168680021A6FB002306FBB0
:1020B000013307FB0033DDE90001FEF7EFFF834644
:1020C00022000023A8FB020108FB031109FB0211F7
:1020D000CDE9000168680021A6FB002306FB01335F
:1020E00007FB0033DDE90001FEF7D8FF6421B0FBF8
:1020F000F1F00AFB10B0000132306421B0FBF1F0C6
:1021000010F0F000029910EB011002902200002361
:10211000A8FB020108FB031109FB0211CDE9000134
:1021200068680021A6FB002306FB013307FB003390
:10213000DDE90001FEF7B2FF834620000021020026
:102140000B00A8FB020108FB031109FB02116A68DE
:10215000002390469946A6FB082306FB093307FB9C
:102160000833FEF79BFF6421B0FBF1F00AFB10BAC5
:102170005FEA0A1032306421B0FBF1F111F00F0177
:102180000298091828688160BDE8F78F00000000F8
:10219000F369FFFF001001400014014081B00020EE
:1021A00000904048016851F480410160006810F4DB
:1021B000804000900098002000903B48016851F05A
:1021C00080510160006810F080500090009801B0CC
:1021D00070471FB504006846102100F07DF92068A3
:1021E000324988420ED1022000904FF48070039053
:1021F000684600F075F9002801D000F0C1FB01200D
:102200002B4908601FBD80B500682A49884213D158
:10221000002000902448016851F01001016000681E
:1022200010F010000090009800220021362000F0ED
:1022300014FC362000F022FC01BD10B586B004006D
:1022400001A8142100F048F920681B49884226D1D2
:10225000002000901348016851F0100101600068EF
:1022600010F01000009000980020009013480168C2
:1022700051F001010160006810F001000090009829
:102280004FF4C060019002200290002003900320D0
:1022900004900720059001A9094800F009FC06B048
:1022A00010BD000044380240403802400028004081
:1022B0003C0E474200100040001001403038024000
:1022C0000000024001480068704700BFA4010020E0
:1022D0002DE9F04104000E00002C01D1012092E014
:1022E000564D286810F00700B04207D22E702868BB
:1022F00010F00700B04201D0012084E02078800770
:1023000016D52078400704D54D48016851F4E051B6
:1023100001602078000704D54948016851F4604104
:10232000016047490A6832F0F002A06802430A607F
:102330002078C00735D56068012805D1414800687C
:10234000800313D401205EE06068022802D0606838
:10235000032805D13B480068800107D4012052E0E2
:1023600038480068800701D401204CE0344F3968B8
:1023700089088900606801433960FFF7A3FF804640
:10238000386810F00C006168B0EB810F09D0FFF7DE
:1023900099FFB0EB080041F289318842F0D3032065
:1023A00031E0286810F00700864207D22E702868B6
:1023B00010F00700B04201D0012024E0207840074F
:1023C00006D51F490A6832F4E052E06802430A6009
:1023D0002078000707D51A48016831F46041226966
:1023E00051EAC201016000F037F81749144A126837
:1023F000C2F30312895CC84014490860144800689D
:1024000000F072FC0020BDE8F081104800687047C1
:1024100080B5FFF7FAFF0F49094A1268C2F382221A
:10242000895CC84002BD80B5FFF7EFFF0949044A47
:102430001268C2F34232895CC84002BD003C0240CF
:102440000838024000380240283B00088400002081
:10245000800000206C3B000810B500200020002008
:1024600000201948006810F00C00002804D004284F
:1024700004D0082804D025E0144824E0144822E0C1
:10248000144C226812F03F022068400209D52068EF
:10249000C0F388100E49A1FB00010023FEF7FEFDEA
:1024A00008E02068C0F388100849A1FB0001002360
:1024B000FEF7F4FD2168C1F30141491C4900B0FB5E
:1024C000F1F000E0014810BD083802400024F4009B
:1024D00040787D0104380240002200F02BBC00004F
:1024E000F8B5040000200020207810F0050F29D056
:1024F000DFF8185100202860FFF7E4FE0700DFF83E
:1025000010613068000106D5FFF7DCFEC01B032810
:10251000F5D3032079E06068A168090751EA8011CA
:10252000DFF8F000016001202860FFF7CBFE050016
:102530003068000106D4FFF7C5FE401B0328F7D31F
:10254000032062E0207880075ED5002000903248AA
:10255000016851F080510160006810F080500090D7
:1025600000982E4E306850F480703060FFF7AAFE5D
:1025700005003068C00506D4FFF7A4FE401B032801
:10258000F7D3032041E0264D286810F4407000285E
:102590001FD0E16811F4407188421AD0286830F4E5
:1025A0004070204901220A6000220A6028602868E1
:1025B000C0070ED5FFF786FE06002868800708D4FE
:1025C000FFF780FE801B41F289318842F5D303205A
:1025D0001BE0E06810F44070B0F5407F09D112496B
:1025E0000A6832F4F812E368104803401A430A609C
:1025F00004E00D48016831F4F81101602868E168D1
:102600000905090D084328600020F2BD6800474213
:1026100000380240843802404038024000700040D8
:1026200070380240400E474208380240FFFCFF0F5E
:1026300001B500980A280AD10D2000904FF6FF73CB
:1026400001226946BC48FFF75CFB0A2000904FF668
:10265000FF7301226946B848FFF753FB009802BD9B
:1026600010B5B6490A780A2A02DB00220A7002E095
:102670000A78521C0A700068B14988420AD1B14CEC
:102680004FF40051200000F008FB4FF4805120006F
:1026900000F003FB10BD7FB500F066FB00F033F8DF
:1026A00000F0F5F800F076F800F0B0F800F0D5F89A
:1026B000A54800F0AAFBA54C200000F01DFDA44891
:1026C00000F01AFD200000F017FDA24CA24D0022E0
:1026D0002900200000F078FEA04E002231002000EA
:1026E00000F0E6FDB07802907078019030780090AC
:1026F000AB786A78E9789A4800F0FEFC4FF47A707B
:1027000000F000FFE1E780B592B006A83021FFF7A6
:10271000E3FE01A81421FFF7DFFE0020009091489E
:10272000016851F080510160006810F08050009005
:102730000098002000908C48016851F480410160AD
:10274000006810F480400090009806200690052054
:1027500008900120099010200A9000200C9006A8F3
:1027600000F0E4FE002801D000F00AF90F200190EB
:10277000002002900020039000200490002005908B
:10278000002101A8FFF7A4FD002801D000F0F8F80F
:1027900013B000BD10B56F4C74482060002060601D
:1027A0007F20A060FF20E0600020206100206061A9
:1027B0000020A061200000F0B3FC002801D000F050
:1027C000DFF86649112008700020487000208870EA
:1027D0000020C860002008610122200000F0FDFCFC
:1027E000002801D000F0CCF85B49012008700720D8
:1027F0004870032088701820C8700122200000F063
:1028000088FD002801D000F0BBF810BD1CB5584869
:10281000D0E90023CDE900234B4C494820604FF418
:10282000487060600020A0604FF4FA60E060002013
:10283000A061200000F0B2FA002801D000F0A0F85A
:1028400000200090002001906946200001F050F81F
:10285000002801D000F094F813BD80B536484549F2
:1028600001605FF461214160002181600021C1604D
:10287000002101610C214161002181610021C161C0
:10288000FFF702FA002801D000F07AF801BD10B578
:1028900086B001A81421FFF71FFE002000903648E3
:1028A000016851F004010160016811F00401009118
:1028B000009900210091016851F001010160016857
:1028C00011F001010091009900210091016851F07F
:1028D00040010160016811F0400100910099002160
:1028E0000091016851F002010160006810F00200DF
:1028F00000900098134C00224FF44051200000F04B
:10290000C2F94FF4007001905FF48810029000202B
:10291000039001A9194800F0CBF84FF44050019002
:1029200001200290002003900020049001A92000C3
:1029300000F0BEF806B010BD24010020AC0100205C
:102940000010004000180240DC000020383A000867
:10295000143B00086C010020A00100208C01002025
:10296000D83A00084038024000700040002800407B
:10297000643B000800100140303802400000024073
:1029800072B6FEE710F00700414B1A684FF6FF01E0
:102990000A40404951EA00210A431A6070473C4806
:1029A0000068C0F302207047010049B2002908D432
:1029B000012210F01F018A40374940B2400941F816
:1029C00020207047020052B2002A04D40901334A81
:1029D00040B2115407E00901314A40B210F00F0033
:1029E000104400F8041C704710B410F00700D0F138
:1029F0000703052B01D3042301E0D0F10703041DD5
:102A0000072C01D2002000E0C01E012414FA03F3B9
:102A10005B1E1940814014FA00F0401E104008432C
:102A200010BC704780B5411EB1F1807F01D30120F9
:102A30000EE0401E1B4908600F215FF0FF30FFF7DA
:102A4000C1FF0020184908600720184908600020CD
:102A500002BD80B5FFF796FF01BD70B504000D0003
:102A600016000020FFF79BFF32002900FFF7BCFF94
:102A70000100200040B2FFF7A5FF70BD80B540B255
:102A8000FFF792FF01BD80B5FFF7CCFF02BD00004C
:102A90000CED00E00000FA0500E100E000E400E0D9
:102AA00018ED00E014E000E018E000E010E000E0C5
:102AB000F8B4002200220022002337E0082704E0B7
:102AC000DFF8EC219042F9D10727FFB213F003029F
:102AD000D2B2920097403E431A00920845F8226015
:102AE000DFF8D0512A68A2434E68F60200D522438F
:102AF0002A60DFF8C4512A68A2434E68B60200D5A6
:102B000022432A60DFF8B4512A68A2434E68B60314
:102B100000D522432A60DFF8A8512A68A2434E68F4
:102B2000F60301D5144322002A605B1C102B80F0B1
:102B3000A880012515FA03F20C6814409442F4D1E0
:102B40000A7912F00302012A04D00A7912F0030272
:102B5000022A16D1866803271A00D2B25200974083
:102B6000BE43CF681A00D2B2520097403E438660FF
:102B700042689D40AA434D68C5F300159D402A4315
:102B800042600A7912F00302032A0DD0C5680326B9
:102B90001A00D2B252009640B5438E681A00D2B2E3
:102BA000520096403543C5600A7912F00302022AAA
:102BB00017D11A00D20800EB8202156A0F2613F013
:102BC0000702D2B292009640B5430E6913F0070295
:102BD000D2B29200964035431A00D20800EB82022E
:102BE0001562056803261A00D2B252009640B5431A
:102BF0000E7916F003061A00D2B252009640354301
:102C000005604A6812F4403F8FD0002200922D4A9E
:102C1000156855F480451560126812F480420092E0
:102C2000009A294D1A00920855F822600F2713F0D8
:102C30000302D2B292009740BE43244A904201D18F
:102C4000002742E7224A904201D101273DE7214A6D
:102C5000904201D1022738E71F4A904201D1032751
:102C600033E71E4A904201D104272EE71C4A9042C6
:102C700001D1052729E71B4A90427FF421AF06279F
:102C800023E7F1BC7047D2B2002A02D089B2816139
:102C900002E089B209048161704742690B009BB26E
:102CA000134089B2914351EA0341816170470000AA
:102CB000001C0240083C01400C3C0140043C014027
:102CC000003C014044380240083801400000024006
:102CD0000004024000080240000C024000100240C4
:102CE000001402400018024010B504004FF47A703E
:102CF0000D490978B0FBF1F00C490968B1FBF0F01F
:102D0000FFF7C1FE002801D001200CE0102C09D2F1
:102D1000002221005FF0FF30FFF79FFE04480460AF
:102D2000002000E0012010BD880000208400002069
:102D30008000002000B500BF13009646944610396D
:102D400028BFA0E80C50FAD85FEA417C28BF0CC02D
:102D500048BF40F8042BC90728BF20F8022B48BF02
:102D600000F8012B00BD000080B50B48016851F44C
:102D700000710160016851F480610160016851F4E3
:102D8000807101600320FFF764FE0F20FFF7ACFFA6
:102D9000FFF704FA002002BD003C024010B5040019
:102DA000002C01D101202FE094F83D00002805D12E
:102DB000002084F83C002000FFF725FA022084F868
:102DC0003D00211D206800F018F9012084F846001C
:102DD000012084F83E00012084F83F00012084F89F
:102DE0004000012084F84100012084F842000120C5
:102DF00084F84300012084F84400012084F8450051
:102E0000012084F83D00002010BD90F83D100129FC
:102E100001D0012043E0022180F83D100168C9681B
:102E200051F001010268D1600168DFF8742091421D
:102E300021D00168B1F1804F1DD00168DFF8642016
:102E4000914218D00168DFF86020914213D00168E8
:102E5000DFF8582091420ED00168DFF854209142EB
:102E600009D00168DFF84C20914204D00168DFF8F6
:102E7000482091420CD10168896811F007010629A8
:102E80000CD00168096851F001010068016005E09B
:102E90000168096851F00101006801600020704775
:102EA000000001400004004000080040000C004009
:102EB00000040140004001400018004070B50400CB
:102EC0002068C56820680669B00718D5A80716D518
:102ED0007FF0020021680861012020772068806966
:102EE00010F0030F03D0200000F056FD05E0200095
:102EF00000F053FD200000F051FD00202077700706
:102F000018D5680716D57FF00400216808610220F3
:102F100020772068806910F4407F03D0200000F003
:102F20003BFD05E0200000F038FD200000F036FDFC
:102F300000202077300718D5280716D57FF0080025
:102F400021680861042020772068C06910F0030F11
:102F500003D0200000F020FD05E0200000F01DFD62
:102F6000200000F01BFD00202077F00618D5E806B1
:102F700016D57FF0100021680861082020772068AE
:102F8000C06910F4407F03D0200000F005FD05E08B
:102F9000200000F002FD200000F000FD002020775E
:102FA000F00708D5E80706D57FF001002168086121
:102FB0002000FFF755FB300608D5280606D57FF020
:102FC000800021680861200000F0E9FC700608D547
:102FD000680606D57FF0400021680861200000F0F7
:102FE000DFFCB00608D5A80606D57FF020002168D2
:102FF0000861200000F0D5FC70BD10B40468DFF853
:10300000CC30984212D0B0F1804F0FD0DFF8C02002
:1030100090420BD0DFF8BC20904207D0DFF8B820F8
:10302000904203D0DFF8B420904203D134F0700412
:103030004A681443984229D0B0F1804F26D0DFF877
:103040009020904222D0DFF88C2090421ED0DFF8F2
:10305000882090421AD0DFF88420904216D0DFF802
:103060008020904212D0DFF87C2090420ED0DFF812
:10307000782090420AD0DFF87420904206D0DFF822
:103080007020904202D01B4A904203D134F4407425
:10309000CA68144334F080044A69144304608A689F
:1030A000C2620A688262984202D00C4A904201D100
:1030B00009690163012141610169C90703D50169FA
:1030C00049084900016110BC704700000000014040
:1030D0000004004000080040000C004000040140D3
:1030E00000400140004401400048014000180040F9
:1030F000001C0040002000400EB4C0B5024603A8EA
:1031000000210190009101AB0121044878440C306A
:10311000FDF73AF806BC5DF810FB00BFD5090000CA
:1031200010B504000120002C01D1012054E0607F83
:10313000002804D1002020772000FFF74AF8022061
:1031400060772068C068C0063ED4CA202168486203
:10315000532021684862200000F07EF90100C9B2C6
:1031600000291DD120688168DFF8DC020140206859
:103170008160206881686268206902436069024357
:10318000114320688160E068216808612068006957
:10319000A16850EA014021680861200000F083F92D
:1031A0000100C9B200290BD12168096C31F48021DA
:1031B0002268116421680A6CA1690A4321680A64C3
:1031C000FF212268516200E000200100C9B20029FD
:1031D00001D101216177C0B210BDF8B504000D0026
:1031E0000020207F012801D1022060E0012020770B
:1031F00002206077002A1BD120688068400601D435
:103200000020E870287800F066F90700687800F080
:1032100062F90600A87800F05EF9FFB2F6B2360255
:1032200056EA0746C0B20643E87856EA80560FE0F1
:1032300020688068400601D40020E87028786E7805
:10324000360256EA0046A8780643E87856EA8056E1
:10325000CA2021684862532021684862200000F09B
:10326000FBF80100C9B2002915D1DFF8E0010640E2
:10327000206806602068806830F4802021688860BB
:1032800020688168EA6828690243114320688160E8
:10329000200000F008F90100C9B2002901D1012184
:1032A0006177FF212268516200212177C0B2F2BD0F
:1032B00010B50C0000210168896A61600168096924
:1032C0004904490CA16000680168DFF880010140F1
:1032D0000800000C10F03F0020700800000A10F0F9
:1032E0007F00607011F07F00A070890D11F0010166
:1032F000E170002A0BD1207800F0F9F82070607896
:1033000000F0F5F86070A07800F0F1F8A0700020EF
:1033100010BDF8B504000D000020207F012801D168
:10332000022050E00120207702206077002A07D198
:103330006878C00604D5687810F0EF000A3068702D
:10334000002A15D1E87800F0C6F80700687800F088
:10335000C2F80600A87800F0BEF8FFB2F6B2360256
:1033600056EA0746C0B20643287856EA403609E0D6
:10337000E8786E78360256EA0046A8780643287840
:1033800056EA4036CA2021684862532021684862C4
:10339000200000F061F80100C9B2002907D1DFF870
:1033A000B000064020684660200000F07CF8010074
:1033B000C9B2002901D101216177FF212268516240
:1033C00000212177C0B2F2BD10B50C0000210068C9
:1033D0004168DFF87C0001400800000CE070080044
:1033E000000A10F01F00607011F03F00A070490B40
:1033F00011F007012170002A0BD1E07800F077F876
:10340000E070607800F073F86070A07800F06FF8FA
:10341000A070002010BD38B5040000200D482168C0
:10342000C860FEF74FFF05002068C068800608D41A
:10343000FEF748FF401B40F2E9318842F4D30320F5
:1034400000E0002032BD0000BFFF8FFF7F7F7F00C4
:103450003FFFFF005F7F010070B5040000200025E2
:103460002068C06840061BD42068C06850F0800007
:103470002168C860FEF726FF060009E0FEF722FF7C
:10348000801B40F2E931884202D304206077012595
:103490002068C068400603D42800C0B20128EDD1DE
:1034A0002800C0B270BD38B5040000252068C0688F
:1034B00030F080002168C86020688068800607D4EA
:1034C0002000FFF7A8FF002802D004206077012524
:1034D0002800C0B232BD002101E0491C0A380200B8
:1034E000D2B20A2AF9D250EA0110C0B270470021C4
:1034F0000200D2B212090A214A4310F00F008018CC
:10350000C0B2704738B50400FEF7DCFE050014F1C8
:10351000010F02D0044800782418FEF7D3FE401BA8
:10352000A042FAD331BD00BF880000202DE9FC4144
:103530000400002C01D10120C4E12078C0075FD530
:10354000DFF88403016811F00C01042909D0006838
:1035500010F00C0008280ED1DFF87003006840025C
:1035600009D5DFF86C030068800349D5606800283E
:1035700046D10120A6E16068B0F5803F06D1DFF8B2
:103580005003016851F48031016018E06068B0F5C3
:10359000A02F0AD1DFF83803016851F480210160BF
:1035A000016851F48031016009E0DFF8240301680B
:1035B00031F480310160016831F48021016060687C
:1035C00000280ED0FEF77EFE0500DFF80403006839
:1035D000800315D4FEF776FE401B6528F5D3032043
:1035E00070E1FEF76FFE0500DFF8E402006880037B
:1035F00006D5FEF767FE401B6528F5D3032061E181
:10360000207880071DD5B048016811F00C0F08D054
:10361000006810F00C0008282AD1AC48006840026D
:1036200026D4AB480168890704D5E168012901D097
:10363000012047E1016831F0F801226951EAC20135
:1036400001602078000751D5606900283DD0012035
:10365000A0490860FEF736FE05009F480068800715
:1036600044D4FEF72FFE401B0328F6D3032029E1A4
:10367000E068002818D0012098490860FEF722FE73
:10368000050093480168890706D4FEF71BFE401B1E
:103690000328F6D3032015E1016831F0F80122690F
:1036A00051EAC2010160CCE700208C490860FEF7B6
:1036B00009FE0500864800688007C2D5FEF702FEB5
:1036C000401B0328F6D30320FCE00020814908605A
:1036D000FEF7F8FD050080480068800706D5FEF774
:1036E000F1FD401B0328F6D30320EBE020784007D0
:1036F0006FD500267A4D2868C0000BD400200090BA
:10370000286850F080502860286810F080500090A1
:1037100000980126734F3868C00511D4386850F4FA
:1037200080703860FEF7CEFD80463868C00507D44B
:10373000FEF7C8FDB0EB08000328F6D30320C1E074
:10374000A068012805D16848016851F001010160B5
:1037500015E0A068052809D16348016851F004010B
:103760000160016851F00101016008E05E480168F4
:10377000490849000160016831F004010160A06856
:1037800000280FD0FEF79EFD07005748006880070D
:1037900018D4FEF797FDC01B41F289318842F4D35B
:1037A00003208FE0FEF78EFD07004F48006880077A
:1037B00008D5FEF787FDC01B41F289318842F4D35A
:1037C00003207FE0F6B2012E03D1286830F080504C
:1037D0002860A069002874D03B48006810F00C00F5
:1037E000082843D0A06902282FD1404E0020306025
:1037F000FEF768FD0700364D2868800106D5FEF704
:1038000061FDC01B0328F6D303205BE0E169206A59
:103810000143606A51EA8011A06A4008401E51EAE3
:103820000041E06A51EA00612848016001203060EF
:10383000FEF748FD04002868800142D4FEF742FDEF
:10384000001B0328F7D303203CE000202749086031
:10385000FEF738FD04001E480068800131D5FEF7F0
:1038600031FD001B0328F6D303202BE0A0690128BB
:1038700001D1012026E015480068A16901291ED068
:1038800010F48001E269914219D110F03F01226ADF
:10389000914214D147F6C0710140626AB1EB821FB8
:1038A0000DD110F44031A26A5208521EB1EB024F02
:1038B00005D110F07060E16AB0EB016F01D001201A
:1038C00000E00020BDE8F6810838024004380240DC
:1038D00000380240800E47427438024000004742E0
:1038E000403802400070004070380240600047429B
:1038F00010B490F83C20012A01D102203CE00122C2
:1039000080F83C20022280F83D200268546802685A
:10391000936834F070040A681443026854600268C3
:10392000164CA2421BD00268B2F1804F17D0026839
:10393000134CA24213D00268124CA2420FD002686C
:10394000114CA2420BD00268104CA24207D0026870
:103950000F4CA24203D002680E4CA24205D133F0B4
:10396000800349680B4301688B60012180F83D109A
:10397000002180F83C10002010BC7047000001407E
:103980000004004000080040000C0040000401401A
:103990000040014000180040704770477047704772
:1039A0007047704730B450F8041B79B1026843681F
:1039B00002440830DC0744BFA9F10104E31852F8BF
:1039C000045B43F8045B091FF9D1ECE730BC704796
:1039D000FEE7FEE7FEE7FEE7FEE770477047704749
:1039E00080B500F009F801BD80B50248FFF766FA1E
:1039F00001BD0000DC00002003480168034A127882
:103A000089180160704700BFA401002088000020D1
:103A100010B5074979441831064C7C44163404E04B
:103A20000A68081D114488470146A142F8D110BD1B
:103A300050000000700000002A2A2A2A2A2A2A2A76
:103A40002A2A2A2A2A2A2A2A2A2A2A2A2A2A2A2AD6
:103A50002A2A2A2A2A2A0D0A0D0A00004EF688511F
:103A6000CEF20001086840F470000860BFF34F8F89
:103A7000BFF36F8F4FF00070E1EE100A7047000047
:103A8000FBD4FFFF240100008C0000200000000098
:103A900015FFFFFF8C000000200200000000002046
:103AA0000000000000F00DF8002801D0FFF7B0FF83
:103AB000AFF300800020AFF30080FEF7ECFD00F0D4
:103AC00002F80120704700F001B8000007463846B0
:103AD000FEF7D0F8FBE70000323025642D25642D79
:103AE00025640925643A25643A25640D0A0000001E
:103AF00038B504460D46284600F006F8A84218BF1F
:103B00000024204632BD00000149FEF791BD00BFF0
:103B10000000002055534152545F5254435F5445B6
:103B20005354210D0A0D0A0000000000000000009F
:103B300001020304060708090148804701480047BD
:103B4000493B0008593B00080248016851F47001E4
:103B50000160704788ED00E0AFF30080FFF77EFF63
:103B6000FFF7A0FF000000000000000000000000C0
:103B70000102030400002E00FFF7FEBFFFF7FEBFA7
:103B8000FFF7FEBFFFF7FEBFFFF7FEBFFFF7FEBF69
:103B9000FFF7FEBFFFF7FEBFFFF7FEBFFFF7FEBF59
:103BA000FFF7FEBFFFF7FEBFFFF7FEBFFFF7FEBF49
:103BB000FFF7FEBFFFF7FEBFFFF7FEBFFFF7FEBF39
:103BC000FFF7FEBFFFF7FEBFFFF7FEBFFFF7FEBF29
:103BD000FFF7FEBFFFF7FEBFFFF7FEBFFFF7FEBF19
:103BE000FFF7FEBFFFF7FEBFFFF7FEBFFFF7FEBF09
:103BF000FFF7FEBFFFF7FEBFFFF7FEBFFFF7FEBFF9
:103C0000FFF7FEBFFFF7FEBFFFF7FEBFFFF7FEBFE8
:103C1000FFF7FEBFFFF7FEBFFFF7FEBFFFF7FEBFD8
:103C2000FFF7FEBFFFF7FEBFFFF7FEBFFFF7FEBFC8
:103C3000FFF7FEBFFFF7FEBFFFF7FEBFFFF7FEBFB8
:103C4000FFF7FEBFFFF7FEBFFFF7FEBFFFF7FEBFA8
:103C5000FFF7FEBFFFF7FEBFFFF7FEBFFFF7FEBF98
:103C6000FFF7FEBFFFF7FEBFFFF7FEBFFFF7FEBF88
:103C7000FFF7FEBFFFF7FEBFFFF7FEBFFFF7FEBF78
:103C8000FFF7FEBFFFF7FEBFFFF7FEBFFFF7FEBF68
:103C9000FFF7FEBFFFF7FEBFFFF7FEBFFFF7FEBF58
:103CA000FFF7FEBFFFF7FEBFFFF7FEBFFFF7FEBF48
:103CB000FFF7FEBFFFF7FEBF020401018C000020EA
:103CC000DC0000208C0000208C00002000000000A0
:103CD0008C00002000000000440000203000002084
:103CE00000000000000000000000000000000000D4
:103CF00000000000000000000000000000000000C4
:103D0000743B0008743B0008743B0008743B0008D7
:103D1000743B0008743B0008743B0008FFFFFFFF82
:103D2000FFFFFFFF763B0008743B0008743B000870
:103D3000FFFFFFFFFFFF0000100000000024F40061
:043D4000010000007E
:0400000508003B595B
:00000001FF
